{"contracts/GenerateNFTOnlinePresaleReveal.sol":{"GenerateNFTOnlinePresaleReveal":{"abi":[{"inputs":[{"internalType":"string","name":"_uri","type":"string"},{"internalType":"string","name":"_name","type":"string"},{"internalType":"string","name":"_symbol","type":"string"},{"internalType":"uint32","name":"_totalSupply","type":"uint32"},{"internalType":"uint256","name":"_cost","type":"uint256"},{"internalType":"bool","name":"_open","type":"bool"}],"stateMutability":"nonpayable","type":"constructor"},{"anonymous":false,"inputs":[{"indexed":true,"internalType":"address","name":"owner","type":"address"},{"indexed":true,"internalType":"address","name":"approved","type":"address"},{"indexed":true,"internalType":"uint256","name":"tokenId","type":"uint256"}],"name":"Approval","type":"event"},{"anonymous":false,"inputs":[{"indexed":true,"internalType":"address","name":"owner","type":"address"},{"indexed":true,"internalType":"address","name":"operator","type":"address"},{"indexed":false,"internalType":"bool","name":"approved","type":"bool"}],"name":"ApprovalForAll","type":"event"},{"anonymous":false,"inputs":[{"indexed":true,"internalType":"address","name":"previousOwner","type":"address"},{"indexed":true,"internalType":"address","name":"newOwner","type":"address"}],"name":"OwnershipTransferred","type":"event"},{"anonymous":false,"inputs":[{"indexed":true,"internalType":"address","name":"from","type":"address"},{"indexed":true,"internalType":"address","name":"to","type":"address"},{"indexed":true,"internalType":"uint256","name":"tokenId","type":"uint256"}],"name":"Transfer","type":"event"},{"inputs":[{"internalType":"address[]","name":"to","type":"address[]"}],"name":"airdrop","outputs":[],"stateMutability":"nonpayable","type":"function"},{"inputs":[{"internalType":"address","name":"to","type":"address"},{"internalType":"uint256","name":"tokenId","type":"uint256"}],"name":"approve","outputs":[],"stateMutability":"nonpayable","type":"function"},{"inputs":[{"internalType":"address","name":"owner","type":"address"}],"name":"balanceOf","outputs":[{"internalType":"uint256","name":"","type":"uint256"}],"stateMutability":"view","type":"function"},{"inputs":[],"name":"cost","outputs":[{"internalType":"uint256","name":"","type":"uint256"}],"stateMutability":"view","type":"function"},{"inputs":[{"internalType":"address","name":"_contract","type":"address"},{"internalType":"uint32","name":"_maxTokenID","type":"uint32"}],"name":"getAllBTCWalletAddresses","outputs":[{"internalType":"string","name":"","type":"string"}],"stateMutability":"view","type":"function"},{"inputs":[{"internalType":"uint256","name":"tokenId","type":"uint256"}],"name":"getApproved","outputs":[{"internalType":"address","name":"","type":"address"}],"stateMutability":"view","type":"function"},{"inputs":[],"name":"getBTCWalletAddress","outputs":[{"internalType":"string","name":"","type":"string"}],"stateMutability":"view","type":"function"},{"inputs":[],"name":"getBaseUri","outputs":[{"internalType":"string","name":"","type":"string"}],"stateMutability":"view","type":"function"},{"inputs":[],"name":"getCommission","outputs":[{"internalType":"uint32","name":"","type":"uint32"}],"stateMutability":"view","type":"function"},{"inputs":[{"internalType":"address","name":"_contract","type":"address"},{"internalType":"uint32","name":"_maxTokenID","type":"uint32"}],"name":"getOverviewOfAllOwnersWithTokenAmount","outputs":[{"internalType":"string","name":"","type":"string"}],"stateMutability":"view","type":"function"},{"inputs":[],"name":"harvested","outputs":[{"internalType":"bool","name":"","type":"bool"}],"stateMutability":"view","type":"function"},{"inputs":[{"internalType":"address","name":"owner","type":"address"},{"internalType":"address","name":"operator","type":"address"}],"name":"isApprovedForAll","outputs":[{"internalType":"bool","name":"","type":"bool"}],"stateMutability":"view","type":"function"},{"inputs":[],"name":"maxPerMint","outputs":[{"internalType":"uint32","name":"","type":"uint32"}],"stateMutability":"view","type":"function"},{"inputs":[],"name":"maxPerWallet","outputs":[{"internalType":"uint32","name":"","type":"uint32"}],"stateMutability":"view","type":"function"},{"inputs":[{"internalType":"uint32","name":"count","type":"uint32"}],"name":"mint","outputs":[],"stateMutability":"payable","type":"function"},{"inputs":[],"name":"name","outputs":[{"internalType":"string","name":"","type":"string"}],"stateMutability":"view","type":"function"},{"inputs":[],"name":"open","outputs":[{"internalType":"bool","name":"","type":"bool"}],"stateMutability":"view","type":"function"},{"inputs":[],"name":"owner","outputs":[{"internalType":"address","name":"","type":"address"}],"stateMutability":"view","type":"function"},{"inputs":[{"internalType":"uint256","name":"tokenId","type":"uint256"}],"name":"ownerOf","outputs":[{"internalType":"address","name":"","type":"address"}],"stateMutability":"view","type":"function"},{"inputs":[{"internalType":"uint32","name":"count","type":"uint32"},{"internalType":"bytes32[]","name":"proof","type":"bytes32[]"}],"name":"presaleMint","outputs":[],"stateMutability":"payable","type":"function"},{"inputs":[],"name":"presaleOpen","outputs":[{"internalType":"bool","name":"","type":"bool"}],"stateMutability":"view","type":"function"},{"inputs":[],"name":"renounceOwnership","outputs":[],"stateMutability":"nonpayable","type":"function"},{"inputs":[],"name":"reveal","outputs":[],"stateMutability":"nonpayable","type":"function"},{"inputs":[],"name":"revealed","outputs":[{"internalType":"bool","name":"","type":"bool"}],"stateMutability":"view","type":"function"},{"inputs":[{"internalType":"address","name":"from","type":"address"},{"internalType":"address","name":"to","type":"address"},{"internalType":"uint256","name":"tokenId","type":"uint256"}],"name":"safeTransferFrom","outputs":[],"stateMutability":"nonpayable","type":"function"},{"inputs":[{"internalType":"address","name":"from","type":"address"},{"internalType":"address","name":"to","type":"address"},{"internalType":"uint256","name":"tokenId","type":"uint256"},{"internalType":"bytes","name":"_data","type":"bytes"}],"name":"safeTransferFrom","outputs":[],"stateMutability":"nonpayable","type":"function"},{"inputs":[{"internalType":"address","name":"operator","type":"address"},{"internalType":"bool","name":"approved","type":"bool"}],"name":"setApprovalForAll","outputs":[],"stateMutability":"nonpayable","type":"function"},{"inputs":[{"internalType":"string","name":"_addressBTC","type":"string"}],"name":"setBTCWalletAddress","outputs":[],"stateMutability":"nonpayable","type":"function"},{"inputs":[{"internalType":"string","name":"_baseUri","type":"string"}],"name":"setBaseUri","outputs":[],"stateMutability":"nonpayable","type":"function"},{"inputs":[{"internalType":"uint32","name":"_commission","type":"uint32"}],"name":"setCommission","outputs":[],"stateMutability":"nonpayable","type":"function"},{"inputs":[{"internalType":"uint256","name":"_cost","type":"uint256"}],"name":"setCost","outputs":[],"stateMutability":"nonpayable","type":"function"},{"inputs":[{"internalType":"uint32","name":"_max","type":"uint32"}],"name":"setMaxPerMint","outputs":[],"stateMutability":"nonpayable","type":"function"},{"inputs":[{"internalType":"uint32","name":"_max","type":"uint32"}],"name":"setMaxPerWallet","outputs":[],"stateMutability":"nonpayable","type":"function"},{"inputs":[{"internalType":"uint256","name":"_cost","type":"uint256"},{"internalType":"uint32","name":"_maxPerWallet","type":"uint32"},{"internalType":"uint32","name":"_maxPerMint","type":"uint32"},{"internalType":"uint32","name":"_commission","type":"uint32"},{"internalType":"bool","name":"_open","type":"bool"}],"name":"setMultiple","outputs":[],"stateMutability":"nonpayable","type":"function"},{"inputs":[{"internalType":"bool","name":"_open","type":"bool"}],"name":"setOpen","outputs":[],"stateMutability":"nonpayable","type":"function"},{"inputs":[{"internalType":"bytes32","name":"root","type":"bytes32"}],"name":"setPreSaleAddresses","outputs":[],"stateMutability":"nonpayable","type":"function"},{"inputs":[{"internalType":"bool","name":"_open","type":"bool"}],"name":"setPresaleOpen","outputs":[],"stateMutability":"nonpayable","type":"function"},{"inputs":[{"internalType":"string","name":"_uri","type":"string"}],"name":"setUnrevealedURI","outputs":[],"stateMutability":"nonpayable","type":"function"},{"inputs":[],"name":"supply","outputs":[{"internalType":"uint32","name":"","type":"uint32"}],"stateMutability":"view","type":"function"},{"inputs":[{"internalType":"bytes4","name":"interfaceId","type":"bytes4"}],"name":"supportsInterface","outputs":[{"internalType":"bool","name":"","type":"bool"}],"stateMutability":"view","type":"function"},{"inputs":[],"name":"symbol","outputs":[{"internalType":"string","name":"","type":"string"}],"stateMutability":"view","type":"function"},{"inputs":[],"name":"toggleHarvestStatus","outputs":[],"stateMutability":"nonpayable","type":"function"},{"inputs":[{"internalType":"uint256","name":"_tokenId","type":"uint256"}],"name":"tokenURI","outputs":[{"internalType":"string","name":"","type":"string"}],"stateMutability":"view","type":"function"},{"inputs":[],"name":"totalSupply","outputs":[{"internalType":"uint32","name":"","type":"uint32"}],"stateMutability":"view","type":"function"},{"inputs":[{"internalType":"address","name":"from","type":"address"},{"internalType":"address","name":"to","type":"address"},{"internalType":"uint256","name":"tokenId","type":"uint256"}],"name":"transferFrom","outputs":[],"stateMutability":"nonpayable","type":"function"},{"inputs":[{"internalType":"address","name":"newOwner","type":"address"}],"name":"transferOwnership","outputs":[],"stateMutability":"nonpayable","type":"function"},{"inputs":[{"internalType":"address","name":"_wallet","type":"address"},{"internalType":"address","name":"_contract","type":"address"}],"name":"walletHoldsTokenAmount","outputs":[{"internalType":"uint256","name":"","type":"uint256"}],"stateMutability":"view","type":"function"},{"inputs":[{"internalType":"address","name":"_wallet","type":"address"},{"internalType":"address","name":"_contract","type":"address"},{"internalType":"uint32","name":"_maxTokenID","type":"uint32"}],"name":"walletIsOwnerOfToken","outputs":[{"internalType":"string","name":"","type":"string"}],"stateMutability":"view","type":"function"},{"inputs":[],"name":"withdraw","outputs":[],"stateMutability":"payable","type":"function"}],"evm":{"bytecode":{"linkReferences":{},"object":"6080604052670429d069189e00006008556005600960006101000a81548163ffffffff021916908363ffffffff1602179055506014600960046101000a81548163ffffffff021916908363ffffffff1602179055506000600960086101000a81548163ffffffff021916908363ffffffff16021790555060006009600c6101000a81548163ffffffff021916908363ffffffff1602179055506000600960106101000a81548160ff0219169083151502179055506000600c60006101000a81548160ff0219169083151502179055506032600c60016101000a81548163ffffffff021916908363ffffffff16021790555073268e1fee56498cc24758864aa092f870e8220f74600c60056101000a81548173ffffffffffffffffffffffffffffffffffffffff021916908373ffffffffffffffffffffffffffffffffffffffff1602179055506000600c60196101000a81548160ff0219169083151502179055506000600e60006101000a81548160ff0219169083151502179055503480156200018857600080fd5b50604051620068c4380380620068c48339818101604052810190620001ae91906200057c565b85858585858584848160009081620001c79190620008b6565b508060019081620001d99190620008b6565b505050620001fc620001f06200026260201b60201c565b6200026a60201b60201c565b85600790816200020d9190620008b6565b50826009600c6101000a81548163ffffffff021916908363ffffffff1602179055508160088190555080600960106101000a81548160ff0219169083151502179055505050505050505050505050506200099d565b600033905090565b6000600660009054906101000a900473ffffffffffffffffffffffffffffffffffffffff16905081600660006101000a81548173ffffffffffffffffffffffffffffffffffffffff021916908373ffffffffffffffffffffffffffffffffffffffff1602179055508173ffffffffffffffffffffffffffffffffffffffff168173ffffffffffffffffffffffffffffffffffffffff167f8be0079c531659141344cd1fd0a4f28419497f9722a3daafe3b4186f6b6457e060405160405180910390a35050565b6000604051905090565b600080fd5b600080fd5b600080fd5b600080fd5b6000601f19601f8301169050919050565b7f4e487b7100000000000000000000000000000000000000000000000000000000600052604160045260246000fd5b62000399826200034e565b810181811067ffffffffffffffff82111715620003bb57620003ba6200035f565b5b80604052505050565b6000620003d062000330565b9050620003de82826200038e565b919050565b600067ffffffffffffffff8211156200040157620004006200035f565b5b6200040c826200034e565b9050602081019050919050565b60005b83811015620004395780820151818401526020810190506200041c565b60008484015250505050565b60006200045c6200045684620003e3565b620003c4565b9050828152602081018484840111156200047b576200047a62000349565b5b6200048884828562000419565b509392505050565b600082601f830112620004a857620004a762000344565b5b8151620004ba84826020860162000445565b91505092915050565b600063ffffffff82169050919050565b620004de81620004c3565b8114620004ea57600080fd5b50565b600081519050620004fe81620004d3565b92915050565b6000819050919050565b620005198162000504565b81146200052557600080fd5b50565b60008151905062000539816200050e565b92915050565b60008115159050919050565b62000556816200053f565b81146200056257600080fd5b50565b60008151905062000576816200054b565b92915050565b60008060008060008060c087890312156200059c576200059b6200033a565b5b600087015167ffffffffffffffff811115620005bd57620005bc6200033f565b5b620005cb89828a0162000490565b965050602087015167ffffffffffffffff811115620005ef57620005ee6200033f565b5b620005fd89828a0162000490565b955050604087015167ffffffffffffffff8111156200062157620006206200033f565b5b6200062f89828a0162000490565b94505060606200064289828a01620004ed565b93505060806200065589828a0162000528565b92505060a06200066889828a0162000565565b9150509295509295509295565b600081519050919050565b7f4e487b7100000000000000000000000000000000000000000000000000000000600052602260045260246000fd5b60006002820490506001821680620006c857607f821691505b602082108103620006de57620006dd62000680565b5b50919050565b60008190508160005260206000209050919050565b60006020601f8301049050919050565b600082821b905092915050565b600060088302620007487fffffffffffffffffffffffffffffffffffffffffffffffffffffffffffffffff8262000709565b62000754868362000709565b95508019841693508086168417925050509392505050565b6000819050919050565b600062000797620007916200078b8462000504565b6200076c565b62000504565b9050919050565b6000819050919050565b620007b38362000776565b620007cb620007c2826200079e565b84845462000716565b825550505050565b600090565b620007e2620007d3565b620007ef818484620007a8565b505050565b5b8181101562000817576200080b600082620007d8565b600181019050620007f5565b5050565b601f82111562000866576200083081620006e4565b6200083b84620006f9565b810160208510156200084b578190505b620008636200085a85620006f9565b830182620007f4565b50505b505050565b600082821c905092915050565b60006200088b600019846008026200086b565b1980831691505092915050565b6000620008a6838362000878565b9150826002028217905092915050565b620008c18262000675565b67ffffffffffffffff811115620008dd57620008dc6200035f565b5b620008e98254620006af565b620008f68282856200081b565b600060209050601f8311600181146200092e576000841562000919578287015190505b62000925858262000898565b86555062000995565b601f1984166200093e86620006e4565b60005b82811015620009685784890151825560018201915060208501945060208101905062000941565b8683101562000988578489015162000984601f89168262000878565b8355505b6001600288020188555050505b505050505050565b615f1780620009ad6000396000f3fe6080604052600436106102ae5760003560e01c8063715018a611610175578063b3ec6f14116100dc578063e65d6b4911610095578063f5b966211161006f578063f5b9662114610a5d578063f8048d8f14610a86578063fcfff16f14610aaf578063fe2c7fee14610ada576102ae565b8063e65d6b49146109cc578063e985e9c5146109f7578063f2fde38b14610a34576102ae565b8063b3ec6f14146108ac578063b88d4fde146108d5578063bee6348a146108fe578063c87b56dd14610929578063d396639d14610966578063de8aa2b71461098f576102ae565b80639f0e94f51161012e5780639f0e94f5146107bf578063a0bcfc7f146107fc578063a102eb1914610825578063a22cb46514610850578063a475b5dd14610879578063a71bbebe14610890576102ae565b8063715018a6146106e9578063729ad39e14610700578063856ab401146107295780638da5cb5b1461074057806395d89b411461076b5780639e5666cd14610796576102ae565b806323b872dd11610219578063453c2310116101d2578063453c2310146105c5578063507e094f146105f0578063518302271461061b5780636352211e146106465780636fdca5e01461068357806370a08231146106ac576102ae565b806323b872dd146104ec5780633006b543146105155780633ccfd60b1461053e5780633f60bb5d1461054857806342842e0e1461057357806344a0d68a1461059c576102ae565b8063095ea7b31161026b578063095ea7b3146103c85780630cac36b2146103f15780630f99bacb1461041c5780630fd4071c1461045957806313faede61461049657806318160ddd146104c1576102ae565b806301ffc9a7146102b35780630364d22a146102f0578063047fc9aa1461030c57806306fdde0314610337578063081812fc14610362578063092501a01461039f575b600080fd5b3480156102bf57600080fd5b506102da60048036038101906102d59190613e12565b610b03565b6040516102e79190613e5a565b60405180910390f35b61030a60048036038101906103059190613f16565b610be5565b005b34801561031857600080fd5b50610321610f7b565b60405161032e9190613f85565b60405180910390f35b34801561034357600080fd5b5061034c610f91565b6040516103599190614030565b60405180910390f35b34801561036e57600080fd5b5061038960048036038101906103849190614088565b611023565b60405161039691906140f6565b60405180910390f35b3480156103ab57600080fd5b506103c660048036038101906103c19190614111565b6110a8565b005b3480156103d457600080fd5b506103ef60048036038101906103ea919061416a565b61116e565b005b3480156103fd57600080fd5b50610406611285565b6040516104139190614030565b60405180910390f35b34801561042857600080fd5b50610443600480360381019061043e91906141aa565b611317565b6040516104509190614030565b60405180910390f35b34801561046557600080fd5b50610480600480360381019061047b91906141aa565b61142e565b60405161048d9190614030565b60405180910390f35b3480156104a257600080fd5b506104ab611614565b6040516104b891906141f9565b60405180910390f35b3480156104cd57600080fd5b506104d661161a565b6040516104e39190613f85565b60405180910390f35b3480156104f857600080fd5b50610513600480360381019061050e9190614214565b611630565b005b34801561052157600080fd5b5061053c60048036038101906105379190614111565b611690565b005b610546611756565b005b34801561055457600080fd5b5061055d61184b565b60405161056a9190613e5a565b60405180910390f35b34801561057f57600080fd5b5061059a60048036038101906105959190614214565b61185e565b005b3480156105a857600080fd5b506105c360048036038101906105be9190614088565b61187e565b005b3480156105d157600080fd5b506105da61190e565b6040516105e79190613f85565b60405180910390f35b3480156105fc57600080fd5b50610605611924565b6040516106129190613f85565b60405180910390f35b34801561062757600080fd5b5061063061193a565b60405161063d9190613e5a565b60405180910390f35b34801561065257600080fd5b5061066d60048036038101906106689190614088565b61194d565b60405161067a91906140f6565b60405180910390f35b34801561068f57600080fd5b506106aa60048036038101906106a59190614293565b6119fe565b005b3480156106b857600080fd5b506106d360048036038101906106ce91906142c0565b611ab2565b6040516106e091906141f9565b60405180910390f35b3480156106f557600080fd5b506106fe611b69565b005b34801561070c57600080fd5b5061072760048036038101906107229190614343565b611bf1565b005b34801561073557600080fd5b5061073e611d9f565b005b34801561074c57600080fd5b50610755611e47565b60405161076291906140f6565b60405180910390f35b34801561077757600080fd5b50610780611e71565b60405161078d9190614030565b60405180910390f35b3480156107a257600080fd5b506107bd60048036038101906107b891906143c6565b611f03565b005b3480156107cb57600080fd5b506107e660048036038101906107e191906143f3565b611f89565b6040516107f39190614030565b60405180910390f35b34801561080857600080fd5b50610823600480360381019061081e9190614576565b6120b7565b005b34801561083157600080fd5b5061083a612146565b6040516108479190614030565b60405180910390f35b34801561085c57600080fd5b50610877600480360381019061087291906145bf565b612215565b005b34801561088557600080fd5b5061088e61222b565b005b6108aa60048036038101906108a59190614111565b6122d3565b005b3480156108b857600080fd5b506108d360048036038101906108ce9190614576565b612576565b005b3480156108e157600080fd5b506108fc60048036038101906108f791906146a0565b6125c6565b005b34801561090a57600080fd5b50610913612628565b6040516109209190613e5a565b60405180910390f35b34801561093557600080fd5b50610950600480360381019061094b9190614088565b61263b565b60405161095d9190614030565b60405180910390f35b34801561097257600080fd5b5061098d60048036038101906109889190614723565b612718565b005b34801561099b57600080fd5b506109b660048036038101906109b1919061479e565b6127c8565b6040516109c391906141f9565b60405180910390f35b3480156109d857600080fd5b506109e161284c565b6040516109ee9190613f85565b60405180910390f35b348015610a0357600080fd5b50610a1e6004803603810190610a19919061479e565b6128e2565b604051610a2b9190613e5a565b60405180910390f35b348015610a4057600080fd5b50610a5b6004803603810190610a5691906142c0565b612976565b005b348015610a6957600080fd5b50610a846004803603810190610a7f9190614293565b612a6d565b005b348015610a9257600080fd5b50610aad6004803603810190610aa89190614111565b612b06565b005b348015610abb57600080fd5b50610ac4612bcc565b604051610ad19190613e5a565b60405180910390f35b348015610ae657600080fd5b50610b016004803603810190610afc9190614576565b612bdf565b005b60007f80ac58cd000000000000000000000000000000000000000000000000000000007bffffffffffffffffffffffffffffffffffffffffffffffffffffffff1916827bffffffffffffffffffffffffffffffffffffffffffffffffffffffff19161480610bce57507f5b5e139f000000000000000000000000000000000000000000000000000000007bffffffffffffffffffffffffffffffffffffffffffffffffffffffff1916827bffffffffffffffffffffffffffffffffffffffffffffffffffffffff1916145b80610bde5750610bdd82612c6e565b5b9050919050565b8260008163ffffffff1611610c2f576040517f08c379a0000000000000000000000000000000000000000000000000000000008152600401610c269061482a565b60405180910390fd5b6001600960009054906101000a900463ffffffff16610c4e9190614879565b63ffffffff168163ffffffff1610610c9b576040517f08c379a0000000000000000000000000000000000000000000000000000000008152600401610c92906148fd565b60405180910390fd5b8063ffffffff16600854610caf919061491d565b341015610cf1576040517f08c379a0000000000000000000000000000000000000000000000000000000008152600401610ce8906149ab565b60405180910390fd5b60016009600c9054906101000a900463ffffffff16610d109190614879565b63ffffffff1681600960089054906101000a900463ffffffff16610d349190614879565b63ffffffff1610610d7a576040517f08c379a0000000000000000000000000000000000000000000000000000000008152600401610d7190614a17565b60405180910390fd5b600960049054906101000a900463ffffffff1663ffffffff168163ffffffff16600a60003373ffffffffffffffffffffffffffffffffffffffff1673ffffffffffffffffffffffffffffffffffffffff16815260200190815260200160002054610de49190614a37565b1115610e25576040517f08c379a0000000000000000000000000000000000000000000000000000000008152600401610e1c90614ab7565b60405180910390fd5b600e60009054906101000a900460ff16610e74576040517f08c379a0000000000000000000000000000000000000000000000000000000008152600401610e6b90614b23565b60405180910390fd5b6000600f5403610eb9576040517f08c379a0000000000000000000000000000000000000000000000000000000008152600401610eb090614b8f565b60405180910390fd5b610f2d838380806020026020016040519081016040528093929190818152602001838360200280828437600081840152601f19601f82011690508083019250505050505050600f5433604051602001610f129190614bf7565b60405160208183030381529060405280519060200120612cd8565b610f6c576040517f08c379a0000000000000000000000000000000000000000000000000000000008152600401610f6390614c5e565b60405180910390fd5b610f7584612cef565b50505050565b600960089054906101000a900463ffffffff1681565b606060008054610fa090614cad565b80601f0160208091040260200160405190810160405280929190818152602001828054610fcc90614cad565b80156110195780601f10610fee57610100808354040283529160200191611019565b820191906000526020600020905b815481529060010190602001808311610ffc57829003601f168201915b5050505050905090565b600061102e82612e9c565b61106d576040517f08c379a000000000000000000000000000000000000000000000000000000000815260040161106490614d50565b60405180910390fd5b6004600083815260200190815260200160002060009054906101000a900473ffffffffffffffffffffffffffffffffffffffff169050919050565b6110b0612f08565b73ffffffffffffffffffffffffffffffffffffffff166110ce611e47565b73ffffffffffffffffffffffffffffffffffffffff1614611124576040517f08c379a000000000000000000000000000000000000000000000000000000000815260040161111b90614dbc565b60405180910390fd5b8063ffffffff16600c60019054906101000a900463ffffffff1663ffffffff161461116b5780600c60016101000a81548163ffffffff021916908363ffffffff1602179055505b50565b60006111798261194d565b90508073ffffffffffffffffffffffffffffffffffffffff168373ffffffffffffffffffffffffffffffffffffffff16036111e9576040517f08c379a00000000000000000000000000000000000000000000000000000000081526004016111e090614e4e565b60405180910390fd5b8073ffffffffffffffffffffffffffffffffffffffff16611208612f08565b73ffffffffffffffffffffffffffffffffffffffff161480611237575061123681611231612f08565b6128e2565b5b611276576040517f08c379a000000000000000000000000000000000000000000000000000000000815260040161126d90614ee0565b60405180910390fd5b6112808383612f10565b505050565b60606007805461129490614cad565b80601f01602080910402602001604051908101604052809291908181526020018280546112c090614cad565b801561130d5780601f106112e25761010080835404028352916020019161130d565b820191906000526020600020905b8154815290600101906020018083116112f057829003601f168201915b5050505050905090565b606060006040518060200160405280600081525090506000600190505b8363ffffffff168163ffffffff16116114235760008573ffffffffffffffffffffffffffffffffffffffff16636352211e836040518263ffffffff1660e01b81526004016113829190614f3b565b602060405180830381865afa15801561139f573d6000803e3d6000fd5b505050506040513d601f19601f820116820180604052508101906113c39190614f6b565b905060006113e88273ffffffffffffffffffffffffffffffffffffffff166014612fc9565b905083816040516020016113fd929190614ffa565b60405160208183030381529060405293505050808061141b9061502d565b915050611334565b508091505092915050565b606060006040518060200160405280600081525090506000600190505b8363ffffffff168163ffffffff16116116095760008573ffffffffffffffffffffffffffffffffffffffff16636352211e836040518263ffffffff1660e01b81526004016114999190614f3b565b602060405180830381865afa1580156114b6573d6000803e3d6000fd5b505050506040513d601f19601f820116820180604052508101906114da9190614f6b565b905060006114ff8273ffffffffffffffffffffffffffffffffffffffff166014612fc9565b90506000600b60008473ffffffffffffffffffffffffffffffffffffffff1673ffffffffffffffffffffffffffffffffffffffff168152602001908152602001600020805461154d90614cad565b80601f016020809104026020016040519081016040528092919081815260200182805461157990614cad565b80156115c65780601f1061159b576101008083540402835291602001916115c6565b820191906000526020600020905b8154815290600101906020018083116115a957829003601f168201915b505050505090508482826040516020016115e29392919061507f565b604051602081830303815290604052945050505080806116019061502d565b91505061144b565b508091505092915050565b60085481565b6009600c9054906101000a900463ffffffff1681565b61164161163b612f08565b82613205565b611680576040517f08c379a000000000000000000000000000000000000000000000000000000000815260040161167790615140565b60405180910390fd5b61168b8383836132e3565b505050565b611698612f08565b73ffffffffffffffffffffffffffffffffffffffff166116b6611e47565b73ffffffffffffffffffffffffffffffffffffffff161461170c576040517f08c379a000000000000000000000000000000000000000000000000000000000815260040161170390614dbc565b60405180910390fd5b8063ffffffff16600960049054906101000a900463ffffffff1663ffffffff16146117535780600960046101000a81548163ffffffff021916908363ffffffff1602179055505b50565b61175e612f08565b73ffffffffffffffffffffffffffffffffffffffff1661177c611e47565b73ffffffffffffffffffffffffffffffffffffffff16146117d2576040517f08c379a00000000000000000000000000000000000000000000000000000000081526004016117c990614dbc565b60405180910390fd5b60003373ffffffffffffffffffffffffffffffffffffffff16476040516117f890615191565b60006040518083038185875af1925050503d8060008114611835576040519150601f19603f3d011682016040523d82523d6000602084013e61183a565b606091505b505090508061184857600080fd5b50565b600c60009054906101000a900460ff1681565b611879838383604051806020016040528060008152506125c6565b505050565b611886612f08565b73ffffffffffffffffffffffffffffffffffffffff166118a4611e47565b73ffffffffffffffffffffffffffffffffffffffff16146118fa576040517f08c379a00000000000000000000000000000000000000000000000000000000081526004016118f190614dbc565b60405180910390fd5b806008541461190b57806008819055505b50565b600960049054906101000a900463ffffffff1681565b600960009054906101000a900463ffffffff1681565b600c60199054906101000a900460ff1681565b6000806002600084815260200190815260200160002060009054906101000a900473ffffffffffffffffffffffffffffffffffffffff169050600073ffffffffffffffffffffffffffffffffffffffff168173ffffffffffffffffffffffffffffffffffffffff16036119f5576040517f08c379a00000000000000000000000000000000000000000000000000000000081526004016119ec90615218565b60405180910390fd5b80915050919050565b611a06612f08565b73ffffffffffffffffffffffffffffffffffffffff16611a24611e47565b73ffffffffffffffffffffffffffffffffffffffff1614611a7a576040517f08c379a0000000000000000000000000000000000000000000000000000000008152600401611a7190614dbc565b60405180910390fd5b801515600960109054906101000a900460ff16151514611aaf5780600960106101000a81548160ff0219169083151502179055505b50565b60008073ffffffffffffffffffffffffffffffffffffffff168273ffffffffffffffffffffffffffffffffffffffff1603611b22576040517f08c379a0000000000000000000000000000000000000000000000000000000008152600401611b19906152aa565b60405180910390fd5b600360008373ffffffffffffffffffffffffffffffffffffffff1673ffffffffffffffffffffffffffffffffffffffff168152602001908152602001600020549050919050565b611b71612f08565b73ffffffffffffffffffffffffffffffffffffffff16611b8f611e47565b73ffffffffffffffffffffffffffffffffffffffff1614611be5576040517f08c379a0000000000000000000000000000000000000000000000000000000008152600401611bdc90614dbc565b60405180910390fd5b611bef600061353e565b565b611bf9612f08565b73ffffffffffffffffffffffffffffffffffffffff16611c17611e47565b73ffffffffffffffffffffffffffffffffffffffff1614611c6d576040517f08c379a0000000000000000000000000000000000000000000000000000000008152600401611c6490614dbc565b60405180910390fd5b60005b828290508163ffffffff161015611d9a576009600c9054906101000a900463ffffffff1663ffffffff16600960089054906101000a900463ffffffff166001611cb99190614879565b63ffffffff161115611d00576040517f08c379a0000000000000000000000000000000000000000000000000000000008152600401611cf790615316565b60405180910390fd5b611d8783838363ffffffff16818110611d1c57611d1b615336565b5b9050602002016020810190611d3191906142c0565b6009600881819054906101000a900463ffffffff16611d4f9061502d565b91906101000a81548163ffffffff021916908363ffffffff160217905563ffffffff1660405180602001604052806000815250613604565b8080611d929061502d565b915050611c70565b505050565b611da7612f08565b73ffffffffffffffffffffffffffffffffffffffff16611dc5611e47565b73ffffffffffffffffffffffffffffffffffffffff1614611e1b576040517f08c379a0000000000000000000000000000000000000000000000000000000008152600401611e1290614dbc565b60405180910390fd5b600c60009054906101000a900460ff1615600c60006101000a81548160ff021916908315150217905550565b6000600660009054906101000a900473ffffffffffffffffffffffffffffffffffffffff16905090565b606060018054611e8090614cad565b80601f0160208091040260200160405190810160405280929190818152602001828054611eac90614cad565b8015611ef95780601f10611ece57610100808354040283529160200191611ef9565b820191906000526020600020905b815481529060010190602001808311611edc57829003601f168201915b5050505050905090565b611f0b612f08565b73ffffffffffffffffffffffffffffffffffffffff16611f29611e47565b73ffffffffffffffffffffffffffffffffffffffff1614611f7f576040517f08c379a0000000000000000000000000000000000000000000000000000000008152600401611f7690614dbc565b60405180910390fd5b80600f8190555050565b606060006040518060200160405280600081525090506000600190505b8363ffffffff168163ffffffff16116120ab578573ffffffffffffffffffffffffffffffffffffffff168573ffffffffffffffffffffffffffffffffffffffff16636352211e836040518263ffffffff1660e01b81526004016120099190614f3b565b602060405180830381865afa158015612026573d6000803e3d6000fd5b505050506040513d601f19601f8201168201806040525081019061204a9190614f6b565b73ffffffffffffffffffffffffffffffffffffffff160361209857816120758263ffffffff1661365f565b604051602001612086929190614ffa565b60405160208183030381529060405291505b80806120a39061502d565b915050611fa6565b50809150509392505050565b6120bf612f08565b73ffffffffffffffffffffffffffffffffffffffff166120dd611e47565b73ffffffffffffffffffffffffffffffffffffffff1614612133576040517f08c379a000000000000000000000000000000000000000000000000000000000815260040161212a90614dbc565b60405180910390fd5b80600790816121429190615507565b5050565b6060600b60003373ffffffffffffffffffffffffffffffffffffffff1673ffffffffffffffffffffffffffffffffffffffff168152602001908152602001600020805461219290614cad565b80601f01602080910402602001604051908101604052809291908181526020018280546121be90614cad565b801561220b5780601f106121e05761010080835404028352916020019161220b565b820191906000526020600020905b8154815290600101906020018083116121ee57829003601f168201915b5050505050905090565b612227612220612f08565b83836137bf565b5050565b612233612f08565b73ffffffffffffffffffffffffffffffffffffffff16612251611e47565b73ffffffffffffffffffffffffffffffffffffffff16146122a7576040517f08c379a000000000000000000000000000000000000000000000000000000000815260040161229e90614dbc565b60405180910390fd5b600c60199054906101000a900460ff1615600c60196101000a81548160ff021916908315150217905550565b8060008163ffffffff161161231d576040517f08c379a00000000000000000000000000000000000000000000000000000000081526004016123149061482a565b60405180910390fd5b6001600960009054906101000a900463ffffffff1661233c9190614879565b63ffffffff168163ffffffff1610612389576040517f08c379a0000000000000000000000000000000000000000000000000000000008152600401612380906148fd565b60405180910390fd5b8063ffffffff1660085461239d919061491d565b3410156123df576040517f08c379a00000000000000000000000000000000000000000000000000000000081526004016123d6906149ab565b60405180910390fd5b60016009600c9054906101000a900463ffffffff166123fe9190614879565b63ffffffff1681600960089054906101000a900463ffffffff166124229190614879565b63ffffffff1610612468576040517f08c379a000000000000000000000000000000000000000000000000000000000815260040161245f90614a17565b60405180910390fd5b600960049054906101000a900463ffffffff1663ffffffff168163ffffffff16600a60003373ffffffffffffffffffffffffffffffffffffffff1673ffffffffffffffffffffffffffffffffffffffff168152602001908152602001600020546124d29190614a37565b1115612513576040517f08c379a000000000000000000000000000000000000000000000000000000000815260040161250a90614ab7565b60405180910390fd5b60011515600960109054906101000a900460ff16151514612569576040517f08c379a000000000000000000000000000000000000000000000000000000000815260040161256090615625565b60405180910390fd5b61257282612cef565b5050565b80600b60003373ffffffffffffffffffffffffffffffffffffffff1673ffffffffffffffffffffffffffffffffffffffff16815260200190815260200160002090816125c29190615507565b5050565b6125d76125d1612f08565b83613205565b612616576040517f08c379a000000000000000000000000000000000000000000000000000000000815260040161260d90615140565b60405180910390fd5b6126228484848461392b565b50505050565b600e60009054906101000a900460ff1681565b6060600960089054906101000a900463ffffffff1663ffffffff16821115612698576040517f08c379a000000000000000000000000000000000000000000000000000000000815260040161268f90615691565b60405180910390fd5b60001515600c60199054906101000a900460ff161515036126e557600d6126be8361365f565b6040516020016126cf929190615780565b6040516020818303038152906040529050612713565b60076126f08361365f565b604051602001612701929190615780565b60405160208183030381529060405290505b919050565b612720612f08565b73ffffffffffffffffffffffffffffffffffffffff1661273e611e47565b73ffffffffffffffffffffffffffffffffffffffff1614612794576040517f08c379a000000000000000000000000000000000000000000000000000000000815260040161278b90614dbc565b60405180910390fd5b61279d8561187e565b6127a684611690565b6127af83612b06565b6127b8826110a8565b6127c1816119fe565b5050505050565b60008173ffffffffffffffffffffffffffffffffffffffff166370a08231846040518263ffffffff1660e01b815260040161280391906140f6565b602060405180830381865afa158015612820573d6000803e3d6000fd5b505050506040513d601f19601f8201168201806040525081019061284491906157c4565b905092915050565b6000612856612f08565b73ffffffffffffffffffffffffffffffffffffffff16612874611e47565b73ffffffffffffffffffffffffffffffffffffffff16146128ca576040517f08c379a00000000000000000000000000000000000000000000000000000000081526004016128c190614dbc565b60405180910390fd5b600c60019054906101000a900463ffffffff16905090565b6000600560008473ffffffffffffffffffffffffffffffffffffffff1673ffffffffffffffffffffffffffffffffffffffff16815260200190815260200160002060008373ffffffffffffffffffffffffffffffffffffffff1673ffffffffffffffffffffffffffffffffffffffff16815260200190815260200160002060009054906101000a900460ff16905092915050565b61297e612f08565b73ffffffffffffffffffffffffffffffffffffffff1661299c611e47565b73ffffffffffffffffffffffffffffffffffffffff16146129f2576040517f08c379a00000000000000000000000000000000000000000000000000000000081526004016129e990614dbc565b60405180910390fd5b600073ffffffffffffffffffffffffffffffffffffffff168173ffffffffffffffffffffffffffffffffffffffff1603612a61576040517f08c379a0000000000000000000000000000000000000000000000000000000008152600401612a5890615863565b60405180910390fd5b612a6a8161353e565b50565b612a75612f08565b73ffffffffffffffffffffffffffffffffffffffff16612a93611e47565b73ffffffffffffffffffffffffffffffffffffffff1614612ae9576040517f08c379a0000000000000000000000000000000000000000000000000000000008152600401612ae090614dbc565b60405180910390fd5b80600e60006101000a81548160ff02191690831515021790555050565b612b0e612f08565b73ffffffffffffffffffffffffffffffffffffffff16612b2c611e47565b73ffffffffffffffffffffffffffffffffffffffff1614612b82576040517f08c379a0000000000000000000000000000000000000000000000000000000008152600401612b7990614dbc565b60405180910390fd5b8063ffffffff16600960009054906101000a900463ffffffff1663ffffffff1614612bc95780600960006101000a81548163ffffffff021916908363ffffffff1602179055505b50565b600960109054906101000a900460ff1681565b612be7612f08565b73ffffffffffffffffffffffffffffffffffffffff16612c05611e47565b73ffffffffffffffffffffffffffffffffffffffff1614612c5b576040517f08c379a0000000000000000000000000000000000000000000000000000000008152600401612c5290614dbc565b60405180910390fd5b80600d9081612c6a9190615507565b5050565b60007f01ffc9a7000000000000000000000000000000000000000000000000000000007bffffffffffffffffffffffffffffffffffffffffffffffffffffffff1916827bffffffffffffffffffffffffffffffffffffffffffffffffffffffff1916149050919050565b600082612ce58584613987565b1490509392505050565b60005b8163ffffffff168163ffffffff161015612d7357612d60336009600881819054906101000a900463ffffffff16612d289061502d565b91906101000a81548163ffffffff021916908363ffffffff160217905563ffffffff1660405180602001604052806000815250613604565b8080612d6b9061502d565b915050612cf2565b508063ffffffff16600a60003373ffffffffffffffffffffffffffffffffffffffff1673ffffffffffffffffffffffffffffffffffffffff1681526020019081526020016000206000828254612dc99190614a37565b925050819055506000600c60059054906101000a900473ffffffffffffffffffffffffffffffffffffffff1673ffffffffffffffffffffffffffffffffffffffff166103e8600c60019054906101000a900463ffffffff1663ffffffff1634612e32919061491d565b612e3c91906158b2565b604051612e4890615191565b60006040518083038185875af1925050503d8060008114612e85576040519150601f19603f3d011682016040523d82523d6000602084013e612e8a565b606091505b5050905080612e9857600080fd5b5050565b60008073ffffffffffffffffffffffffffffffffffffffff166002600084815260200190815260200160002060009054906101000a900473ffffffffffffffffffffffffffffffffffffffff1673ffffffffffffffffffffffffffffffffffffffff1614159050919050565b600033905090565b816004600083815260200190815260200160002060006101000a81548173ffffffffffffffffffffffffffffffffffffffff021916908373ffffffffffffffffffffffffffffffffffffffff160217905550808273ffffffffffffffffffffffffffffffffffffffff16612f838361194d565b73ffffffffffffffffffffffffffffffffffffffff167f8c5be1e5ebec7d5bd14f71427d1e84f3dd0314c0f7b2291e5b200ac8c7c3b92560405160405180910390a45050565b606060006002836002612fdc919061491d565b612fe69190614a37565b67ffffffffffffffff811115612fff57612ffe61444b565b5b6040519080825280601f01601f1916602001820160405280156130315781602001600182028036833780820191505090505b5090507f30000000000000000000000000000000000000000000000000000000000000008160008151811061306957613068615336565b5b60200101907effffffffffffffffffffffffffffffffffffffffffffffffffffffffffffff1916908160001a9053507f7800000000000000000000000000000000000000000000000000000000000000816001815181106130cd576130cc615336565b5b60200101907effffffffffffffffffffffffffffffffffffffffffffffffffffffffffffff1916908160001a9053506000600184600261310d919061491d565b6131179190614a37565b90505b60018111156131b7577f3031323334353637383961626364656600000000000000000000000000000000600f86166010811061315957613158615336565b5b1a60f81b8282815181106131705761316f615336565b5b60200101907effffffffffffffffffffffffffffffffffffffffffffffffffffffffffffff1916908160001a905350600485901c9450806131b0906158e3565b905061311a565b50600084146131fb576040517f08c379a00000000000000000000000000000000000000000000000000000000081526004016131f290615958565b60405180910390fd5b8091505092915050565b600061321082612e9c565b61324f576040517f08c379a0000000000000000000000000000000000000000000000000000000008152600401613246906159ea565b60405180910390fd5b600061325a8361194d565b90508073ffffffffffffffffffffffffffffffffffffffff168473ffffffffffffffffffffffffffffffffffffffff1614806132c957508373ffffffffffffffffffffffffffffffffffffffff166132b184611023565b73ffffffffffffffffffffffffffffffffffffffff16145b806132da57506132d981856128e2565b5b91505092915050565b8273ffffffffffffffffffffffffffffffffffffffff166133038261194d565b73ffffffffffffffffffffffffffffffffffffffff1614613359576040517f08c379a000000000000000000000000000000000000000000000000000000000815260040161335090615a7c565b60405180910390fd5b600073ffffffffffffffffffffffffffffffffffffffff168273ffffffffffffffffffffffffffffffffffffffff16036133c8576040517f08c379a00000000000000000000000000000000000000000000000000000000081526004016133bf90615b0e565b60405180910390fd5b6133d3838383613a3a565b6133de600082612f10565b6001600360008573ffffffffffffffffffffffffffffffffffffffff1673ffffffffffffffffffffffffffffffffffffffff168152602001908152602001600020600082825461342e9190615b2e565b925050819055506001600360008473ffffffffffffffffffffffffffffffffffffffff1673ffffffffffffffffffffffffffffffffffffffff16815260200190815260200160002060008282546134859190614a37565b92505081905550816002600083815260200190815260200160002060006101000a81548173ffffffffffffffffffffffffffffffffffffffff021916908373ffffffffffffffffffffffffffffffffffffffff160217905550808273ffffffffffffffffffffffffffffffffffffffff168473ffffffffffffffffffffffffffffffffffffffff167fddf252ad1be2c89b69c2b068fc378daa952ba7f163c4a11628f55a4df523b3ef60405160405180910390a4505050565b6000600660009054906101000a900473ffffffffffffffffffffffffffffffffffffffff16905081600660006101000a81548173ffffffffffffffffffffffffffffffffffffffff021916908373ffffffffffffffffffffffffffffffffffffffff1602179055508173ffffffffffffffffffffffffffffffffffffffff168173ffffffffffffffffffffffffffffffffffffffff167f8be0079c531659141344cd1fd0a4f28419497f9722a3daafe3b4186f6b6457e060405160405180910390a35050565b61360e8383613a3f565b61361b6000848484613c0c565b61365a576040517f08c379a000000000000000000000000000000000000000000000000000000000815260040161365190615bd4565b60405180910390fd5b505050565b6060600082036136a6576040518060400160405280600181526020017f300000000000000000000000000000000000000000000000000000000000000081525090506137ba565b600082905060005b600082146136d85780806136c190615bf4565b915050600a826136d191906158b2565b91506136ae565b60008167ffffffffffffffff8111156136f4576136f361444b565b5b6040519080825280601f01601f1916602001820160405280156137265781602001600182028036833780820191505090505b5090505b600085146137b35760018261373f9190615b2e565b9150600a8561374e9190615c3c565b603061375a9190614a37565b60f81b8183815181106137705761376f615336565b5b60200101907effffffffffffffffffffffffffffffffffffffffffffffffffffffffffffff1916908160001a905350600a856137ac91906158b2565b945061372a565b8093505050505b919050565b8173ffffffffffffffffffffffffffffffffffffffff168373ffffffffffffffffffffffffffffffffffffffff160361382d576040517f08c379a000000000000000000000000000000000000000000000000000000000815260040161382490615cb9565b60405180910390fd5b80600560008573ffffffffffffffffffffffffffffffffffffffff1673ffffffffffffffffffffffffffffffffffffffff16815260200190815260200160002060008473ffffffffffffffffffffffffffffffffffffffff1673ffffffffffffffffffffffffffffffffffffffff16815260200190815260200160002060006101000a81548160ff0219169083151502179055508173ffffffffffffffffffffffffffffffffffffffff168373ffffffffffffffffffffffffffffffffffffffff167f17307eab39ab6107e8899845ad3d59bd9653f200f220920489ca2b5937696c318360405161391e9190613e5a565b60405180910390a3505050565b6139368484846132e3565b61394284848484613c0c565b613981576040517f08c379a000000000000000000000000000000000000000000000000000000000815260040161397890615bd4565b60405180910390fd5b50505050565b60008082905060005b8451811015613a2f5760008582815181106139ae576139ad615336565b5b602002602001015190508083116139ef5782816040516020016139d2929190615cfa565b604051602081830303815290604052805190602001209250613a1b565b8083604051602001613a02929190615cfa565b6040516020818303038152906040528051906020012092505b508080613a2790615bf4565b915050613990565b508091505092915050565b505050565b600073ffffffffffffffffffffffffffffffffffffffff168273ffffffffffffffffffffffffffffffffffffffff1603613aae576040517f08c379a0000000000000000000000000000000000000000000000000000000008152600401613aa590615d72565b60405180910390fd5b613ab781612e9c565b15613af7576040517f08c379a0000000000000000000000000000000000000000000000000000000008152600401613aee90615dde565b60405180910390fd5b613b0360008383613a3a565b6001600360008473ffffffffffffffffffffffffffffffffffffffff1673ffffffffffffffffffffffffffffffffffffffff1681526020019081526020016000206000828254613b539190614a37565b92505081905550816002600083815260200190815260200160002060006101000a81548173ffffffffffffffffffffffffffffffffffffffff021916908373ffffffffffffffffffffffffffffffffffffffff160217905550808273ffffffffffffffffffffffffffffffffffffffff16600073ffffffffffffffffffffffffffffffffffffffff167fddf252ad1be2c89b69c2b068fc378daa952ba7f163c4a11628f55a4df523b3ef60405160405180910390a45050565b6000613c2d8473ffffffffffffffffffffffffffffffffffffffff16613d93565b15613d86578373ffffffffffffffffffffffffffffffffffffffff1663150b7a02613c56612f08565b8786866040518563ffffffff1660e01b8152600401613c789493929190615e53565b6020604051808303816000875af1925050508015613cb457506040513d601f19601f82011682018060405250810190613cb19190615eb4565b60015b613d36573d8060008114613ce4576040519150601f19603f3d011682016040523d82523d6000602084013e613ce9565b606091505b506000815103613d2e576040517f08c379a0000000000000000000000000000000000000000000000000000000008152600401613d2590615bd4565b60405180910390fd5b805181602001fd5b63150b7a0260e01b7bffffffffffffffffffffffffffffffffffffffffffffffffffffffff1916817bffffffffffffffffffffffffffffffffffffffffffffffffffffffff191614915050613d8b565b600190505b949350505050565b600080823b905060008111915050919050565b6000604051905090565b600080fd5b600080fd5b60007fffffffff0000000000000000000000000000000000000000000000000000000082169050919050565b613def81613dba565b8114613dfa57600080fd5b50565b600081359050613e0c81613de6565b92915050565b600060208284031215613e2857613e27613db0565b5b6000613e3684828501613dfd565b91505092915050565b60008115159050919050565b613e5481613e3f565b82525050565b6000602082019050613e6f6000830184613e4b565b92915050565b600063ffffffff82169050919050565b613e8e81613e75565b8114613e9957600080fd5b50565b600081359050613eab81613e85565b92915050565b600080fd5b600080fd5b600080fd5b60008083601f840112613ed657613ed5613eb1565b5b8235905067ffffffffffffffff811115613ef357613ef2613eb6565b5b602083019150836020820283011115613f0f57613f0e613ebb565b5b9250929050565b600080600060408486031215613f2f57613f2e613db0565b5b6000613f3d86828701613e9c565b935050602084013567ffffffffffffffff811115613f5e57613f5d613db5565b5b613f6a86828701613ec0565b92509250509250925092565b613f7f81613e75565b82525050565b6000602082019050613f9a6000830184613f76565b92915050565b600081519050919050565b600082825260208201905092915050565b60005b83811015613fda578082015181840152602081019050613fbf565b60008484015250505050565b6000601f19601f8301169050919050565b600061400282613fa0565b61400c8185613fab565b935061401c818560208601613fbc565b61402581613fe6565b840191505092915050565b6000602082019050818103600083015261404a8184613ff7565b905092915050565b6000819050919050565b61406581614052565b811461407057600080fd5b50565b6000813590506140828161405c565b92915050565b60006020828403121561409e5761409d613db0565b5b60006140ac84828501614073565b91505092915050565b600073ffffffffffffffffffffffffffffffffffffffff82169050919050565b60006140e0826140b5565b9050919050565b6140f0816140d5565b82525050565b600060208201905061410b60008301846140e7565b92915050565b60006020828403121561412757614126613db0565b5b600061413584828501613e9c565b91505092915050565b614147816140d5565b811461415257600080fd5b50565b6000813590506141648161413e565b92915050565b6000806040838503121561418157614180613db0565b5b600061418f85828601614155565b92505060206141a085828601614073565b9150509250929050565b600080604083850312156141c1576141c0613db0565b5b60006141cf85828601614155565b92505060206141e085828601613e9c565b9150509250929050565b6141f381614052565b82525050565b600060208201905061420e60008301846141ea565b92915050565b60008060006060848603121561422d5761422c613db0565b5b600061423b86828701614155565b935050602061424c86828701614155565b925050604061425d86828701614073565b9150509250925092565b61427081613e3f565b811461427b57600080fd5b50565b60008135905061428d81614267565b92915050565b6000602082840312156142a9576142a8613db0565b5b60006142b78482850161427e565b91505092915050565b6000602082840312156142d6576142d5613db0565b5b60006142e484828501614155565b91505092915050565b60008083601f84011261430357614302613eb1565b5b8235905067ffffffffffffffff8111156143205761431f613eb6565b5b60208301915083602082028301111561433c5761433b613ebb565b5b9250929050565b6000806020838503121561435a57614359613db0565b5b600083013567ffffffffffffffff81111561437857614377613db5565b5b614384858286016142ed565b92509250509250929050565b6000819050919050565b6143a381614390565b81146143ae57600080fd5b50565b6000813590506143c08161439a565b92915050565b6000602082840312156143dc576143db613db0565b5b60006143ea848285016143b1565b91505092915050565b60008060006060848603121561440c5761440b613db0565b5b600061441a86828701614155565b935050602061442b86828701614155565b925050604061443c86828701613e9c565b9150509250925092565b600080fd5b7f4e487b7100000000000000000000000000000000000000000000000000000000600052604160045260246000fd5b61448382613fe6565b810181811067ffffffffffffffff821117156144a2576144a161444b565b5b80604052505050565b60006144b5613da6565b90506144c1828261447a565b919050565b600067ffffffffffffffff8211156144e1576144e061444b565b5b6144ea82613fe6565b9050602081019050919050565b82818337600083830152505050565b6000614519614514846144c6565b6144ab565b90508281526020810184848401111561453557614534614446565b5b6145408482856144f7565b509392505050565b600082601f83011261455d5761455c613eb1565b5b813561456d848260208601614506565b91505092915050565b60006020828403121561458c5761458b613db0565b5b600082013567ffffffffffffffff8111156145aa576145a9613db5565b5b6145b684828501614548565b91505092915050565b600080604083850312156145d6576145d5613db0565b5b60006145e485828601614155565b92505060206145f58582860161427e565b9150509250929050565b600067ffffffffffffffff82111561461a5761461961444b565b5b61462382613fe6565b9050602081019050919050565b600061464361463e846145ff565b6144ab565b90508281526020810184848401111561465f5761465e614446565b5b61466a8482856144f7565b509392505050565b600082601f83011261468757614686613eb1565b5b8135614697848260208601614630565b91505092915050565b600080600080608085870312156146ba576146b9613db0565b5b60006146c887828801614155565b94505060206146d987828801614155565b93505060406146ea87828801614073565b925050606085013567ffffffffffffffff81111561470b5761470a613db5565b5b61471787828801614672565b91505092959194509250565b600080600080600060a0868803121561473f5761473e613db0565b5b600061474d88828901614073565b955050602061475e88828901613e9c565b945050604061476f88828901613e9c565b935050606061478088828901613e9c565b92505060806147918882890161427e565b9150509295509295909350565b600080604083850312156147b5576147b4613db0565b5b60006147c385828601614155565b92505060206147d485828601614155565b9150509250929050565b7f4d696e74206174206c65617374206f6e652e0000000000000000000000000000600082015250565b6000614814601283613fab565b915061481f826147de565b602082019050919050565b6000602082019050818103600083015261484381614807565b9050919050565b7f4e487b7100000000000000000000000000000000000000000000000000000000600052601160045260246000fd5b600061488482613e75565b915061488f83613e75565b9250828201905063ffffffff8111156148ab576148aa61484a565b5b92915050565b7f4d6178206d696e7420726561636865642e000000000000000000000000000000600082015250565b60006148e7601183613fab565b91506148f2826148b1565b602082019050919050565b60006020820190508181036000830152614916816148da565b9050919050565b600061492882614052565b915061493383614052565b925082820261494181614052565b915082820484148315176149585761495761484a565b5b5092915050565b7f4e6f7420656e6f7567682066756e642e00000000000000000000000000000000600082015250565b6000614995601083613fab565b91506149a08261495f565b602082019050919050565b600060208201905081810360008301526149c481614988565b9050919050565b7f4d696e7420736f6c64206f757400000000000000000000000000000000000000600082015250565b6000614a01600d83613fab565b9150614a0c826149cb565b602082019050919050565b60006020820190508181036000830152614a30816149f4565b9050919050565b6000614a4282614052565b9150614a4d83614052565b9250828201905080821115614a6557614a6461484a565b5b92915050565b7f4d617820746f74616c206d696e74207265616368656400000000000000000000600082015250565b6000614aa1601683613fab565b9150614aac82614a6b565b602082019050919050565b60006020820190508181036000830152614ad081614a94565b9050919050565b7f50726573616c65206e6f74206f70656e00000000000000000000000000000000600082015250565b6000614b0d601083613fab565b9150614b1882614ad7565b602082019050919050565b60006020820190508181036000830152614b3c81614b00565b9050919050565b7f50726573616c65206e6f74207265616479000000000000000000000000000000600082015250565b6000614b79601183613fab565b9150614b8482614b43565b602082019050919050565b60006020820190508181036000830152614ba881614b6c565b9050919050565b60008160601b9050919050565b6000614bc782614baf565b9050919050565b6000614bd982614bbc565b9050919050565b614bf1614bec826140d5565b614bce565b82525050565b6000614c038284614be0565b60148201915081905092915050565b7f4e6f7420612070726573616c65206d656d626572000000000000000000000000600082015250565b6000614c48601483613fab565b9150614c5382614c12565b602082019050919050565b60006020820190508181036000830152614c7781614c3b565b9050919050565b7f4e487b7100000000000000000000000000000000000000000000000000000000600052602260045260246000fd5b60006002820490506001821680614cc557607f821691505b602082108103614cd857614cd7614c7e565b5b50919050565b7f4552433732313a20617070726f76656420717565727920666f72206e6f6e657860008201527f697374656e7420746f6b656e0000000000000000000000000000000000000000602082015250565b6000614d3a602c83613fab565b9150614d4582614cde565b604082019050919050565b60006020820190508181036000830152614d6981614d2d565b9050919050565b7f4f776e61626c653a2063616c6c6572206973206e6f7420746865206f776e6572600082015250565b6000614da6602083613fab565b9150614db182614d70565b602082019050919050565b60006020820190508181036000830152614dd581614d99565b9050919050565b7f4552433732313a20617070726f76616c20746f2063757272656e74206f776e6560008201527f7200000000000000000000000000000000000000000000000000000000000000602082015250565b6000614e38602183613fab565b9150614e4382614ddc565b604082019050919050565b60006020820190508181036000830152614e6781614e2b565b9050919050565b7f4552433732313a20617070726f76652063616c6c6572206973206e6f74206f7760008201527f6e6572206e6f7220617070726f76656420666f7220616c6c0000000000000000602082015250565b6000614eca603883613fab565b9150614ed582614e6e565b604082019050919050565b60006020820190508181036000830152614ef981614ebd565b9050919050565b6000819050919050565b6000614f25614f20614f1b84613e75565b614f00565b614052565b9050919050565b614f3581614f0a565b82525050565b6000602082019050614f506000830184614f2c565b92915050565b600081519050614f658161413e565b92915050565b600060208284031215614f8157614f80613db0565b5b6000614f8f84828501614f56565b91505092915050565b600081905092915050565b6000614fae82613fa0565b614fb88185614f98565b9350614fc8818560208601613fbc565b80840191505092915050565b7f2c00000000000000000000000000000000000000000000000000000000000000815250565b60006150068285614fa3565b91506150128284614fa3565b915061501d82614fd4565b6001820191508190509392505050565b600061503882613e75565b915063ffffffff820361504e5761504d61484a565b5b600182019050919050565b7f7c00000000000000000000000000000000000000000000000000000000000000815250565b600061508b8286614fa3565b91506150978285614fa3565b91506150a282615059565b6001820191506150b28284614fa3565b91506150bd82614fd4565b600182019150819050949350505050565b7f4552433732313a207472616e736665722063616c6c6572206973206e6f74206f60008201527f776e6572206e6f7220617070726f766564000000000000000000000000000000602082015250565b600061512a603183613fab565b9150615135826150ce565b604082019050919050565b600060208201905081810360008301526151598161511d565b9050919050565b600081905092915050565b50565b600061517b600083615160565b91506151868261516b565b600082019050919050565b600061519c8261516e565b9150819050919050565b7f4552433732313a206f776e657220717565727920666f72206e6f6e657869737460008201527f656e7420746f6b656e0000000000000000000000000000000000000000000000602082015250565b6000615202602983613fab565b915061520d826151a6565b604082019050919050565b60006020820190508181036000830152615231816151f5565b9050919050565b7f4552433732313a2062616c616e636520717565727920666f7220746865207a6560008201527f726f206164647265737300000000000000000000000000000000000000000000602082015250565b6000615294602a83613fab565b915061529f82615238565b604082019050919050565b600060208201905081810360008301526152c381615287565b9050919050565b7f4c696d6974207265616368656400000000000000000000000000000000000000600082015250565b6000615300600d83613fab565b915061530b826152ca565b602082019050919050565b6000602082019050818103600083015261532f816152f3565b9050919050565b7f4e487b7100000000000000000000000000000000000000000000000000000000600052603260045260246000fd5b60008190508160005260206000209050919050565b60006020601f8301049050919050565b600082821b905092915050565b6000600883026153c77fffffffffffffffffffffffffffffffffffffffffffffffffffffffffffffffff8261538a565b6153d1868361538a565b95508019841693508086168417925050509392505050565b60006154046153ff6153fa84614052565b614f00565b614052565b9050919050565b6000819050919050565b61541e836153e9565b61543261542a8261540b565b848454615397565b825550505050565b600090565b61544761543a565b615452818484615415565b505050565b5b818110156154765761546b60008261543f565b600181019050615458565b5050565b601f8211156154bb5761548c81615365565b6154958461537a565b810160208510156154a4578190505b6154b86154b08561537a565b830182615457565b50505b505050565b600082821c905092915050565b60006154de600019846008026154c0565b1980831691505092915050565b60006154f783836154cd565b9150826002028217905092915050565b61551082613fa0565b67ffffffffffffffff8111156155295761552861444b565b5b6155338254614cad565b61553e82828561547a565b600060209050601f831160018114615571576000841561555f578287015190505b61556985826154eb565b8655506155d1565b601f19841661557f86615365565b60005b828110156155a757848901518255600182019150602085019450602081019050615582565b868310156155c457848901516155c0601f8916826154cd565b8355505b6001600288020188555050505b505050505050565b7f4d696e74206e6f74206f70656e00000000000000000000000000000000000000600082015250565b600061560f600d83613fab565b915061561a826155d9565b602082019050919050565b6000602082019050818103600083015261563e81615602565b9050919050565b7f4e6f74206d696e74656420796574000000000000000000000000000000000000600082015250565b600061567b600e83613fab565b915061568682615645565b602082019050919050565b600060208201905081810360008301526156aa8161566e565b9050919050565b600081546156be81614cad565b6156c88186614f98565b945060018216600081146156e357600181146156f85761572b565b60ff198316865281151582028601935061572b565b61570185615365565b60005b8381101561572357815481890152600182019150602081019050615704565b838801955050505b50505092915050565b7f2e6a736f6e000000000000000000000000000000000000000000000000000000600082015250565b600061576a600583614f98565b915061577582615734565b600582019050919050565b600061578c82856156b1565b91506157988284614fa3565b91506157a38261575d565b91508190509392505050565b6000815190506157be8161405c565b92915050565b6000602082840312156157da576157d9613db0565b5b60006157e8848285016157af565b91505092915050565b7f4f776e61626c653a206e6577206f776e657220697320746865207a65726f206160008201527f6464726573730000000000000000000000000000000000000000000000000000602082015250565b600061584d602683613fab565b9150615858826157f1565b604082019050919050565b6000602082019050818103600083015261587c81615840565b9050919050565b7f4e487b7100000000000000000000000000000000000000000000000000000000600052601260045260246000fd5b60006158bd82614052565b91506158c883614052565b9250826158d8576158d7615883565b5b828204905092915050565b60006158ee82614052565b9150600082036159015761590061484a565b5b600182039050919050565b7f537472696e67733a20686578206c656e67746820696e73756666696369656e74600082015250565b6000615942602083613fab565b915061594d8261590c565b602082019050919050565b6000602082019050818103600083015261597181615935565b9050919050565b7f4552433732313a206f70657261746f7220717565727920666f72206e6f6e657860008201527f697374656e7420746f6b656e0000000000000000000000000000000000000000602082015250565b60006159d4602c83613fab565b91506159df82615978565b604082019050919050565b60006020820190508181036000830152615a03816159c7565b9050919050565b7f4552433732313a207472616e73666572206f6620746f6b656e2074686174206960008201527f73206e6f74206f776e0000000000000000000000000000000000000000000000602082015250565b6000615a66602983613fab565b9150615a7182615a0a565b604082019050919050565b60006020820190508181036000830152615a9581615a59565b9050919050565b7f4552433732313a207472616e7366657220746f20746865207a65726f2061646460008201527f7265737300000000000000000000000000000000000000000000000000000000602082015250565b6000615af8602483613fab565b9150615b0382615a9c565b604082019050919050565b60006020820190508181036000830152615b2781615aeb565b9050919050565b6000615b3982614052565b9150615b4483614052565b9250828203905081811115615b5c57615b5b61484a565b5b92915050565b7f4552433732313a207472616e7366657220746f206e6f6e20455243373231526560008201527f63656976657220696d706c656d656e7465720000000000000000000000000000602082015250565b6000615bbe603283613fab565b9150615bc982615b62565b604082019050919050565b60006020820190508181036000830152615bed81615bb1565b9050919050565b6000615bff82614052565b91507fffffffffffffffffffffffffffffffffffffffffffffffffffffffffffffffff8203615c3157615c3061484a565b5b600182019050919050565b6000615c4782614052565b9150615c5283614052565b925082615c6257615c61615883565b5b828206905092915050565b7f4552433732313a20617070726f766520746f2063616c6c657200000000000000600082015250565b6000615ca3601983613fab565b9150615cae82615c6d565b602082019050919050565b60006020820190508181036000830152615cd281615c96565b9050919050565b6000819050919050565b615cf4615cef82614390565b615cd9565b82525050565b6000615d068285615ce3565b602082019150615d168284615ce3565b6020820191508190509392505050565b7f4552433732313a206d696e7420746f20746865207a65726f2061646472657373600082015250565b6000615d5c602083613fab565b9150615d6782615d26565b602082019050919050565b60006020820190508181036000830152615d8b81615d4f565b9050919050565b7f4552433732313a20746f6b656e20616c7265616479206d696e74656400000000600082015250565b6000615dc8601c83613fab565b9150615dd382615d92565b602082019050919050565b60006020820190508181036000830152615df781615dbb565b9050919050565b600081519050919050565b600082825260208201905092915050565b6000615e2582615dfe565b615e2f8185615e09565b9350615e3f818560208601613fbc565b615e4881613fe6565b840191505092915050565b6000608082019050615e6860008301876140e7565b615e7560208301866140e7565b615e8260408301856141ea565b8181036060830152615e948184615e1a565b905095945050505050565b600081519050615eae81613de6565b92915050565b600060208284031215615eca57615ec9613db0565b5b6000615ed884828501615e9f565b9150509291505056fea26469706673582212209270f4cd5476300fe77dd37054b90b46b31b126a48325e7802022efa61ffb25264736f6c63430008120033","opcodes":"PUSH1 0x80 PUSH1 0x40 MSTORE PUSH8 0x429D069189E0000 PUSH1 0x8 SSTORE PUSH1 0x5 PUSH1 0x9 PUSH1 0x0 PUSH2 0x100 EXP DUP2 SLOAD DUP2 PUSH4 0xFFFFFFFF MUL NOT AND SWAP1 DUP4 PUSH4 0xFFFFFFFF AND MUL OR SWAP1 SSTORE POP PUSH1 0x14 PUSH1 0x9 PUSH1 0x4 PUSH2 0x100 EXP DUP2 SLOAD DUP2 PUSH4 0xFFFFFFFF MUL NOT AND SWAP1 DUP4 PUSH4 0xFFFFFFFF AND MUL OR SWAP1 SSTORE POP PUSH1 0x0 PUSH1 0x9 PUSH1 0x8 PUSH2 0x100 EXP DUP2 SLOAD DUP2 PUSH4 0xFFFFFFFF MUL NOT AND SWAP1 DUP4 PUSH4 0xFFFFFFFF AND MUL OR SWAP1 SSTORE POP PUSH1 0x0 PUSH1 0x9 PUSH1 0xC PUSH2 0x100 EXP DUP2 SLOAD DUP2 PUSH4 0xFFFFFFFF MUL NOT AND SWAP1 DUP4 PUSH4 0xFFFFFFFF AND MUL OR SWAP1 SSTORE POP PUSH1 0x0 PUSH1 0x9 PUSH1 0x10 PUSH2 0x100 EXP DUP2 SLOAD DUP2 PUSH1 0xFF MUL NOT AND SWAP1 DUP4 ISZERO ISZERO MUL OR SWAP1 SSTORE POP PUSH1 0x0 PUSH1 0xC PUSH1 0x0 PUSH2 0x100 EXP DUP2 SLOAD DUP2 PUSH1 0xFF MUL NOT AND SWAP1 DUP4 ISZERO ISZERO MUL OR SWAP1 SSTORE POP PUSH1 0x32 PUSH1 0xC PUSH1 0x1 PUSH2 0x100 EXP DUP2 SLOAD DUP2 PUSH4 0xFFFFFFFF MUL NOT AND SWAP1 DUP4 PUSH4 0xFFFFFFFF AND MUL OR SWAP1 SSTORE POP PUSH20 0x268E1FEE56498CC24758864AA092F870E8220F74 PUSH1 0xC PUSH1 0x5 PUSH2 0x100 EXP DUP2 SLOAD DUP2 PUSH20 0xFFFFFFFFFFFFFFFFFFFFFFFFFFFFFFFFFFFFFFFF MUL NOT AND SWAP1 DUP4 PUSH20 0xFFFFFFFFFFFFFFFFFFFFFFFFFFFFFFFFFFFFFFFF AND MUL OR SWAP1 SSTORE POP PUSH1 0x0 PUSH1 0xC PUSH1 0x19 PUSH2 0x100 EXP DUP2 SLOAD DUP2 PUSH1 0xFF MUL NOT AND SWAP1 DUP4 ISZERO ISZERO MUL OR SWAP1 SSTORE POP PUSH1 0x0 PUSH1 0xE PUSH1 0x0 PUSH2 0x100 EXP DUP2 SLOAD DUP2 PUSH1 0xFF MUL NOT AND SWAP1 DUP4 ISZERO ISZERO MUL OR SWAP1 SSTORE POP CALLVALUE DUP1 ISZERO PUSH3 0x188 JUMPI PUSH1 0x0 DUP1 REVERT JUMPDEST POP PUSH1 0x40 MLOAD PUSH3 0x68C4 CODESIZE SUB DUP1 PUSH3 0x68C4 DUP4 CODECOPY DUP2 DUP2 ADD PUSH1 0x40 MSTORE DUP2 ADD SWAP1 PUSH3 0x1AE SWAP2 SWAP1 PUSH3 0x57C JUMP JUMPDEST DUP6 DUP6 DUP6 DUP6 DUP6 DUP6 DUP5 DUP5 DUP2 PUSH1 0x0 SWAP1 DUP2 PUSH3 0x1C7 SWAP2 SWAP1 PUSH3 0x8B6 JUMP JUMPDEST POP DUP1 PUSH1 0x1 SWAP1 DUP2 PUSH3 0x1D9 SWAP2 SWAP1 PUSH3 0x8B6 JUMP JUMPDEST POP POP POP PUSH3 0x1FC PUSH3 0x1F0 PUSH3 0x262 PUSH1 0x20 SHL PUSH1 0x20 SHR JUMP JUMPDEST PUSH3 0x26A PUSH1 0x20 SHL PUSH1 0x20 SHR JUMP JUMPDEST DUP6 PUSH1 0x7 SWAP1 DUP2 PUSH3 0x20D SWAP2 SWAP1 PUSH3 0x8B6 JUMP JUMPDEST POP DUP3 PUSH1 0x9 PUSH1 0xC PUSH2 0x100 EXP DUP2 SLOAD DUP2 PUSH4 0xFFFFFFFF MUL NOT AND SWAP1 DUP4 PUSH4 0xFFFFFFFF AND MUL OR SWAP1 SSTORE POP DUP2 PUSH1 0x8 DUP2 SWAP1 SSTORE POP DUP1 PUSH1 0x9 PUSH1 0x10 PUSH2 0x100 EXP DUP2 SLOAD DUP2 PUSH1 0xFF MUL NOT AND SWAP1 DUP4 ISZERO ISZERO MUL OR SWAP1 SSTORE POP POP POP POP POP POP POP POP POP POP POP POP POP PUSH3 0x99D JUMP JUMPDEST PUSH1 0x0 CALLER SWAP1 POP SWAP1 JUMP JUMPDEST PUSH1 0x0 PUSH1 0x6 PUSH1 0x0 SWAP1 SLOAD SWAP1 PUSH2 0x100 EXP SWAP1 DIV PUSH20 0xFFFFFFFFFFFFFFFFFFFFFFFFFFFFFFFFFFFFFFFF AND SWAP1 POP DUP2 PUSH1 0x6 PUSH1 0x0 PUSH2 0x100 EXP DUP2 SLOAD DUP2 PUSH20 0xFFFFFFFFFFFFFFFFFFFFFFFFFFFFFFFFFFFFFFFF MUL NOT AND SWAP1 DUP4 PUSH20 0xFFFFFFFFFFFFFFFFFFFFFFFFFFFFFFFFFFFFFFFF AND MUL OR SWAP1 SSTORE POP DUP2 PUSH20 0xFFFFFFFFFFFFFFFFFFFFFFFFFFFFFFFFFFFFFFFF AND DUP2 PUSH20 0xFFFFFFFFFFFFFFFFFFFFFFFFFFFFFFFFFFFFFFFF AND PUSH32 0x8BE0079C531659141344CD1FD0A4F28419497F9722A3DAAFE3B4186F6B6457E0 PUSH1 0x40 MLOAD PUSH1 0x40 MLOAD DUP1 SWAP2 SUB SWAP1 LOG3 POP POP JUMP JUMPDEST PUSH1 0x0 PUSH1 0x40 MLOAD SWAP1 POP SWAP1 JUMP JUMPDEST PUSH1 0x0 DUP1 REVERT JUMPDEST PUSH1 0x0 DUP1 REVERT JUMPDEST PUSH1 0x0 DUP1 REVERT JUMPDEST PUSH1 0x0 DUP1 REVERT JUMPDEST PUSH1 0x0 PUSH1 0x1F NOT PUSH1 0x1F DUP4 ADD AND SWAP1 POP SWAP2 SWAP1 POP JUMP JUMPDEST PUSH32 0x4E487B7100000000000000000000000000000000000000000000000000000000 PUSH1 0x0 MSTORE PUSH1 0x41 PUSH1 0x4 MSTORE PUSH1 0x24 PUSH1 0x0 REVERT JUMPDEST PUSH3 0x399 DUP3 PUSH3 0x34E JUMP JUMPDEST DUP2 ADD DUP2 DUP2 LT PUSH8 0xFFFFFFFFFFFFFFFF DUP3 GT OR ISZERO PUSH3 0x3BB JUMPI PUSH3 0x3BA PUSH3 0x35F JUMP JUMPDEST JUMPDEST DUP1 PUSH1 0x40 MSTORE POP POP POP JUMP JUMPDEST PUSH1 0x0 PUSH3 0x3D0 PUSH3 0x330 JUMP JUMPDEST SWAP1 POP PUSH3 0x3DE DUP3 DUP3 PUSH3 0x38E JUMP JUMPDEST SWAP2 SWAP1 POP JUMP JUMPDEST PUSH1 0x0 PUSH8 0xFFFFFFFFFFFFFFFF DUP3 GT ISZERO PUSH3 0x401 JUMPI PUSH3 0x400 PUSH3 0x35F JUMP JUMPDEST JUMPDEST PUSH3 0x40C DUP3 PUSH3 0x34E JUMP JUMPDEST SWAP1 POP PUSH1 0x20 DUP2 ADD SWAP1 POP SWAP2 SWAP1 POP JUMP JUMPDEST PUSH1 0x0 JUMPDEST DUP4 DUP2 LT ISZERO PUSH3 0x439 JUMPI DUP1 DUP3 ADD MLOAD DUP2 DUP5 ADD MSTORE PUSH1 0x20 DUP2 ADD SWAP1 POP PUSH3 0x41C JUMP JUMPDEST PUSH1 0x0 DUP5 DUP5 ADD MSTORE POP POP POP POP JUMP JUMPDEST PUSH1 0x0 PUSH3 0x45C PUSH3 0x456 DUP5 PUSH3 0x3E3 JUMP JUMPDEST PUSH3 0x3C4 JUMP JUMPDEST SWAP1 POP DUP3 DUP2 MSTORE PUSH1 0x20 DUP2 ADD DUP5 DUP5 DUP5 ADD GT ISZERO PUSH3 0x47B JUMPI PUSH3 0x47A PUSH3 0x349 JUMP JUMPDEST JUMPDEST PUSH3 0x488 DUP5 DUP3 DUP6 PUSH3 0x419 JUMP JUMPDEST POP SWAP4 SWAP3 POP POP POP JUMP JUMPDEST PUSH1 0x0 DUP3 PUSH1 0x1F DUP4 ADD SLT PUSH3 0x4A8 JUMPI PUSH3 0x4A7 PUSH3 0x344 JUMP JUMPDEST JUMPDEST DUP2 MLOAD PUSH3 0x4BA DUP5 DUP3 PUSH1 0x20 DUP7 ADD PUSH3 0x445 JUMP JUMPDEST SWAP2 POP POP SWAP3 SWAP2 POP POP JUMP JUMPDEST PUSH1 0x0 PUSH4 0xFFFFFFFF DUP3 AND SWAP1 POP SWAP2 SWAP1 POP JUMP JUMPDEST PUSH3 0x4DE DUP2 PUSH3 0x4C3 JUMP JUMPDEST DUP2 EQ PUSH3 0x4EA JUMPI PUSH1 0x0 DUP1 REVERT JUMPDEST POP JUMP JUMPDEST PUSH1 0x0 DUP2 MLOAD SWAP1 POP PUSH3 0x4FE DUP2 PUSH3 0x4D3 JUMP JUMPDEST SWAP3 SWAP2 POP POP JUMP JUMPDEST PUSH1 0x0 DUP2 SWAP1 POP SWAP2 SWAP1 POP JUMP JUMPDEST PUSH3 0x519 DUP2 PUSH3 0x504 JUMP JUMPDEST DUP2 EQ PUSH3 0x525 JUMPI PUSH1 0x0 DUP1 REVERT JUMPDEST POP JUMP JUMPDEST PUSH1 0x0 DUP2 MLOAD SWAP1 POP PUSH3 0x539 DUP2 PUSH3 0x50E JUMP JUMPDEST SWAP3 SWAP2 POP POP JUMP JUMPDEST PUSH1 0x0 DUP2 ISZERO ISZERO SWAP1 POP SWAP2 SWAP1 POP JUMP JUMPDEST PUSH3 0x556 DUP2 PUSH3 0x53F JUMP JUMPDEST DUP2 EQ PUSH3 0x562 JUMPI PUSH1 0x0 DUP1 REVERT JUMPDEST POP JUMP JUMPDEST PUSH1 0x0 DUP2 MLOAD SWAP1 POP PUSH3 0x576 DUP2 PUSH3 0x54B JUMP JUMPDEST SWAP3 SWAP2 POP POP JUMP JUMPDEST PUSH1 0x0 DUP1 PUSH1 0x0 DUP1 PUSH1 0x0 DUP1 PUSH1 0xC0 DUP8 DUP10 SUB SLT ISZERO PUSH3 0x59C JUMPI PUSH3 0x59B PUSH3 0x33A JUMP JUMPDEST JUMPDEST PUSH1 0x0 DUP8 ADD MLOAD PUSH8 0xFFFFFFFFFFFFFFFF DUP2 GT ISZERO PUSH3 0x5BD JUMPI PUSH3 0x5BC PUSH3 0x33F JUMP JUMPDEST JUMPDEST PUSH3 0x5CB DUP10 DUP3 DUP11 ADD PUSH3 0x490 JUMP JUMPDEST SWAP7 POP POP PUSH1 0x20 DUP8 ADD MLOAD PUSH8 0xFFFFFFFFFFFFFFFF DUP2 GT ISZERO PUSH3 0x5EF JUMPI PUSH3 0x5EE PUSH3 0x33F JUMP JUMPDEST JUMPDEST PUSH3 0x5FD DUP10 DUP3 DUP11 ADD PUSH3 0x490 JUMP JUMPDEST SWAP6 POP POP PUSH1 0x40 DUP8 ADD MLOAD PUSH8 0xFFFFFFFFFFFFFFFF DUP2 GT ISZERO PUSH3 0x621 JUMPI PUSH3 0x620 PUSH3 0x33F JUMP JUMPDEST JUMPDEST PUSH3 0x62F DUP10 DUP3 DUP11 ADD PUSH3 0x490 JUMP JUMPDEST SWAP5 POP POP PUSH1 0x60 PUSH3 0x642 DUP10 DUP3 DUP11 ADD PUSH3 0x4ED JUMP JUMPDEST SWAP4 POP POP PUSH1 0x80 PUSH3 0x655 DUP10 DUP3 DUP11 ADD PUSH3 0x528 JUMP JUMPDEST SWAP3 POP POP PUSH1 0xA0 PUSH3 0x668 DUP10 DUP3 DUP11 ADD PUSH3 0x565 JUMP JUMPDEST SWAP2 POP POP SWAP3 SWAP6 POP SWAP3 SWAP6 POP SWAP3 SWAP6 JUMP JUMPDEST PUSH1 0x0 DUP2 MLOAD SWAP1 POP SWAP2 SWAP1 POP JUMP JUMPDEST PUSH32 0x4E487B7100000000000000000000000000000000000000000000000000000000 PUSH1 0x0 MSTORE PUSH1 0x22 PUSH1 0x4 MSTORE PUSH1 0x24 PUSH1 0x0 REVERT JUMPDEST PUSH1 0x0 PUSH1 0x2 DUP3 DIV SWAP1 POP PUSH1 0x1 DUP3 AND DUP1 PUSH3 0x6C8 JUMPI PUSH1 0x7F DUP3 AND SWAP2 POP JUMPDEST PUSH1 0x20 DUP3 LT DUP2 SUB PUSH3 0x6DE JUMPI PUSH3 0x6DD PUSH3 0x680 JUMP JUMPDEST JUMPDEST POP SWAP2 SWAP1 POP JUMP JUMPDEST PUSH1 0x0 DUP2 SWAP1 POP DUP2 PUSH1 0x0 MSTORE PUSH1 0x20 PUSH1 0x0 KECCAK256 SWAP1 POP SWAP2 SWAP1 POP JUMP JUMPDEST PUSH1 0x0 PUSH1 0x20 PUSH1 0x1F DUP4 ADD DIV SWAP1 POP SWAP2 SWAP1 POP JUMP JUMPDEST PUSH1 0x0 DUP3 DUP3 SHL SWAP1 POP SWAP3 SWAP2 POP POP JUMP JUMPDEST PUSH1 0x0 PUSH1 0x8 DUP4 MUL PUSH3 0x748 PUSH32 0xFFFFFFFFFFFFFFFFFFFFFFFFFFFFFFFFFFFFFFFFFFFFFFFFFFFFFFFFFFFFFFFF DUP3 PUSH3 0x709 JUMP JUMPDEST PUSH3 0x754 DUP7 DUP4 PUSH3 0x709 JUMP JUMPDEST SWAP6 POP DUP1 NOT DUP5 AND SWAP4 POP DUP1 DUP7 AND DUP5 OR SWAP3 POP POP POP SWAP4 SWAP3 POP POP POP JUMP JUMPDEST PUSH1 0x0 DUP2 SWAP1 POP SWAP2 SWAP1 POP JUMP JUMPDEST PUSH1 0x0 PUSH3 0x797 PUSH3 0x791 PUSH3 0x78B DUP5 PUSH3 0x504 JUMP JUMPDEST PUSH3 0x76C JUMP JUMPDEST PUSH3 0x504 JUMP JUMPDEST SWAP1 POP SWAP2 SWAP1 POP JUMP JUMPDEST PUSH1 0x0 DUP2 SWAP1 POP SWAP2 SWAP1 POP JUMP JUMPDEST PUSH3 0x7B3 DUP4 PUSH3 0x776 JUMP JUMPDEST PUSH3 0x7CB PUSH3 0x7C2 DUP3 PUSH3 0x79E JUMP JUMPDEST DUP5 DUP5 SLOAD PUSH3 0x716 JUMP JUMPDEST DUP3 SSTORE POP POP POP POP JUMP JUMPDEST PUSH1 0x0 SWAP1 JUMP JUMPDEST PUSH3 0x7E2 PUSH3 0x7D3 JUMP JUMPDEST PUSH3 0x7EF DUP2 DUP5 DUP5 PUSH3 0x7A8 JUMP JUMPDEST POP POP POP JUMP JUMPDEST JUMPDEST DUP2 DUP2 LT ISZERO PUSH3 0x817 JUMPI PUSH3 0x80B PUSH1 0x0 DUP3 PUSH3 0x7D8 JUMP JUMPDEST PUSH1 0x1 DUP2 ADD SWAP1 POP PUSH3 0x7F5 JUMP JUMPDEST POP POP JUMP JUMPDEST PUSH1 0x1F DUP3 GT ISZERO PUSH3 0x866 JUMPI PUSH3 0x830 DUP2 PUSH3 0x6E4 JUMP JUMPDEST PUSH3 0x83B DUP5 PUSH3 0x6F9 JUMP JUMPDEST DUP2 ADD PUSH1 0x20 DUP6 LT ISZERO PUSH3 0x84B JUMPI DUP2 SWAP1 POP JUMPDEST PUSH3 0x863 PUSH3 0x85A DUP6 PUSH3 0x6F9 JUMP JUMPDEST DUP4 ADD DUP3 PUSH3 0x7F4 JUMP JUMPDEST POP POP JUMPDEST POP POP POP JUMP JUMPDEST PUSH1 0x0 DUP3 DUP3 SHR SWAP1 POP SWAP3 SWAP2 POP POP JUMP JUMPDEST PUSH1 0x0 PUSH3 0x88B PUSH1 0x0 NOT DUP5 PUSH1 0x8 MUL PUSH3 0x86B JUMP JUMPDEST NOT DUP1 DUP4 AND SWAP2 POP POP SWAP3 SWAP2 POP POP JUMP JUMPDEST PUSH1 0x0 PUSH3 0x8A6 DUP4 DUP4 PUSH3 0x878 JUMP JUMPDEST SWAP2 POP DUP3 PUSH1 0x2 MUL DUP3 OR SWAP1 POP SWAP3 SWAP2 POP POP JUMP JUMPDEST PUSH3 0x8C1 DUP3 PUSH3 0x675 JUMP JUMPDEST PUSH8 0xFFFFFFFFFFFFFFFF DUP2 GT ISZERO PUSH3 0x8DD JUMPI PUSH3 0x8DC PUSH3 0x35F JUMP JUMPDEST JUMPDEST PUSH3 0x8E9 DUP3 SLOAD PUSH3 0x6AF JUMP JUMPDEST PUSH3 0x8F6 DUP3 DUP3 DUP6 PUSH3 0x81B JUMP JUMPDEST PUSH1 0x0 PUSH1 0x20 SWAP1 POP PUSH1 0x1F DUP4 GT PUSH1 0x1 DUP2 EQ PUSH3 0x92E JUMPI PUSH1 0x0 DUP5 ISZERO PUSH3 0x919 JUMPI DUP3 DUP8 ADD MLOAD SWAP1 POP JUMPDEST PUSH3 0x925 DUP6 DUP3 PUSH3 0x898 JUMP JUMPDEST DUP7 SSTORE POP PUSH3 0x995 JUMP JUMPDEST PUSH1 0x1F NOT DUP5 AND PUSH3 0x93E DUP7 PUSH3 0x6E4 JUMP JUMPDEST PUSH1 0x0 JUMPDEST DUP3 DUP2 LT ISZERO PUSH3 0x968 JUMPI DUP5 DUP10 ADD MLOAD DUP3 SSTORE PUSH1 0x1 DUP3 ADD SWAP2 POP PUSH1 0x20 DUP6 ADD SWAP5 POP PUSH1 0x20 DUP2 ADD SWAP1 POP PUSH3 0x941 JUMP JUMPDEST DUP7 DUP4 LT ISZERO PUSH3 0x988 JUMPI DUP5 DUP10 ADD MLOAD PUSH3 0x984 PUSH1 0x1F DUP10 AND DUP3 PUSH3 0x878 JUMP JUMPDEST DUP4 SSTORE POP JUMPDEST PUSH1 0x1 PUSH1 0x2 DUP9 MUL ADD DUP9 SSTORE POP POP POP JUMPDEST POP POP POP POP POP POP JUMP JUMPDEST PUSH2 0x5F17 DUP1 PUSH3 0x9AD PUSH1 0x0 CODECOPY PUSH1 0x0 RETURN INVALID PUSH1 0x80 PUSH1 0x40 MSTORE PUSH1 0x4 CALLDATASIZE LT PUSH2 0x2AE JUMPI PUSH1 0x0 CALLDATALOAD PUSH1 0xE0 SHR DUP1 PUSH4 0x715018A6 GT PUSH2 0x175 JUMPI DUP1 PUSH4 0xB3EC6F14 GT PUSH2 0xDC JUMPI DUP1 PUSH4 0xE65D6B49 GT PUSH2 0x95 JUMPI DUP1 PUSH4 0xF5B96621 GT PUSH2 0x6F JUMPI DUP1 PUSH4 0xF5B96621 EQ PUSH2 0xA5D JUMPI DUP1 PUSH4 0xF8048D8F EQ PUSH2 0xA86 JUMPI DUP1 PUSH4 0xFCFFF16F EQ PUSH2 0xAAF JUMPI DUP1 PUSH4 0xFE2C7FEE EQ PUSH2 0xADA JUMPI PUSH2 0x2AE JUMP JUMPDEST DUP1 PUSH4 0xE65D6B49 EQ PUSH2 0x9CC JUMPI DUP1 PUSH4 0xE985E9C5 EQ PUSH2 0x9F7 JUMPI DUP1 PUSH4 0xF2FDE38B EQ PUSH2 0xA34 JUMPI PUSH2 0x2AE JUMP JUMPDEST DUP1 PUSH4 0xB3EC6F14 EQ PUSH2 0x8AC JUMPI DUP1 PUSH4 0xB88D4FDE EQ PUSH2 0x8D5 JUMPI DUP1 PUSH4 0xBEE6348A EQ PUSH2 0x8FE JUMPI DUP1 PUSH4 0xC87B56DD EQ PUSH2 0x929 JUMPI DUP1 PUSH4 0xD396639D EQ PUSH2 0x966 JUMPI DUP1 PUSH4 0xDE8AA2B7 EQ PUSH2 0x98F JUMPI PUSH2 0x2AE JUMP JUMPDEST DUP1 PUSH4 0x9F0E94F5 GT PUSH2 0x12E JUMPI DUP1 PUSH4 0x9F0E94F5 EQ PUSH2 0x7BF JUMPI DUP1 PUSH4 0xA0BCFC7F EQ PUSH2 0x7FC JUMPI DUP1 PUSH4 0xA102EB19 EQ PUSH2 0x825 JUMPI DUP1 PUSH4 0xA22CB465 EQ PUSH2 0x850 JUMPI DUP1 PUSH4 0xA475B5DD EQ PUSH2 0x879 JUMPI DUP1 PUSH4 0xA71BBEBE EQ PUSH2 0x890 JUMPI PUSH2 0x2AE JUMP JUMPDEST DUP1 PUSH4 0x715018A6 EQ PUSH2 0x6E9 JUMPI DUP1 PUSH4 0x729AD39E EQ PUSH2 0x700 JUMPI DUP1 PUSH4 0x856AB401 EQ PUSH2 0x729 JUMPI DUP1 PUSH4 0x8DA5CB5B EQ PUSH2 0x740 JUMPI DUP1 PUSH4 0x95D89B41 EQ PUSH2 0x76B JUMPI DUP1 PUSH4 0x9E5666CD EQ PUSH2 0x796 JUMPI PUSH2 0x2AE JUMP JUMPDEST DUP1 PUSH4 0x23B872DD GT PUSH2 0x219 JUMPI DUP1 PUSH4 0x453C2310 GT PUSH2 0x1D2 JUMPI DUP1 PUSH4 0x453C2310 EQ PUSH2 0x5C5 JUMPI DUP1 PUSH4 0x507E094F EQ PUSH2 0x5F0 JUMPI DUP1 PUSH4 0x51830227 EQ PUSH2 0x61B JUMPI DUP1 PUSH4 0x6352211E EQ PUSH2 0x646 JUMPI DUP1 PUSH4 0x6FDCA5E0 EQ PUSH2 0x683 JUMPI DUP1 PUSH4 0x70A08231 EQ PUSH2 0x6AC JUMPI PUSH2 0x2AE JUMP JUMPDEST DUP1 PUSH4 0x23B872DD EQ PUSH2 0x4EC JUMPI DUP1 PUSH4 0x3006B543 EQ PUSH2 0x515 JUMPI DUP1 PUSH4 0x3CCFD60B EQ PUSH2 0x53E JUMPI DUP1 PUSH4 0x3F60BB5D EQ PUSH2 0x548 JUMPI DUP1 PUSH4 0x42842E0E EQ PUSH2 0x573 JUMPI DUP1 PUSH4 0x44A0D68A EQ PUSH2 0x59C JUMPI PUSH2 0x2AE JUMP JUMPDEST DUP1 PUSH4 0x95EA7B3 GT PUSH2 0x26B JUMPI DUP1 PUSH4 0x95EA7B3 EQ PUSH2 0x3C8 JUMPI DUP1 PUSH4 0xCAC36B2 EQ PUSH2 0x3F1 JUMPI DUP1 PUSH4 0xF99BACB EQ PUSH2 0x41C JUMPI DUP1 PUSH4 0xFD4071C EQ PUSH2 0x459 JUMPI DUP1 PUSH4 0x13FAEDE6 EQ PUSH2 0x496 JUMPI DUP1 PUSH4 0x18160DDD EQ PUSH2 0x4C1 JUMPI PUSH2 0x2AE JUMP JUMPDEST DUP1 PUSH4 0x1FFC9A7 EQ PUSH2 0x2B3 JUMPI DUP1 PUSH4 0x364D22A EQ PUSH2 0x2F0 JUMPI DUP1 PUSH4 0x47FC9AA EQ PUSH2 0x30C JUMPI DUP1 PUSH4 0x6FDDE03 EQ PUSH2 0x337 JUMPI DUP1 PUSH4 0x81812FC EQ PUSH2 0x362 JUMPI DUP1 PUSH4 0x92501A0 EQ PUSH2 0x39F JUMPI JUMPDEST PUSH1 0x0 DUP1 REVERT JUMPDEST CALLVALUE DUP1 ISZERO PUSH2 0x2BF JUMPI PUSH1 0x0 DUP1 REVERT JUMPDEST POP PUSH2 0x2DA PUSH1 0x4 DUP1 CALLDATASIZE SUB DUP2 ADD SWAP1 PUSH2 0x2D5 SWAP2 SWAP1 PUSH2 0x3E12 JUMP JUMPDEST PUSH2 0xB03 JUMP JUMPDEST PUSH1 0x40 MLOAD PUSH2 0x2E7 SWAP2 SWAP1 PUSH2 0x3E5A JUMP JUMPDEST PUSH1 0x40 MLOAD DUP1 SWAP2 SUB SWAP1 RETURN JUMPDEST PUSH2 0x30A PUSH1 0x4 DUP1 CALLDATASIZE SUB DUP2 ADD SWAP1 PUSH2 0x305 SWAP2 SWAP1 PUSH2 0x3F16 JUMP JUMPDEST PUSH2 0xBE5 JUMP JUMPDEST STOP JUMPDEST CALLVALUE DUP1 ISZERO PUSH2 0x318 JUMPI PUSH1 0x0 DUP1 REVERT JUMPDEST POP PUSH2 0x321 PUSH2 0xF7B JUMP JUMPDEST PUSH1 0x40 MLOAD PUSH2 0x32E SWAP2 SWAP1 PUSH2 0x3F85 JUMP JUMPDEST PUSH1 0x40 MLOAD DUP1 SWAP2 SUB SWAP1 RETURN JUMPDEST CALLVALUE DUP1 ISZERO PUSH2 0x343 JUMPI PUSH1 0x0 DUP1 REVERT JUMPDEST POP PUSH2 0x34C PUSH2 0xF91 JUMP JUMPDEST PUSH1 0x40 MLOAD PUSH2 0x359 SWAP2 SWAP1 PUSH2 0x4030 JUMP JUMPDEST PUSH1 0x40 MLOAD DUP1 SWAP2 SUB SWAP1 RETURN JUMPDEST CALLVALUE DUP1 ISZERO PUSH2 0x36E JUMPI PUSH1 0x0 DUP1 REVERT JUMPDEST POP PUSH2 0x389 PUSH1 0x4 DUP1 CALLDATASIZE SUB DUP2 ADD SWAP1 PUSH2 0x384 SWAP2 SWAP1 PUSH2 0x4088 JUMP JUMPDEST PUSH2 0x1023 JUMP JUMPDEST PUSH1 0x40 MLOAD PUSH2 0x396 SWAP2 SWAP1 PUSH2 0x40F6 JUMP JUMPDEST PUSH1 0x40 MLOAD DUP1 SWAP2 SUB SWAP1 RETURN JUMPDEST CALLVALUE DUP1 ISZERO PUSH2 0x3AB JUMPI PUSH1 0x0 DUP1 REVERT JUMPDEST POP PUSH2 0x3C6 PUSH1 0x4 DUP1 CALLDATASIZE SUB DUP2 ADD SWAP1 PUSH2 0x3C1 SWAP2 SWAP1 PUSH2 0x4111 JUMP JUMPDEST PUSH2 0x10A8 JUMP JUMPDEST STOP JUMPDEST CALLVALUE DUP1 ISZERO PUSH2 0x3D4 JUMPI PUSH1 0x0 DUP1 REVERT JUMPDEST POP PUSH2 0x3EF PUSH1 0x4 DUP1 CALLDATASIZE SUB DUP2 ADD SWAP1 PUSH2 0x3EA SWAP2 SWAP1 PUSH2 0x416A JUMP JUMPDEST PUSH2 0x116E JUMP JUMPDEST STOP JUMPDEST CALLVALUE DUP1 ISZERO PUSH2 0x3FD JUMPI PUSH1 0x0 DUP1 REVERT JUMPDEST POP PUSH2 0x406 PUSH2 0x1285 JUMP JUMPDEST PUSH1 0x40 MLOAD PUSH2 0x413 SWAP2 SWAP1 PUSH2 0x4030 JUMP JUMPDEST PUSH1 0x40 MLOAD DUP1 SWAP2 SUB SWAP1 RETURN JUMPDEST CALLVALUE DUP1 ISZERO PUSH2 0x428 JUMPI PUSH1 0x0 DUP1 REVERT JUMPDEST POP PUSH2 0x443 PUSH1 0x4 DUP1 CALLDATASIZE SUB DUP2 ADD SWAP1 PUSH2 0x43E SWAP2 SWAP1 PUSH2 0x41AA JUMP JUMPDEST PUSH2 0x1317 JUMP JUMPDEST PUSH1 0x40 MLOAD PUSH2 0x450 SWAP2 SWAP1 PUSH2 0x4030 JUMP JUMPDEST PUSH1 0x40 MLOAD DUP1 SWAP2 SUB SWAP1 RETURN JUMPDEST CALLVALUE DUP1 ISZERO PUSH2 0x465 JUMPI PUSH1 0x0 DUP1 REVERT JUMPDEST POP PUSH2 0x480 PUSH1 0x4 DUP1 CALLDATASIZE SUB DUP2 ADD SWAP1 PUSH2 0x47B SWAP2 SWAP1 PUSH2 0x41AA JUMP JUMPDEST PUSH2 0x142E JUMP JUMPDEST PUSH1 0x40 MLOAD PUSH2 0x48D SWAP2 SWAP1 PUSH2 0x4030 JUMP JUMPDEST PUSH1 0x40 MLOAD DUP1 SWAP2 SUB SWAP1 RETURN JUMPDEST CALLVALUE DUP1 ISZERO PUSH2 0x4A2 JUMPI PUSH1 0x0 DUP1 REVERT JUMPDEST POP PUSH2 0x4AB PUSH2 0x1614 JUMP JUMPDEST PUSH1 0x40 MLOAD PUSH2 0x4B8 SWAP2 SWAP1 PUSH2 0x41F9 JUMP JUMPDEST PUSH1 0x40 MLOAD DUP1 SWAP2 SUB SWAP1 RETURN JUMPDEST CALLVALUE DUP1 ISZERO PUSH2 0x4CD JUMPI PUSH1 0x0 DUP1 REVERT JUMPDEST POP PUSH2 0x4D6 PUSH2 0x161A JUMP JUMPDEST PUSH1 0x40 MLOAD PUSH2 0x4E3 SWAP2 SWAP1 PUSH2 0x3F85 JUMP JUMPDEST PUSH1 0x40 MLOAD DUP1 SWAP2 SUB SWAP1 RETURN JUMPDEST CALLVALUE DUP1 ISZERO PUSH2 0x4F8 JUMPI PUSH1 0x0 DUP1 REVERT JUMPDEST POP PUSH2 0x513 PUSH1 0x4 DUP1 CALLDATASIZE SUB DUP2 ADD SWAP1 PUSH2 0x50E SWAP2 SWAP1 PUSH2 0x4214 JUMP JUMPDEST PUSH2 0x1630 JUMP JUMPDEST STOP JUMPDEST CALLVALUE DUP1 ISZERO PUSH2 0x521 JUMPI PUSH1 0x0 DUP1 REVERT JUMPDEST POP PUSH2 0x53C PUSH1 0x4 DUP1 CALLDATASIZE SUB DUP2 ADD SWAP1 PUSH2 0x537 SWAP2 SWAP1 PUSH2 0x4111 JUMP JUMPDEST PUSH2 0x1690 JUMP JUMPDEST STOP JUMPDEST PUSH2 0x546 PUSH2 0x1756 JUMP JUMPDEST STOP JUMPDEST CALLVALUE DUP1 ISZERO PUSH2 0x554 JUMPI PUSH1 0x0 DUP1 REVERT JUMPDEST POP PUSH2 0x55D PUSH2 0x184B JUMP JUMPDEST PUSH1 0x40 MLOAD PUSH2 0x56A SWAP2 SWAP1 PUSH2 0x3E5A JUMP JUMPDEST PUSH1 0x40 MLOAD DUP1 SWAP2 SUB SWAP1 RETURN JUMPDEST CALLVALUE DUP1 ISZERO PUSH2 0x57F JUMPI PUSH1 0x0 DUP1 REVERT JUMPDEST POP PUSH2 0x59A PUSH1 0x4 DUP1 CALLDATASIZE SUB DUP2 ADD SWAP1 PUSH2 0x595 SWAP2 SWAP1 PUSH2 0x4214 JUMP JUMPDEST PUSH2 0x185E JUMP JUMPDEST STOP JUMPDEST CALLVALUE DUP1 ISZERO PUSH2 0x5A8 JUMPI PUSH1 0x0 DUP1 REVERT JUMPDEST POP PUSH2 0x5C3 PUSH1 0x4 DUP1 CALLDATASIZE SUB DUP2 ADD SWAP1 PUSH2 0x5BE SWAP2 SWAP1 PUSH2 0x4088 JUMP JUMPDEST PUSH2 0x187E JUMP JUMPDEST STOP JUMPDEST CALLVALUE DUP1 ISZERO PUSH2 0x5D1 JUMPI PUSH1 0x0 DUP1 REVERT JUMPDEST POP PUSH2 0x5DA PUSH2 0x190E JUMP JUMPDEST PUSH1 0x40 MLOAD PUSH2 0x5E7 SWAP2 SWAP1 PUSH2 0x3F85 JUMP JUMPDEST PUSH1 0x40 MLOAD DUP1 SWAP2 SUB SWAP1 RETURN JUMPDEST CALLVALUE DUP1 ISZERO PUSH2 0x5FC JUMPI PUSH1 0x0 DUP1 REVERT JUMPDEST POP PUSH2 0x605 PUSH2 0x1924 JUMP JUMPDEST PUSH1 0x40 MLOAD PUSH2 0x612 SWAP2 SWAP1 PUSH2 0x3F85 JUMP JUMPDEST PUSH1 0x40 MLOAD DUP1 SWAP2 SUB SWAP1 RETURN JUMPDEST CALLVALUE DUP1 ISZERO PUSH2 0x627 JUMPI PUSH1 0x0 DUP1 REVERT JUMPDEST POP PUSH2 0x630 PUSH2 0x193A JUMP JUMPDEST PUSH1 0x40 MLOAD PUSH2 0x63D SWAP2 SWAP1 PUSH2 0x3E5A JUMP JUMPDEST PUSH1 0x40 MLOAD DUP1 SWAP2 SUB SWAP1 RETURN JUMPDEST CALLVALUE DUP1 ISZERO PUSH2 0x652 JUMPI PUSH1 0x0 DUP1 REVERT JUMPDEST POP PUSH2 0x66D PUSH1 0x4 DUP1 CALLDATASIZE SUB DUP2 ADD SWAP1 PUSH2 0x668 SWAP2 SWAP1 PUSH2 0x4088 JUMP JUMPDEST PUSH2 0x194D JUMP JUMPDEST PUSH1 0x40 MLOAD PUSH2 0x67A SWAP2 SWAP1 PUSH2 0x40F6 JUMP JUMPDEST PUSH1 0x40 MLOAD DUP1 SWAP2 SUB SWAP1 RETURN JUMPDEST CALLVALUE DUP1 ISZERO PUSH2 0x68F JUMPI PUSH1 0x0 DUP1 REVERT JUMPDEST POP PUSH2 0x6AA PUSH1 0x4 DUP1 CALLDATASIZE SUB DUP2 ADD SWAP1 PUSH2 0x6A5 SWAP2 SWAP1 PUSH2 0x4293 JUMP JUMPDEST PUSH2 0x19FE JUMP JUMPDEST STOP JUMPDEST CALLVALUE DUP1 ISZERO PUSH2 0x6B8 JUMPI PUSH1 0x0 DUP1 REVERT JUMPDEST POP PUSH2 0x6D3 PUSH1 0x4 DUP1 CALLDATASIZE SUB DUP2 ADD SWAP1 PUSH2 0x6CE SWAP2 SWAP1 PUSH2 0x42C0 JUMP JUMPDEST PUSH2 0x1AB2 JUMP JUMPDEST PUSH1 0x40 MLOAD PUSH2 0x6E0 SWAP2 SWAP1 PUSH2 0x41F9 JUMP JUMPDEST PUSH1 0x40 MLOAD DUP1 SWAP2 SUB SWAP1 RETURN JUMPDEST CALLVALUE DUP1 ISZERO PUSH2 0x6F5 JUMPI PUSH1 0x0 DUP1 REVERT JUMPDEST POP PUSH2 0x6FE PUSH2 0x1B69 JUMP JUMPDEST STOP JUMPDEST CALLVALUE DUP1 ISZERO PUSH2 0x70C JUMPI PUSH1 0x0 DUP1 REVERT JUMPDEST POP PUSH2 0x727 PUSH1 0x4 DUP1 CALLDATASIZE SUB DUP2 ADD SWAP1 PUSH2 0x722 SWAP2 SWAP1 PUSH2 0x4343 JUMP JUMPDEST PUSH2 0x1BF1 JUMP JUMPDEST STOP JUMPDEST CALLVALUE DUP1 ISZERO PUSH2 0x735 JUMPI PUSH1 0x0 DUP1 REVERT JUMPDEST POP PUSH2 0x73E PUSH2 0x1D9F JUMP JUMPDEST STOP JUMPDEST CALLVALUE DUP1 ISZERO PUSH2 0x74C JUMPI PUSH1 0x0 DUP1 REVERT JUMPDEST POP PUSH2 0x755 PUSH2 0x1E47 JUMP JUMPDEST PUSH1 0x40 MLOAD PUSH2 0x762 SWAP2 SWAP1 PUSH2 0x40F6 JUMP JUMPDEST PUSH1 0x40 MLOAD DUP1 SWAP2 SUB SWAP1 RETURN JUMPDEST CALLVALUE DUP1 ISZERO PUSH2 0x777 JUMPI PUSH1 0x0 DUP1 REVERT JUMPDEST POP PUSH2 0x780 PUSH2 0x1E71 JUMP JUMPDEST PUSH1 0x40 MLOAD PUSH2 0x78D SWAP2 SWAP1 PUSH2 0x4030 JUMP JUMPDEST PUSH1 0x40 MLOAD DUP1 SWAP2 SUB SWAP1 RETURN JUMPDEST CALLVALUE DUP1 ISZERO PUSH2 0x7A2 JUMPI PUSH1 0x0 DUP1 REVERT JUMPDEST POP PUSH2 0x7BD PUSH1 0x4 DUP1 CALLDATASIZE SUB DUP2 ADD SWAP1 PUSH2 0x7B8 SWAP2 SWAP1 PUSH2 0x43C6 JUMP JUMPDEST PUSH2 0x1F03 JUMP JUMPDEST STOP JUMPDEST CALLVALUE DUP1 ISZERO PUSH2 0x7CB JUMPI PUSH1 0x0 DUP1 REVERT JUMPDEST POP PUSH2 0x7E6 PUSH1 0x4 DUP1 CALLDATASIZE SUB DUP2 ADD SWAP1 PUSH2 0x7E1 SWAP2 SWAP1 PUSH2 0x43F3 JUMP JUMPDEST PUSH2 0x1F89 JUMP JUMPDEST PUSH1 0x40 MLOAD PUSH2 0x7F3 SWAP2 SWAP1 PUSH2 0x4030 JUMP JUMPDEST PUSH1 0x40 MLOAD DUP1 SWAP2 SUB SWAP1 RETURN JUMPDEST CALLVALUE DUP1 ISZERO PUSH2 0x808 JUMPI PUSH1 0x0 DUP1 REVERT JUMPDEST POP PUSH2 0x823 PUSH1 0x4 DUP1 CALLDATASIZE SUB DUP2 ADD SWAP1 PUSH2 0x81E SWAP2 SWAP1 PUSH2 0x4576 JUMP JUMPDEST PUSH2 0x20B7 JUMP JUMPDEST STOP JUMPDEST CALLVALUE DUP1 ISZERO PUSH2 0x831 JUMPI PUSH1 0x0 DUP1 REVERT JUMPDEST POP PUSH2 0x83A PUSH2 0x2146 JUMP JUMPDEST PUSH1 0x40 MLOAD PUSH2 0x847 SWAP2 SWAP1 PUSH2 0x4030 JUMP JUMPDEST PUSH1 0x40 MLOAD DUP1 SWAP2 SUB SWAP1 RETURN JUMPDEST CALLVALUE DUP1 ISZERO PUSH2 0x85C JUMPI PUSH1 0x0 DUP1 REVERT JUMPDEST POP PUSH2 0x877 PUSH1 0x4 DUP1 CALLDATASIZE SUB DUP2 ADD SWAP1 PUSH2 0x872 SWAP2 SWAP1 PUSH2 0x45BF JUMP JUMPDEST PUSH2 0x2215 JUMP JUMPDEST STOP JUMPDEST CALLVALUE DUP1 ISZERO PUSH2 0x885 JUMPI PUSH1 0x0 DUP1 REVERT JUMPDEST POP PUSH2 0x88E PUSH2 0x222B JUMP JUMPDEST STOP JUMPDEST PUSH2 0x8AA PUSH1 0x4 DUP1 CALLDATASIZE SUB DUP2 ADD SWAP1 PUSH2 0x8A5 SWAP2 SWAP1 PUSH2 0x4111 JUMP JUMPDEST PUSH2 0x22D3 JUMP JUMPDEST STOP JUMPDEST CALLVALUE DUP1 ISZERO PUSH2 0x8B8 JUMPI PUSH1 0x0 DUP1 REVERT JUMPDEST POP PUSH2 0x8D3 PUSH1 0x4 DUP1 CALLDATASIZE SUB DUP2 ADD SWAP1 PUSH2 0x8CE SWAP2 SWAP1 PUSH2 0x4576 JUMP JUMPDEST PUSH2 0x2576 JUMP JUMPDEST STOP JUMPDEST CALLVALUE DUP1 ISZERO PUSH2 0x8E1 JUMPI PUSH1 0x0 DUP1 REVERT JUMPDEST POP PUSH2 0x8FC PUSH1 0x4 DUP1 CALLDATASIZE SUB DUP2 ADD SWAP1 PUSH2 0x8F7 SWAP2 SWAP1 PUSH2 0x46A0 JUMP JUMPDEST PUSH2 0x25C6 JUMP JUMPDEST STOP JUMPDEST CALLVALUE DUP1 ISZERO PUSH2 0x90A JUMPI PUSH1 0x0 DUP1 REVERT JUMPDEST POP PUSH2 0x913 PUSH2 0x2628 JUMP JUMPDEST PUSH1 0x40 MLOAD PUSH2 0x920 SWAP2 SWAP1 PUSH2 0x3E5A JUMP JUMPDEST PUSH1 0x40 MLOAD DUP1 SWAP2 SUB SWAP1 RETURN JUMPDEST CALLVALUE DUP1 ISZERO PUSH2 0x935 JUMPI PUSH1 0x0 DUP1 REVERT JUMPDEST POP PUSH2 0x950 PUSH1 0x4 DUP1 CALLDATASIZE SUB DUP2 ADD SWAP1 PUSH2 0x94B SWAP2 SWAP1 PUSH2 0x4088 JUMP JUMPDEST PUSH2 0x263B JUMP JUMPDEST PUSH1 0x40 MLOAD PUSH2 0x95D SWAP2 SWAP1 PUSH2 0x4030 JUMP JUMPDEST PUSH1 0x40 MLOAD DUP1 SWAP2 SUB SWAP1 RETURN JUMPDEST CALLVALUE DUP1 ISZERO PUSH2 0x972 JUMPI PUSH1 0x0 DUP1 REVERT JUMPDEST POP PUSH2 0x98D PUSH1 0x4 DUP1 CALLDATASIZE SUB DUP2 ADD SWAP1 PUSH2 0x988 SWAP2 SWAP1 PUSH2 0x4723 JUMP JUMPDEST PUSH2 0x2718 JUMP JUMPDEST STOP JUMPDEST CALLVALUE DUP1 ISZERO PUSH2 0x99B JUMPI PUSH1 0x0 DUP1 REVERT JUMPDEST POP PUSH2 0x9B6 PUSH1 0x4 DUP1 CALLDATASIZE SUB DUP2 ADD SWAP1 PUSH2 0x9B1 SWAP2 SWAP1 PUSH2 0x479E JUMP JUMPDEST PUSH2 0x27C8 JUMP JUMPDEST PUSH1 0x40 MLOAD PUSH2 0x9C3 SWAP2 SWAP1 PUSH2 0x41F9 JUMP JUMPDEST PUSH1 0x40 MLOAD DUP1 SWAP2 SUB SWAP1 RETURN JUMPDEST CALLVALUE DUP1 ISZERO PUSH2 0x9D8 JUMPI PUSH1 0x0 DUP1 REVERT JUMPDEST POP PUSH2 0x9E1 PUSH2 0x284C JUMP JUMPDEST PUSH1 0x40 MLOAD PUSH2 0x9EE SWAP2 SWAP1 PUSH2 0x3F85 JUMP JUMPDEST PUSH1 0x40 MLOAD DUP1 SWAP2 SUB SWAP1 RETURN JUMPDEST CALLVALUE DUP1 ISZERO PUSH2 0xA03 JUMPI PUSH1 0x0 DUP1 REVERT JUMPDEST POP PUSH2 0xA1E PUSH1 0x4 DUP1 CALLDATASIZE SUB DUP2 ADD SWAP1 PUSH2 0xA19 SWAP2 SWAP1 PUSH2 0x479E JUMP JUMPDEST PUSH2 0x28E2 JUMP JUMPDEST PUSH1 0x40 MLOAD PUSH2 0xA2B SWAP2 SWAP1 PUSH2 0x3E5A JUMP JUMPDEST PUSH1 0x40 MLOAD DUP1 SWAP2 SUB SWAP1 RETURN JUMPDEST CALLVALUE DUP1 ISZERO PUSH2 0xA40 JUMPI PUSH1 0x0 DUP1 REVERT JUMPDEST POP PUSH2 0xA5B PUSH1 0x4 DUP1 CALLDATASIZE SUB DUP2 ADD SWAP1 PUSH2 0xA56 SWAP2 SWAP1 PUSH2 0x42C0 JUMP JUMPDEST PUSH2 0x2976 JUMP JUMPDEST STOP JUMPDEST CALLVALUE DUP1 ISZERO PUSH2 0xA69 JUMPI PUSH1 0x0 DUP1 REVERT JUMPDEST POP PUSH2 0xA84 PUSH1 0x4 DUP1 CALLDATASIZE SUB DUP2 ADD SWAP1 PUSH2 0xA7F SWAP2 SWAP1 PUSH2 0x4293 JUMP JUMPDEST PUSH2 0x2A6D JUMP JUMPDEST STOP JUMPDEST CALLVALUE DUP1 ISZERO PUSH2 0xA92 JUMPI PUSH1 0x0 DUP1 REVERT JUMPDEST POP PUSH2 0xAAD PUSH1 0x4 DUP1 CALLDATASIZE SUB DUP2 ADD SWAP1 PUSH2 0xAA8 SWAP2 SWAP1 PUSH2 0x4111 JUMP JUMPDEST PUSH2 0x2B06 JUMP JUMPDEST STOP JUMPDEST CALLVALUE DUP1 ISZERO PUSH2 0xABB JUMPI PUSH1 0x0 DUP1 REVERT JUMPDEST POP PUSH2 0xAC4 PUSH2 0x2BCC JUMP JUMPDEST PUSH1 0x40 MLOAD PUSH2 0xAD1 SWAP2 SWAP1 PUSH2 0x3E5A JUMP JUMPDEST PUSH1 0x40 MLOAD DUP1 SWAP2 SUB SWAP1 RETURN JUMPDEST CALLVALUE DUP1 ISZERO PUSH2 0xAE6 JUMPI PUSH1 0x0 DUP1 REVERT JUMPDEST POP PUSH2 0xB01 PUSH1 0x4 DUP1 CALLDATASIZE SUB DUP2 ADD SWAP1 PUSH2 0xAFC SWAP2 SWAP1 PUSH2 0x4576 JUMP JUMPDEST PUSH2 0x2BDF JUMP JUMPDEST STOP JUMPDEST PUSH1 0x0 PUSH32 0x80AC58CD00000000000000000000000000000000000000000000000000000000 PUSH28 0xFFFFFFFFFFFFFFFFFFFFFFFFFFFFFFFFFFFFFFFFFFFFFFFFFFFFFFFF NOT AND DUP3 PUSH28 0xFFFFFFFFFFFFFFFFFFFFFFFFFFFFFFFFFFFFFFFFFFFFFFFFFFFFFFFF NOT AND EQ DUP1 PUSH2 0xBCE JUMPI POP PUSH32 0x5B5E139F00000000000000000000000000000000000000000000000000000000 PUSH28 0xFFFFFFFFFFFFFFFFFFFFFFFFFFFFFFFFFFFFFFFFFFFFFFFFFFFFFFFF NOT AND DUP3 PUSH28 0xFFFFFFFFFFFFFFFFFFFFFFFFFFFFFFFFFFFFFFFFFFFFFFFFFFFFFFFF NOT AND EQ JUMPDEST DUP1 PUSH2 0xBDE JUMPI POP PUSH2 0xBDD DUP3 PUSH2 0x2C6E JUMP JUMPDEST JUMPDEST SWAP1 POP SWAP2 SWAP1 POP JUMP JUMPDEST DUP3 PUSH1 0x0 DUP2 PUSH4 0xFFFFFFFF AND GT PUSH2 0xC2F JUMPI PUSH1 0x40 MLOAD PUSH32 0x8C379A000000000000000000000000000000000000000000000000000000000 DUP2 MSTORE PUSH1 0x4 ADD PUSH2 0xC26 SWAP1 PUSH2 0x482A JUMP JUMPDEST PUSH1 0x40 MLOAD DUP1 SWAP2 SUB SWAP1 REVERT JUMPDEST PUSH1 0x1 PUSH1 0x9 PUSH1 0x0 SWAP1 SLOAD SWAP1 PUSH2 0x100 EXP SWAP1 DIV PUSH4 0xFFFFFFFF AND PUSH2 0xC4E SWAP2 SWAP1 PUSH2 0x4879 JUMP JUMPDEST PUSH4 0xFFFFFFFF AND DUP2 PUSH4 0xFFFFFFFF AND LT PUSH2 0xC9B JUMPI PUSH1 0x40 MLOAD PUSH32 0x8C379A000000000000000000000000000000000000000000000000000000000 DUP2 MSTORE PUSH1 0x4 ADD PUSH2 0xC92 SWAP1 PUSH2 0x48FD JUMP JUMPDEST PUSH1 0x40 MLOAD DUP1 SWAP2 SUB SWAP1 REVERT JUMPDEST DUP1 PUSH4 0xFFFFFFFF AND PUSH1 0x8 SLOAD PUSH2 0xCAF SWAP2 SWAP1 PUSH2 0x491D JUMP JUMPDEST CALLVALUE LT ISZERO PUSH2 0xCF1 JUMPI PUSH1 0x40 MLOAD PUSH32 0x8C379A000000000000000000000000000000000000000000000000000000000 DUP2 MSTORE PUSH1 0x4 ADD PUSH2 0xCE8 SWAP1 PUSH2 0x49AB JUMP JUMPDEST PUSH1 0x40 MLOAD DUP1 SWAP2 SUB SWAP1 REVERT JUMPDEST PUSH1 0x1 PUSH1 0x9 PUSH1 0xC SWAP1 SLOAD SWAP1 PUSH2 0x100 EXP SWAP1 DIV PUSH4 0xFFFFFFFF AND PUSH2 0xD10 SWAP2 SWAP1 PUSH2 0x4879 JUMP JUMPDEST PUSH4 0xFFFFFFFF AND DUP2 PUSH1 0x9 PUSH1 0x8 SWAP1 SLOAD SWAP1 PUSH2 0x100 EXP SWAP1 DIV PUSH4 0xFFFFFFFF AND PUSH2 0xD34 SWAP2 SWAP1 PUSH2 0x4879 JUMP JUMPDEST PUSH4 0xFFFFFFFF AND LT PUSH2 0xD7A JUMPI PUSH1 0x40 MLOAD PUSH32 0x8C379A000000000000000000000000000000000000000000000000000000000 DUP2 MSTORE PUSH1 0x4 ADD PUSH2 0xD71 SWAP1 PUSH2 0x4A17 JUMP JUMPDEST PUSH1 0x40 MLOAD DUP1 SWAP2 SUB SWAP1 REVERT JUMPDEST PUSH1 0x9 PUSH1 0x4 SWAP1 SLOAD SWAP1 PUSH2 0x100 EXP SWAP1 DIV PUSH4 0xFFFFFFFF AND PUSH4 0xFFFFFFFF AND DUP2 PUSH4 0xFFFFFFFF AND PUSH1 0xA PUSH1 0x0 CALLER PUSH20 0xFFFFFFFFFFFFFFFFFFFFFFFFFFFFFFFFFFFFFFFF AND PUSH20 0xFFFFFFFFFFFFFFFFFFFFFFFFFFFFFFFFFFFFFFFF AND DUP2 MSTORE PUSH1 0x20 ADD SWAP1 DUP2 MSTORE PUSH1 0x20 ADD PUSH1 0x0 KECCAK256 SLOAD PUSH2 0xDE4 SWAP2 SWAP1 PUSH2 0x4A37 JUMP JUMPDEST GT ISZERO PUSH2 0xE25 JUMPI PUSH1 0x40 MLOAD PUSH32 0x8C379A000000000000000000000000000000000000000000000000000000000 DUP2 MSTORE PUSH1 0x4 ADD PUSH2 0xE1C SWAP1 PUSH2 0x4AB7 JUMP JUMPDEST PUSH1 0x40 MLOAD DUP1 SWAP2 SUB SWAP1 REVERT JUMPDEST PUSH1 0xE PUSH1 0x0 SWAP1 SLOAD SWAP1 PUSH2 0x100 EXP SWAP1 DIV PUSH1 0xFF AND PUSH2 0xE74 JUMPI PUSH1 0x40 MLOAD PUSH32 0x8C379A000000000000000000000000000000000000000000000000000000000 DUP2 MSTORE PUSH1 0x4 ADD PUSH2 0xE6B SWAP1 PUSH2 0x4B23 JUMP JUMPDEST PUSH1 0x40 MLOAD DUP1 SWAP2 SUB SWAP1 REVERT JUMPDEST PUSH1 0x0 PUSH1 0xF SLOAD SUB PUSH2 0xEB9 JUMPI PUSH1 0x40 MLOAD PUSH32 0x8C379A000000000000000000000000000000000000000000000000000000000 DUP2 MSTORE PUSH1 0x4 ADD PUSH2 0xEB0 SWAP1 PUSH2 0x4B8F JUMP JUMPDEST PUSH1 0x40 MLOAD DUP1 SWAP2 SUB SWAP1 REVERT JUMPDEST PUSH2 0xF2D DUP4 DUP4 DUP1 DUP1 PUSH1 0x20 MUL PUSH1 0x20 ADD PUSH1 0x40 MLOAD SWAP1 DUP2 ADD PUSH1 0x40 MSTORE DUP1 SWAP4 SWAP3 SWAP2 SWAP1 DUP2 DUP2 MSTORE PUSH1 0x20 ADD DUP4 DUP4 PUSH1 0x20 MUL DUP1 DUP3 DUP5 CALLDATACOPY PUSH1 0x0 DUP2 DUP5 ADD MSTORE PUSH1 0x1F NOT PUSH1 0x1F DUP3 ADD AND SWAP1 POP DUP1 DUP4 ADD SWAP3 POP POP POP POP POP POP POP PUSH1 0xF SLOAD CALLER PUSH1 0x40 MLOAD PUSH1 0x20 ADD PUSH2 0xF12 SWAP2 SWAP1 PUSH2 0x4BF7 JUMP JUMPDEST PUSH1 0x40 MLOAD PUSH1 0x20 DUP2 DUP4 SUB SUB DUP2 MSTORE SWAP1 PUSH1 0x40 MSTORE DUP1 MLOAD SWAP1 PUSH1 0x20 ADD KECCAK256 PUSH2 0x2CD8 JUMP JUMPDEST PUSH2 0xF6C JUMPI PUSH1 0x40 MLOAD PUSH32 0x8C379A000000000000000000000000000000000000000000000000000000000 DUP2 MSTORE PUSH1 0x4 ADD PUSH2 0xF63 SWAP1 PUSH2 0x4C5E JUMP JUMPDEST PUSH1 0x40 MLOAD DUP1 SWAP2 SUB SWAP1 REVERT JUMPDEST PUSH2 0xF75 DUP5 PUSH2 0x2CEF JUMP JUMPDEST POP POP POP POP JUMP JUMPDEST PUSH1 0x9 PUSH1 0x8 SWAP1 SLOAD SWAP1 PUSH2 0x100 EXP SWAP1 DIV PUSH4 0xFFFFFFFF AND DUP2 JUMP JUMPDEST PUSH1 0x60 PUSH1 0x0 DUP1 SLOAD PUSH2 0xFA0 SWAP1 PUSH2 0x4CAD JUMP JUMPDEST DUP1 PUSH1 0x1F ADD PUSH1 0x20 DUP1 SWAP2 DIV MUL PUSH1 0x20 ADD PUSH1 0x40 MLOAD SWAP1 DUP2 ADD PUSH1 0x40 MSTORE DUP1 SWAP3 SWAP2 SWAP1 DUP2 DUP2 MSTORE PUSH1 0x20 ADD DUP3 DUP1 SLOAD PUSH2 0xFCC SWAP1 PUSH2 0x4CAD JUMP JUMPDEST DUP1 ISZERO PUSH2 0x1019 JUMPI DUP1 PUSH1 0x1F LT PUSH2 0xFEE JUMPI PUSH2 0x100 DUP1 DUP4 SLOAD DIV MUL DUP4 MSTORE SWAP2 PUSH1 0x20 ADD SWAP2 PUSH2 0x1019 JUMP JUMPDEST DUP3 ADD SWAP2 SWAP1 PUSH1 0x0 MSTORE PUSH1 0x20 PUSH1 0x0 KECCAK256 SWAP1 JUMPDEST DUP2 SLOAD DUP2 MSTORE SWAP1 PUSH1 0x1 ADD SWAP1 PUSH1 0x20 ADD DUP1 DUP4 GT PUSH2 0xFFC JUMPI DUP3 SWAP1 SUB PUSH1 0x1F AND DUP3 ADD SWAP2 JUMPDEST POP POP POP POP POP SWAP1 POP SWAP1 JUMP JUMPDEST PUSH1 0x0 PUSH2 0x102E DUP3 PUSH2 0x2E9C JUMP JUMPDEST PUSH2 0x106D JUMPI PUSH1 0x40 MLOAD PUSH32 0x8C379A000000000000000000000000000000000000000000000000000000000 DUP2 MSTORE PUSH1 0x4 ADD PUSH2 0x1064 SWAP1 PUSH2 0x4D50 JUMP JUMPDEST PUSH1 0x40 MLOAD DUP1 SWAP2 SUB SWAP1 REVERT JUMPDEST PUSH1 0x4 PUSH1 0x0 DUP4 DUP2 MSTORE PUSH1 0x20 ADD SWAP1 DUP2 MSTORE PUSH1 0x20 ADD PUSH1 0x0 KECCAK256 PUSH1 0x0 SWAP1 SLOAD SWAP1 PUSH2 0x100 EXP SWAP1 DIV PUSH20 0xFFFFFFFFFFFFFFFFFFFFFFFFFFFFFFFFFFFFFFFF AND SWAP1 POP SWAP2 SWAP1 POP JUMP JUMPDEST PUSH2 0x10B0 PUSH2 0x2F08 JUMP JUMPDEST PUSH20 0xFFFFFFFFFFFFFFFFFFFFFFFFFFFFFFFFFFFFFFFF AND PUSH2 0x10CE PUSH2 0x1E47 JUMP JUMPDEST PUSH20 0xFFFFFFFFFFFFFFFFFFFFFFFFFFFFFFFFFFFFFFFF AND EQ PUSH2 0x1124 JUMPI PUSH1 0x40 MLOAD PUSH32 0x8C379A000000000000000000000000000000000000000000000000000000000 DUP2 MSTORE PUSH1 0x4 ADD PUSH2 0x111B SWAP1 PUSH2 0x4DBC JUMP JUMPDEST PUSH1 0x40 MLOAD DUP1 SWAP2 SUB SWAP1 REVERT JUMPDEST DUP1 PUSH4 0xFFFFFFFF AND PUSH1 0xC PUSH1 0x1 SWAP1 SLOAD SWAP1 PUSH2 0x100 EXP SWAP1 DIV PUSH4 0xFFFFFFFF AND PUSH4 0xFFFFFFFF AND EQ PUSH2 0x116B JUMPI DUP1 PUSH1 0xC PUSH1 0x1 PUSH2 0x100 EXP DUP2 SLOAD DUP2 PUSH4 0xFFFFFFFF MUL NOT AND SWAP1 DUP4 PUSH4 0xFFFFFFFF AND MUL OR SWAP1 SSTORE POP JUMPDEST POP JUMP JUMPDEST PUSH1 0x0 PUSH2 0x1179 DUP3 PUSH2 0x194D JUMP JUMPDEST SWAP1 POP DUP1 PUSH20 0xFFFFFFFFFFFFFFFFFFFFFFFFFFFFFFFFFFFFFFFF AND DUP4 PUSH20 0xFFFFFFFFFFFFFFFFFFFFFFFFFFFFFFFFFFFFFFFF AND SUB PUSH2 0x11E9 JUMPI PUSH1 0x40 MLOAD PUSH32 0x8C379A000000000000000000000000000000000000000000000000000000000 DUP2 MSTORE PUSH1 0x4 ADD PUSH2 0x11E0 SWAP1 PUSH2 0x4E4E JUMP JUMPDEST PUSH1 0x40 MLOAD DUP1 SWAP2 SUB SWAP1 REVERT JUMPDEST DUP1 PUSH20 0xFFFFFFFFFFFFFFFFFFFFFFFFFFFFFFFFFFFFFFFF AND PUSH2 0x1208 PUSH2 0x2F08 JUMP JUMPDEST PUSH20 0xFFFFFFFFFFFFFFFFFFFFFFFFFFFFFFFFFFFFFFFF AND EQ DUP1 PUSH2 0x1237 JUMPI POP PUSH2 0x1236 DUP2 PUSH2 0x1231 PUSH2 0x2F08 JUMP JUMPDEST PUSH2 0x28E2 JUMP JUMPDEST JUMPDEST PUSH2 0x1276 JUMPI PUSH1 0x40 MLOAD PUSH32 0x8C379A000000000000000000000000000000000000000000000000000000000 DUP2 MSTORE PUSH1 0x4 ADD PUSH2 0x126D SWAP1 PUSH2 0x4EE0 JUMP JUMPDEST PUSH1 0x40 MLOAD DUP1 SWAP2 SUB SWAP1 REVERT JUMPDEST PUSH2 0x1280 DUP4 DUP4 PUSH2 0x2F10 JUMP JUMPDEST POP POP POP JUMP JUMPDEST PUSH1 0x60 PUSH1 0x7 DUP1 SLOAD PUSH2 0x1294 SWAP1 PUSH2 0x4CAD JUMP JUMPDEST DUP1 PUSH1 0x1F ADD PUSH1 0x20 DUP1 SWAP2 DIV MUL PUSH1 0x20 ADD PUSH1 0x40 MLOAD SWAP1 DUP2 ADD PUSH1 0x40 MSTORE DUP1 SWAP3 SWAP2 SWAP1 DUP2 DUP2 MSTORE PUSH1 0x20 ADD DUP3 DUP1 SLOAD PUSH2 0x12C0 SWAP1 PUSH2 0x4CAD JUMP JUMPDEST DUP1 ISZERO PUSH2 0x130D JUMPI DUP1 PUSH1 0x1F LT PUSH2 0x12E2 JUMPI PUSH2 0x100 DUP1 DUP4 SLOAD DIV MUL DUP4 MSTORE SWAP2 PUSH1 0x20 ADD SWAP2 PUSH2 0x130D JUMP JUMPDEST DUP3 ADD SWAP2 SWAP1 PUSH1 0x0 MSTORE PUSH1 0x20 PUSH1 0x0 KECCAK256 SWAP1 JUMPDEST DUP2 SLOAD DUP2 MSTORE SWAP1 PUSH1 0x1 ADD SWAP1 PUSH1 0x20 ADD DUP1 DUP4 GT PUSH2 0x12F0 JUMPI DUP3 SWAP1 SUB PUSH1 0x1F AND DUP3 ADD SWAP2 JUMPDEST POP POP POP POP POP SWAP1 POP SWAP1 JUMP JUMPDEST PUSH1 0x60 PUSH1 0x0 PUSH1 0x40 MLOAD DUP1 PUSH1 0x20 ADD PUSH1 0x40 MSTORE DUP1 PUSH1 0x0 DUP2 MSTORE POP SWAP1 POP PUSH1 0x0 PUSH1 0x1 SWAP1 POP JUMPDEST DUP4 PUSH4 0xFFFFFFFF AND DUP2 PUSH4 0xFFFFFFFF AND GT PUSH2 0x1423 JUMPI PUSH1 0x0 DUP6 PUSH20 0xFFFFFFFFFFFFFFFFFFFFFFFFFFFFFFFFFFFFFFFF AND PUSH4 0x6352211E DUP4 PUSH1 0x40 MLOAD DUP3 PUSH4 0xFFFFFFFF AND PUSH1 0xE0 SHL DUP2 MSTORE PUSH1 0x4 ADD PUSH2 0x1382 SWAP2 SWAP1 PUSH2 0x4F3B JUMP JUMPDEST PUSH1 0x20 PUSH1 0x40 MLOAD DUP1 DUP4 SUB DUP2 DUP7 GAS STATICCALL ISZERO DUP1 ISZERO PUSH2 0x139F JUMPI RETURNDATASIZE PUSH1 0x0 DUP1 RETURNDATACOPY RETURNDATASIZE PUSH1 0x0 REVERT JUMPDEST POP POP POP POP PUSH1 0x40 MLOAD RETURNDATASIZE PUSH1 0x1F NOT PUSH1 0x1F DUP3 ADD AND DUP3 ADD DUP1 PUSH1 0x40 MSTORE POP DUP2 ADD SWAP1 PUSH2 0x13C3 SWAP2 SWAP1 PUSH2 0x4F6B JUMP JUMPDEST SWAP1 POP PUSH1 0x0 PUSH2 0x13E8 DUP3 PUSH20 0xFFFFFFFFFFFFFFFFFFFFFFFFFFFFFFFFFFFFFFFF AND PUSH1 0x14 PUSH2 0x2FC9 JUMP JUMPDEST SWAP1 POP DUP4 DUP2 PUSH1 0x40 MLOAD PUSH1 0x20 ADD PUSH2 0x13FD SWAP3 SWAP2 SWAP1 PUSH2 0x4FFA JUMP JUMPDEST PUSH1 0x40 MLOAD PUSH1 0x20 DUP2 DUP4 SUB SUB DUP2 MSTORE SWAP1 PUSH1 0x40 MSTORE SWAP4 POP POP POP DUP1 DUP1 PUSH2 0x141B SWAP1 PUSH2 0x502D JUMP JUMPDEST SWAP2 POP POP PUSH2 0x1334 JUMP JUMPDEST POP DUP1 SWAP2 POP POP SWAP3 SWAP2 POP POP JUMP JUMPDEST PUSH1 0x60 PUSH1 0x0 PUSH1 0x40 MLOAD DUP1 PUSH1 0x20 ADD PUSH1 0x40 MSTORE DUP1 PUSH1 0x0 DUP2 MSTORE POP SWAP1 POP PUSH1 0x0 PUSH1 0x1 SWAP1 POP JUMPDEST DUP4 PUSH4 0xFFFFFFFF AND DUP2 PUSH4 0xFFFFFFFF AND GT PUSH2 0x1609 JUMPI PUSH1 0x0 DUP6 PUSH20 0xFFFFFFFFFFFFFFFFFFFFFFFFFFFFFFFFFFFFFFFF AND PUSH4 0x6352211E DUP4 PUSH1 0x40 MLOAD DUP3 PUSH4 0xFFFFFFFF AND PUSH1 0xE0 SHL DUP2 MSTORE PUSH1 0x4 ADD PUSH2 0x1499 SWAP2 SWAP1 PUSH2 0x4F3B JUMP JUMPDEST PUSH1 0x20 PUSH1 0x40 MLOAD DUP1 DUP4 SUB DUP2 DUP7 GAS STATICCALL ISZERO DUP1 ISZERO PUSH2 0x14B6 JUMPI RETURNDATASIZE PUSH1 0x0 DUP1 RETURNDATACOPY RETURNDATASIZE PUSH1 0x0 REVERT JUMPDEST POP POP POP POP PUSH1 0x40 MLOAD RETURNDATASIZE PUSH1 0x1F NOT PUSH1 0x1F DUP3 ADD AND DUP3 ADD DUP1 PUSH1 0x40 MSTORE POP DUP2 ADD SWAP1 PUSH2 0x14DA SWAP2 SWAP1 PUSH2 0x4F6B JUMP JUMPDEST SWAP1 POP PUSH1 0x0 PUSH2 0x14FF DUP3 PUSH20 0xFFFFFFFFFFFFFFFFFFFFFFFFFFFFFFFFFFFFFFFF AND PUSH1 0x14 PUSH2 0x2FC9 JUMP JUMPDEST SWAP1 POP PUSH1 0x0 PUSH1 0xB PUSH1 0x0 DUP5 PUSH20 0xFFFFFFFFFFFFFFFFFFFFFFFFFFFFFFFFFFFFFFFF AND PUSH20 0xFFFFFFFFFFFFFFFFFFFFFFFFFFFFFFFFFFFFFFFF AND DUP2 MSTORE PUSH1 0x20 ADD SWAP1 DUP2 MSTORE PUSH1 0x20 ADD PUSH1 0x0 KECCAK256 DUP1 SLOAD PUSH2 0x154D SWAP1 PUSH2 0x4CAD JUMP JUMPDEST DUP1 PUSH1 0x1F ADD PUSH1 0x20 DUP1 SWAP2 DIV MUL PUSH1 0x20 ADD PUSH1 0x40 MLOAD SWAP1 DUP2 ADD PUSH1 0x40 MSTORE DUP1 SWAP3 SWAP2 SWAP1 DUP2 DUP2 MSTORE PUSH1 0x20 ADD DUP3 DUP1 SLOAD PUSH2 0x1579 SWAP1 PUSH2 0x4CAD JUMP JUMPDEST DUP1 ISZERO PUSH2 0x15C6 JUMPI DUP1 PUSH1 0x1F LT PUSH2 0x159B JUMPI PUSH2 0x100 DUP1 DUP4 SLOAD DIV MUL DUP4 MSTORE SWAP2 PUSH1 0x20 ADD SWAP2 PUSH2 0x15C6 JUMP JUMPDEST DUP3 ADD SWAP2 SWAP1 PUSH1 0x0 MSTORE PUSH1 0x20 PUSH1 0x0 KECCAK256 SWAP1 JUMPDEST DUP2 SLOAD DUP2 MSTORE SWAP1 PUSH1 0x1 ADD SWAP1 PUSH1 0x20 ADD DUP1 DUP4 GT PUSH2 0x15A9 JUMPI DUP3 SWAP1 SUB PUSH1 0x1F AND DUP3 ADD SWAP2 JUMPDEST POP POP POP POP POP SWAP1 POP DUP5 DUP3 DUP3 PUSH1 0x40 MLOAD PUSH1 0x20 ADD PUSH2 0x15E2 SWAP4 SWAP3 SWAP2 SWAP1 PUSH2 0x507F JUMP JUMPDEST PUSH1 0x40 MLOAD PUSH1 0x20 DUP2 DUP4 SUB SUB DUP2 MSTORE SWAP1 PUSH1 0x40 MSTORE SWAP5 POP POP POP POP DUP1 DUP1 PUSH2 0x1601 SWAP1 PUSH2 0x502D JUMP JUMPDEST SWAP2 POP POP PUSH2 0x144B JUMP JUMPDEST POP DUP1 SWAP2 POP POP SWAP3 SWAP2 POP POP JUMP JUMPDEST PUSH1 0x8 SLOAD DUP2 JUMP JUMPDEST PUSH1 0x9 PUSH1 0xC SWAP1 SLOAD SWAP1 PUSH2 0x100 EXP SWAP1 DIV PUSH4 0xFFFFFFFF AND DUP2 JUMP JUMPDEST PUSH2 0x1641 PUSH2 0x163B PUSH2 0x2F08 JUMP JUMPDEST DUP3 PUSH2 0x3205 JUMP JUMPDEST PUSH2 0x1680 JUMPI PUSH1 0x40 MLOAD PUSH32 0x8C379A000000000000000000000000000000000000000000000000000000000 DUP2 MSTORE PUSH1 0x4 ADD PUSH2 0x1677 SWAP1 PUSH2 0x5140 JUMP JUMPDEST PUSH1 0x40 MLOAD DUP1 SWAP2 SUB SWAP1 REVERT JUMPDEST PUSH2 0x168B DUP4 DUP4 DUP4 PUSH2 0x32E3 JUMP JUMPDEST POP POP POP JUMP JUMPDEST PUSH2 0x1698 PUSH2 0x2F08 JUMP JUMPDEST PUSH20 0xFFFFFFFFFFFFFFFFFFFFFFFFFFFFFFFFFFFFFFFF AND PUSH2 0x16B6 PUSH2 0x1E47 JUMP JUMPDEST PUSH20 0xFFFFFFFFFFFFFFFFFFFFFFFFFFFFFFFFFFFFFFFF AND EQ PUSH2 0x170C JUMPI PUSH1 0x40 MLOAD PUSH32 0x8C379A000000000000000000000000000000000000000000000000000000000 DUP2 MSTORE PUSH1 0x4 ADD PUSH2 0x1703 SWAP1 PUSH2 0x4DBC JUMP JUMPDEST PUSH1 0x40 MLOAD DUP1 SWAP2 SUB SWAP1 REVERT JUMPDEST DUP1 PUSH4 0xFFFFFFFF AND PUSH1 0x9 PUSH1 0x4 SWAP1 SLOAD SWAP1 PUSH2 0x100 EXP SWAP1 DIV PUSH4 0xFFFFFFFF AND PUSH4 0xFFFFFFFF AND EQ PUSH2 0x1753 JUMPI DUP1 PUSH1 0x9 PUSH1 0x4 PUSH2 0x100 EXP DUP2 SLOAD DUP2 PUSH4 0xFFFFFFFF MUL NOT AND SWAP1 DUP4 PUSH4 0xFFFFFFFF AND MUL OR SWAP1 SSTORE POP JUMPDEST POP JUMP JUMPDEST PUSH2 0x175E PUSH2 0x2F08 JUMP JUMPDEST PUSH20 0xFFFFFFFFFFFFFFFFFFFFFFFFFFFFFFFFFFFFFFFF AND PUSH2 0x177C PUSH2 0x1E47 JUMP JUMPDEST PUSH20 0xFFFFFFFFFFFFFFFFFFFFFFFFFFFFFFFFFFFFFFFF AND EQ PUSH2 0x17D2 JUMPI PUSH1 0x40 MLOAD PUSH32 0x8C379A000000000000000000000000000000000000000000000000000000000 DUP2 MSTORE PUSH1 0x4 ADD PUSH2 0x17C9 SWAP1 PUSH2 0x4DBC JUMP JUMPDEST PUSH1 0x40 MLOAD DUP1 SWAP2 SUB SWAP1 REVERT JUMPDEST PUSH1 0x0 CALLER PUSH20 0xFFFFFFFFFFFFFFFFFFFFFFFFFFFFFFFFFFFFFFFF AND SELFBALANCE PUSH1 0x40 MLOAD PUSH2 0x17F8 SWAP1 PUSH2 0x5191 JUMP JUMPDEST PUSH1 0x0 PUSH1 0x40 MLOAD DUP1 DUP4 SUB DUP2 DUP6 DUP8 GAS CALL SWAP3 POP POP POP RETURNDATASIZE DUP1 PUSH1 0x0 DUP2 EQ PUSH2 0x1835 JUMPI PUSH1 0x40 MLOAD SWAP2 POP PUSH1 0x1F NOT PUSH1 0x3F RETURNDATASIZE ADD AND DUP3 ADD PUSH1 0x40 MSTORE RETURNDATASIZE DUP3 MSTORE RETURNDATASIZE PUSH1 0x0 PUSH1 0x20 DUP5 ADD RETURNDATACOPY PUSH2 0x183A JUMP JUMPDEST PUSH1 0x60 SWAP2 POP JUMPDEST POP POP SWAP1 POP DUP1 PUSH2 0x1848 JUMPI PUSH1 0x0 DUP1 REVERT JUMPDEST POP JUMP JUMPDEST PUSH1 0xC PUSH1 0x0 SWAP1 SLOAD SWAP1 PUSH2 0x100 EXP SWAP1 DIV PUSH1 0xFF AND DUP2 JUMP JUMPDEST PUSH2 0x1879 DUP4 DUP4 DUP4 PUSH1 0x40 MLOAD DUP1 PUSH1 0x20 ADD PUSH1 0x40 MSTORE DUP1 PUSH1 0x0 DUP2 MSTORE POP PUSH2 0x25C6 JUMP JUMPDEST POP POP POP JUMP JUMPDEST PUSH2 0x1886 PUSH2 0x2F08 JUMP JUMPDEST PUSH20 0xFFFFFFFFFFFFFFFFFFFFFFFFFFFFFFFFFFFFFFFF AND PUSH2 0x18A4 PUSH2 0x1E47 JUMP JUMPDEST PUSH20 0xFFFFFFFFFFFFFFFFFFFFFFFFFFFFFFFFFFFFFFFF AND EQ PUSH2 0x18FA JUMPI PUSH1 0x40 MLOAD PUSH32 0x8C379A000000000000000000000000000000000000000000000000000000000 DUP2 MSTORE PUSH1 0x4 ADD PUSH2 0x18F1 SWAP1 PUSH2 0x4DBC JUMP JUMPDEST PUSH1 0x40 MLOAD DUP1 SWAP2 SUB SWAP1 REVERT JUMPDEST DUP1 PUSH1 0x8 SLOAD EQ PUSH2 0x190B JUMPI DUP1 PUSH1 0x8 DUP2 SWAP1 SSTORE POP JUMPDEST POP JUMP JUMPDEST PUSH1 0x9 PUSH1 0x4 SWAP1 SLOAD SWAP1 PUSH2 0x100 EXP SWAP1 DIV PUSH4 0xFFFFFFFF AND DUP2 JUMP JUMPDEST PUSH1 0x9 PUSH1 0x0 SWAP1 SLOAD SWAP1 PUSH2 0x100 EXP SWAP1 DIV PUSH4 0xFFFFFFFF AND DUP2 JUMP JUMPDEST PUSH1 0xC PUSH1 0x19 SWAP1 SLOAD SWAP1 PUSH2 0x100 EXP SWAP1 DIV PUSH1 0xFF AND DUP2 JUMP JUMPDEST PUSH1 0x0 DUP1 PUSH1 0x2 PUSH1 0x0 DUP5 DUP2 MSTORE PUSH1 0x20 ADD SWAP1 DUP2 MSTORE PUSH1 0x20 ADD PUSH1 0x0 KECCAK256 PUSH1 0x0 SWAP1 SLOAD SWAP1 PUSH2 0x100 EXP SWAP1 DIV PUSH20 0xFFFFFFFFFFFFFFFFFFFFFFFFFFFFFFFFFFFFFFFF AND SWAP1 POP PUSH1 0x0 PUSH20 0xFFFFFFFFFFFFFFFFFFFFFFFFFFFFFFFFFFFFFFFF AND DUP2 PUSH20 0xFFFFFFFFFFFFFFFFFFFFFFFFFFFFFFFFFFFFFFFF AND SUB PUSH2 0x19F5 JUMPI PUSH1 0x40 MLOAD PUSH32 0x8C379A000000000000000000000000000000000000000000000000000000000 DUP2 MSTORE PUSH1 0x4 ADD PUSH2 0x19EC SWAP1 PUSH2 0x5218 JUMP JUMPDEST PUSH1 0x40 MLOAD DUP1 SWAP2 SUB SWAP1 REVERT JUMPDEST DUP1 SWAP2 POP POP SWAP2 SWAP1 POP JUMP JUMPDEST PUSH2 0x1A06 PUSH2 0x2F08 JUMP JUMPDEST PUSH20 0xFFFFFFFFFFFFFFFFFFFFFFFFFFFFFFFFFFFFFFFF AND PUSH2 0x1A24 PUSH2 0x1E47 JUMP JUMPDEST PUSH20 0xFFFFFFFFFFFFFFFFFFFFFFFFFFFFFFFFFFFFFFFF AND EQ PUSH2 0x1A7A JUMPI PUSH1 0x40 MLOAD PUSH32 0x8C379A000000000000000000000000000000000000000000000000000000000 DUP2 MSTORE PUSH1 0x4 ADD PUSH2 0x1A71 SWAP1 PUSH2 0x4DBC JUMP JUMPDEST PUSH1 0x40 MLOAD DUP1 SWAP2 SUB SWAP1 REVERT JUMPDEST DUP1 ISZERO ISZERO PUSH1 0x9 PUSH1 0x10 SWAP1 SLOAD SWAP1 PUSH2 0x100 EXP SWAP1 DIV PUSH1 0xFF AND ISZERO ISZERO EQ PUSH2 0x1AAF JUMPI DUP1 PUSH1 0x9 PUSH1 0x10 PUSH2 0x100 EXP DUP2 SLOAD DUP2 PUSH1 0xFF MUL NOT AND SWAP1 DUP4 ISZERO ISZERO MUL OR SWAP1 SSTORE POP JUMPDEST POP JUMP JUMPDEST PUSH1 0x0 DUP1 PUSH20 0xFFFFFFFFFFFFFFFFFFFFFFFFFFFFFFFFFFFFFFFF AND DUP3 PUSH20 0xFFFFFFFFFFFFFFFFFFFFFFFFFFFFFFFFFFFFFFFF AND SUB PUSH2 0x1B22 JUMPI PUSH1 0x40 MLOAD PUSH32 0x8C379A000000000000000000000000000000000000000000000000000000000 DUP2 MSTORE PUSH1 0x4 ADD PUSH2 0x1B19 SWAP1 PUSH2 0x52AA JUMP JUMPDEST PUSH1 0x40 MLOAD DUP1 SWAP2 SUB SWAP1 REVERT JUMPDEST PUSH1 0x3 PUSH1 0x0 DUP4 PUSH20 0xFFFFFFFFFFFFFFFFFFFFFFFFFFFFFFFFFFFFFFFF AND PUSH20 0xFFFFFFFFFFFFFFFFFFFFFFFFFFFFFFFFFFFFFFFF AND DUP2 MSTORE PUSH1 0x20 ADD SWAP1 DUP2 MSTORE PUSH1 0x20 ADD PUSH1 0x0 KECCAK256 SLOAD SWAP1 POP SWAP2 SWAP1 POP JUMP JUMPDEST PUSH2 0x1B71 PUSH2 0x2F08 JUMP JUMPDEST PUSH20 0xFFFFFFFFFFFFFFFFFFFFFFFFFFFFFFFFFFFFFFFF AND PUSH2 0x1B8F PUSH2 0x1E47 JUMP JUMPDEST PUSH20 0xFFFFFFFFFFFFFFFFFFFFFFFFFFFFFFFFFFFFFFFF AND EQ PUSH2 0x1BE5 JUMPI PUSH1 0x40 MLOAD PUSH32 0x8C379A000000000000000000000000000000000000000000000000000000000 DUP2 MSTORE PUSH1 0x4 ADD PUSH2 0x1BDC SWAP1 PUSH2 0x4DBC JUMP JUMPDEST PUSH1 0x40 MLOAD DUP1 SWAP2 SUB SWAP1 REVERT JUMPDEST PUSH2 0x1BEF PUSH1 0x0 PUSH2 0x353E JUMP JUMPDEST JUMP JUMPDEST PUSH2 0x1BF9 PUSH2 0x2F08 JUMP JUMPDEST PUSH20 0xFFFFFFFFFFFFFFFFFFFFFFFFFFFFFFFFFFFFFFFF AND PUSH2 0x1C17 PUSH2 0x1E47 JUMP JUMPDEST PUSH20 0xFFFFFFFFFFFFFFFFFFFFFFFFFFFFFFFFFFFFFFFF AND EQ PUSH2 0x1C6D JUMPI PUSH1 0x40 MLOAD PUSH32 0x8C379A000000000000000000000000000000000000000000000000000000000 DUP2 MSTORE PUSH1 0x4 ADD PUSH2 0x1C64 SWAP1 PUSH2 0x4DBC JUMP JUMPDEST PUSH1 0x40 MLOAD DUP1 SWAP2 SUB SWAP1 REVERT JUMPDEST PUSH1 0x0 JUMPDEST DUP3 DUP3 SWAP1 POP DUP2 PUSH4 0xFFFFFFFF AND LT ISZERO PUSH2 0x1D9A JUMPI PUSH1 0x9 PUSH1 0xC SWAP1 SLOAD SWAP1 PUSH2 0x100 EXP SWAP1 DIV PUSH4 0xFFFFFFFF AND PUSH4 0xFFFFFFFF AND PUSH1 0x9 PUSH1 0x8 SWAP1 SLOAD SWAP1 PUSH2 0x100 EXP SWAP1 DIV PUSH4 0xFFFFFFFF AND PUSH1 0x1 PUSH2 0x1CB9 SWAP2 SWAP1 PUSH2 0x4879 JUMP JUMPDEST PUSH4 0xFFFFFFFF AND GT ISZERO PUSH2 0x1D00 JUMPI PUSH1 0x40 MLOAD PUSH32 0x8C379A000000000000000000000000000000000000000000000000000000000 DUP2 MSTORE PUSH1 0x4 ADD PUSH2 0x1CF7 SWAP1 PUSH2 0x5316 JUMP JUMPDEST PUSH1 0x40 MLOAD DUP1 SWAP2 SUB SWAP1 REVERT JUMPDEST PUSH2 0x1D87 DUP4 DUP4 DUP4 PUSH4 0xFFFFFFFF AND DUP2 DUP2 LT PUSH2 0x1D1C JUMPI PUSH2 0x1D1B PUSH2 0x5336 JUMP JUMPDEST JUMPDEST SWAP1 POP PUSH1 0x20 MUL ADD PUSH1 0x20 DUP2 ADD SWAP1 PUSH2 0x1D31 SWAP2 SWAP1 PUSH2 0x42C0 JUMP JUMPDEST PUSH1 0x9 PUSH1 0x8 DUP2 DUP2 SWAP1 SLOAD SWAP1 PUSH2 0x100 EXP SWAP1 DIV PUSH4 0xFFFFFFFF AND PUSH2 0x1D4F SWAP1 PUSH2 0x502D JUMP JUMPDEST SWAP2 SWAP1 PUSH2 0x100 EXP DUP2 SLOAD DUP2 PUSH4 0xFFFFFFFF MUL NOT AND SWAP1 DUP4 PUSH4 0xFFFFFFFF AND MUL OR SWAP1 SSTORE PUSH4 0xFFFFFFFF AND PUSH1 0x40 MLOAD DUP1 PUSH1 0x20 ADD PUSH1 0x40 MSTORE DUP1 PUSH1 0x0 DUP2 MSTORE POP PUSH2 0x3604 JUMP JUMPDEST DUP1 DUP1 PUSH2 0x1D92 SWAP1 PUSH2 0x502D JUMP JUMPDEST SWAP2 POP POP PUSH2 0x1C70 JUMP JUMPDEST POP POP POP JUMP JUMPDEST PUSH2 0x1DA7 PUSH2 0x2F08 JUMP JUMPDEST PUSH20 0xFFFFFFFFFFFFFFFFFFFFFFFFFFFFFFFFFFFFFFFF AND PUSH2 0x1DC5 PUSH2 0x1E47 JUMP JUMPDEST PUSH20 0xFFFFFFFFFFFFFFFFFFFFFFFFFFFFFFFFFFFFFFFF AND EQ PUSH2 0x1E1B JUMPI PUSH1 0x40 MLOAD PUSH32 0x8C379A000000000000000000000000000000000000000000000000000000000 DUP2 MSTORE PUSH1 0x4 ADD PUSH2 0x1E12 SWAP1 PUSH2 0x4DBC JUMP JUMPDEST PUSH1 0x40 MLOAD DUP1 SWAP2 SUB SWAP1 REVERT JUMPDEST PUSH1 0xC PUSH1 0x0 SWAP1 SLOAD SWAP1 PUSH2 0x100 EXP SWAP1 DIV PUSH1 0xFF AND ISZERO PUSH1 0xC PUSH1 0x0 PUSH2 0x100 EXP DUP2 SLOAD DUP2 PUSH1 0xFF MUL NOT AND SWAP1 DUP4 ISZERO ISZERO MUL OR SWAP1 SSTORE POP JUMP JUMPDEST PUSH1 0x0 PUSH1 0x6 PUSH1 0x0 SWAP1 SLOAD SWAP1 PUSH2 0x100 EXP SWAP1 DIV PUSH20 0xFFFFFFFFFFFFFFFFFFFFFFFFFFFFFFFFFFFFFFFF AND SWAP1 POP SWAP1 JUMP JUMPDEST PUSH1 0x60 PUSH1 0x1 DUP1 SLOAD PUSH2 0x1E80 SWAP1 PUSH2 0x4CAD JUMP JUMPDEST DUP1 PUSH1 0x1F ADD PUSH1 0x20 DUP1 SWAP2 DIV MUL PUSH1 0x20 ADD PUSH1 0x40 MLOAD SWAP1 DUP2 ADD PUSH1 0x40 MSTORE DUP1 SWAP3 SWAP2 SWAP1 DUP2 DUP2 MSTORE PUSH1 0x20 ADD DUP3 DUP1 SLOAD PUSH2 0x1EAC SWAP1 PUSH2 0x4CAD JUMP JUMPDEST DUP1 ISZERO PUSH2 0x1EF9 JUMPI DUP1 PUSH1 0x1F LT PUSH2 0x1ECE JUMPI PUSH2 0x100 DUP1 DUP4 SLOAD DIV MUL DUP4 MSTORE SWAP2 PUSH1 0x20 ADD SWAP2 PUSH2 0x1EF9 JUMP JUMPDEST DUP3 ADD SWAP2 SWAP1 PUSH1 0x0 MSTORE PUSH1 0x20 PUSH1 0x0 KECCAK256 SWAP1 JUMPDEST DUP2 SLOAD DUP2 MSTORE SWAP1 PUSH1 0x1 ADD SWAP1 PUSH1 0x20 ADD DUP1 DUP4 GT PUSH2 0x1EDC JUMPI DUP3 SWAP1 SUB PUSH1 0x1F AND DUP3 ADD SWAP2 JUMPDEST POP POP POP POP POP SWAP1 POP SWAP1 JUMP JUMPDEST PUSH2 0x1F0B PUSH2 0x2F08 JUMP JUMPDEST PUSH20 0xFFFFFFFFFFFFFFFFFFFFFFFFFFFFFFFFFFFFFFFF AND PUSH2 0x1F29 PUSH2 0x1E47 JUMP JUMPDEST PUSH20 0xFFFFFFFFFFFFFFFFFFFFFFFFFFFFFFFFFFFFFFFF AND EQ PUSH2 0x1F7F JUMPI PUSH1 0x40 MLOAD PUSH32 0x8C379A000000000000000000000000000000000000000000000000000000000 DUP2 MSTORE PUSH1 0x4 ADD PUSH2 0x1F76 SWAP1 PUSH2 0x4DBC JUMP JUMPDEST PUSH1 0x40 MLOAD DUP1 SWAP2 SUB SWAP1 REVERT JUMPDEST DUP1 PUSH1 0xF DUP2 SWAP1 SSTORE POP POP JUMP JUMPDEST PUSH1 0x60 PUSH1 0x0 PUSH1 0x40 MLOAD DUP1 PUSH1 0x20 ADD PUSH1 0x40 MSTORE DUP1 PUSH1 0x0 DUP2 MSTORE POP SWAP1 POP PUSH1 0x0 PUSH1 0x1 SWAP1 POP JUMPDEST DUP4 PUSH4 0xFFFFFFFF AND DUP2 PUSH4 0xFFFFFFFF AND GT PUSH2 0x20AB JUMPI DUP6 PUSH20 0xFFFFFFFFFFFFFFFFFFFFFFFFFFFFFFFFFFFFFFFF AND DUP6 PUSH20 0xFFFFFFFFFFFFFFFFFFFFFFFFFFFFFFFFFFFFFFFF AND PUSH4 0x6352211E DUP4 PUSH1 0x40 MLOAD DUP3 PUSH4 0xFFFFFFFF AND PUSH1 0xE0 SHL DUP2 MSTORE PUSH1 0x4 ADD PUSH2 0x2009 SWAP2 SWAP1 PUSH2 0x4F3B JUMP JUMPDEST PUSH1 0x20 PUSH1 0x40 MLOAD DUP1 DUP4 SUB DUP2 DUP7 GAS STATICCALL ISZERO DUP1 ISZERO PUSH2 0x2026 JUMPI RETURNDATASIZE PUSH1 0x0 DUP1 RETURNDATACOPY RETURNDATASIZE PUSH1 0x0 REVERT JUMPDEST POP POP POP POP PUSH1 0x40 MLOAD RETURNDATASIZE PUSH1 0x1F NOT PUSH1 0x1F DUP3 ADD AND DUP3 ADD DUP1 PUSH1 0x40 MSTORE POP DUP2 ADD SWAP1 PUSH2 0x204A SWAP2 SWAP1 PUSH2 0x4F6B JUMP JUMPDEST PUSH20 0xFFFFFFFFFFFFFFFFFFFFFFFFFFFFFFFFFFFFFFFF AND SUB PUSH2 0x2098 JUMPI DUP2 PUSH2 0x2075 DUP3 PUSH4 0xFFFFFFFF AND PUSH2 0x365F JUMP JUMPDEST PUSH1 0x40 MLOAD PUSH1 0x20 ADD PUSH2 0x2086 SWAP3 SWAP2 SWAP1 PUSH2 0x4FFA JUMP JUMPDEST PUSH1 0x40 MLOAD PUSH1 0x20 DUP2 DUP4 SUB SUB DUP2 MSTORE SWAP1 PUSH1 0x40 MSTORE SWAP2 POP JUMPDEST DUP1 DUP1 PUSH2 0x20A3 SWAP1 PUSH2 0x502D JUMP JUMPDEST SWAP2 POP POP PUSH2 0x1FA6 JUMP JUMPDEST POP DUP1 SWAP2 POP POP SWAP4 SWAP3 POP POP POP JUMP JUMPDEST PUSH2 0x20BF PUSH2 0x2F08 JUMP JUMPDEST PUSH20 0xFFFFFFFFFFFFFFFFFFFFFFFFFFFFFFFFFFFFFFFF AND PUSH2 0x20DD PUSH2 0x1E47 JUMP JUMPDEST PUSH20 0xFFFFFFFFFFFFFFFFFFFFFFFFFFFFFFFFFFFFFFFF AND EQ PUSH2 0x2133 JUMPI PUSH1 0x40 MLOAD PUSH32 0x8C379A000000000000000000000000000000000000000000000000000000000 DUP2 MSTORE PUSH1 0x4 ADD PUSH2 0x212A SWAP1 PUSH2 0x4DBC JUMP JUMPDEST PUSH1 0x40 MLOAD DUP1 SWAP2 SUB SWAP1 REVERT JUMPDEST DUP1 PUSH1 0x7 SWAP1 DUP2 PUSH2 0x2142 SWAP2 SWAP1 PUSH2 0x5507 JUMP JUMPDEST POP POP JUMP JUMPDEST PUSH1 0x60 PUSH1 0xB PUSH1 0x0 CALLER PUSH20 0xFFFFFFFFFFFFFFFFFFFFFFFFFFFFFFFFFFFFFFFF AND PUSH20 0xFFFFFFFFFFFFFFFFFFFFFFFFFFFFFFFFFFFFFFFF AND DUP2 MSTORE PUSH1 0x20 ADD SWAP1 DUP2 MSTORE PUSH1 0x20 ADD PUSH1 0x0 KECCAK256 DUP1 SLOAD PUSH2 0x2192 SWAP1 PUSH2 0x4CAD JUMP JUMPDEST DUP1 PUSH1 0x1F ADD PUSH1 0x20 DUP1 SWAP2 DIV MUL PUSH1 0x20 ADD PUSH1 0x40 MLOAD SWAP1 DUP2 ADD PUSH1 0x40 MSTORE DUP1 SWAP3 SWAP2 SWAP1 DUP2 DUP2 MSTORE PUSH1 0x20 ADD DUP3 DUP1 SLOAD PUSH2 0x21BE SWAP1 PUSH2 0x4CAD JUMP JUMPDEST DUP1 ISZERO PUSH2 0x220B JUMPI DUP1 PUSH1 0x1F LT PUSH2 0x21E0 JUMPI PUSH2 0x100 DUP1 DUP4 SLOAD DIV MUL DUP4 MSTORE SWAP2 PUSH1 0x20 ADD SWAP2 PUSH2 0x220B JUMP JUMPDEST DUP3 ADD SWAP2 SWAP1 PUSH1 0x0 MSTORE PUSH1 0x20 PUSH1 0x0 KECCAK256 SWAP1 JUMPDEST DUP2 SLOAD DUP2 MSTORE SWAP1 PUSH1 0x1 ADD SWAP1 PUSH1 0x20 ADD DUP1 DUP4 GT PUSH2 0x21EE JUMPI DUP3 SWAP1 SUB PUSH1 0x1F AND DUP3 ADD SWAP2 JUMPDEST POP POP POP POP POP SWAP1 POP SWAP1 JUMP JUMPDEST PUSH2 0x2227 PUSH2 0x2220 PUSH2 0x2F08 JUMP JUMPDEST DUP4 DUP4 PUSH2 0x37BF JUMP JUMPDEST POP POP JUMP JUMPDEST PUSH2 0x2233 PUSH2 0x2F08 JUMP JUMPDEST PUSH20 0xFFFFFFFFFFFFFFFFFFFFFFFFFFFFFFFFFFFFFFFF AND PUSH2 0x2251 PUSH2 0x1E47 JUMP JUMPDEST PUSH20 0xFFFFFFFFFFFFFFFFFFFFFFFFFFFFFFFFFFFFFFFF AND EQ PUSH2 0x22A7 JUMPI PUSH1 0x40 MLOAD PUSH32 0x8C379A000000000000000000000000000000000000000000000000000000000 DUP2 MSTORE PUSH1 0x4 ADD PUSH2 0x229E SWAP1 PUSH2 0x4DBC JUMP JUMPDEST PUSH1 0x40 MLOAD DUP1 SWAP2 SUB SWAP1 REVERT JUMPDEST PUSH1 0xC PUSH1 0x19 SWAP1 SLOAD SWAP1 PUSH2 0x100 EXP SWAP1 DIV PUSH1 0xFF AND ISZERO PUSH1 0xC PUSH1 0x19 PUSH2 0x100 EXP DUP2 SLOAD DUP2 PUSH1 0xFF MUL NOT AND SWAP1 DUP4 ISZERO ISZERO MUL OR SWAP1 SSTORE POP JUMP JUMPDEST DUP1 PUSH1 0x0 DUP2 PUSH4 0xFFFFFFFF AND GT PUSH2 0x231D JUMPI PUSH1 0x40 MLOAD PUSH32 0x8C379A000000000000000000000000000000000000000000000000000000000 DUP2 MSTORE PUSH1 0x4 ADD PUSH2 0x2314 SWAP1 PUSH2 0x482A JUMP JUMPDEST PUSH1 0x40 MLOAD DUP1 SWAP2 SUB SWAP1 REVERT JUMPDEST PUSH1 0x1 PUSH1 0x9 PUSH1 0x0 SWAP1 SLOAD SWAP1 PUSH2 0x100 EXP SWAP1 DIV PUSH4 0xFFFFFFFF AND PUSH2 0x233C SWAP2 SWAP1 PUSH2 0x4879 JUMP JUMPDEST PUSH4 0xFFFFFFFF AND DUP2 PUSH4 0xFFFFFFFF AND LT PUSH2 0x2389 JUMPI PUSH1 0x40 MLOAD PUSH32 0x8C379A000000000000000000000000000000000000000000000000000000000 DUP2 MSTORE PUSH1 0x4 ADD PUSH2 0x2380 SWAP1 PUSH2 0x48FD JUMP JUMPDEST PUSH1 0x40 MLOAD DUP1 SWAP2 SUB SWAP1 REVERT JUMPDEST DUP1 PUSH4 0xFFFFFFFF AND PUSH1 0x8 SLOAD PUSH2 0x239D SWAP2 SWAP1 PUSH2 0x491D JUMP JUMPDEST CALLVALUE LT ISZERO PUSH2 0x23DF JUMPI PUSH1 0x40 MLOAD PUSH32 0x8C379A000000000000000000000000000000000000000000000000000000000 DUP2 MSTORE PUSH1 0x4 ADD PUSH2 0x23D6 SWAP1 PUSH2 0x49AB JUMP JUMPDEST PUSH1 0x40 MLOAD DUP1 SWAP2 SUB SWAP1 REVERT JUMPDEST PUSH1 0x1 PUSH1 0x9 PUSH1 0xC SWAP1 SLOAD SWAP1 PUSH2 0x100 EXP SWAP1 DIV PUSH4 0xFFFFFFFF AND PUSH2 0x23FE SWAP2 SWAP1 PUSH2 0x4879 JUMP JUMPDEST PUSH4 0xFFFFFFFF AND DUP2 PUSH1 0x9 PUSH1 0x8 SWAP1 SLOAD SWAP1 PUSH2 0x100 EXP SWAP1 DIV PUSH4 0xFFFFFFFF AND PUSH2 0x2422 SWAP2 SWAP1 PUSH2 0x4879 JUMP JUMPDEST PUSH4 0xFFFFFFFF AND LT PUSH2 0x2468 JUMPI PUSH1 0x40 MLOAD PUSH32 0x8C379A000000000000000000000000000000000000000000000000000000000 DUP2 MSTORE PUSH1 0x4 ADD PUSH2 0x245F SWAP1 PUSH2 0x4A17 JUMP JUMPDEST PUSH1 0x40 MLOAD DUP1 SWAP2 SUB SWAP1 REVERT JUMPDEST PUSH1 0x9 PUSH1 0x4 SWAP1 SLOAD SWAP1 PUSH2 0x100 EXP SWAP1 DIV PUSH4 0xFFFFFFFF AND PUSH4 0xFFFFFFFF AND DUP2 PUSH4 0xFFFFFFFF AND PUSH1 0xA PUSH1 0x0 CALLER PUSH20 0xFFFFFFFFFFFFFFFFFFFFFFFFFFFFFFFFFFFFFFFF AND PUSH20 0xFFFFFFFFFFFFFFFFFFFFFFFFFFFFFFFFFFFFFFFF AND DUP2 MSTORE PUSH1 0x20 ADD SWAP1 DUP2 MSTORE PUSH1 0x20 ADD PUSH1 0x0 KECCAK256 SLOAD PUSH2 0x24D2 SWAP2 SWAP1 PUSH2 0x4A37 JUMP JUMPDEST GT ISZERO PUSH2 0x2513 JUMPI PUSH1 0x40 MLOAD PUSH32 0x8C379A000000000000000000000000000000000000000000000000000000000 DUP2 MSTORE PUSH1 0x4 ADD PUSH2 0x250A SWAP1 PUSH2 0x4AB7 JUMP JUMPDEST PUSH1 0x40 MLOAD DUP1 SWAP2 SUB SWAP1 REVERT JUMPDEST PUSH1 0x1 ISZERO ISZERO PUSH1 0x9 PUSH1 0x10 SWAP1 SLOAD SWAP1 PUSH2 0x100 EXP SWAP1 DIV PUSH1 0xFF AND ISZERO ISZERO EQ PUSH2 0x2569 JUMPI PUSH1 0x40 MLOAD PUSH32 0x8C379A000000000000000000000000000000000000000000000000000000000 DUP2 MSTORE PUSH1 0x4 ADD PUSH2 0x2560 SWAP1 PUSH2 0x5625 JUMP JUMPDEST PUSH1 0x40 MLOAD DUP1 SWAP2 SUB SWAP1 REVERT JUMPDEST PUSH2 0x2572 DUP3 PUSH2 0x2CEF JUMP JUMPDEST POP POP JUMP JUMPDEST DUP1 PUSH1 0xB PUSH1 0x0 CALLER PUSH20 0xFFFFFFFFFFFFFFFFFFFFFFFFFFFFFFFFFFFFFFFF AND PUSH20 0xFFFFFFFFFFFFFFFFFFFFFFFFFFFFFFFFFFFFFFFF AND DUP2 MSTORE PUSH1 0x20 ADD SWAP1 DUP2 MSTORE PUSH1 0x20 ADD PUSH1 0x0 KECCAK256 SWAP1 DUP2 PUSH2 0x25C2 SWAP2 SWAP1 PUSH2 0x5507 JUMP JUMPDEST POP POP JUMP JUMPDEST PUSH2 0x25D7 PUSH2 0x25D1 PUSH2 0x2F08 JUMP JUMPDEST DUP4 PUSH2 0x3205 JUMP JUMPDEST PUSH2 0x2616 JUMPI PUSH1 0x40 MLOAD PUSH32 0x8C379A000000000000000000000000000000000000000000000000000000000 DUP2 MSTORE PUSH1 0x4 ADD PUSH2 0x260D SWAP1 PUSH2 0x5140 JUMP JUMPDEST PUSH1 0x40 MLOAD DUP1 SWAP2 SUB SWAP1 REVERT JUMPDEST PUSH2 0x2622 DUP5 DUP5 DUP5 DUP5 PUSH2 0x392B JUMP JUMPDEST POP POP POP POP JUMP JUMPDEST PUSH1 0xE PUSH1 0x0 SWAP1 SLOAD SWAP1 PUSH2 0x100 EXP SWAP1 DIV PUSH1 0xFF AND DUP2 JUMP JUMPDEST PUSH1 0x60 PUSH1 0x9 PUSH1 0x8 SWAP1 SLOAD SWAP1 PUSH2 0x100 EXP SWAP1 DIV PUSH4 0xFFFFFFFF AND PUSH4 0xFFFFFFFF AND DUP3 GT ISZERO PUSH2 0x2698 JUMPI PUSH1 0x40 MLOAD PUSH32 0x8C379A000000000000000000000000000000000000000000000000000000000 DUP2 MSTORE PUSH1 0x4 ADD PUSH2 0x268F SWAP1 PUSH2 0x5691 JUMP JUMPDEST PUSH1 0x40 MLOAD DUP1 SWAP2 SUB SWAP1 REVERT JUMPDEST PUSH1 0x0 ISZERO ISZERO PUSH1 0xC PUSH1 0x19 SWAP1 SLOAD SWAP1 PUSH2 0x100 EXP SWAP1 DIV PUSH1 0xFF AND ISZERO ISZERO SUB PUSH2 0x26E5 JUMPI PUSH1 0xD PUSH2 0x26BE DUP4 PUSH2 0x365F JUMP JUMPDEST PUSH1 0x40 MLOAD PUSH1 0x20 ADD PUSH2 0x26CF SWAP3 SWAP2 SWAP1 PUSH2 0x5780 JUMP JUMPDEST PUSH1 0x40 MLOAD PUSH1 0x20 DUP2 DUP4 SUB SUB DUP2 MSTORE SWAP1 PUSH1 0x40 MSTORE SWAP1 POP PUSH2 0x2713 JUMP JUMPDEST PUSH1 0x7 PUSH2 0x26F0 DUP4 PUSH2 0x365F JUMP JUMPDEST PUSH1 0x40 MLOAD PUSH1 0x20 ADD PUSH2 0x2701 SWAP3 SWAP2 SWAP1 PUSH2 0x5780 JUMP JUMPDEST PUSH1 0x40 MLOAD PUSH1 0x20 DUP2 DUP4 SUB SUB DUP2 MSTORE SWAP1 PUSH1 0x40 MSTORE SWAP1 POP JUMPDEST SWAP2 SWAP1 POP JUMP JUMPDEST PUSH2 0x2720 PUSH2 0x2F08 JUMP JUMPDEST PUSH20 0xFFFFFFFFFFFFFFFFFFFFFFFFFFFFFFFFFFFFFFFF AND PUSH2 0x273E PUSH2 0x1E47 JUMP JUMPDEST PUSH20 0xFFFFFFFFFFFFFFFFFFFFFFFFFFFFFFFFFFFFFFFF AND EQ PUSH2 0x2794 JUMPI PUSH1 0x40 MLOAD PUSH32 0x8C379A000000000000000000000000000000000000000000000000000000000 DUP2 MSTORE PUSH1 0x4 ADD PUSH2 0x278B SWAP1 PUSH2 0x4DBC JUMP JUMPDEST PUSH1 0x40 MLOAD DUP1 SWAP2 SUB SWAP1 REVERT JUMPDEST PUSH2 0x279D DUP6 PUSH2 0x187E JUMP JUMPDEST PUSH2 0x27A6 DUP5 PUSH2 0x1690 JUMP JUMPDEST PUSH2 0x27AF DUP4 PUSH2 0x2B06 JUMP JUMPDEST PUSH2 0x27B8 DUP3 PUSH2 0x10A8 JUMP JUMPDEST PUSH2 0x27C1 DUP2 PUSH2 0x19FE JUMP JUMPDEST POP POP POP POP POP JUMP JUMPDEST PUSH1 0x0 DUP2 PUSH20 0xFFFFFFFFFFFFFFFFFFFFFFFFFFFFFFFFFFFFFFFF AND PUSH4 0x70A08231 DUP5 PUSH1 0x40 MLOAD DUP3 PUSH4 0xFFFFFFFF AND PUSH1 0xE0 SHL DUP2 MSTORE PUSH1 0x4 ADD PUSH2 0x2803 SWAP2 SWAP1 PUSH2 0x40F6 JUMP JUMPDEST PUSH1 0x20 PUSH1 0x40 MLOAD DUP1 DUP4 SUB DUP2 DUP7 GAS STATICCALL ISZERO DUP1 ISZERO PUSH2 0x2820 JUMPI RETURNDATASIZE PUSH1 0x0 DUP1 RETURNDATACOPY RETURNDATASIZE PUSH1 0x0 REVERT JUMPDEST POP POP POP POP PUSH1 0x40 MLOAD RETURNDATASIZE PUSH1 0x1F NOT PUSH1 0x1F DUP3 ADD AND DUP3 ADD DUP1 PUSH1 0x40 MSTORE POP DUP2 ADD SWAP1 PUSH2 0x2844 SWAP2 SWAP1 PUSH2 0x57C4 JUMP JUMPDEST SWAP1 POP SWAP3 SWAP2 POP POP JUMP JUMPDEST PUSH1 0x0 PUSH2 0x2856 PUSH2 0x2F08 JUMP JUMPDEST PUSH20 0xFFFFFFFFFFFFFFFFFFFFFFFFFFFFFFFFFFFFFFFF AND PUSH2 0x2874 PUSH2 0x1E47 JUMP JUMPDEST PUSH20 0xFFFFFFFFFFFFFFFFFFFFFFFFFFFFFFFFFFFFFFFF AND EQ PUSH2 0x28CA JUMPI PUSH1 0x40 MLOAD PUSH32 0x8C379A000000000000000000000000000000000000000000000000000000000 DUP2 MSTORE PUSH1 0x4 ADD PUSH2 0x28C1 SWAP1 PUSH2 0x4DBC JUMP JUMPDEST PUSH1 0x40 MLOAD DUP1 SWAP2 SUB SWAP1 REVERT JUMPDEST PUSH1 0xC PUSH1 0x1 SWAP1 SLOAD SWAP1 PUSH2 0x100 EXP SWAP1 DIV PUSH4 0xFFFFFFFF AND SWAP1 POP SWAP1 JUMP JUMPDEST PUSH1 0x0 PUSH1 0x5 PUSH1 0x0 DUP5 PUSH20 0xFFFFFFFFFFFFFFFFFFFFFFFFFFFFFFFFFFFFFFFF AND PUSH20 0xFFFFFFFFFFFFFFFFFFFFFFFFFFFFFFFFFFFFFFFF AND DUP2 MSTORE PUSH1 0x20 ADD SWAP1 DUP2 MSTORE PUSH1 0x20 ADD PUSH1 0x0 KECCAK256 PUSH1 0x0 DUP4 PUSH20 0xFFFFFFFFFFFFFFFFFFFFFFFFFFFFFFFFFFFFFFFF AND PUSH20 0xFFFFFFFFFFFFFFFFFFFFFFFFFFFFFFFFFFFFFFFF AND DUP2 MSTORE PUSH1 0x20 ADD SWAP1 DUP2 MSTORE PUSH1 0x20 ADD PUSH1 0x0 KECCAK256 PUSH1 0x0 SWAP1 SLOAD SWAP1 PUSH2 0x100 EXP SWAP1 DIV PUSH1 0xFF AND SWAP1 POP SWAP3 SWAP2 POP POP JUMP JUMPDEST PUSH2 0x297E PUSH2 0x2F08 JUMP JUMPDEST PUSH20 0xFFFFFFFFFFFFFFFFFFFFFFFFFFFFFFFFFFFFFFFF AND PUSH2 0x299C PUSH2 0x1E47 JUMP JUMPDEST PUSH20 0xFFFFFFFFFFFFFFFFFFFFFFFFFFFFFFFFFFFFFFFF AND EQ PUSH2 0x29F2 JUMPI PUSH1 0x40 MLOAD PUSH32 0x8C379A000000000000000000000000000000000000000000000000000000000 DUP2 MSTORE PUSH1 0x4 ADD PUSH2 0x29E9 SWAP1 PUSH2 0x4DBC JUMP JUMPDEST PUSH1 0x40 MLOAD DUP1 SWAP2 SUB SWAP1 REVERT JUMPDEST PUSH1 0x0 PUSH20 0xFFFFFFFFFFFFFFFFFFFFFFFFFFFFFFFFFFFFFFFF AND DUP2 PUSH20 0xFFFFFFFFFFFFFFFFFFFFFFFFFFFFFFFFFFFFFFFF AND SUB PUSH2 0x2A61 JUMPI PUSH1 0x40 MLOAD PUSH32 0x8C379A000000000000000000000000000000000000000000000000000000000 DUP2 MSTORE PUSH1 0x4 ADD PUSH2 0x2A58 SWAP1 PUSH2 0x5863 JUMP JUMPDEST PUSH1 0x40 MLOAD DUP1 SWAP2 SUB SWAP1 REVERT JUMPDEST PUSH2 0x2A6A DUP2 PUSH2 0x353E JUMP JUMPDEST POP JUMP JUMPDEST PUSH2 0x2A75 PUSH2 0x2F08 JUMP JUMPDEST PUSH20 0xFFFFFFFFFFFFFFFFFFFFFFFFFFFFFFFFFFFFFFFF AND PUSH2 0x2A93 PUSH2 0x1E47 JUMP JUMPDEST PUSH20 0xFFFFFFFFFFFFFFFFFFFFFFFFFFFFFFFFFFFFFFFF AND EQ PUSH2 0x2AE9 JUMPI PUSH1 0x40 MLOAD PUSH32 0x8C379A000000000000000000000000000000000000000000000000000000000 DUP2 MSTORE PUSH1 0x4 ADD PUSH2 0x2AE0 SWAP1 PUSH2 0x4DBC JUMP JUMPDEST PUSH1 0x40 MLOAD DUP1 SWAP2 SUB SWAP1 REVERT JUMPDEST DUP1 PUSH1 0xE PUSH1 0x0 PUSH2 0x100 EXP DUP2 SLOAD DUP2 PUSH1 0xFF MUL NOT AND SWAP1 DUP4 ISZERO ISZERO MUL OR SWAP1 SSTORE POP POP JUMP JUMPDEST PUSH2 0x2B0E PUSH2 0x2F08 JUMP JUMPDEST PUSH20 0xFFFFFFFFFFFFFFFFFFFFFFFFFFFFFFFFFFFFFFFF AND PUSH2 0x2B2C PUSH2 0x1E47 JUMP JUMPDEST PUSH20 0xFFFFFFFFFFFFFFFFFFFFFFFFFFFFFFFFFFFFFFFF AND EQ PUSH2 0x2B82 JUMPI PUSH1 0x40 MLOAD PUSH32 0x8C379A000000000000000000000000000000000000000000000000000000000 DUP2 MSTORE PUSH1 0x4 ADD PUSH2 0x2B79 SWAP1 PUSH2 0x4DBC JUMP JUMPDEST PUSH1 0x40 MLOAD DUP1 SWAP2 SUB SWAP1 REVERT JUMPDEST DUP1 PUSH4 0xFFFFFFFF AND PUSH1 0x9 PUSH1 0x0 SWAP1 SLOAD SWAP1 PUSH2 0x100 EXP SWAP1 DIV PUSH4 0xFFFFFFFF AND PUSH4 0xFFFFFFFF AND EQ PUSH2 0x2BC9 JUMPI DUP1 PUSH1 0x9 PUSH1 0x0 PUSH2 0x100 EXP DUP2 SLOAD DUP2 PUSH4 0xFFFFFFFF MUL NOT AND SWAP1 DUP4 PUSH4 0xFFFFFFFF AND MUL OR SWAP1 SSTORE POP JUMPDEST POP JUMP JUMPDEST PUSH1 0x9 PUSH1 0x10 SWAP1 SLOAD SWAP1 PUSH2 0x100 EXP SWAP1 DIV PUSH1 0xFF AND DUP2 JUMP JUMPDEST PUSH2 0x2BE7 PUSH2 0x2F08 JUMP JUMPDEST PUSH20 0xFFFFFFFFFFFFFFFFFFFFFFFFFFFFFFFFFFFFFFFF AND PUSH2 0x2C05 PUSH2 0x1E47 JUMP JUMPDEST PUSH20 0xFFFFFFFFFFFFFFFFFFFFFFFFFFFFFFFFFFFFFFFF AND EQ PUSH2 0x2C5B JUMPI PUSH1 0x40 MLOAD PUSH32 0x8C379A000000000000000000000000000000000000000000000000000000000 DUP2 MSTORE PUSH1 0x4 ADD PUSH2 0x2C52 SWAP1 PUSH2 0x4DBC JUMP JUMPDEST PUSH1 0x40 MLOAD DUP1 SWAP2 SUB SWAP1 REVERT JUMPDEST DUP1 PUSH1 0xD SWAP1 DUP2 PUSH2 0x2C6A SWAP2 SWAP1 PUSH2 0x5507 JUMP JUMPDEST POP POP JUMP JUMPDEST PUSH1 0x0 PUSH32 0x1FFC9A700000000000000000000000000000000000000000000000000000000 PUSH28 0xFFFFFFFFFFFFFFFFFFFFFFFFFFFFFFFFFFFFFFFFFFFFFFFFFFFFFFFF NOT AND DUP3 PUSH28 0xFFFFFFFFFFFFFFFFFFFFFFFFFFFFFFFFFFFFFFFFFFFFFFFFFFFFFFFF NOT AND EQ SWAP1 POP SWAP2 SWAP1 POP JUMP JUMPDEST PUSH1 0x0 DUP3 PUSH2 0x2CE5 DUP6 DUP5 PUSH2 0x3987 JUMP JUMPDEST EQ SWAP1 POP SWAP4 SWAP3 POP POP POP JUMP JUMPDEST PUSH1 0x0 JUMPDEST DUP2 PUSH4 0xFFFFFFFF AND DUP2 PUSH4 0xFFFFFFFF AND LT ISZERO PUSH2 0x2D73 JUMPI PUSH2 0x2D60 CALLER PUSH1 0x9 PUSH1 0x8 DUP2 DUP2 SWAP1 SLOAD SWAP1 PUSH2 0x100 EXP SWAP1 DIV PUSH4 0xFFFFFFFF AND PUSH2 0x2D28 SWAP1 PUSH2 0x502D JUMP JUMPDEST SWAP2 SWAP1 PUSH2 0x100 EXP DUP2 SLOAD DUP2 PUSH4 0xFFFFFFFF MUL NOT AND SWAP1 DUP4 PUSH4 0xFFFFFFFF AND MUL OR SWAP1 SSTORE PUSH4 0xFFFFFFFF AND PUSH1 0x40 MLOAD DUP1 PUSH1 0x20 ADD PUSH1 0x40 MSTORE DUP1 PUSH1 0x0 DUP2 MSTORE POP PUSH2 0x3604 JUMP JUMPDEST DUP1 DUP1 PUSH2 0x2D6B SWAP1 PUSH2 0x502D JUMP JUMPDEST SWAP2 POP POP PUSH2 0x2CF2 JUMP JUMPDEST POP DUP1 PUSH4 0xFFFFFFFF AND PUSH1 0xA PUSH1 0x0 CALLER PUSH20 0xFFFFFFFFFFFFFFFFFFFFFFFFFFFFFFFFFFFFFFFF AND PUSH20 0xFFFFFFFFFFFFFFFFFFFFFFFFFFFFFFFFFFFFFFFF AND DUP2 MSTORE PUSH1 0x20 ADD SWAP1 DUP2 MSTORE PUSH1 0x20 ADD PUSH1 0x0 KECCAK256 PUSH1 0x0 DUP3 DUP3 SLOAD PUSH2 0x2DC9 SWAP2 SWAP1 PUSH2 0x4A37 JUMP JUMPDEST SWAP3 POP POP DUP2 SWAP1 SSTORE POP PUSH1 0x0 PUSH1 0xC PUSH1 0x5 SWAP1 SLOAD SWAP1 PUSH2 0x100 EXP SWAP1 DIV PUSH20 0xFFFFFFFFFFFFFFFFFFFFFFFFFFFFFFFFFFFFFFFF AND PUSH20 0xFFFFFFFFFFFFFFFFFFFFFFFFFFFFFFFFFFFFFFFF AND PUSH2 0x3E8 PUSH1 0xC PUSH1 0x1 SWAP1 SLOAD SWAP1 PUSH2 0x100 EXP SWAP1 DIV PUSH4 0xFFFFFFFF AND PUSH4 0xFFFFFFFF AND CALLVALUE PUSH2 0x2E32 SWAP2 SWAP1 PUSH2 0x491D JUMP JUMPDEST PUSH2 0x2E3C SWAP2 SWAP1 PUSH2 0x58B2 JUMP JUMPDEST PUSH1 0x40 MLOAD PUSH2 0x2E48 SWAP1 PUSH2 0x5191 JUMP JUMPDEST PUSH1 0x0 PUSH1 0x40 MLOAD DUP1 DUP4 SUB DUP2 DUP6 DUP8 GAS CALL SWAP3 POP POP POP RETURNDATASIZE DUP1 PUSH1 0x0 DUP2 EQ PUSH2 0x2E85 JUMPI PUSH1 0x40 MLOAD SWAP2 POP PUSH1 0x1F NOT PUSH1 0x3F RETURNDATASIZE ADD AND DUP3 ADD PUSH1 0x40 MSTORE RETURNDATASIZE DUP3 MSTORE RETURNDATASIZE PUSH1 0x0 PUSH1 0x20 DUP5 ADD RETURNDATACOPY PUSH2 0x2E8A JUMP JUMPDEST PUSH1 0x60 SWAP2 POP JUMPDEST POP POP SWAP1 POP DUP1 PUSH2 0x2E98 JUMPI PUSH1 0x0 DUP1 REVERT JUMPDEST POP POP JUMP JUMPDEST PUSH1 0x0 DUP1 PUSH20 0xFFFFFFFFFFFFFFFFFFFFFFFFFFFFFFFFFFFFFFFF AND PUSH1 0x2 PUSH1 0x0 DUP5 DUP2 MSTORE PUSH1 0x20 ADD SWAP1 DUP2 MSTORE PUSH1 0x20 ADD PUSH1 0x0 KECCAK256 PUSH1 0x0 SWAP1 SLOAD SWAP1 PUSH2 0x100 EXP SWAP1 DIV PUSH20 0xFFFFFFFFFFFFFFFFFFFFFFFFFFFFFFFFFFFFFFFF AND PUSH20 0xFFFFFFFFFFFFFFFFFFFFFFFFFFFFFFFFFFFFFFFF AND EQ ISZERO SWAP1 POP SWAP2 SWAP1 POP JUMP JUMPDEST PUSH1 0x0 CALLER SWAP1 POP SWAP1 JUMP JUMPDEST DUP2 PUSH1 0x4 PUSH1 0x0 DUP4 DUP2 MSTORE PUSH1 0x20 ADD SWAP1 DUP2 MSTORE PUSH1 0x20 ADD PUSH1 0x0 KECCAK256 PUSH1 0x0 PUSH2 0x100 EXP DUP2 SLOAD DUP2 PUSH20 0xFFFFFFFFFFFFFFFFFFFFFFFFFFFFFFFFFFFFFFFF MUL NOT AND SWAP1 DUP4 PUSH20 0xFFFFFFFFFFFFFFFFFFFFFFFFFFFFFFFFFFFFFFFF AND MUL OR SWAP1 SSTORE POP DUP1 DUP3 PUSH20 0xFFFFFFFFFFFFFFFFFFFFFFFFFFFFFFFFFFFFFFFF AND PUSH2 0x2F83 DUP4 PUSH2 0x194D JUMP JUMPDEST PUSH20 0xFFFFFFFFFFFFFFFFFFFFFFFFFFFFFFFFFFFFFFFF AND PUSH32 0x8C5BE1E5EBEC7D5BD14F71427D1E84F3DD0314C0F7B2291E5B200AC8C7C3B925 PUSH1 0x40 MLOAD PUSH1 0x40 MLOAD DUP1 SWAP2 SUB SWAP1 LOG4 POP POP JUMP JUMPDEST PUSH1 0x60 PUSH1 0x0 PUSH1 0x2 DUP4 PUSH1 0x2 PUSH2 0x2FDC SWAP2 SWAP1 PUSH2 0x491D JUMP JUMPDEST PUSH2 0x2FE6 SWAP2 SWAP1 PUSH2 0x4A37 JUMP JUMPDEST PUSH8 0xFFFFFFFFFFFFFFFF DUP2 GT ISZERO PUSH2 0x2FFF JUMPI PUSH2 0x2FFE PUSH2 0x444B JUMP JUMPDEST JUMPDEST PUSH1 0x40 MLOAD SWAP1 DUP1 DUP3 MSTORE DUP1 PUSH1 0x1F ADD PUSH1 0x1F NOT AND PUSH1 0x20 ADD DUP3 ADD PUSH1 0x40 MSTORE DUP1 ISZERO PUSH2 0x3031 JUMPI DUP2 PUSH1 0x20 ADD PUSH1 0x1 DUP3 MUL DUP1 CALLDATASIZE DUP4 CALLDATACOPY DUP1 DUP3 ADD SWAP2 POP POP SWAP1 POP JUMPDEST POP SWAP1 POP PUSH32 0x3000000000000000000000000000000000000000000000000000000000000000 DUP2 PUSH1 0x0 DUP2 MLOAD DUP2 LT PUSH2 0x3069 JUMPI PUSH2 0x3068 PUSH2 0x5336 JUMP JUMPDEST JUMPDEST PUSH1 0x20 ADD ADD SWAP1 PUSH31 0xFFFFFFFFFFFFFFFFFFFFFFFFFFFFFFFFFFFFFFFFFFFFFFFFFFFFFFFFFFFFFF NOT AND SWAP1 DUP2 PUSH1 0x0 BYTE SWAP1 MSTORE8 POP PUSH32 0x7800000000000000000000000000000000000000000000000000000000000000 DUP2 PUSH1 0x1 DUP2 MLOAD DUP2 LT PUSH2 0x30CD JUMPI PUSH2 0x30CC PUSH2 0x5336 JUMP JUMPDEST JUMPDEST PUSH1 0x20 ADD ADD SWAP1 PUSH31 0xFFFFFFFFFFFFFFFFFFFFFFFFFFFFFFFFFFFFFFFFFFFFFFFFFFFFFFFFFFFFFF NOT AND SWAP1 DUP2 PUSH1 0x0 BYTE SWAP1 MSTORE8 POP PUSH1 0x0 PUSH1 0x1 DUP5 PUSH1 0x2 PUSH2 0x310D SWAP2 SWAP1 PUSH2 0x491D JUMP JUMPDEST PUSH2 0x3117 SWAP2 SWAP1 PUSH2 0x4A37 JUMP JUMPDEST SWAP1 POP JUMPDEST PUSH1 0x1 DUP2 GT ISZERO PUSH2 0x31B7 JUMPI PUSH32 0x3031323334353637383961626364656600000000000000000000000000000000 PUSH1 0xF DUP7 AND PUSH1 0x10 DUP2 LT PUSH2 0x3159 JUMPI PUSH2 0x3158 PUSH2 0x5336 JUMP JUMPDEST JUMPDEST BYTE PUSH1 0xF8 SHL DUP3 DUP3 DUP2 MLOAD DUP2 LT PUSH2 0x3170 JUMPI PUSH2 0x316F PUSH2 0x5336 JUMP JUMPDEST JUMPDEST PUSH1 0x20 ADD ADD SWAP1 PUSH31 0xFFFFFFFFFFFFFFFFFFFFFFFFFFFFFFFFFFFFFFFFFFFFFFFFFFFFFFFFFFFFFF NOT AND SWAP1 DUP2 PUSH1 0x0 BYTE SWAP1 MSTORE8 POP PUSH1 0x4 DUP6 SWAP1 SHR SWAP5 POP DUP1 PUSH2 0x31B0 SWAP1 PUSH2 0x58E3 JUMP JUMPDEST SWAP1 POP PUSH2 0x311A JUMP JUMPDEST POP PUSH1 0x0 DUP5 EQ PUSH2 0x31FB JUMPI PUSH1 0x40 MLOAD PUSH32 0x8C379A000000000000000000000000000000000000000000000000000000000 DUP2 MSTORE PUSH1 0x4 ADD PUSH2 0x31F2 SWAP1 PUSH2 0x5958 JUMP JUMPDEST PUSH1 0x40 MLOAD DUP1 SWAP2 SUB SWAP1 REVERT JUMPDEST DUP1 SWAP2 POP POP SWAP3 SWAP2 POP POP JUMP JUMPDEST PUSH1 0x0 PUSH2 0x3210 DUP3 PUSH2 0x2E9C JUMP JUMPDEST PUSH2 0x324F JUMPI PUSH1 0x40 MLOAD PUSH32 0x8C379A000000000000000000000000000000000000000000000000000000000 DUP2 MSTORE PUSH1 0x4 ADD PUSH2 0x3246 SWAP1 PUSH2 0x59EA JUMP JUMPDEST PUSH1 0x40 MLOAD DUP1 SWAP2 SUB SWAP1 REVERT JUMPDEST PUSH1 0x0 PUSH2 0x325A DUP4 PUSH2 0x194D JUMP JUMPDEST SWAP1 POP DUP1 PUSH20 0xFFFFFFFFFFFFFFFFFFFFFFFFFFFFFFFFFFFFFFFF AND DUP5 PUSH20 0xFFFFFFFFFFFFFFFFFFFFFFFFFFFFFFFFFFFFFFFF AND EQ DUP1 PUSH2 0x32C9 JUMPI POP DUP4 PUSH20 0xFFFFFFFFFFFFFFFFFFFFFFFFFFFFFFFFFFFFFFFF AND PUSH2 0x32B1 DUP5 PUSH2 0x1023 JUMP JUMPDEST PUSH20 0xFFFFFFFFFFFFFFFFFFFFFFFFFFFFFFFFFFFFFFFF AND EQ JUMPDEST DUP1 PUSH2 0x32DA JUMPI POP PUSH2 0x32D9 DUP2 DUP6 PUSH2 0x28E2 JUMP JUMPDEST JUMPDEST SWAP2 POP POP SWAP3 SWAP2 POP POP JUMP JUMPDEST DUP3 PUSH20 0xFFFFFFFFFFFFFFFFFFFFFFFFFFFFFFFFFFFFFFFF AND PUSH2 0x3303 DUP3 PUSH2 0x194D JUMP JUMPDEST PUSH20 0xFFFFFFFFFFFFFFFFFFFFFFFFFFFFFFFFFFFFFFFF AND EQ PUSH2 0x3359 JUMPI PUSH1 0x40 MLOAD PUSH32 0x8C379A000000000000000000000000000000000000000000000000000000000 DUP2 MSTORE PUSH1 0x4 ADD PUSH2 0x3350 SWAP1 PUSH2 0x5A7C JUMP JUMPDEST PUSH1 0x40 MLOAD DUP1 SWAP2 SUB SWAP1 REVERT JUMPDEST PUSH1 0x0 PUSH20 0xFFFFFFFFFFFFFFFFFFFFFFFFFFFFFFFFFFFFFFFF AND DUP3 PUSH20 0xFFFFFFFFFFFFFFFFFFFFFFFFFFFFFFFFFFFFFFFF AND SUB PUSH2 0x33C8 JUMPI PUSH1 0x40 MLOAD PUSH32 0x8C379A000000000000000000000000000000000000000000000000000000000 DUP2 MSTORE PUSH1 0x4 ADD PUSH2 0x33BF SWAP1 PUSH2 0x5B0E JUMP JUMPDEST PUSH1 0x40 MLOAD DUP1 SWAP2 SUB SWAP1 REVERT JUMPDEST PUSH2 0x33D3 DUP4 DUP4 DUP4 PUSH2 0x3A3A JUMP JUMPDEST PUSH2 0x33DE PUSH1 0x0 DUP3 PUSH2 0x2F10 JUMP JUMPDEST PUSH1 0x1 PUSH1 0x3 PUSH1 0x0 DUP6 PUSH20 0xFFFFFFFFFFFFFFFFFFFFFFFFFFFFFFFFFFFFFFFF AND PUSH20 0xFFFFFFFFFFFFFFFFFFFFFFFFFFFFFFFFFFFFFFFF AND DUP2 MSTORE PUSH1 0x20 ADD SWAP1 DUP2 MSTORE PUSH1 0x20 ADD PUSH1 0x0 KECCAK256 PUSH1 0x0 DUP3 DUP3 SLOAD PUSH2 0x342E SWAP2 SWAP1 PUSH2 0x5B2E JUMP JUMPDEST SWAP3 POP POP DUP2 SWAP1 SSTORE POP PUSH1 0x1 PUSH1 0x3 PUSH1 0x0 DUP5 PUSH20 0xFFFFFFFFFFFFFFFFFFFFFFFFFFFFFFFFFFFFFFFF AND PUSH20 0xFFFFFFFFFFFFFFFFFFFFFFFFFFFFFFFFFFFFFFFF AND DUP2 MSTORE PUSH1 0x20 ADD SWAP1 DUP2 MSTORE PUSH1 0x20 ADD PUSH1 0x0 KECCAK256 PUSH1 0x0 DUP3 DUP3 SLOAD PUSH2 0x3485 SWAP2 SWAP1 PUSH2 0x4A37 JUMP JUMPDEST SWAP3 POP POP DUP2 SWAP1 SSTORE POP DUP2 PUSH1 0x2 PUSH1 0x0 DUP4 DUP2 MSTORE PUSH1 0x20 ADD SWAP1 DUP2 MSTORE PUSH1 0x20 ADD PUSH1 0x0 KECCAK256 PUSH1 0x0 PUSH2 0x100 EXP DUP2 SLOAD DUP2 PUSH20 0xFFFFFFFFFFFFFFFFFFFFFFFFFFFFFFFFFFFFFFFF MUL NOT AND SWAP1 DUP4 PUSH20 0xFFFFFFFFFFFFFFFFFFFFFFFFFFFFFFFFFFFFFFFF AND MUL OR SWAP1 SSTORE POP DUP1 DUP3 PUSH20 0xFFFFFFFFFFFFFFFFFFFFFFFFFFFFFFFFFFFFFFFF AND DUP5 PUSH20 0xFFFFFFFFFFFFFFFFFFFFFFFFFFFFFFFFFFFFFFFF AND PUSH32 0xDDF252AD1BE2C89B69C2B068FC378DAA952BA7F163C4A11628F55A4DF523B3EF PUSH1 0x40 MLOAD PUSH1 0x40 MLOAD DUP1 SWAP2 SUB SWAP1 LOG4 POP POP POP JUMP JUMPDEST PUSH1 0x0 PUSH1 0x6 PUSH1 0x0 SWAP1 SLOAD SWAP1 PUSH2 0x100 EXP SWAP1 DIV PUSH20 0xFFFFFFFFFFFFFFFFFFFFFFFFFFFFFFFFFFFFFFFF AND SWAP1 POP DUP2 PUSH1 0x6 PUSH1 0x0 PUSH2 0x100 EXP DUP2 SLOAD DUP2 PUSH20 0xFFFFFFFFFFFFFFFFFFFFFFFFFFFFFFFFFFFFFFFF MUL NOT AND SWAP1 DUP4 PUSH20 0xFFFFFFFFFFFFFFFFFFFFFFFFFFFFFFFFFFFFFFFF AND MUL OR SWAP1 SSTORE POP DUP2 PUSH20 0xFFFFFFFFFFFFFFFFFFFFFFFFFFFFFFFFFFFFFFFF AND DUP2 PUSH20 0xFFFFFFFFFFFFFFFFFFFFFFFFFFFFFFFFFFFFFFFF AND PUSH32 0x8BE0079C531659141344CD1FD0A4F28419497F9722A3DAAFE3B4186F6B6457E0 PUSH1 0x40 MLOAD PUSH1 0x40 MLOAD DUP1 SWAP2 SUB SWAP1 LOG3 POP POP JUMP JUMPDEST PUSH2 0x360E DUP4 DUP4 PUSH2 0x3A3F JUMP JUMPDEST PUSH2 0x361B PUSH1 0x0 DUP5 DUP5 DUP5 PUSH2 0x3C0C JUMP JUMPDEST PUSH2 0x365A JUMPI PUSH1 0x40 MLOAD PUSH32 0x8C379A000000000000000000000000000000000000000000000000000000000 DUP2 MSTORE PUSH1 0x4 ADD PUSH2 0x3651 SWAP1 PUSH2 0x5BD4 JUMP JUMPDEST PUSH1 0x40 MLOAD DUP1 SWAP2 SUB SWAP1 REVERT JUMPDEST POP POP POP JUMP JUMPDEST PUSH1 0x60 PUSH1 0x0 DUP3 SUB PUSH2 0x36A6 JUMPI PUSH1 0x40 MLOAD DUP1 PUSH1 0x40 ADD PUSH1 0x40 MSTORE DUP1 PUSH1 0x1 DUP2 MSTORE PUSH1 0x20 ADD PUSH32 0x3000000000000000000000000000000000000000000000000000000000000000 DUP2 MSTORE POP SWAP1 POP PUSH2 0x37BA JUMP JUMPDEST PUSH1 0x0 DUP3 SWAP1 POP PUSH1 0x0 JUMPDEST PUSH1 0x0 DUP3 EQ PUSH2 0x36D8 JUMPI DUP1 DUP1 PUSH2 0x36C1 SWAP1 PUSH2 0x5BF4 JUMP JUMPDEST SWAP2 POP POP PUSH1 0xA DUP3 PUSH2 0x36D1 SWAP2 SWAP1 PUSH2 0x58B2 JUMP JUMPDEST SWAP2 POP PUSH2 0x36AE JUMP JUMPDEST PUSH1 0x0 DUP2 PUSH8 0xFFFFFFFFFFFFFFFF DUP2 GT ISZERO PUSH2 0x36F4 JUMPI PUSH2 0x36F3 PUSH2 0x444B JUMP JUMPDEST JUMPDEST PUSH1 0x40 MLOAD SWAP1 DUP1 DUP3 MSTORE DUP1 PUSH1 0x1F ADD PUSH1 0x1F NOT AND PUSH1 0x20 ADD DUP3 ADD PUSH1 0x40 MSTORE DUP1 ISZERO PUSH2 0x3726 JUMPI DUP2 PUSH1 0x20 ADD PUSH1 0x1 DUP3 MUL DUP1 CALLDATASIZE DUP4 CALLDATACOPY DUP1 DUP3 ADD SWAP2 POP POP SWAP1 POP JUMPDEST POP SWAP1 POP JUMPDEST PUSH1 0x0 DUP6 EQ PUSH2 0x37B3 JUMPI PUSH1 0x1 DUP3 PUSH2 0x373F SWAP2 SWAP1 PUSH2 0x5B2E JUMP JUMPDEST SWAP2 POP PUSH1 0xA DUP6 PUSH2 0x374E SWAP2 SWAP1 PUSH2 0x5C3C JUMP JUMPDEST PUSH1 0x30 PUSH2 0x375A SWAP2 SWAP1 PUSH2 0x4A37 JUMP JUMPDEST PUSH1 0xF8 SHL DUP2 DUP4 DUP2 MLOAD DUP2 LT PUSH2 0x3770 JUMPI PUSH2 0x376F PUSH2 0x5336 JUMP JUMPDEST JUMPDEST PUSH1 0x20 ADD ADD SWAP1 PUSH31 0xFFFFFFFFFFFFFFFFFFFFFFFFFFFFFFFFFFFFFFFFFFFFFFFFFFFFFFFFFFFFFF NOT AND SWAP1 DUP2 PUSH1 0x0 BYTE SWAP1 MSTORE8 POP PUSH1 0xA DUP6 PUSH2 0x37AC SWAP2 SWAP1 PUSH2 0x58B2 JUMP JUMPDEST SWAP5 POP PUSH2 0x372A JUMP JUMPDEST DUP1 SWAP4 POP POP POP POP JUMPDEST SWAP2 SWAP1 POP JUMP JUMPDEST DUP2 PUSH20 0xFFFFFFFFFFFFFFFFFFFFFFFFFFFFFFFFFFFFFFFF AND DUP4 PUSH20 0xFFFFFFFFFFFFFFFFFFFFFFFFFFFFFFFFFFFFFFFF AND SUB PUSH2 0x382D JUMPI PUSH1 0x40 MLOAD PUSH32 0x8C379A000000000000000000000000000000000000000000000000000000000 DUP2 MSTORE PUSH1 0x4 ADD PUSH2 0x3824 SWAP1 PUSH2 0x5CB9 JUMP JUMPDEST PUSH1 0x40 MLOAD DUP1 SWAP2 SUB SWAP1 REVERT JUMPDEST DUP1 PUSH1 0x5 PUSH1 0x0 DUP6 PUSH20 0xFFFFFFFFFFFFFFFFFFFFFFFFFFFFFFFFFFFFFFFF AND PUSH20 0xFFFFFFFFFFFFFFFFFFFFFFFFFFFFFFFFFFFFFFFF AND DUP2 MSTORE PUSH1 0x20 ADD SWAP1 DUP2 MSTORE PUSH1 0x20 ADD PUSH1 0x0 KECCAK256 PUSH1 0x0 DUP5 PUSH20 0xFFFFFFFFFFFFFFFFFFFFFFFFFFFFFFFFFFFFFFFF AND PUSH20 0xFFFFFFFFFFFFFFFFFFFFFFFFFFFFFFFFFFFFFFFF AND DUP2 MSTORE PUSH1 0x20 ADD SWAP1 DUP2 MSTORE PUSH1 0x20 ADD PUSH1 0x0 KECCAK256 PUSH1 0x0 PUSH2 0x100 EXP DUP2 SLOAD DUP2 PUSH1 0xFF MUL NOT AND SWAP1 DUP4 ISZERO ISZERO MUL OR SWAP1 SSTORE POP DUP2 PUSH20 0xFFFFFFFFFFFFFFFFFFFFFFFFFFFFFFFFFFFFFFFF AND DUP4 PUSH20 0xFFFFFFFFFFFFFFFFFFFFFFFFFFFFFFFFFFFFFFFF AND PUSH32 0x17307EAB39AB6107E8899845AD3D59BD9653F200F220920489CA2B5937696C31 DUP4 PUSH1 0x40 MLOAD PUSH2 0x391E SWAP2 SWAP1 PUSH2 0x3E5A JUMP JUMPDEST PUSH1 0x40 MLOAD DUP1 SWAP2 SUB SWAP1 LOG3 POP POP POP JUMP JUMPDEST PUSH2 0x3936 DUP5 DUP5 DUP5 PUSH2 0x32E3 JUMP JUMPDEST PUSH2 0x3942 DUP5 DUP5 DUP5 DUP5 PUSH2 0x3C0C JUMP JUMPDEST PUSH2 0x3981 JUMPI PUSH1 0x40 MLOAD PUSH32 0x8C379A000000000000000000000000000000000000000000000000000000000 DUP2 MSTORE PUSH1 0x4 ADD PUSH2 0x3978 SWAP1 PUSH2 0x5BD4 JUMP JUMPDEST PUSH1 0x40 MLOAD DUP1 SWAP2 SUB SWAP1 REVERT JUMPDEST POP POP POP POP JUMP JUMPDEST PUSH1 0x0 DUP1 DUP3 SWAP1 POP PUSH1 0x0 JUMPDEST DUP5 MLOAD DUP2 LT ISZERO PUSH2 0x3A2F JUMPI PUSH1 0x0 DUP6 DUP3 DUP2 MLOAD DUP2 LT PUSH2 0x39AE JUMPI PUSH2 0x39AD PUSH2 0x5336 JUMP JUMPDEST JUMPDEST PUSH1 0x20 MUL PUSH1 0x20 ADD ADD MLOAD SWAP1 POP DUP1 DUP4 GT PUSH2 0x39EF JUMPI DUP3 DUP2 PUSH1 0x40 MLOAD PUSH1 0x20 ADD PUSH2 0x39D2 SWAP3 SWAP2 SWAP1 PUSH2 0x5CFA JUMP JUMPDEST PUSH1 0x40 MLOAD PUSH1 0x20 DUP2 DUP4 SUB SUB DUP2 MSTORE SWAP1 PUSH1 0x40 MSTORE DUP1 MLOAD SWAP1 PUSH1 0x20 ADD KECCAK256 SWAP3 POP PUSH2 0x3A1B JUMP JUMPDEST DUP1 DUP4 PUSH1 0x40 MLOAD PUSH1 0x20 ADD PUSH2 0x3A02 SWAP3 SWAP2 SWAP1 PUSH2 0x5CFA JUMP JUMPDEST PUSH1 0x40 MLOAD PUSH1 0x20 DUP2 DUP4 SUB SUB DUP2 MSTORE SWAP1 PUSH1 0x40 MSTORE DUP1 MLOAD SWAP1 PUSH1 0x20 ADD KECCAK256 SWAP3 POP JUMPDEST POP DUP1 DUP1 PUSH2 0x3A27 SWAP1 PUSH2 0x5BF4 JUMP JUMPDEST SWAP2 POP POP PUSH2 0x3990 JUMP JUMPDEST POP DUP1 SWAP2 POP POP SWAP3 SWAP2 POP POP JUMP JUMPDEST POP POP POP JUMP JUMPDEST PUSH1 0x0 PUSH20 0xFFFFFFFFFFFFFFFFFFFFFFFFFFFFFFFFFFFFFFFF AND DUP3 PUSH20 0xFFFFFFFFFFFFFFFFFFFFFFFFFFFFFFFFFFFFFFFF AND SUB PUSH2 0x3AAE JUMPI PUSH1 0x40 MLOAD PUSH32 0x8C379A000000000000000000000000000000000000000000000000000000000 DUP2 MSTORE PUSH1 0x4 ADD PUSH2 0x3AA5 SWAP1 PUSH2 0x5D72 JUMP JUMPDEST PUSH1 0x40 MLOAD DUP1 SWAP2 SUB SWAP1 REVERT JUMPDEST PUSH2 0x3AB7 DUP2 PUSH2 0x2E9C JUMP JUMPDEST ISZERO PUSH2 0x3AF7 JUMPI PUSH1 0x40 MLOAD PUSH32 0x8C379A000000000000000000000000000000000000000000000000000000000 DUP2 MSTORE PUSH1 0x4 ADD PUSH2 0x3AEE SWAP1 PUSH2 0x5DDE JUMP JUMPDEST PUSH1 0x40 MLOAD DUP1 SWAP2 SUB SWAP1 REVERT JUMPDEST PUSH2 0x3B03 PUSH1 0x0 DUP4 DUP4 PUSH2 0x3A3A JUMP JUMPDEST PUSH1 0x1 PUSH1 0x3 PUSH1 0x0 DUP5 PUSH20 0xFFFFFFFFFFFFFFFFFFFFFFFFFFFFFFFFFFFFFFFF AND PUSH20 0xFFFFFFFFFFFFFFFFFFFFFFFFFFFFFFFFFFFFFFFF AND DUP2 MSTORE PUSH1 0x20 ADD SWAP1 DUP2 MSTORE PUSH1 0x20 ADD PUSH1 0x0 KECCAK256 PUSH1 0x0 DUP3 DUP3 SLOAD PUSH2 0x3B53 SWAP2 SWAP1 PUSH2 0x4A37 JUMP JUMPDEST SWAP3 POP POP DUP2 SWAP1 SSTORE POP DUP2 PUSH1 0x2 PUSH1 0x0 DUP4 DUP2 MSTORE PUSH1 0x20 ADD SWAP1 DUP2 MSTORE PUSH1 0x20 ADD PUSH1 0x0 KECCAK256 PUSH1 0x0 PUSH2 0x100 EXP DUP2 SLOAD DUP2 PUSH20 0xFFFFFFFFFFFFFFFFFFFFFFFFFFFFFFFFFFFFFFFF MUL NOT AND SWAP1 DUP4 PUSH20 0xFFFFFFFFFFFFFFFFFFFFFFFFFFFFFFFFFFFFFFFF AND MUL OR SWAP1 SSTORE POP DUP1 DUP3 PUSH20 0xFFFFFFFFFFFFFFFFFFFFFFFFFFFFFFFFFFFFFFFF AND PUSH1 0x0 PUSH20 0xFFFFFFFFFFFFFFFFFFFFFFFFFFFFFFFFFFFFFFFF AND PUSH32 0xDDF252AD1BE2C89B69C2B068FC378DAA952BA7F163C4A11628F55A4DF523B3EF PUSH1 0x40 MLOAD PUSH1 0x40 MLOAD DUP1 SWAP2 SUB SWAP1 LOG4 POP POP JUMP JUMPDEST PUSH1 0x0 PUSH2 0x3C2D DUP5 PUSH20 0xFFFFFFFFFFFFFFFFFFFFFFFFFFFFFFFFFFFFFFFF AND PUSH2 0x3D93 JUMP JUMPDEST ISZERO PUSH2 0x3D86 JUMPI DUP4 PUSH20 0xFFFFFFFFFFFFFFFFFFFFFFFFFFFFFFFFFFFFFFFF AND PUSH4 0x150B7A02 PUSH2 0x3C56 PUSH2 0x2F08 JUMP JUMPDEST DUP8 DUP7 DUP7 PUSH1 0x40 MLOAD DUP6 PUSH4 0xFFFFFFFF AND PUSH1 0xE0 SHL DUP2 MSTORE PUSH1 0x4 ADD PUSH2 0x3C78 SWAP5 SWAP4 SWAP3 SWAP2 SWAP1 PUSH2 0x5E53 JUMP JUMPDEST PUSH1 0x20 PUSH1 0x40 MLOAD DUP1 DUP4 SUB DUP2 PUSH1 0x0 DUP8 GAS CALL SWAP3 POP POP POP DUP1 ISZERO PUSH2 0x3CB4 JUMPI POP PUSH1 0x40 MLOAD RETURNDATASIZE PUSH1 0x1F NOT PUSH1 0x1F DUP3 ADD AND DUP3 ADD DUP1 PUSH1 0x40 MSTORE POP DUP2 ADD SWAP1 PUSH2 0x3CB1 SWAP2 SWAP1 PUSH2 0x5EB4 JUMP JUMPDEST PUSH1 0x1 JUMPDEST PUSH2 0x3D36 JUMPI RETURNDATASIZE DUP1 PUSH1 0x0 DUP2 EQ PUSH2 0x3CE4 JUMPI PUSH1 0x40 MLOAD SWAP2 POP PUSH1 0x1F NOT PUSH1 0x3F RETURNDATASIZE ADD AND DUP3 ADD PUSH1 0x40 MSTORE RETURNDATASIZE DUP3 MSTORE RETURNDATASIZE PUSH1 0x0 PUSH1 0x20 DUP5 ADD RETURNDATACOPY PUSH2 0x3CE9 JUMP JUMPDEST PUSH1 0x60 SWAP2 POP JUMPDEST POP PUSH1 0x0 DUP2 MLOAD SUB PUSH2 0x3D2E JUMPI PUSH1 0x40 MLOAD PUSH32 0x8C379A000000000000000000000000000000000000000000000000000000000 DUP2 MSTORE PUSH1 0x4 ADD PUSH2 0x3D25 SWAP1 PUSH2 0x5BD4 JUMP JUMPDEST PUSH1 0x40 MLOAD DUP1 SWAP2 SUB SWAP1 REVERT JUMPDEST DUP1 MLOAD DUP2 PUSH1 0x20 ADD REVERT JUMPDEST PUSH4 0x150B7A02 PUSH1 0xE0 SHL PUSH28 0xFFFFFFFFFFFFFFFFFFFFFFFFFFFFFFFFFFFFFFFFFFFFFFFFFFFFFFFF NOT AND DUP2 PUSH28 0xFFFFFFFFFFFFFFFFFFFFFFFFFFFFFFFFFFFFFFFFFFFFFFFFFFFFFFFF NOT AND EQ SWAP2 POP POP PUSH2 0x3D8B JUMP JUMPDEST PUSH1 0x1 SWAP1 POP JUMPDEST SWAP5 SWAP4 POP POP POP POP JUMP JUMPDEST PUSH1 0x0 DUP1 DUP3 EXTCODESIZE SWAP1 POP PUSH1 0x0 DUP2 GT SWAP2 POP POP SWAP2 SWAP1 POP JUMP JUMPDEST PUSH1 0x0 PUSH1 0x40 MLOAD SWAP1 POP SWAP1 JUMP JUMPDEST PUSH1 0x0 DUP1 REVERT JUMPDEST PUSH1 0x0 DUP1 REVERT JUMPDEST PUSH1 0x0 PUSH32 0xFFFFFFFF00000000000000000000000000000000000000000000000000000000 DUP3 AND SWAP1 POP SWAP2 SWAP1 POP JUMP JUMPDEST PUSH2 0x3DEF DUP2 PUSH2 0x3DBA JUMP JUMPDEST DUP2 EQ PUSH2 0x3DFA JUMPI PUSH1 0x0 DUP1 REVERT JUMPDEST POP JUMP JUMPDEST PUSH1 0x0 DUP2 CALLDATALOAD SWAP1 POP PUSH2 0x3E0C DUP2 PUSH2 0x3DE6 JUMP JUMPDEST SWAP3 SWAP2 POP POP JUMP JUMPDEST PUSH1 0x0 PUSH1 0x20 DUP3 DUP5 SUB SLT ISZERO PUSH2 0x3E28 JUMPI PUSH2 0x3E27 PUSH2 0x3DB0 JUMP JUMPDEST JUMPDEST PUSH1 0x0 PUSH2 0x3E36 DUP5 DUP3 DUP6 ADD PUSH2 0x3DFD JUMP JUMPDEST SWAP2 POP POP SWAP3 SWAP2 POP POP JUMP JUMPDEST PUSH1 0x0 DUP2 ISZERO ISZERO SWAP1 POP SWAP2 SWAP1 POP JUMP JUMPDEST PUSH2 0x3E54 DUP2 PUSH2 0x3E3F JUMP JUMPDEST DUP3 MSTORE POP POP JUMP JUMPDEST PUSH1 0x0 PUSH1 0x20 DUP3 ADD SWAP1 POP PUSH2 0x3E6F PUSH1 0x0 DUP4 ADD DUP5 PUSH2 0x3E4B JUMP JUMPDEST SWAP3 SWAP2 POP POP JUMP JUMPDEST PUSH1 0x0 PUSH4 0xFFFFFFFF DUP3 AND SWAP1 POP SWAP2 SWAP1 POP JUMP JUMPDEST PUSH2 0x3E8E DUP2 PUSH2 0x3E75 JUMP JUMPDEST DUP2 EQ PUSH2 0x3E99 JUMPI PUSH1 0x0 DUP1 REVERT JUMPDEST POP JUMP JUMPDEST PUSH1 0x0 DUP2 CALLDATALOAD SWAP1 POP PUSH2 0x3EAB DUP2 PUSH2 0x3E85 JUMP JUMPDEST SWAP3 SWAP2 POP POP JUMP JUMPDEST PUSH1 0x0 DUP1 REVERT JUMPDEST PUSH1 0x0 DUP1 REVERT JUMPDEST PUSH1 0x0 DUP1 REVERT JUMPDEST PUSH1 0x0 DUP1 DUP4 PUSH1 0x1F DUP5 ADD SLT PUSH2 0x3ED6 JUMPI PUSH2 0x3ED5 PUSH2 0x3EB1 JUMP JUMPDEST JUMPDEST DUP3 CALLDATALOAD SWAP1 POP PUSH8 0xFFFFFFFFFFFFFFFF DUP2 GT ISZERO PUSH2 0x3EF3 JUMPI PUSH2 0x3EF2 PUSH2 0x3EB6 JUMP JUMPDEST JUMPDEST PUSH1 0x20 DUP4 ADD SWAP2 POP DUP4 PUSH1 0x20 DUP3 MUL DUP4 ADD GT ISZERO PUSH2 0x3F0F JUMPI PUSH2 0x3F0E PUSH2 0x3EBB JUMP JUMPDEST JUMPDEST SWAP3 POP SWAP3 SWAP1 POP JUMP JUMPDEST PUSH1 0x0 DUP1 PUSH1 0x0 PUSH1 0x40 DUP5 DUP7 SUB SLT ISZERO PUSH2 0x3F2F JUMPI PUSH2 0x3F2E PUSH2 0x3DB0 JUMP JUMPDEST JUMPDEST PUSH1 0x0 PUSH2 0x3F3D DUP7 DUP3 DUP8 ADD PUSH2 0x3E9C JUMP JUMPDEST SWAP4 POP POP PUSH1 0x20 DUP5 ADD CALLDATALOAD PUSH8 0xFFFFFFFFFFFFFFFF DUP2 GT ISZERO PUSH2 0x3F5E JUMPI PUSH2 0x3F5D PUSH2 0x3DB5 JUMP JUMPDEST JUMPDEST PUSH2 0x3F6A DUP7 DUP3 DUP8 ADD PUSH2 0x3EC0 JUMP JUMPDEST SWAP3 POP SWAP3 POP POP SWAP3 POP SWAP3 POP SWAP3 JUMP JUMPDEST PUSH2 0x3F7F DUP2 PUSH2 0x3E75 JUMP JUMPDEST DUP3 MSTORE POP POP JUMP JUMPDEST PUSH1 0x0 PUSH1 0x20 DUP3 ADD SWAP1 POP PUSH2 0x3F9A PUSH1 0x0 DUP4 ADD DUP5 PUSH2 0x3F76 JUMP JUMPDEST SWAP3 SWAP2 POP POP JUMP JUMPDEST PUSH1 0x0 DUP2 MLOAD SWAP1 POP SWAP2 SWAP1 POP JUMP JUMPDEST PUSH1 0x0 DUP3 DUP3 MSTORE PUSH1 0x20 DUP3 ADD SWAP1 POP SWAP3 SWAP2 POP POP JUMP JUMPDEST PUSH1 0x0 JUMPDEST DUP4 DUP2 LT ISZERO PUSH2 0x3FDA JUMPI DUP1 DUP3 ADD MLOAD DUP2 DUP5 ADD MSTORE PUSH1 0x20 DUP2 ADD SWAP1 POP PUSH2 0x3FBF JUMP JUMPDEST PUSH1 0x0 DUP5 DUP5 ADD MSTORE POP POP POP POP JUMP JUMPDEST PUSH1 0x0 PUSH1 0x1F NOT PUSH1 0x1F DUP4 ADD AND SWAP1 POP SWAP2 SWAP1 POP JUMP JUMPDEST PUSH1 0x0 PUSH2 0x4002 DUP3 PUSH2 0x3FA0 JUMP JUMPDEST PUSH2 0x400C DUP2 DUP6 PUSH2 0x3FAB JUMP JUMPDEST SWAP4 POP PUSH2 0x401C DUP2 DUP6 PUSH1 0x20 DUP7 ADD PUSH2 0x3FBC JUMP JUMPDEST PUSH2 0x4025 DUP2 PUSH2 0x3FE6 JUMP JUMPDEST DUP5 ADD SWAP2 POP POP SWAP3 SWAP2 POP POP JUMP JUMPDEST PUSH1 0x0 PUSH1 0x20 DUP3 ADD SWAP1 POP DUP2 DUP2 SUB PUSH1 0x0 DUP4 ADD MSTORE PUSH2 0x404A DUP2 DUP5 PUSH2 0x3FF7 JUMP JUMPDEST SWAP1 POP SWAP3 SWAP2 POP POP JUMP JUMPDEST PUSH1 0x0 DUP2 SWAP1 POP SWAP2 SWAP1 POP JUMP JUMPDEST PUSH2 0x4065 DUP2 PUSH2 0x4052 JUMP JUMPDEST DUP2 EQ PUSH2 0x4070 JUMPI PUSH1 0x0 DUP1 REVERT JUMPDEST POP JUMP JUMPDEST PUSH1 0x0 DUP2 CALLDATALOAD SWAP1 POP PUSH2 0x4082 DUP2 PUSH2 0x405C JUMP JUMPDEST SWAP3 SWAP2 POP POP JUMP JUMPDEST PUSH1 0x0 PUSH1 0x20 DUP3 DUP5 SUB SLT ISZERO PUSH2 0x409E JUMPI PUSH2 0x409D PUSH2 0x3DB0 JUMP JUMPDEST JUMPDEST PUSH1 0x0 PUSH2 0x40AC DUP5 DUP3 DUP6 ADD PUSH2 0x4073 JUMP JUMPDEST SWAP2 POP POP SWAP3 SWAP2 POP POP JUMP JUMPDEST PUSH1 0x0 PUSH20 0xFFFFFFFFFFFFFFFFFFFFFFFFFFFFFFFFFFFFFFFF DUP3 AND SWAP1 POP SWAP2 SWAP1 POP JUMP JUMPDEST PUSH1 0x0 PUSH2 0x40E0 DUP3 PUSH2 0x40B5 JUMP JUMPDEST SWAP1 POP SWAP2 SWAP1 POP JUMP JUMPDEST PUSH2 0x40F0 DUP2 PUSH2 0x40D5 JUMP JUMPDEST DUP3 MSTORE POP POP JUMP JUMPDEST PUSH1 0x0 PUSH1 0x20 DUP3 ADD SWAP1 POP PUSH2 0x410B PUSH1 0x0 DUP4 ADD DUP5 PUSH2 0x40E7 JUMP JUMPDEST SWAP3 SWAP2 POP POP JUMP JUMPDEST PUSH1 0x0 PUSH1 0x20 DUP3 DUP5 SUB SLT ISZERO PUSH2 0x4127 JUMPI PUSH2 0x4126 PUSH2 0x3DB0 JUMP JUMPDEST JUMPDEST PUSH1 0x0 PUSH2 0x4135 DUP5 DUP3 DUP6 ADD PUSH2 0x3E9C JUMP JUMPDEST SWAP2 POP POP SWAP3 SWAP2 POP POP JUMP JUMPDEST PUSH2 0x4147 DUP2 PUSH2 0x40D5 JUMP JUMPDEST DUP2 EQ PUSH2 0x4152 JUMPI PUSH1 0x0 DUP1 REVERT JUMPDEST POP JUMP JUMPDEST PUSH1 0x0 DUP2 CALLDATALOAD SWAP1 POP PUSH2 0x4164 DUP2 PUSH2 0x413E JUMP JUMPDEST SWAP3 SWAP2 POP POP JUMP JUMPDEST PUSH1 0x0 DUP1 PUSH1 0x40 DUP4 DUP6 SUB SLT ISZERO PUSH2 0x4181 JUMPI PUSH2 0x4180 PUSH2 0x3DB0 JUMP JUMPDEST JUMPDEST PUSH1 0x0 PUSH2 0x418F DUP6 DUP3 DUP7 ADD PUSH2 0x4155 JUMP JUMPDEST SWAP3 POP POP PUSH1 0x20 PUSH2 0x41A0 DUP6 DUP3 DUP7 ADD PUSH2 0x4073 JUMP JUMPDEST SWAP2 POP POP SWAP3 POP SWAP3 SWAP1 POP JUMP JUMPDEST PUSH1 0x0 DUP1 PUSH1 0x40 DUP4 DUP6 SUB SLT ISZERO PUSH2 0x41C1 JUMPI PUSH2 0x41C0 PUSH2 0x3DB0 JUMP JUMPDEST JUMPDEST PUSH1 0x0 PUSH2 0x41CF DUP6 DUP3 DUP7 ADD PUSH2 0x4155 JUMP JUMPDEST SWAP3 POP POP PUSH1 0x20 PUSH2 0x41E0 DUP6 DUP3 DUP7 ADD PUSH2 0x3E9C JUMP JUMPDEST SWAP2 POP POP SWAP3 POP SWAP3 SWAP1 POP JUMP JUMPDEST PUSH2 0x41F3 DUP2 PUSH2 0x4052 JUMP JUMPDEST DUP3 MSTORE POP POP JUMP JUMPDEST PUSH1 0x0 PUSH1 0x20 DUP3 ADD SWAP1 POP PUSH2 0x420E PUSH1 0x0 DUP4 ADD DUP5 PUSH2 0x41EA JUMP JUMPDEST SWAP3 SWAP2 POP POP JUMP JUMPDEST PUSH1 0x0 DUP1 PUSH1 0x0 PUSH1 0x60 DUP5 DUP7 SUB SLT ISZERO PUSH2 0x422D JUMPI PUSH2 0x422C PUSH2 0x3DB0 JUMP JUMPDEST JUMPDEST PUSH1 0x0 PUSH2 0x423B DUP7 DUP3 DUP8 ADD PUSH2 0x4155 JUMP JUMPDEST SWAP4 POP POP PUSH1 0x20 PUSH2 0x424C DUP7 DUP3 DUP8 ADD PUSH2 0x4155 JUMP JUMPDEST SWAP3 POP POP PUSH1 0x40 PUSH2 0x425D DUP7 DUP3 DUP8 ADD PUSH2 0x4073 JUMP JUMPDEST SWAP2 POP POP SWAP3 POP SWAP3 POP SWAP3 JUMP JUMPDEST PUSH2 0x4270 DUP2 PUSH2 0x3E3F JUMP JUMPDEST DUP2 EQ PUSH2 0x427B JUMPI PUSH1 0x0 DUP1 REVERT JUMPDEST POP JUMP JUMPDEST PUSH1 0x0 DUP2 CALLDATALOAD SWAP1 POP PUSH2 0x428D DUP2 PUSH2 0x4267 JUMP JUMPDEST SWAP3 SWAP2 POP POP JUMP JUMPDEST PUSH1 0x0 PUSH1 0x20 DUP3 DUP5 SUB SLT ISZERO PUSH2 0x42A9 JUMPI PUSH2 0x42A8 PUSH2 0x3DB0 JUMP JUMPDEST JUMPDEST PUSH1 0x0 PUSH2 0x42B7 DUP5 DUP3 DUP6 ADD PUSH2 0x427E JUMP JUMPDEST SWAP2 POP POP SWAP3 SWAP2 POP POP JUMP JUMPDEST PUSH1 0x0 PUSH1 0x20 DUP3 DUP5 SUB SLT ISZERO PUSH2 0x42D6 JUMPI PUSH2 0x42D5 PUSH2 0x3DB0 JUMP JUMPDEST JUMPDEST PUSH1 0x0 PUSH2 0x42E4 DUP5 DUP3 DUP6 ADD PUSH2 0x4155 JUMP JUMPDEST SWAP2 POP POP SWAP3 SWAP2 POP POP JUMP JUMPDEST PUSH1 0x0 DUP1 DUP4 PUSH1 0x1F DUP5 ADD SLT PUSH2 0x4303 JUMPI PUSH2 0x4302 PUSH2 0x3EB1 JUMP JUMPDEST JUMPDEST DUP3 CALLDATALOAD SWAP1 POP PUSH8 0xFFFFFFFFFFFFFFFF DUP2 GT ISZERO PUSH2 0x4320 JUMPI PUSH2 0x431F PUSH2 0x3EB6 JUMP JUMPDEST JUMPDEST PUSH1 0x20 DUP4 ADD SWAP2 POP DUP4 PUSH1 0x20 DUP3 MUL DUP4 ADD GT ISZERO PUSH2 0x433C JUMPI PUSH2 0x433B PUSH2 0x3EBB JUMP JUMPDEST JUMPDEST SWAP3 POP SWAP3 SWAP1 POP JUMP JUMPDEST PUSH1 0x0 DUP1 PUSH1 0x20 DUP4 DUP6 SUB SLT ISZERO PUSH2 0x435A JUMPI PUSH2 0x4359 PUSH2 0x3DB0 JUMP JUMPDEST JUMPDEST PUSH1 0x0 DUP4 ADD CALLDATALOAD PUSH8 0xFFFFFFFFFFFFFFFF DUP2 GT ISZERO PUSH2 0x4378 JUMPI PUSH2 0x4377 PUSH2 0x3DB5 JUMP JUMPDEST JUMPDEST PUSH2 0x4384 DUP6 DUP3 DUP7 ADD PUSH2 0x42ED JUMP JUMPDEST SWAP3 POP SWAP3 POP POP SWAP3 POP SWAP3 SWAP1 POP JUMP JUMPDEST PUSH1 0x0 DUP2 SWAP1 POP SWAP2 SWAP1 POP JUMP JUMPDEST PUSH2 0x43A3 DUP2 PUSH2 0x4390 JUMP JUMPDEST DUP2 EQ PUSH2 0x43AE JUMPI PUSH1 0x0 DUP1 REVERT JUMPDEST POP JUMP JUMPDEST PUSH1 0x0 DUP2 CALLDATALOAD SWAP1 POP PUSH2 0x43C0 DUP2 PUSH2 0x439A JUMP JUMPDEST SWAP3 SWAP2 POP POP JUMP JUMPDEST PUSH1 0x0 PUSH1 0x20 DUP3 DUP5 SUB SLT ISZERO PUSH2 0x43DC JUMPI PUSH2 0x43DB PUSH2 0x3DB0 JUMP JUMPDEST JUMPDEST PUSH1 0x0 PUSH2 0x43EA DUP5 DUP3 DUP6 ADD PUSH2 0x43B1 JUMP JUMPDEST SWAP2 POP POP SWAP3 SWAP2 POP POP JUMP JUMPDEST PUSH1 0x0 DUP1 PUSH1 0x0 PUSH1 0x60 DUP5 DUP7 SUB SLT ISZERO PUSH2 0x440C JUMPI PUSH2 0x440B PUSH2 0x3DB0 JUMP JUMPDEST JUMPDEST PUSH1 0x0 PUSH2 0x441A DUP7 DUP3 DUP8 ADD PUSH2 0x4155 JUMP JUMPDEST SWAP4 POP POP PUSH1 0x20 PUSH2 0x442B DUP7 DUP3 DUP8 ADD PUSH2 0x4155 JUMP JUMPDEST SWAP3 POP POP PUSH1 0x40 PUSH2 0x443C DUP7 DUP3 DUP8 ADD PUSH2 0x3E9C JUMP JUMPDEST SWAP2 POP POP SWAP3 POP SWAP3 POP SWAP3 JUMP JUMPDEST PUSH1 0x0 DUP1 REVERT JUMPDEST PUSH32 0x4E487B7100000000000000000000000000000000000000000000000000000000 PUSH1 0x0 MSTORE PUSH1 0x41 PUSH1 0x4 MSTORE PUSH1 0x24 PUSH1 0x0 REVERT JUMPDEST PUSH2 0x4483 DUP3 PUSH2 0x3FE6 JUMP JUMPDEST DUP2 ADD DUP2 DUP2 LT PUSH8 0xFFFFFFFFFFFFFFFF DUP3 GT OR ISZERO PUSH2 0x44A2 JUMPI PUSH2 0x44A1 PUSH2 0x444B JUMP JUMPDEST JUMPDEST DUP1 PUSH1 0x40 MSTORE POP POP POP JUMP JUMPDEST PUSH1 0x0 PUSH2 0x44B5 PUSH2 0x3DA6 JUMP JUMPDEST SWAP1 POP PUSH2 0x44C1 DUP3 DUP3 PUSH2 0x447A JUMP JUMPDEST SWAP2 SWAP1 POP JUMP JUMPDEST PUSH1 0x0 PUSH8 0xFFFFFFFFFFFFFFFF DUP3 GT ISZERO PUSH2 0x44E1 JUMPI PUSH2 0x44E0 PUSH2 0x444B JUMP JUMPDEST JUMPDEST PUSH2 0x44EA DUP3 PUSH2 0x3FE6 JUMP JUMPDEST SWAP1 POP PUSH1 0x20 DUP2 ADD SWAP1 POP SWAP2 SWAP1 POP JUMP JUMPDEST DUP3 DUP2 DUP4 CALLDATACOPY PUSH1 0x0 DUP4 DUP4 ADD MSTORE POP POP POP JUMP JUMPDEST PUSH1 0x0 PUSH2 0x4519 PUSH2 0x4514 DUP5 PUSH2 0x44C6 JUMP JUMPDEST PUSH2 0x44AB JUMP JUMPDEST SWAP1 POP DUP3 DUP2 MSTORE PUSH1 0x20 DUP2 ADD DUP5 DUP5 DUP5 ADD GT ISZERO PUSH2 0x4535 JUMPI PUSH2 0x4534 PUSH2 0x4446 JUMP JUMPDEST JUMPDEST PUSH2 0x4540 DUP5 DUP3 DUP6 PUSH2 0x44F7 JUMP JUMPDEST POP SWAP4 SWAP3 POP POP POP JUMP JUMPDEST PUSH1 0x0 DUP3 PUSH1 0x1F DUP4 ADD SLT PUSH2 0x455D JUMPI PUSH2 0x455C PUSH2 0x3EB1 JUMP JUMPDEST JUMPDEST DUP2 CALLDATALOAD PUSH2 0x456D DUP5 DUP3 PUSH1 0x20 DUP7 ADD PUSH2 0x4506 JUMP JUMPDEST SWAP2 POP POP SWAP3 SWAP2 POP POP JUMP JUMPDEST PUSH1 0x0 PUSH1 0x20 DUP3 DUP5 SUB SLT ISZERO PUSH2 0x458C JUMPI PUSH2 0x458B PUSH2 0x3DB0 JUMP JUMPDEST JUMPDEST PUSH1 0x0 DUP3 ADD CALLDATALOAD PUSH8 0xFFFFFFFFFFFFFFFF DUP2 GT ISZERO PUSH2 0x45AA JUMPI PUSH2 0x45A9 PUSH2 0x3DB5 JUMP JUMPDEST JUMPDEST PUSH2 0x45B6 DUP5 DUP3 DUP6 ADD PUSH2 0x4548 JUMP JUMPDEST SWAP2 POP POP SWAP3 SWAP2 POP POP JUMP JUMPDEST PUSH1 0x0 DUP1 PUSH1 0x40 DUP4 DUP6 SUB SLT ISZERO PUSH2 0x45D6 JUMPI PUSH2 0x45D5 PUSH2 0x3DB0 JUMP JUMPDEST JUMPDEST PUSH1 0x0 PUSH2 0x45E4 DUP6 DUP3 DUP7 ADD PUSH2 0x4155 JUMP JUMPDEST SWAP3 POP POP PUSH1 0x20 PUSH2 0x45F5 DUP6 DUP3 DUP7 ADD PUSH2 0x427E JUMP JUMPDEST SWAP2 POP POP SWAP3 POP SWAP3 SWAP1 POP JUMP JUMPDEST PUSH1 0x0 PUSH8 0xFFFFFFFFFFFFFFFF DUP3 GT ISZERO PUSH2 0x461A JUMPI PUSH2 0x4619 PUSH2 0x444B JUMP JUMPDEST JUMPDEST PUSH2 0x4623 DUP3 PUSH2 0x3FE6 JUMP JUMPDEST SWAP1 POP PUSH1 0x20 DUP2 ADD SWAP1 POP SWAP2 SWAP1 POP JUMP JUMPDEST PUSH1 0x0 PUSH2 0x4643 PUSH2 0x463E DUP5 PUSH2 0x45FF JUMP JUMPDEST PUSH2 0x44AB JUMP JUMPDEST SWAP1 POP DUP3 DUP2 MSTORE PUSH1 0x20 DUP2 ADD DUP5 DUP5 DUP5 ADD GT ISZERO PUSH2 0x465F JUMPI PUSH2 0x465E PUSH2 0x4446 JUMP JUMPDEST JUMPDEST PUSH2 0x466A DUP5 DUP3 DUP6 PUSH2 0x44F7 JUMP JUMPDEST POP SWAP4 SWAP3 POP POP POP JUMP JUMPDEST PUSH1 0x0 DUP3 PUSH1 0x1F DUP4 ADD SLT PUSH2 0x4687 JUMPI PUSH2 0x4686 PUSH2 0x3EB1 JUMP JUMPDEST JUMPDEST DUP2 CALLDATALOAD PUSH2 0x4697 DUP5 DUP3 PUSH1 0x20 DUP7 ADD PUSH2 0x4630 JUMP JUMPDEST SWAP2 POP POP SWAP3 SWAP2 POP POP JUMP JUMPDEST PUSH1 0x0 DUP1 PUSH1 0x0 DUP1 PUSH1 0x80 DUP6 DUP8 SUB SLT ISZERO PUSH2 0x46BA JUMPI PUSH2 0x46B9 PUSH2 0x3DB0 JUMP JUMPDEST JUMPDEST PUSH1 0x0 PUSH2 0x46C8 DUP8 DUP3 DUP9 ADD PUSH2 0x4155 JUMP JUMPDEST SWAP5 POP POP PUSH1 0x20 PUSH2 0x46D9 DUP8 DUP3 DUP9 ADD PUSH2 0x4155 JUMP JUMPDEST SWAP4 POP POP PUSH1 0x40 PUSH2 0x46EA DUP8 DUP3 DUP9 ADD PUSH2 0x4073 JUMP JUMPDEST SWAP3 POP POP PUSH1 0x60 DUP6 ADD CALLDATALOAD PUSH8 0xFFFFFFFFFFFFFFFF DUP2 GT ISZERO PUSH2 0x470B JUMPI PUSH2 0x470A PUSH2 0x3DB5 JUMP JUMPDEST JUMPDEST PUSH2 0x4717 DUP8 DUP3 DUP9 ADD PUSH2 0x4672 JUMP JUMPDEST SWAP2 POP POP SWAP3 SWAP6 SWAP2 SWAP5 POP SWAP3 POP JUMP JUMPDEST PUSH1 0x0 DUP1 PUSH1 0x0 DUP1 PUSH1 0x0 PUSH1 0xA0 DUP7 DUP9 SUB SLT ISZERO PUSH2 0x473F JUMPI PUSH2 0x473E PUSH2 0x3DB0 JUMP JUMPDEST JUMPDEST PUSH1 0x0 PUSH2 0x474D DUP9 DUP3 DUP10 ADD PUSH2 0x4073 JUMP JUMPDEST SWAP6 POP POP PUSH1 0x20 PUSH2 0x475E DUP9 DUP3 DUP10 ADD PUSH2 0x3E9C JUMP JUMPDEST SWAP5 POP POP PUSH1 0x40 PUSH2 0x476F DUP9 DUP3 DUP10 ADD PUSH2 0x3E9C JUMP JUMPDEST SWAP4 POP POP PUSH1 0x60 PUSH2 0x4780 DUP9 DUP3 DUP10 ADD PUSH2 0x3E9C JUMP JUMPDEST SWAP3 POP POP PUSH1 0x80 PUSH2 0x4791 DUP9 DUP3 DUP10 ADD PUSH2 0x427E JUMP JUMPDEST SWAP2 POP POP SWAP3 SWAP6 POP SWAP3 SWAP6 SWAP1 SWAP4 POP JUMP JUMPDEST PUSH1 0x0 DUP1 PUSH1 0x40 DUP4 DUP6 SUB SLT ISZERO PUSH2 0x47B5 JUMPI PUSH2 0x47B4 PUSH2 0x3DB0 JUMP JUMPDEST JUMPDEST PUSH1 0x0 PUSH2 0x47C3 DUP6 DUP3 DUP7 ADD PUSH2 0x4155 JUMP JUMPDEST SWAP3 POP POP PUSH1 0x20 PUSH2 0x47D4 DUP6 DUP3 DUP7 ADD PUSH2 0x4155 JUMP JUMPDEST SWAP2 POP POP SWAP3 POP SWAP3 SWAP1 POP JUMP JUMPDEST PUSH32 0x4D696E74206174206C65617374206F6E652E0000000000000000000000000000 PUSH1 0x0 DUP3 ADD MSTORE POP JUMP JUMPDEST PUSH1 0x0 PUSH2 0x4814 PUSH1 0x12 DUP4 PUSH2 0x3FAB JUMP JUMPDEST SWAP2 POP PUSH2 0x481F DUP3 PUSH2 0x47DE JUMP JUMPDEST PUSH1 0x20 DUP3 ADD SWAP1 POP SWAP2 SWAP1 POP JUMP JUMPDEST PUSH1 0x0 PUSH1 0x20 DUP3 ADD SWAP1 POP DUP2 DUP2 SUB PUSH1 0x0 DUP4 ADD MSTORE PUSH2 0x4843 DUP2 PUSH2 0x4807 JUMP JUMPDEST SWAP1 POP SWAP2 SWAP1 POP JUMP JUMPDEST PUSH32 0x4E487B7100000000000000000000000000000000000000000000000000000000 PUSH1 0x0 MSTORE PUSH1 0x11 PUSH1 0x4 MSTORE PUSH1 0x24 PUSH1 0x0 REVERT JUMPDEST PUSH1 0x0 PUSH2 0x4884 DUP3 PUSH2 0x3E75 JUMP JUMPDEST SWAP2 POP PUSH2 0x488F DUP4 PUSH2 0x3E75 JUMP JUMPDEST SWAP3 POP DUP3 DUP3 ADD SWAP1 POP PUSH4 0xFFFFFFFF DUP2 GT ISZERO PUSH2 0x48AB JUMPI PUSH2 0x48AA PUSH2 0x484A JUMP JUMPDEST JUMPDEST SWAP3 SWAP2 POP POP JUMP JUMPDEST PUSH32 0x4D6178206D696E7420726561636865642E000000000000000000000000000000 PUSH1 0x0 DUP3 ADD MSTORE POP JUMP JUMPDEST PUSH1 0x0 PUSH2 0x48E7 PUSH1 0x11 DUP4 PUSH2 0x3FAB JUMP JUMPDEST SWAP2 POP PUSH2 0x48F2 DUP3 PUSH2 0x48B1 JUMP JUMPDEST PUSH1 0x20 DUP3 ADD SWAP1 POP SWAP2 SWAP1 POP JUMP JUMPDEST PUSH1 0x0 PUSH1 0x20 DUP3 ADD SWAP1 POP DUP2 DUP2 SUB PUSH1 0x0 DUP4 ADD MSTORE PUSH2 0x4916 DUP2 PUSH2 0x48DA JUMP JUMPDEST SWAP1 POP SWAP2 SWAP1 POP JUMP JUMPDEST PUSH1 0x0 PUSH2 0x4928 DUP3 PUSH2 0x4052 JUMP JUMPDEST SWAP2 POP PUSH2 0x4933 DUP4 PUSH2 0x4052 JUMP JUMPDEST SWAP3 POP DUP3 DUP3 MUL PUSH2 0x4941 DUP2 PUSH2 0x4052 JUMP JUMPDEST SWAP2 POP DUP3 DUP3 DIV DUP5 EQ DUP4 ISZERO OR PUSH2 0x4958 JUMPI PUSH2 0x4957 PUSH2 0x484A JUMP JUMPDEST JUMPDEST POP SWAP3 SWAP2 POP POP JUMP JUMPDEST PUSH32 0x4E6F7420656E6F7567682066756E642E00000000000000000000000000000000 PUSH1 0x0 DUP3 ADD MSTORE POP JUMP JUMPDEST PUSH1 0x0 PUSH2 0x4995 PUSH1 0x10 DUP4 PUSH2 0x3FAB JUMP JUMPDEST SWAP2 POP PUSH2 0x49A0 DUP3 PUSH2 0x495F JUMP JUMPDEST PUSH1 0x20 DUP3 ADD SWAP1 POP SWAP2 SWAP1 POP JUMP JUMPDEST PUSH1 0x0 PUSH1 0x20 DUP3 ADD SWAP1 POP DUP2 DUP2 SUB PUSH1 0x0 DUP4 ADD MSTORE PUSH2 0x49C4 DUP2 PUSH2 0x4988 JUMP JUMPDEST SWAP1 POP SWAP2 SWAP1 POP JUMP JUMPDEST PUSH32 0x4D696E7420736F6C64206F757400000000000000000000000000000000000000 PUSH1 0x0 DUP3 ADD MSTORE POP JUMP JUMPDEST PUSH1 0x0 PUSH2 0x4A01 PUSH1 0xD DUP4 PUSH2 0x3FAB JUMP JUMPDEST SWAP2 POP PUSH2 0x4A0C DUP3 PUSH2 0x49CB JUMP JUMPDEST PUSH1 0x20 DUP3 ADD SWAP1 POP SWAP2 SWAP1 POP JUMP JUMPDEST PUSH1 0x0 PUSH1 0x20 DUP3 ADD SWAP1 POP DUP2 DUP2 SUB PUSH1 0x0 DUP4 ADD MSTORE PUSH2 0x4A30 DUP2 PUSH2 0x49F4 JUMP JUMPDEST SWAP1 POP SWAP2 SWAP1 POP JUMP JUMPDEST PUSH1 0x0 PUSH2 0x4A42 DUP3 PUSH2 0x4052 JUMP JUMPDEST SWAP2 POP PUSH2 0x4A4D DUP4 PUSH2 0x4052 JUMP JUMPDEST SWAP3 POP DUP3 DUP3 ADD SWAP1 POP DUP1 DUP3 GT ISZERO PUSH2 0x4A65 JUMPI PUSH2 0x4A64 PUSH2 0x484A JUMP JUMPDEST JUMPDEST SWAP3 SWAP2 POP POP JUMP JUMPDEST PUSH32 0x4D617820746F74616C206D696E74207265616368656400000000000000000000 PUSH1 0x0 DUP3 ADD MSTORE POP JUMP JUMPDEST PUSH1 0x0 PUSH2 0x4AA1 PUSH1 0x16 DUP4 PUSH2 0x3FAB JUMP JUMPDEST SWAP2 POP PUSH2 0x4AAC DUP3 PUSH2 0x4A6B JUMP JUMPDEST PUSH1 0x20 DUP3 ADD SWAP1 POP SWAP2 SWAP1 POP JUMP JUMPDEST PUSH1 0x0 PUSH1 0x20 DUP3 ADD SWAP1 POP DUP2 DUP2 SUB PUSH1 0x0 DUP4 ADD MSTORE PUSH2 0x4AD0 DUP2 PUSH2 0x4A94 JUMP JUMPDEST SWAP1 POP SWAP2 SWAP1 POP JUMP JUMPDEST PUSH32 0x50726573616C65206E6F74206F70656E00000000000000000000000000000000 PUSH1 0x0 DUP3 ADD MSTORE POP JUMP JUMPDEST PUSH1 0x0 PUSH2 0x4B0D PUSH1 0x10 DUP4 PUSH2 0x3FAB JUMP JUMPDEST SWAP2 POP PUSH2 0x4B18 DUP3 PUSH2 0x4AD7 JUMP JUMPDEST PUSH1 0x20 DUP3 ADD SWAP1 POP SWAP2 SWAP1 POP JUMP JUMPDEST PUSH1 0x0 PUSH1 0x20 DUP3 ADD SWAP1 POP DUP2 DUP2 SUB PUSH1 0x0 DUP4 ADD MSTORE PUSH2 0x4B3C DUP2 PUSH2 0x4B00 JUMP JUMPDEST SWAP1 POP SWAP2 SWAP1 POP JUMP JUMPDEST PUSH32 0x50726573616C65206E6F74207265616479000000000000000000000000000000 PUSH1 0x0 DUP3 ADD MSTORE POP JUMP JUMPDEST PUSH1 0x0 PUSH2 0x4B79 PUSH1 0x11 DUP4 PUSH2 0x3FAB JUMP JUMPDEST SWAP2 POP PUSH2 0x4B84 DUP3 PUSH2 0x4B43 JUMP JUMPDEST PUSH1 0x20 DUP3 ADD SWAP1 POP SWAP2 SWAP1 POP JUMP JUMPDEST PUSH1 0x0 PUSH1 0x20 DUP3 ADD SWAP1 POP DUP2 DUP2 SUB PUSH1 0x0 DUP4 ADD MSTORE PUSH2 0x4BA8 DUP2 PUSH2 0x4B6C JUMP JUMPDEST SWAP1 POP SWAP2 SWAP1 POP JUMP JUMPDEST PUSH1 0x0 DUP2 PUSH1 0x60 SHL SWAP1 POP SWAP2 SWAP1 POP JUMP JUMPDEST PUSH1 0x0 PUSH2 0x4BC7 DUP3 PUSH2 0x4BAF JUMP JUMPDEST SWAP1 POP SWAP2 SWAP1 POP JUMP JUMPDEST PUSH1 0x0 PUSH2 0x4BD9 DUP3 PUSH2 0x4BBC JUMP JUMPDEST SWAP1 POP SWAP2 SWAP1 POP JUMP JUMPDEST PUSH2 0x4BF1 PUSH2 0x4BEC DUP3 PUSH2 0x40D5 JUMP JUMPDEST PUSH2 0x4BCE JUMP JUMPDEST DUP3 MSTORE POP POP JUMP JUMPDEST PUSH1 0x0 PUSH2 0x4C03 DUP3 DUP5 PUSH2 0x4BE0 JUMP JUMPDEST PUSH1 0x14 DUP3 ADD SWAP2 POP DUP2 SWAP1 POP SWAP3 SWAP2 POP POP JUMP JUMPDEST PUSH32 0x4E6F7420612070726573616C65206D656D626572000000000000000000000000 PUSH1 0x0 DUP3 ADD MSTORE POP JUMP JUMPDEST PUSH1 0x0 PUSH2 0x4C48 PUSH1 0x14 DUP4 PUSH2 0x3FAB JUMP JUMPDEST SWAP2 POP PUSH2 0x4C53 DUP3 PUSH2 0x4C12 JUMP JUMPDEST PUSH1 0x20 DUP3 ADD SWAP1 POP SWAP2 SWAP1 POP JUMP JUMPDEST PUSH1 0x0 PUSH1 0x20 DUP3 ADD SWAP1 POP DUP2 DUP2 SUB PUSH1 0x0 DUP4 ADD MSTORE PUSH2 0x4C77 DUP2 PUSH2 0x4C3B JUMP JUMPDEST SWAP1 POP SWAP2 SWAP1 POP JUMP JUMPDEST PUSH32 0x4E487B7100000000000000000000000000000000000000000000000000000000 PUSH1 0x0 MSTORE PUSH1 0x22 PUSH1 0x4 MSTORE PUSH1 0x24 PUSH1 0x0 REVERT JUMPDEST PUSH1 0x0 PUSH1 0x2 DUP3 DIV SWAP1 POP PUSH1 0x1 DUP3 AND DUP1 PUSH2 0x4CC5 JUMPI PUSH1 0x7F DUP3 AND SWAP2 POP JUMPDEST PUSH1 0x20 DUP3 LT DUP2 SUB PUSH2 0x4CD8 JUMPI PUSH2 0x4CD7 PUSH2 0x4C7E JUMP JUMPDEST JUMPDEST POP SWAP2 SWAP1 POP JUMP JUMPDEST PUSH32 0x4552433732313A20617070726F76656420717565727920666F72206E6F6E6578 PUSH1 0x0 DUP3 ADD MSTORE PUSH32 0x697374656E7420746F6B656E0000000000000000000000000000000000000000 PUSH1 0x20 DUP3 ADD MSTORE POP JUMP JUMPDEST PUSH1 0x0 PUSH2 0x4D3A PUSH1 0x2C DUP4 PUSH2 0x3FAB JUMP JUMPDEST SWAP2 POP PUSH2 0x4D45 DUP3 PUSH2 0x4CDE JUMP JUMPDEST PUSH1 0x40 DUP3 ADD SWAP1 POP SWAP2 SWAP1 POP JUMP JUMPDEST PUSH1 0x0 PUSH1 0x20 DUP3 ADD SWAP1 POP DUP2 DUP2 SUB PUSH1 0x0 DUP4 ADD MSTORE PUSH2 0x4D69 DUP2 PUSH2 0x4D2D JUMP JUMPDEST SWAP1 POP SWAP2 SWAP1 POP JUMP JUMPDEST PUSH32 0x4F776E61626C653A2063616C6C6572206973206E6F7420746865206F776E6572 PUSH1 0x0 DUP3 ADD MSTORE POP JUMP JUMPDEST PUSH1 0x0 PUSH2 0x4DA6 PUSH1 0x20 DUP4 PUSH2 0x3FAB JUMP JUMPDEST SWAP2 POP PUSH2 0x4DB1 DUP3 PUSH2 0x4D70 JUMP JUMPDEST PUSH1 0x20 DUP3 ADD SWAP1 POP SWAP2 SWAP1 POP JUMP JUMPDEST PUSH1 0x0 PUSH1 0x20 DUP3 ADD SWAP1 POP DUP2 DUP2 SUB PUSH1 0x0 DUP4 ADD MSTORE PUSH2 0x4DD5 DUP2 PUSH2 0x4D99 JUMP JUMPDEST SWAP1 POP SWAP2 SWAP1 POP JUMP JUMPDEST PUSH32 0x4552433732313A20617070726F76616C20746F2063757272656E74206F776E65 PUSH1 0x0 DUP3 ADD MSTORE PUSH32 0x7200000000000000000000000000000000000000000000000000000000000000 PUSH1 0x20 DUP3 ADD MSTORE POP JUMP JUMPDEST PUSH1 0x0 PUSH2 0x4E38 PUSH1 0x21 DUP4 PUSH2 0x3FAB JUMP JUMPDEST SWAP2 POP PUSH2 0x4E43 DUP3 PUSH2 0x4DDC JUMP JUMPDEST PUSH1 0x40 DUP3 ADD SWAP1 POP SWAP2 SWAP1 POP JUMP JUMPDEST PUSH1 0x0 PUSH1 0x20 DUP3 ADD SWAP1 POP DUP2 DUP2 SUB PUSH1 0x0 DUP4 ADD MSTORE PUSH2 0x4E67 DUP2 PUSH2 0x4E2B JUMP JUMPDEST SWAP1 POP SWAP2 SWAP1 POP JUMP JUMPDEST PUSH32 0x4552433732313A20617070726F76652063616C6C6572206973206E6F74206F77 PUSH1 0x0 DUP3 ADD MSTORE PUSH32 0x6E6572206E6F7220617070726F76656420666F7220616C6C0000000000000000 PUSH1 0x20 DUP3 ADD MSTORE POP JUMP JUMPDEST PUSH1 0x0 PUSH2 0x4ECA PUSH1 0x38 DUP4 PUSH2 0x3FAB JUMP JUMPDEST SWAP2 POP PUSH2 0x4ED5 DUP3 PUSH2 0x4E6E JUMP JUMPDEST PUSH1 0x40 DUP3 ADD SWAP1 POP SWAP2 SWAP1 POP JUMP JUMPDEST PUSH1 0x0 PUSH1 0x20 DUP3 ADD SWAP1 POP DUP2 DUP2 SUB PUSH1 0x0 DUP4 ADD MSTORE PUSH2 0x4EF9 DUP2 PUSH2 0x4EBD JUMP JUMPDEST SWAP1 POP SWAP2 SWAP1 POP JUMP JUMPDEST PUSH1 0x0 DUP2 SWAP1 POP SWAP2 SWAP1 POP JUMP JUMPDEST PUSH1 0x0 PUSH2 0x4F25 PUSH2 0x4F20 PUSH2 0x4F1B DUP5 PUSH2 0x3E75 JUMP JUMPDEST PUSH2 0x4F00 JUMP JUMPDEST PUSH2 0x4052 JUMP JUMPDEST SWAP1 POP SWAP2 SWAP1 POP JUMP JUMPDEST PUSH2 0x4F35 DUP2 PUSH2 0x4F0A JUMP JUMPDEST DUP3 MSTORE POP POP JUMP JUMPDEST PUSH1 0x0 PUSH1 0x20 DUP3 ADD SWAP1 POP PUSH2 0x4F50 PUSH1 0x0 DUP4 ADD DUP5 PUSH2 0x4F2C JUMP JUMPDEST SWAP3 SWAP2 POP POP JUMP JUMPDEST PUSH1 0x0 DUP2 MLOAD SWAP1 POP PUSH2 0x4F65 DUP2 PUSH2 0x413E JUMP JUMPDEST SWAP3 SWAP2 POP POP JUMP JUMPDEST PUSH1 0x0 PUSH1 0x20 DUP3 DUP5 SUB SLT ISZERO PUSH2 0x4F81 JUMPI PUSH2 0x4F80 PUSH2 0x3DB0 JUMP JUMPDEST JUMPDEST PUSH1 0x0 PUSH2 0x4F8F DUP5 DUP3 DUP6 ADD PUSH2 0x4F56 JUMP JUMPDEST SWAP2 POP POP SWAP3 SWAP2 POP POP JUMP JUMPDEST PUSH1 0x0 DUP2 SWAP1 POP SWAP3 SWAP2 POP POP JUMP JUMPDEST PUSH1 0x0 PUSH2 0x4FAE DUP3 PUSH2 0x3FA0 JUMP JUMPDEST PUSH2 0x4FB8 DUP2 DUP6 PUSH2 0x4F98 JUMP JUMPDEST SWAP4 POP PUSH2 0x4FC8 DUP2 DUP6 PUSH1 0x20 DUP7 ADD PUSH2 0x3FBC JUMP JUMPDEST DUP1 DUP5 ADD SWAP2 POP POP SWAP3 SWAP2 POP POP JUMP JUMPDEST PUSH32 0x2C00000000000000000000000000000000000000000000000000000000000000 DUP2 MSTORE POP JUMP JUMPDEST PUSH1 0x0 PUSH2 0x5006 DUP3 DUP6 PUSH2 0x4FA3 JUMP JUMPDEST SWAP2 POP PUSH2 0x5012 DUP3 DUP5 PUSH2 0x4FA3 JUMP JUMPDEST SWAP2 POP PUSH2 0x501D DUP3 PUSH2 0x4FD4 JUMP JUMPDEST PUSH1 0x1 DUP3 ADD SWAP2 POP DUP2 SWAP1 POP SWAP4 SWAP3 POP POP POP JUMP JUMPDEST PUSH1 0x0 PUSH2 0x5038 DUP3 PUSH2 0x3E75 JUMP JUMPDEST SWAP2 POP PUSH4 0xFFFFFFFF DUP3 SUB PUSH2 0x504E JUMPI PUSH2 0x504D PUSH2 0x484A JUMP JUMPDEST JUMPDEST PUSH1 0x1 DUP3 ADD SWAP1 POP SWAP2 SWAP1 POP JUMP JUMPDEST PUSH32 0x7C00000000000000000000000000000000000000000000000000000000000000 DUP2 MSTORE POP JUMP JUMPDEST PUSH1 0x0 PUSH2 0x508B DUP3 DUP7 PUSH2 0x4FA3 JUMP JUMPDEST SWAP2 POP PUSH2 0x5097 DUP3 DUP6 PUSH2 0x4FA3 JUMP JUMPDEST SWAP2 POP PUSH2 0x50A2 DUP3 PUSH2 0x5059 JUMP JUMPDEST PUSH1 0x1 DUP3 ADD SWAP2 POP PUSH2 0x50B2 DUP3 DUP5 PUSH2 0x4FA3 JUMP JUMPDEST SWAP2 POP PUSH2 0x50BD DUP3 PUSH2 0x4FD4 JUMP JUMPDEST PUSH1 0x1 DUP3 ADD SWAP2 POP DUP2 SWAP1 POP SWAP5 SWAP4 POP POP POP POP JUMP JUMPDEST PUSH32 0x4552433732313A207472616E736665722063616C6C6572206973206E6F74206F PUSH1 0x0 DUP3 ADD MSTORE PUSH32 0x776E6572206E6F7220617070726F766564000000000000000000000000000000 PUSH1 0x20 DUP3 ADD MSTORE POP JUMP JUMPDEST PUSH1 0x0 PUSH2 0x512A PUSH1 0x31 DUP4 PUSH2 0x3FAB JUMP JUMPDEST SWAP2 POP PUSH2 0x5135 DUP3 PUSH2 0x50CE JUMP JUMPDEST PUSH1 0x40 DUP3 ADD SWAP1 POP SWAP2 SWAP1 POP JUMP JUMPDEST PUSH1 0x0 PUSH1 0x20 DUP3 ADD SWAP1 POP DUP2 DUP2 SUB PUSH1 0x0 DUP4 ADD MSTORE PUSH2 0x5159 DUP2 PUSH2 0x511D JUMP JUMPDEST SWAP1 POP SWAP2 SWAP1 POP JUMP JUMPDEST PUSH1 0x0 DUP2 SWAP1 POP SWAP3 SWAP2 POP POP JUMP JUMPDEST POP JUMP JUMPDEST PUSH1 0x0 PUSH2 0x517B PUSH1 0x0 DUP4 PUSH2 0x5160 JUMP JUMPDEST SWAP2 POP PUSH2 0x5186 DUP3 PUSH2 0x516B JUMP JUMPDEST PUSH1 0x0 DUP3 ADD SWAP1 POP SWAP2 SWAP1 POP JUMP JUMPDEST PUSH1 0x0 PUSH2 0x519C DUP3 PUSH2 0x516E JUMP JUMPDEST SWAP2 POP DUP2 SWAP1 POP SWAP2 SWAP1 POP JUMP JUMPDEST PUSH32 0x4552433732313A206F776E657220717565727920666F72206E6F6E6578697374 PUSH1 0x0 DUP3 ADD MSTORE PUSH32 0x656E7420746F6B656E0000000000000000000000000000000000000000000000 PUSH1 0x20 DUP3 ADD MSTORE POP JUMP JUMPDEST PUSH1 0x0 PUSH2 0x5202 PUSH1 0x29 DUP4 PUSH2 0x3FAB JUMP JUMPDEST SWAP2 POP PUSH2 0x520D DUP3 PUSH2 0x51A6 JUMP JUMPDEST PUSH1 0x40 DUP3 ADD SWAP1 POP SWAP2 SWAP1 POP JUMP JUMPDEST PUSH1 0x0 PUSH1 0x20 DUP3 ADD SWAP1 POP DUP2 DUP2 SUB PUSH1 0x0 DUP4 ADD MSTORE PUSH2 0x5231 DUP2 PUSH2 0x51F5 JUMP JUMPDEST SWAP1 POP SWAP2 SWAP1 POP JUMP JUMPDEST PUSH32 0x4552433732313A2062616C616E636520717565727920666F7220746865207A65 PUSH1 0x0 DUP3 ADD MSTORE PUSH32 0x726F206164647265737300000000000000000000000000000000000000000000 PUSH1 0x20 DUP3 ADD MSTORE POP JUMP JUMPDEST PUSH1 0x0 PUSH2 0x5294 PUSH1 0x2A DUP4 PUSH2 0x3FAB JUMP JUMPDEST SWAP2 POP PUSH2 0x529F DUP3 PUSH2 0x5238 JUMP JUMPDEST PUSH1 0x40 DUP3 ADD SWAP1 POP SWAP2 SWAP1 POP JUMP JUMPDEST PUSH1 0x0 PUSH1 0x20 DUP3 ADD SWAP1 POP DUP2 DUP2 SUB PUSH1 0x0 DUP4 ADD MSTORE PUSH2 0x52C3 DUP2 PUSH2 0x5287 JUMP JUMPDEST SWAP1 POP SWAP2 SWAP1 POP JUMP JUMPDEST PUSH32 0x4C696D6974207265616368656400000000000000000000000000000000000000 PUSH1 0x0 DUP3 ADD MSTORE POP JUMP JUMPDEST PUSH1 0x0 PUSH2 0x5300 PUSH1 0xD DUP4 PUSH2 0x3FAB JUMP JUMPDEST SWAP2 POP PUSH2 0x530B DUP3 PUSH2 0x52CA JUMP JUMPDEST PUSH1 0x20 DUP3 ADD SWAP1 POP SWAP2 SWAP1 POP JUMP JUMPDEST PUSH1 0x0 PUSH1 0x20 DUP3 ADD SWAP1 POP DUP2 DUP2 SUB PUSH1 0x0 DUP4 ADD MSTORE PUSH2 0x532F DUP2 PUSH2 0x52F3 JUMP JUMPDEST SWAP1 POP SWAP2 SWAP1 POP JUMP JUMPDEST PUSH32 0x4E487B7100000000000000000000000000000000000000000000000000000000 PUSH1 0x0 MSTORE PUSH1 0x32 PUSH1 0x4 MSTORE PUSH1 0x24 PUSH1 0x0 REVERT JUMPDEST PUSH1 0x0 DUP2 SWAP1 POP DUP2 PUSH1 0x0 MSTORE PUSH1 0x20 PUSH1 0x0 KECCAK256 SWAP1 POP SWAP2 SWAP1 POP JUMP JUMPDEST PUSH1 0x0 PUSH1 0x20 PUSH1 0x1F DUP4 ADD DIV SWAP1 POP SWAP2 SWAP1 POP JUMP JUMPDEST PUSH1 0x0 DUP3 DUP3 SHL SWAP1 POP SWAP3 SWAP2 POP POP JUMP JUMPDEST PUSH1 0x0 PUSH1 0x8 DUP4 MUL PUSH2 0x53C7 PUSH32 0xFFFFFFFFFFFFFFFFFFFFFFFFFFFFFFFFFFFFFFFFFFFFFFFFFFFFFFFFFFFFFFFF DUP3 PUSH2 0x538A JUMP JUMPDEST PUSH2 0x53D1 DUP7 DUP4 PUSH2 0x538A JUMP JUMPDEST SWAP6 POP DUP1 NOT DUP5 AND SWAP4 POP DUP1 DUP7 AND DUP5 OR SWAP3 POP POP POP SWAP4 SWAP3 POP POP POP JUMP JUMPDEST PUSH1 0x0 PUSH2 0x5404 PUSH2 0x53FF PUSH2 0x53FA DUP5 PUSH2 0x4052 JUMP JUMPDEST PUSH2 0x4F00 JUMP JUMPDEST PUSH2 0x4052 JUMP JUMPDEST SWAP1 POP SWAP2 SWAP1 POP JUMP JUMPDEST PUSH1 0x0 DUP2 SWAP1 POP SWAP2 SWAP1 POP JUMP JUMPDEST PUSH2 0x541E DUP4 PUSH2 0x53E9 JUMP JUMPDEST PUSH2 0x5432 PUSH2 0x542A DUP3 PUSH2 0x540B JUMP JUMPDEST DUP5 DUP5 SLOAD PUSH2 0x5397 JUMP JUMPDEST DUP3 SSTORE POP POP POP POP JUMP JUMPDEST PUSH1 0x0 SWAP1 JUMP JUMPDEST PUSH2 0x5447 PUSH2 0x543A JUMP JUMPDEST PUSH2 0x5452 DUP2 DUP5 DUP5 PUSH2 0x5415 JUMP JUMPDEST POP POP POP JUMP JUMPDEST JUMPDEST DUP2 DUP2 LT ISZERO PUSH2 0x5476 JUMPI PUSH2 0x546B PUSH1 0x0 DUP3 PUSH2 0x543F JUMP JUMPDEST PUSH1 0x1 DUP2 ADD SWAP1 POP PUSH2 0x5458 JUMP JUMPDEST POP POP JUMP JUMPDEST PUSH1 0x1F DUP3 GT ISZERO PUSH2 0x54BB JUMPI PUSH2 0x548C DUP2 PUSH2 0x5365 JUMP JUMPDEST PUSH2 0x5495 DUP5 PUSH2 0x537A JUMP JUMPDEST DUP2 ADD PUSH1 0x20 DUP6 LT ISZERO PUSH2 0x54A4 JUMPI DUP2 SWAP1 POP JUMPDEST PUSH2 0x54B8 PUSH2 0x54B0 DUP6 PUSH2 0x537A JUMP JUMPDEST DUP4 ADD DUP3 PUSH2 0x5457 JUMP JUMPDEST POP POP JUMPDEST POP POP POP JUMP JUMPDEST PUSH1 0x0 DUP3 DUP3 SHR SWAP1 POP SWAP3 SWAP2 POP POP JUMP JUMPDEST PUSH1 0x0 PUSH2 0x54DE PUSH1 0x0 NOT DUP5 PUSH1 0x8 MUL PUSH2 0x54C0 JUMP JUMPDEST NOT DUP1 DUP4 AND SWAP2 POP POP SWAP3 SWAP2 POP POP JUMP JUMPDEST PUSH1 0x0 PUSH2 0x54F7 DUP4 DUP4 PUSH2 0x54CD JUMP JUMPDEST SWAP2 POP DUP3 PUSH1 0x2 MUL DUP3 OR SWAP1 POP SWAP3 SWAP2 POP POP JUMP JUMPDEST PUSH2 0x5510 DUP3 PUSH2 0x3FA0 JUMP JUMPDEST PUSH8 0xFFFFFFFFFFFFFFFF DUP2 GT ISZERO PUSH2 0x5529 JUMPI PUSH2 0x5528 PUSH2 0x444B JUMP JUMPDEST JUMPDEST PUSH2 0x5533 DUP3 SLOAD PUSH2 0x4CAD JUMP JUMPDEST PUSH2 0x553E DUP3 DUP3 DUP6 PUSH2 0x547A JUMP JUMPDEST PUSH1 0x0 PUSH1 0x20 SWAP1 POP PUSH1 0x1F DUP4 GT PUSH1 0x1 DUP2 EQ PUSH2 0x5571 JUMPI PUSH1 0x0 DUP5 ISZERO PUSH2 0x555F JUMPI DUP3 DUP8 ADD MLOAD SWAP1 POP JUMPDEST PUSH2 0x5569 DUP6 DUP3 PUSH2 0x54EB JUMP JUMPDEST DUP7 SSTORE POP PUSH2 0x55D1 JUMP JUMPDEST PUSH1 0x1F NOT DUP5 AND PUSH2 0x557F DUP7 PUSH2 0x5365 JUMP JUMPDEST PUSH1 0x0 JUMPDEST DUP3 DUP2 LT ISZERO PUSH2 0x55A7 JUMPI DUP5 DUP10 ADD MLOAD DUP3 SSTORE PUSH1 0x1 DUP3 ADD SWAP2 POP PUSH1 0x20 DUP6 ADD SWAP5 POP PUSH1 0x20 DUP2 ADD SWAP1 POP PUSH2 0x5582 JUMP JUMPDEST DUP7 DUP4 LT ISZERO PUSH2 0x55C4 JUMPI DUP5 DUP10 ADD MLOAD PUSH2 0x55C0 PUSH1 0x1F DUP10 AND DUP3 PUSH2 0x54CD JUMP JUMPDEST DUP4 SSTORE POP JUMPDEST PUSH1 0x1 PUSH1 0x2 DUP9 MUL ADD DUP9 SSTORE POP POP POP JUMPDEST POP POP POP POP POP POP JUMP JUMPDEST PUSH32 0x4D696E74206E6F74206F70656E00000000000000000000000000000000000000 PUSH1 0x0 DUP3 ADD MSTORE POP JUMP JUMPDEST PUSH1 0x0 PUSH2 0x560F PUSH1 0xD DUP4 PUSH2 0x3FAB JUMP JUMPDEST SWAP2 POP PUSH2 0x561A DUP3 PUSH2 0x55D9 JUMP JUMPDEST PUSH1 0x20 DUP3 ADD SWAP1 POP SWAP2 SWAP1 POP JUMP JUMPDEST PUSH1 0x0 PUSH1 0x20 DUP3 ADD SWAP1 POP DUP2 DUP2 SUB PUSH1 0x0 DUP4 ADD MSTORE PUSH2 0x563E DUP2 PUSH2 0x5602 JUMP JUMPDEST SWAP1 POP SWAP2 SWAP1 POP JUMP JUMPDEST PUSH32 0x4E6F74206D696E74656420796574000000000000000000000000000000000000 PUSH1 0x0 DUP3 ADD MSTORE POP JUMP JUMPDEST PUSH1 0x0 PUSH2 0x567B PUSH1 0xE DUP4 PUSH2 0x3FAB JUMP JUMPDEST SWAP2 POP PUSH2 0x5686 DUP3 PUSH2 0x5645 JUMP JUMPDEST PUSH1 0x20 DUP3 ADD SWAP1 POP SWAP2 SWAP1 POP JUMP JUMPDEST PUSH1 0x0 PUSH1 0x20 DUP3 ADD SWAP1 POP DUP2 DUP2 SUB PUSH1 0x0 DUP4 ADD MSTORE PUSH2 0x56AA DUP2 PUSH2 0x566E JUMP JUMPDEST SWAP1 POP SWAP2 SWAP1 POP JUMP JUMPDEST PUSH1 0x0 DUP2 SLOAD PUSH2 0x56BE DUP2 PUSH2 0x4CAD JUMP JUMPDEST PUSH2 0x56C8 DUP2 DUP7 PUSH2 0x4F98 JUMP JUMPDEST SWAP5 POP PUSH1 0x1 DUP3 AND PUSH1 0x0 DUP2 EQ PUSH2 0x56E3 JUMPI PUSH1 0x1 DUP2 EQ PUSH2 0x56F8 JUMPI PUSH2 0x572B JUMP JUMPDEST PUSH1 0xFF NOT DUP4 AND DUP7 MSTORE DUP2 ISZERO ISZERO DUP3 MUL DUP7 ADD SWAP4 POP PUSH2 0x572B JUMP JUMPDEST PUSH2 0x5701 DUP6 PUSH2 0x5365 JUMP JUMPDEST PUSH1 0x0 JUMPDEST DUP4 DUP2 LT ISZERO PUSH2 0x5723 JUMPI DUP2 SLOAD DUP2 DUP10 ADD MSTORE PUSH1 0x1 DUP3 ADD SWAP2 POP PUSH1 0x20 DUP2 ADD SWAP1 POP PUSH2 0x5704 JUMP JUMPDEST DUP4 DUP9 ADD SWAP6 POP POP POP JUMPDEST POP POP POP SWAP3 SWAP2 POP POP JUMP JUMPDEST PUSH32 0x2E6A736F6E000000000000000000000000000000000000000000000000000000 PUSH1 0x0 DUP3 ADD MSTORE POP JUMP JUMPDEST PUSH1 0x0 PUSH2 0x576A PUSH1 0x5 DUP4 PUSH2 0x4F98 JUMP JUMPDEST SWAP2 POP PUSH2 0x5775 DUP3 PUSH2 0x5734 JUMP JUMPDEST PUSH1 0x5 DUP3 ADD SWAP1 POP SWAP2 SWAP1 POP JUMP JUMPDEST PUSH1 0x0 PUSH2 0x578C DUP3 DUP6 PUSH2 0x56B1 JUMP JUMPDEST SWAP2 POP PUSH2 0x5798 DUP3 DUP5 PUSH2 0x4FA3 JUMP JUMPDEST SWAP2 POP PUSH2 0x57A3 DUP3 PUSH2 0x575D JUMP JUMPDEST SWAP2 POP DUP2 SWAP1 POP SWAP4 SWAP3 POP POP POP JUMP JUMPDEST PUSH1 0x0 DUP2 MLOAD SWAP1 POP PUSH2 0x57BE DUP2 PUSH2 0x405C JUMP JUMPDEST SWAP3 SWAP2 POP POP JUMP JUMPDEST PUSH1 0x0 PUSH1 0x20 DUP3 DUP5 SUB SLT ISZERO PUSH2 0x57DA JUMPI PUSH2 0x57D9 PUSH2 0x3DB0 JUMP JUMPDEST JUMPDEST PUSH1 0x0 PUSH2 0x57E8 DUP5 DUP3 DUP6 ADD PUSH2 0x57AF JUMP JUMPDEST SWAP2 POP POP SWAP3 SWAP2 POP POP JUMP JUMPDEST PUSH32 0x4F776E61626C653A206E6577206F776E657220697320746865207A65726F2061 PUSH1 0x0 DUP3 ADD MSTORE PUSH32 0x6464726573730000000000000000000000000000000000000000000000000000 PUSH1 0x20 DUP3 ADD MSTORE POP JUMP JUMPDEST PUSH1 0x0 PUSH2 0x584D PUSH1 0x26 DUP4 PUSH2 0x3FAB JUMP JUMPDEST SWAP2 POP PUSH2 0x5858 DUP3 PUSH2 0x57F1 JUMP JUMPDEST PUSH1 0x40 DUP3 ADD SWAP1 POP SWAP2 SWAP1 POP JUMP JUMPDEST PUSH1 0x0 PUSH1 0x20 DUP3 ADD SWAP1 POP DUP2 DUP2 SUB PUSH1 0x0 DUP4 ADD MSTORE PUSH2 0x587C DUP2 PUSH2 0x5840 JUMP JUMPDEST SWAP1 POP SWAP2 SWAP1 POP JUMP JUMPDEST PUSH32 0x4E487B7100000000000000000000000000000000000000000000000000000000 PUSH1 0x0 MSTORE PUSH1 0x12 PUSH1 0x4 MSTORE PUSH1 0x24 PUSH1 0x0 REVERT JUMPDEST PUSH1 0x0 PUSH2 0x58BD DUP3 PUSH2 0x4052 JUMP JUMPDEST SWAP2 POP PUSH2 0x58C8 DUP4 PUSH2 0x4052 JUMP JUMPDEST SWAP3 POP DUP3 PUSH2 0x58D8 JUMPI PUSH2 0x58D7 PUSH2 0x5883 JUMP JUMPDEST JUMPDEST DUP3 DUP3 DIV SWAP1 POP SWAP3 SWAP2 POP POP JUMP JUMPDEST PUSH1 0x0 PUSH2 0x58EE DUP3 PUSH2 0x4052 JUMP JUMPDEST SWAP2 POP PUSH1 0x0 DUP3 SUB PUSH2 0x5901 JUMPI PUSH2 0x5900 PUSH2 0x484A JUMP JUMPDEST JUMPDEST PUSH1 0x1 DUP3 SUB SWAP1 POP SWAP2 SWAP1 POP JUMP JUMPDEST PUSH32 0x537472696E67733A20686578206C656E67746820696E73756666696369656E74 PUSH1 0x0 DUP3 ADD MSTORE POP JUMP JUMPDEST PUSH1 0x0 PUSH2 0x5942 PUSH1 0x20 DUP4 PUSH2 0x3FAB JUMP JUMPDEST SWAP2 POP PUSH2 0x594D DUP3 PUSH2 0x590C JUMP JUMPDEST PUSH1 0x20 DUP3 ADD SWAP1 POP SWAP2 SWAP1 POP JUMP JUMPDEST PUSH1 0x0 PUSH1 0x20 DUP3 ADD SWAP1 POP DUP2 DUP2 SUB PUSH1 0x0 DUP4 ADD MSTORE PUSH2 0x5971 DUP2 PUSH2 0x5935 JUMP JUMPDEST SWAP1 POP SWAP2 SWAP1 POP JUMP JUMPDEST PUSH32 0x4552433732313A206F70657261746F7220717565727920666F72206E6F6E6578 PUSH1 0x0 DUP3 ADD MSTORE PUSH32 0x697374656E7420746F6B656E0000000000000000000000000000000000000000 PUSH1 0x20 DUP3 ADD MSTORE POP JUMP JUMPDEST PUSH1 0x0 PUSH2 0x59D4 PUSH1 0x2C DUP4 PUSH2 0x3FAB JUMP JUMPDEST SWAP2 POP PUSH2 0x59DF DUP3 PUSH2 0x5978 JUMP JUMPDEST PUSH1 0x40 DUP3 ADD SWAP1 POP SWAP2 SWAP1 POP JUMP JUMPDEST PUSH1 0x0 PUSH1 0x20 DUP3 ADD SWAP1 POP DUP2 DUP2 SUB PUSH1 0x0 DUP4 ADD MSTORE PUSH2 0x5A03 DUP2 PUSH2 0x59C7 JUMP JUMPDEST SWAP1 POP SWAP2 SWAP1 POP JUMP JUMPDEST PUSH32 0x4552433732313A207472616E73666572206F6620746F6B656E20746861742069 PUSH1 0x0 DUP3 ADD MSTORE PUSH32 0x73206E6F74206F776E0000000000000000000000000000000000000000000000 PUSH1 0x20 DUP3 ADD MSTORE POP JUMP JUMPDEST PUSH1 0x0 PUSH2 0x5A66 PUSH1 0x29 DUP4 PUSH2 0x3FAB JUMP JUMPDEST SWAP2 POP PUSH2 0x5A71 DUP3 PUSH2 0x5A0A JUMP JUMPDEST PUSH1 0x40 DUP3 ADD SWAP1 POP SWAP2 SWAP1 POP JUMP JUMPDEST PUSH1 0x0 PUSH1 0x20 DUP3 ADD SWAP1 POP DUP2 DUP2 SUB PUSH1 0x0 DUP4 ADD MSTORE PUSH2 0x5A95 DUP2 PUSH2 0x5A59 JUMP JUMPDEST SWAP1 POP SWAP2 SWAP1 POP JUMP JUMPDEST PUSH32 0x4552433732313A207472616E7366657220746F20746865207A65726F20616464 PUSH1 0x0 DUP3 ADD MSTORE PUSH32 0x7265737300000000000000000000000000000000000000000000000000000000 PUSH1 0x20 DUP3 ADD MSTORE POP JUMP JUMPDEST PUSH1 0x0 PUSH2 0x5AF8 PUSH1 0x24 DUP4 PUSH2 0x3FAB JUMP JUMPDEST SWAP2 POP PUSH2 0x5B03 DUP3 PUSH2 0x5A9C JUMP JUMPDEST PUSH1 0x40 DUP3 ADD SWAP1 POP SWAP2 SWAP1 POP JUMP JUMPDEST PUSH1 0x0 PUSH1 0x20 DUP3 ADD SWAP1 POP DUP2 DUP2 SUB PUSH1 0x0 DUP4 ADD MSTORE PUSH2 0x5B27 DUP2 PUSH2 0x5AEB JUMP JUMPDEST SWAP1 POP SWAP2 SWAP1 POP JUMP JUMPDEST PUSH1 0x0 PUSH2 0x5B39 DUP3 PUSH2 0x4052 JUMP JUMPDEST SWAP2 POP PUSH2 0x5B44 DUP4 PUSH2 0x4052 JUMP JUMPDEST SWAP3 POP DUP3 DUP3 SUB SWAP1 POP DUP2 DUP2 GT ISZERO PUSH2 0x5B5C JUMPI PUSH2 0x5B5B PUSH2 0x484A JUMP JUMPDEST JUMPDEST SWAP3 SWAP2 POP POP JUMP JUMPDEST PUSH32 0x4552433732313A207472616E7366657220746F206E6F6E204552433732315265 PUSH1 0x0 DUP3 ADD MSTORE PUSH32 0x63656976657220696D706C656D656E7465720000000000000000000000000000 PUSH1 0x20 DUP3 ADD MSTORE POP JUMP JUMPDEST PUSH1 0x0 PUSH2 0x5BBE PUSH1 0x32 DUP4 PUSH2 0x3FAB JUMP JUMPDEST SWAP2 POP PUSH2 0x5BC9 DUP3 PUSH2 0x5B62 JUMP JUMPDEST PUSH1 0x40 DUP3 ADD SWAP1 POP SWAP2 SWAP1 POP JUMP JUMPDEST PUSH1 0x0 PUSH1 0x20 DUP3 ADD SWAP1 POP DUP2 DUP2 SUB PUSH1 0x0 DUP4 ADD MSTORE PUSH2 0x5BED DUP2 PUSH2 0x5BB1 JUMP JUMPDEST SWAP1 POP SWAP2 SWAP1 POP JUMP JUMPDEST PUSH1 0x0 PUSH2 0x5BFF DUP3 PUSH2 0x4052 JUMP JUMPDEST SWAP2 POP PUSH32 0xFFFFFFFFFFFFFFFFFFFFFFFFFFFFFFFFFFFFFFFFFFFFFFFFFFFFFFFFFFFFFFFF DUP3 SUB PUSH2 0x5C31 JUMPI PUSH2 0x5C30 PUSH2 0x484A JUMP JUMPDEST JUMPDEST PUSH1 0x1 DUP3 ADD SWAP1 POP SWAP2 SWAP1 POP JUMP JUMPDEST PUSH1 0x0 PUSH2 0x5C47 DUP3 PUSH2 0x4052 JUMP JUMPDEST SWAP2 POP PUSH2 0x5C52 DUP4 PUSH2 0x4052 JUMP JUMPDEST SWAP3 POP DUP3 PUSH2 0x5C62 JUMPI PUSH2 0x5C61 PUSH2 0x5883 JUMP JUMPDEST JUMPDEST DUP3 DUP3 MOD SWAP1 POP SWAP3 SWAP2 POP POP JUMP JUMPDEST PUSH32 0x4552433732313A20617070726F766520746F2063616C6C657200000000000000 PUSH1 0x0 DUP3 ADD MSTORE POP JUMP JUMPDEST PUSH1 0x0 PUSH2 0x5CA3 PUSH1 0x19 DUP4 PUSH2 0x3FAB JUMP JUMPDEST SWAP2 POP PUSH2 0x5CAE DUP3 PUSH2 0x5C6D JUMP JUMPDEST PUSH1 0x20 DUP3 ADD SWAP1 POP SWAP2 SWAP1 POP JUMP JUMPDEST PUSH1 0x0 PUSH1 0x20 DUP3 ADD SWAP1 POP DUP2 DUP2 SUB PUSH1 0x0 DUP4 ADD MSTORE PUSH2 0x5CD2 DUP2 PUSH2 0x5C96 JUMP JUMPDEST SWAP1 POP SWAP2 SWAP1 POP JUMP JUMPDEST PUSH1 0x0 DUP2 SWAP1 POP SWAP2 SWAP1 POP JUMP JUMPDEST PUSH2 0x5CF4 PUSH2 0x5CEF DUP3 PUSH2 0x4390 JUMP JUMPDEST PUSH2 0x5CD9 JUMP JUMPDEST DUP3 MSTORE POP POP JUMP JUMPDEST PUSH1 0x0 PUSH2 0x5D06 DUP3 DUP6 PUSH2 0x5CE3 JUMP JUMPDEST PUSH1 0x20 DUP3 ADD SWAP2 POP PUSH2 0x5D16 DUP3 DUP5 PUSH2 0x5CE3 JUMP JUMPDEST PUSH1 0x20 DUP3 ADD SWAP2 POP DUP2 SWAP1 POP SWAP4 SWAP3 POP POP POP JUMP JUMPDEST PUSH32 0x4552433732313A206D696E7420746F20746865207A65726F2061646472657373 PUSH1 0x0 DUP3 ADD MSTORE POP JUMP JUMPDEST PUSH1 0x0 PUSH2 0x5D5C PUSH1 0x20 DUP4 PUSH2 0x3FAB JUMP JUMPDEST SWAP2 POP PUSH2 0x5D67 DUP3 PUSH2 0x5D26 JUMP JUMPDEST PUSH1 0x20 DUP3 ADD SWAP1 POP SWAP2 SWAP1 POP JUMP JUMPDEST PUSH1 0x0 PUSH1 0x20 DUP3 ADD SWAP1 POP DUP2 DUP2 SUB PUSH1 0x0 DUP4 ADD MSTORE PUSH2 0x5D8B DUP2 PUSH2 0x5D4F JUMP JUMPDEST SWAP1 POP SWAP2 SWAP1 POP JUMP JUMPDEST PUSH32 0x4552433732313A20746F6B656E20616C7265616479206D696E74656400000000 PUSH1 0x0 DUP3 ADD MSTORE POP JUMP JUMPDEST PUSH1 0x0 PUSH2 0x5DC8 PUSH1 0x1C DUP4 PUSH2 0x3FAB JUMP JUMPDEST SWAP2 POP PUSH2 0x5DD3 DUP3 PUSH2 0x5D92 JUMP JUMPDEST PUSH1 0x20 DUP3 ADD SWAP1 POP SWAP2 SWAP1 POP JUMP JUMPDEST PUSH1 0x0 PUSH1 0x20 DUP3 ADD SWAP1 POP DUP2 DUP2 SUB PUSH1 0x0 DUP4 ADD MSTORE PUSH2 0x5DF7 DUP2 PUSH2 0x5DBB JUMP JUMPDEST SWAP1 POP SWAP2 SWAP1 POP JUMP JUMPDEST PUSH1 0x0 DUP2 MLOAD SWAP1 POP SWAP2 SWAP1 POP JUMP JUMPDEST PUSH1 0x0 DUP3 DUP3 MSTORE PUSH1 0x20 DUP3 ADD SWAP1 POP SWAP3 SWAP2 POP POP JUMP JUMPDEST PUSH1 0x0 PUSH2 0x5E25 DUP3 PUSH2 0x5DFE JUMP JUMPDEST PUSH2 0x5E2F DUP2 DUP6 PUSH2 0x5E09 JUMP JUMPDEST SWAP4 POP PUSH2 0x5E3F DUP2 DUP6 PUSH1 0x20 DUP7 ADD PUSH2 0x3FBC JUMP JUMPDEST PUSH2 0x5E48 DUP2 PUSH2 0x3FE6 JUMP JUMPDEST DUP5 ADD SWAP2 POP POP SWAP3 SWAP2 POP POP JUMP JUMPDEST PUSH1 0x0 PUSH1 0x80 DUP3 ADD SWAP1 POP PUSH2 0x5E68 PUSH1 0x0 DUP4 ADD DUP8 PUSH2 0x40E7 JUMP JUMPDEST PUSH2 0x5E75 PUSH1 0x20 DUP4 ADD DUP7 PUSH2 0x40E7 JUMP JUMPDEST PUSH2 0x5E82 PUSH1 0x40 DUP4 ADD DUP6 PUSH2 0x41EA JUMP JUMPDEST DUP2 DUP2 SUB PUSH1 0x60 DUP4 ADD MSTORE PUSH2 0x5E94 DUP2 DUP5 PUSH2 0x5E1A JUMP JUMPDEST SWAP1 POP SWAP6 SWAP5 POP POP POP POP POP JUMP JUMPDEST PUSH1 0x0 DUP2 MLOAD SWAP1 POP PUSH2 0x5EAE DUP2 PUSH2 0x3DE6 JUMP JUMPDEST SWAP3 SWAP2 POP POP JUMP JUMPDEST PUSH1 0x0 PUSH1 0x20 DUP3 DUP5 SUB SLT ISZERO PUSH2 0x5ECA JUMPI PUSH2 0x5EC9 PUSH2 0x3DB0 JUMP JUMPDEST JUMPDEST PUSH1 0x0 PUSH2 0x5ED8 DUP5 DUP3 DUP6 ADD PUSH2 0x5E9F JUMP JUMPDEST SWAP2 POP POP SWAP3 SWAP2 POP POP JUMP INVALID LOG2 PUSH5 0x6970667358 0x22 SLT KECCAK256 SWAP3 PUSH17 0xF4CD5476300FE77DD37054B90B46B31B12 PUSH11 0x48325E7802022EFA61FFB2 MSTORE PUSH5 0x736F6C6343 STOP ADDMOD SLT STOP CALLER "},"methodIdentifiers":{"airdrop(address[])":"729ad39e","approve(address,uint256)":"095ea7b3","balanceOf(address)":"70a08231","cost()":"13faede6","getAllBTCWalletAddresses(address,uint32)":"0fd4071c","getApproved(uint256)":"081812fc","getBTCWalletAddress()":"a102eb19","getBaseUri()":"0cac36b2","getCommission()":"e65d6b49","getOverviewOfAllOwnersWithTokenAmount(address,uint32)":"0f99bacb","harvested()":"3f60bb5d","isApprovedForAll(address,address)":"e985e9c5","maxPerMint()":"507e094f","maxPerWallet()":"453c2310","mint(uint32)":"a71bbebe","name()":"06fdde03","open()":"fcfff16f","owner()":"8da5cb5b","ownerOf(uint256)":"6352211e","presaleMint(uint32,bytes32[])":"0364d22a","presaleOpen()":"bee6348a","renounceOwnership()":"715018a6","reveal()":"a475b5dd","revealed()":"51830227","safeTransferFrom(address,address,uint256)":"42842e0e","safeTransferFrom(address,address,uint256,bytes)":"b88d4fde","setApprovalForAll(address,bool)":"a22cb465","setBTCWalletAddress(string)":"b3ec6f14","setBaseUri(string)":"a0bcfc7f","setCommission(uint32)":"092501a0","setCost(uint256)":"44a0d68a","setMaxPerMint(uint32)":"f8048d8f","setMaxPerWallet(uint32)":"3006b543","setMultiple(uint256,uint32,uint32,uint32,bool)":"d396639d","setOpen(bool)":"6fdca5e0","setPreSaleAddresses(bytes32)":"9e5666cd","setPresaleOpen(bool)":"f5b96621","setUnrevealedURI(string)":"fe2c7fee","supply()":"047fc9aa","supportsInterface(bytes4)":"01ffc9a7","symbol()":"95d89b41","toggleHarvestStatus()":"856ab401","tokenURI(uint256)":"c87b56dd","totalSupply()":"18160ddd","transferFrom(address,address,uint256)":"23b872dd","transferOwnership(address)":"f2fde38b","walletHoldsTokenAmount(address,address)":"de8aa2b7","walletIsOwnerOfToken(address,address,uint32)":"9f0e94f5","withdraw()":"3ccfd60b"}}}}}