{
  "_format": "hh-sol-artifact-1",
  "contractName": "GenerateNFTOnlinePresaleReveal",
  "sourceName": "contracts/GenerateNFTOnlinePresaleReveal.sol",
  "abi": [
    {
      "inputs": [
        {
          "internalType": "string",
          "name": "_uri",
          "type": "string"
        },
        {
          "internalType": "string",
          "name": "_name",
          "type": "string"
        },
        {
          "internalType": "string",
          "name": "_symbol",
          "type": "string"
        },
        {
          "internalType": "uint32",
          "name": "_totalSupply",
          "type": "uint32"
        },
        {
          "internalType": "uint256",
          "name": "_cost",
          "type": "uint256"
        },
        {
          "internalType": "bool",
          "name": "_open",
          "type": "bool"
        }
      ],
      "stateMutability": "nonpayable",
      "type": "constructor"
    },
    {
      "anonymous": false,
      "inputs": [
        {
          "indexed": true,
          "internalType": "address",
          "name": "owner",
          "type": "address"
        },
        {
          "indexed": true,
          "internalType": "address",
          "name": "approved",
          "type": "address"
        },
        {
          "indexed": true,
          "internalType": "uint256",
          "name": "tokenId",
          "type": "uint256"
        }
      ],
      "name": "Approval",
      "type": "event"
    },
    {
      "anonymous": false,
      "inputs": [
        {
          "indexed": true,
          "internalType": "address",
          "name": "owner",
          "type": "address"
        },
        {
          "indexed": true,
          "internalType": "address",
          "name": "operator",
          "type": "address"
        },
        {
          "indexed": false,
          "internalType": "bool",
          "name": "approved",
          "type": "bool"
        }
      ],
      "name": "ApprovalForAll",
      "type": "event"
    },
    {
      "anonymous": false,
      "inputs": [
        {
          "indexed": true,
          "internalType": "address",
          "name": "previousOwner",
          "type": "address"
        },
        {
          "indexed": true,
          "internalType": "address",
          "name": "newOwner",
          "type": "address"
        }
      ],
      "name": "OwnershipTransferred",
      "type": "event"
    },
    {
      "anonymous": false,
      "inputs": [
        {
          "indexed": true,
          "internalType": "address",
          "name": "from",
          "type": "address"
        },
        {
          "indexed": true,
          "internalType": "address",
          "name": "to",
          "type": "address"
        },
        {
          "indexed": true,
          "internalType": "uint256",
          "name": "tokenId",
          "type": "uint256"
        }
      ],
      "name": "Transfer",
      "type": "event"
    },
    {
      "inputs": [
        {
          "internalType": "address[]",
          "name": "to",
          "type": "address[]"
        }
      ],
      "name": "airdrop",
      "outputs": [],
      "stateMutability": "nonpayable",
      "type": "function"
    },
    {
      "inputs": [
        {
          "internalType": "address",
          "name": "to",
          "type": "address"
        },
        {
          "internalType": "uint256",
          "name": "tokenId",
          "type": "uint256"
        }
      ],
      "name": "approve",
      "outputs": [],
      "stateMutability": "nonpayable",
      "type": "function"
    },
    {
      "inputs": [
        {
          "internalType": "address",
          "name": "owner",
          "type": "address"
        }
      ],
      "name": "balanceOf",
      "outputs": [
        {
          "internalType": "uint256",
          "name": "",
          "type": "uint256"
        }
      ],
      "stateMutability": "view",
      "type": "function"
    },
    {
      "inputs": [],
      "name": "cost",
      "outputs": [
        {
          "internalType": "uint256",
          "name": "",
          "type": "uint256"
        }
      ],
      "stateMutability": "view",
      "type": "function"
    },
    {
      "inputs": [
        {
          "internalType": "address",
          "name": "_contract",
          "type": "address"
        },
        {
          "internalType": "uint32",
          "name": "_maxTokenID",
          "type": "uint32"
        }
      ],
      "name": "getAllBTCWalletAddresses",
      "outputs": [
        {
          "internalType": "string",
          "name": "",
          "type": "string"
        }
      ],
      "stateMutability": "view",
      "type": "function"
    },
    {
      "inputs": [
        {
          "internalType": "uint256",
          "name": "tokenId",
          "type": "uint256"
        }
      ],
      "name": "getApproved",
      "outputs": [
        {
          "internalType": "address",
          "name": "",
          "type": "address"
        }
      ],
      "stateMutability": "view",
      "type": "function"
    },
    {
      "inputs": [],
      "name": "getBTCWalletAddress",
      "outputs": [
        {
          "internalType": "string",
          "name": "",
          "type": "string"
        }
      ],
      "stateMutability": "view",
      "type": "function"
    },
    {
      "inputs": [],
      "name": "getBaseUri",
      "outputs": [
        {
          "internalType": "string",
          "name": "",
          "type": "string"
        }
      ],
      "stateMutability": "view",
      "type": "function"
    },
    {
      "inputs": [],
      "name": "getCommission",
      "outputs": [
        {
          "internalType": "uint32",
          "name": "",
          "type": "uint32"
        }
      ],
      "stateMutability": "view",
      "type": "function"
    },
    {
      "inputs": [
        {
          "internalType": "address",
          "name": "_contract",
          "type": "address"
        },
        {
          "internalType": "uint32",
          "name": "_maxTokenID",
          "type": "uint32"
        }
      ],
      "name": "getOverviewOfAllOwnersWithTokenAmount",
      "outputs": [
        {
          "internalType": "string",
          "name": "",
          "type": "string"
        }
      ],
      "stateMutability": "view",
      "type": "function"
    },
    {
      "inputs": [],
      "name": "harvested",
      "outputs": [
        {
          "internalType": "bool",
          "name": "",
          "type": "bool"
        }
      ],
      "stateMutability": "view",
      "type": "function"
    },
    {
      "inputs": [
        {
          "internalType": "address",
          "name": "owner",
          "type": "address"
        },
        {
          "internalType": "address",
          "name": "operator",
          "type": "address"
        }
      ],
      "name": "isApprovedForAll",
      "outputs": [
        {
          "internalType": "bool",
          "name": "",
          "type": "bool"
        }
      ],
      "stateMutability": "view",
      "type": "function"
    },
    {
      "inputs": [],
      "name": "maxPerMint",
      "outputs": [
        {
          "internalType": "uint32",
          "name": "",
          "type": "uint32"
        }
      ],
      "stateMutability": "view",
      "type": "function"
    },
    {
      "inputs": [],
      "name": "maxPerWallet",
      "outputs": [
        {
          "internalType": "uint32",
          "name": "",
          "type": "uint32"
        }
      ],
      "stateMutability": "view",
      "type": "function"
    },
    {
      "inputs": [
        {
          "internalType": "uint32",
          "name": "count",
          "type": "uint32"
        }
      ],
      "name": "mint",
      "outputs": [],
      "stateMutability": "payable",
      "type": "function"
    },
    {
      "inputs": [],
      "name": "name",
      "outputs": [
        {
          "internalType": "string",
          "name": "",
          "type": "string"
        }
      ],
      "stateMutability": "view",
      "type": "function"
    },
    {
      "inputs": [],
      "name": "open",
      "outputs": [
        {
          "internalType": "bool",
          "name": "",
          "type": "bool"
        }
      ],
      "stateMutability": "view",
      "type": "function"
    },
    {
      "inputs": [],
      "name": "owner",
      "outputs": [
        {
          "internalType": "address",
          "name": "",
          "type": "address"
        }
      ],
      "stateMutability": "view",
      "type": "function"
    },
    {
      "inputs": [
        {
          "internalType": "uint256",
          "name": "tokenId",
          "type": "uint256"
        }
      ],
      "name": "ownerOf",
      "outputs": [
        {
          "internalType": "address",
          "name": "",
          "type": "address"
        }
      ],
      "stateMutability": "view",
      "type": "function"
    },
    {
      "inputs": [
        {
          "internalType": "uint32",
          "name": "count",
          "type": "uint32"
        },
        {
          "internalType": "bytes32[]",
          "name": "proof",
          "type": "bytes32[]"
        }
      ],
      "name": "presaleMint",
      "outputs": [],
      "stateMutability": "payable",
      "type": "function"
    },
    {
      "inputs": [],
      "name": "presaleOpen",
      "outputs": [
        {
          "internalType": "bool",
          "name": "",
          "type": "bool"
        }
      ],
      "stateMutability": "view",
      "type": "function"
    },
    {
      "inputs": [],
      "name": "renounceOwnership",
      "outputs": [],
      "stateMutability": "nonpayable",
      "type": "function"
    },
    {
      "inputs": [],
      "name": "reveal",
      "outputs": [],
      "stateMutability": "nonpayable",
      "type": "function"
    },
    {
      "inputs": [],
      "name": "revealed",
      "outputs": [
        {
          "internalType": "bool",
          "name": "",
          "type": "bool"
        }
      ],
      "stateMutability": "view",
      "type": "function"
    },
    {
      "inputs": [
        {
          "internalType": "address",
          "name": "from",
          "type": "address"
        },
        {
          "internalType": "address",
          "name": "to",
          "type": "address"
        },
        {
          "internalType": "uint256",
          "name": "tokenId",
          "type": "uint256"
        }
      ],
      "name": "safeTransferFrom",
      "outputs": [],
      "stateMutability": "nonpayable",
      "type": "function"
    },
    {
      "inputs": [
        {
          "internalType": "address",
          "name": "from",
          "type": "address"
        },
        {
          "internalType": "address",
          "name": "to",
          "type": "address"
        },
        {
          "internalType": "uint256",
          "name": "tokenId",
          "type": "uint256"
        },
        {
          "internalType": "bytes",
          "name": "_data",
          "type": "bytes"
        }
      ],
      "name": "safeTransferFrom",
      "outputs": [],
      "stateMutability": "nonpayable",
      "type": "function"
    },
    {
      "inputs": [
        {
          "internalType": "address",
          "name": "operator",
          "type": "address"
        },
        {
          "internalType": "bool",
          "name": "approved",
          "type": "bool"
        }
      ],
      "name": "setApprovalForAll",
      "outputs": [],
      "stateMutability": "nonpayable",
      "type": "function"
    },
    {
      "inputs": [
        {
          "internalType": "string",
          "name": "_addressBTC",
          "type": "string"
        }
      ],
      "name": "setBTCWalletAddress",
      "outputs": [],
      "stateMutability": "nonpayable",
      "type": "function"
    },
    {
      "inputs": [
        {
          "internalType": "string",
          "name": "_baseUri",
          "type": "string"
        }
      ],
      "name": "setBaseUri",
      "outputs": [],
      "stateMutability": "nonpayable",
      "type": "function"
    },
    {
      "inputs": [
        {
          "internalType": "uint32",
          "name": "_commission",
          "type": "uint32"
        }
      ],
      "name": "setCommission",
      "outputs": [],
      "stateMutability": "nonpayable",
      "type": "function"
    },
    {
      "inputs": [
        {
          "internalType": "uint256",
          "name": "_cost",
          "type": "uint256"
        }
      ],
      "name": "setCost",
      "outputs": [],
      "stateMutability": "nonpayable",
      "type": "function"
    },
    {
      "inputs": [
        {
          "internalType": "uint32",
          "name": "_max",
          "type": "uint32"
        }
      ],
      "name": "setMaxPerMint",
      "outputs": [],
      "stateMutability": "nonpayable",
      "type": "function"
    },
    {
      "inputs": [
        {
          "internalType": "uint32",
          "name": "_max",
          "type": "uint32"
        }
      ],
      "name": "setMaxPerWallet",
      "outputs": [],
      "stateMutability": "nonpayable",
      "type": "function"
    },
    {
      "inputs": [
        {
          "internalType": "uint256",
          "name": "_cost",
          "type": "uint256"
        },
        {
          "internalType": "uint32",
          "name": "_maxPerWallet",
          "type": "uint32"
        },
        {
          "internalType": "uint32",
          "name": "_maxPerMint",
          "type": "uint32"
        },
        {
          "internalType": "uint32",
          "name": "_commission",
          "type": "uint32"
        },
        {
          "internalType": "bool",
          "name": "_open",
          "type": "bool"
        }
      ],
      "name": "setMultiple",
      "outputs": [],
      "stateMutability": "nonpayable",
      "type": "function"
    },
    {
      "inputs": [
        {
          "internalType": "bool",
          "name": "_open",
          "type": "bool"
        }
      ],
      "name": "setOpen",
      "outputs": [],
      "stateMutability": "nonpayable",
      "type": "function"
    },
    {
      "inputs": [
        {
          "internalType": "bytes32",
          "name": "root",
          "type": "bytes32"
        }
      ],
      "name": "setPreSaleAddresses",
      "outputs": [],
      "stateMutability": "nonpayable",
      "type": "function"
    },
    {
      "inputs": [
        {
          "internalType": "bool",
          "name": "_open",
          "type": "bool"
        }
      ],
      "name": "setPresaleOpen",
      "outputs": [],
      "stateMutability": "nonpayable",
      "type": "function"
    },
    {
      "inputs": [
        {
          "internalType": "string",
          "name": "_uri",
          "type": "string"
        }
      ],
      "name": "setUnrevealedURI",
      "outputs": [],
      "stateMutability": "nonpayable",
      "type": "function"
    },
    {
      "inputs": [],
      "name": "supply",
      "outputs": [
        {
          "internalType": "uint32",
          "name": "",
          "type": "uint32"
        }
      ],
      "stateMutability": "view",
      "type": "function"
    },
    {
      "inputs": [
        {
          "internalType": "bytes4",
          "name": "interfaceId",
          "type": "bytes4"
        }
      ],
      "name": "supportsInterface",
      "outputs": [
        {
          "internalType": "bool",
          "name": "",
          "type": "bool"
        }
      ],
      "stateMutability": "view",
      "type": "function"
    },
    {
      "inputs": [],
      "name": "symbol",
      "outputs": [
        {
          "internalType": "string",
          "name": "",
          "type": "string"
        }
      ],
      "stateMutability": "view",
      "type": "function"
    },
    {
      "inputs": [],
      "name": "toggleHarvestStatus",
      "outputs": [],
      "stateMutability": "nonpayable",
      "type": "function"
    },
    {
      "inputs": [
        {
          "internalType": "uint256",
          "name": "_tokenId",
          "type": "uint256"
        }
      ],
      "name": "tokenURI",
      "outputs": [
        {
          "internalType": "string",
          "name": "",
          "type": "string"
        }
      ],
      "stateMutability": "view",
      "type": "function"
    },
    {
      "inputs": [],
      "name": "totalSupply",
      "outputs": [
        {
          "internalType": "uint32",
          "name": "",
          "type": "uint32"
        }
      ],
      "stateMutability": "view",
      "type": "function"
    },
    {
      "inputs": [
        {
          "internalType": "address",
          "name": "from",
          "type": "address"
        },
        {
          "internalType": "address",
          "name": "to",
          "type": "address"
        },
        {
          "internalType": "uint256",
          "name": "tokenId",
          "type": "uint256"
        }
      ],
      "name": "transferFrom",
      "outputs": [],
      "stateMutability": "nonpayable",
      "type": "function"
    },
    {
      "inputs": [
        {
          "internalType": "address",
          "name": "newOwner",
          "type": "address"
        }
      ],
      "name": "transferOwnership",
      "outputs": [],
      "stateMutability": "nonpayable",
      "type": "function"
    },
    {
      "inputs": [
        {
          "internalType": "address",
          "name": "_wallet",
          "type": "address"
        },
        {
          "internalType": "address",
          "name": "_contract",
          "type": "address"
        }
      ],
      "name": "walletHoldsTokenAmount",
      "outputs": [
        {
          "internalType": "uint256",
          "name": "",
          "type": "uint256"
        }
      ],
      "stateMutability": "view",
      "type": "function"
    },
    {
      "inputs": [
        {
          "internalType": "address",
          "name": "_wallet",
          "type": "address"
        },
        {
          "internalType": "address",
          "name": "_contract",
          "type": "address"
        },
        {
          "internalType": "uint32",
          "name": "_maxTokenID",
          "type": "uint32"
        }
      ],
      "name": "walletIsOwnerOfToken",
      "outputs": [
        {
          "internalType": "string",
          "name": "",
          "type": "string"
        }
      ],
      "stateMutability": "view",
      "type": "function"
    },
    {
      "inputs": [],
      "name": "withdraw",
      "outputs": [],
      "stateMutability": "payable",
      "type": "function"
    }
  ],
  "bytecode": "0x6080604052670429d069189e00006008556005600960006101000a81548163ffffffff021916908363ffffffff1602179055506014600960046101000a81548163ffffffff021916908363ffffffff1602179055506000600960086101000a81548163ffffffff021916908363ffffffff16021790555060006009600c6101000a81548163ffffffff021916908363ffffffff1602179055506000600960106101000a81548160ff0219169083151502179055506000600c60006101000a81548160ff0219169083151502179055506032600c60016101000a81548163ffffffff021916908363ffffffff16021790555073268e1fee56498cc24758864aa092f870e8220f74600c60056101000a81548173ffffffffffffffffffffffffffffffffffffffff021916908373ffffffffffffffffffffffffffffffffffffffff1602179055506000600c60196101000a81548160ff0219169083151502179055506000600e60006101000a81548160ff0219169083151502179055503480156200018857600080fd5b50604051620068c4380380620068c48339818101604052810190620001ae91906200057c565b85858585858584848160009081620001c79190620008b6565b508060019081620001d99190620008b6565b505050620001fc620001f06200026260201b60201c565b6200026a60201b60201c565b85600790816200020d9190620008b6565b50826009600c6101000a81548163ffffffff021916908363ffffffff1602179055508160088190555080600960106101000a81548160ff0219169083151502179055505050505050505050505050506200099d565b600033905090565b6000600660009054906101000a900473ffffffffffffffffffffffffffffffffffffffff16905081600660006101000a81548173ffffffffffffffffffffffffffffffffffffffff021916908373ffffffffffffffffffffffffffffffffffffffff1602179055508173ffffffffffffffffffffffffffffffffffffffff168173ffffffffffffffffffffffffffffffffffffffff167f8be0079c531659141344cd1fd0a4f28419497f9722a3daafe3b4186f6b6457e060405160405180910390a35050565b6000604051905090565b600080fd5b600080fd5b600080fd5b600080fd5b6000601f19601f8301169050919050565b7f4e487b7100000000000000000000000000000000000000000000000000000000600052604160045260246000fd5b62000399826200034e565b810181811067ffffffffffffffff82111715620003bb57620003ba6200035f565b5b80604052505050565b6000620003d062000330565b9050620003de82826200038e565b919050565b600067ffffffffffffffff8211156200040157620004006200035f565b5b6200040c826200034e565b9050602081019050919050565b60005b83811015620004395780820151818401526020810190506200041c565b60008484015250505050565b60006200045c6200045684620003e3565b620003c4565b9050828152602081018484840111156200047b576200047a62000349565b5b6200048884828562000419565b509392505050565b600082601f830112620004a857620004a762000344565b5b8151620004ba84826020860162000445565b91505092915050565b600063ffffffff82169050919050565b620004de81620004c3565b8114620004ea57600080fd5b50565b600081519050620004fe81620004d3565b92915050565b6000819050919050565b620005198162000504565b81146200052557600080fd5b50565b60008151905062000539816200050e565b92915050565b60008115159050919050565b62000556816200053f565b81146200056257600080fd5b50565b60008151905062000576816200054b565b92915050565b60008060008060008060c087890312156200059c576200059b6200033a565b5b600087015167ffffffffffffffff811115620005bd57620005bc6200033f565b5b620005cb89828a0162000490565b965050602087015167ffffffffffffffff811115620005ef57620005ee6200033f565b5b620005fd89828a0162000490565b955050604087015167ffffffffffffffff8111156200062157620006206200033f565b5b6200062f89828a0162000490565b94505060606200064289828a01620004ed565b93505060806200065589828a0162000528565b92505060a06200066889828a0162000565565b9150509295509295509295565b600081519050919050565b7f4e487b7100000000000000000000000000000000000000000000000000000000600052602260045260246000fd5b60006002820490506001821680620006c857607f821691505b602082108103620006de57620006dd62000680565b5b50919050565b60008190508160005260206000209050919050565b60006020601f8301049050919050565b600082821b905092915050565b600060088302620007487fffffffffffffffffffffffffffffffffffffffffffffffffffffffffffffffff8262000709565b62000754868362000709565b95508019841693508086168417925050509392505050565b6000819050919050565b600062000797620007916200078b8462000504565b6200076c565b62000504565b9050919050565b6000819050919050565b620007b38362000776565b620007cb620007c2826200079e565b84845462000716565b825550505050565b600090565b620007e2620007d3565b620007ef818484620007a8565b505050565b5b8181101562000817576200080b600082620007d8565b600181019050620007f5565b5050565b601f82111562000866576200083081620006e4565b6200083b84620006f9565b810160208510156200084b578190505b620008636200085a85620006f9565b830182620007f4565b50505b505050565b600082821c905092915050565b60006200088b600019846008026200086b565b1980831691505092915050565b6000620008a6838362000878565b9150826002028217905092915050565b620008c18262000675565b67ffffffffffffffff811115620008dd57620008dc6200035f565b5b620008e98254620006af565b620008f68282856200081b565b600060209050601f8311600181146200092e576000841562000919578287015190505b62000925858262000898565b86555062000995565b601f1984166200093e86620006e4565b60005b82811015620009685784890151825560018201915060208501945060208101905062000941565b8683101562000988578489015162000984601f89168262000878565b8355505b6001600288020188555050505b505050505050565b615f1780620009ad6000396000f3fe6080604052600436106102ae5760003560e01c8063715018a611610175578063b3ec6f14116100dc578063e65d6b4911610095578063f5b966211161006f578063f5b9662114610a5d578063f8048d8f14610a86578063fcfff16f14610aaf578063fe2c7fee14610ada576102ae565b8063e65d6b49146109cc578063e985e9c5146109f7578063f2fde38b14610a34576102ae565b8063b3ec6f14146108ac578063b88d4fde146108d5578063bee6348a146108fe578063c87b56dd14610929578063d396639d14610966578063de8aa2b71461098f576102ae565b80639f0e94f51161012e5780639f0e94f5146107bf578063a0bcfc7f146107fc578063a102eb1914610825578063a22cb46514610850578063a475b5dd14610879578063a71bbebe14610890576102ae565b8063715018a6146106e9578063729ad39e14610700578063856ab401146107295780638da5cb5b1461074057806395d89b411461076b5780639e5666cd14610796576102ae565b806323b872dd11610219578063453c2310116101d2578063453c2310146105c5578063507e094f146105f0578063518302271461061b5780636352211e146106465780636fdca5e01461068357806370a08231146106ac576102ae565b806323b872dd146104ec5780633006b543146105155780633ccfd60b1461053e5780633f60bb5d1461054857806342842e0e1461057357806344a0d68a1461059c576102ae565b8063095ea7b31161026b578063095ea7b3146103c85780630cac36b2146103f15780630f99bacb1461041c5780630fd4071c1461045957806313faede61461049657806318160ddd146104c1576102ae565b806301ffc9a7146102b35780630364d22a146102f0578063047fc9aa1461030c57806306fdde0314610337578063081812fc14610362578063092501a01461039f575b600080fd5b3480156102bf57600080fd5b506102da60048036038101906102d59190613e12565b610b03565b6040516102e79190613e5a565b60405180910390f35b61030a60048036038101906103059190613f16565b610be5565b005b34801561031857600080fd5b50610321610f7b565b60405161032e9190613f85565b60405180910390f35b34801561034357600080fd5b5061034c610f91565b6040516103599190614030565b60405180910390f35b34801561036e57600080fd5b5061038960048036038101906103849190614088565b611023565b60405161039691906140f6565b60405180910390f35b3480156103ab57600080fd5b506103c660048036038101906103c19190614111565b6110a8565b005b3480156103d457600080fd5b506103ef60048036038101906103ea919061416a565b61116e565b005b3480156103fd57600080fd5b50610406611285565b6040516104139190614030565b60405180910390f35b34801561042857600080fd5b50610443600480360381019061043e91906141aa565b611317565b6040516104509190614030565b60405180910390f35b34801561046557600080fd5b50610480600480360381019061047b91906141aa565b61142e565b60405161048d9190614030565b60405180910390f35b3480156104a257600080fd5b506104ab611614565b6040516104b891906141f9565b60405180910390f35b3480156104cd57600080fd5b506104d661161a565b6040516104e39190613f85565b60405180910390f35b3480156104f857600080fd5b50610513600480360381019061050e9190614214565b611630565b005b34801561052157600080fd5b5061053c60048036038101906105379190614111565b611690565b005b610546611756565b005b34801561055457600080fd5b5061055d61184b565b60405161056a9190613e5a565b60405180910390f35b34801561057f57600080fd5b5061059a60048036038101906105959190614214565b61185e565b005b3480156105a857600080fd5b506105c360048036038101906105be9190614088565b61187e565b005b3480156105d157600080fd5b506105da61190e565b6040516105e79190613f85565b60405180910390f35b3480156105fc57600080fd5b50610605611924565b6040516106129190613f85565b60405180910390f35b34801561062757600080fd5b5061063061193a565b60405161063d9190613e5a565b60405180910390f35b34801561065257600080fd5b5061066d60048036038101906106689190614088565b61194d565b60405161067a91906140f6565b60405180910390f35b34801561068f57600080fd5b506106aa60048036038101906106a59190614293565b6119fe565b005b3480156106b857600080fd5b506106d360048036038101906106ce91906142c0565b611ab2565b6040516106e091906141f9565b60405180910390f35b3480156106f557600080fd5b506106fe611b69565b005b34801561070c57600080fd5b5061072760048036038101906107229190614343565b611bf1565b005b34801561073557600080fd5b5061073e611d9f565b005b34801561074c57600080fd5b50610755611e47565b60405161076291906140f6565b60405180910390f35b34801561077757600080fd5b50610780611e71565b60405161078d9190614030565b60405180910390f35b3480156107a257600080fd5b506107bd60048036038101906107b891906143c6565b611f03565b005b3480156107cb57600080fd5b506107e660048036038101906107e191906143f3565b611f89565b6040516107f39190614030565b60405180910390f35b34801561080857600080fd5b50610823600480360381019061081e9190614576565b6120b7565b005b34801561083157600080fd5b5061083a612146565b6040516108479190614030565b60405180910390f35b34801561085c57600080fd5b50610877600480360381019061087291906145bf565b612215565b005b34801561088557600080fd5b5061088e61222b565b005b6108aa60048036038101906108a59190614111565b6122d3565b005b3480156108b857600080fd5b506108d360048036038101906108ce9190614576565b612576565b005b3480156108e157600080fd5b506108fc60048036038101906108f791906146a0565b6125c6565b005b34801561090a57600080fd5b50610913612628565b6040516109209190613e5a565b60405180910390f35b34801561093557600080fd5b50610950600480360381019061094b9190614088565b61263b565b60405161095d9190614030565b60405180910390f35b34801561097257600080fd5b5061098d60048036038101906109889190614723565b612718565b005b34801561099b57600080fd5b506109b660048036038101906109b1919061479e565b6127c8565b6040516109c391906141f9565b60405180910390f35b3480156109d857600080fd5b506109e161284c565b6040516109ee9190613f85565b60405180910390f35b348015610a0357600080fd5b50610a1e6004803603810190610a19919061479e565b6128e2565b604051610a2b9190613e5a565b60405180910390f35b348015610a4057600080fd5b50610a5b6004803603810190610a5691906142c0565b612976565b005b348015610a6957600080fd5b50610a846004803603810190610a7f9190614293565b612a6d565b005b348015610a9257600080fd5b50610aad6004803603810190610aa89190614111565b612b06565b005b348015610abb57600080fd5b50610ac4612bcc565b604051610ad19190613e5a565b60405180910390f35b348015610ae657600080fd5b50610b016004803603810190610afc9190614576565b612bdf565b005b60007f80ac58cd000000000000000000000000000000000000000000000000000000007bffffffffffffffffffffffffffffffffffffffffffffffffffffffff1916827bffffffffffffffffffffffffffffffffffffffffffffffffffffffff19161480610bce57507f5b5e139f000000000000000000000000000000000000000000000000000000007bffffffffffffffffffffffffffffffffffffffffffffffffffffffff1916827bffffffffffffffffffffffffffffffffffffffffffffffffffffffff1916145b80610bde5750610bdd82612c6e565b5b9050919050565b8260008163ffffffff1611610c2f576040517f08c379a0000000000000000000000000000000000000000000000000000000008152600401610c269061482a565b60405180910390fd5b6001600960009054906101000a900463ffffffff16610c4e9190614879565b63ffffffff168163ffffffff1610610c9b576040517f08c379a0000000000000000000000000000000000000000000000000000000008152600401610c92906148fd565b60405180910390fd5b8063ffffffff16600854610caf919061491d565b341015610cf1576040517f08c379a0000000000000000000000000000000000000000000000000000000008152600401610ce8906149ab565b60405180910390fd5b60016009600c9054906101000a900463ffffffff16610d109190614879565b63ffffffff1681600960089054906101000a900463ffffffff16610d349190614879565b63ffffffff1610610d7a576040517f08c379a0000000000000000000000000000000000000000000000000000000008152600401610d7190614a17565b60405180910390fd5b600960049054906101000a900463ffffffff1663ffffffff168163ffffffff16600a60003373ffffffffffffffffffffffffffffffffffffffff1673ffffffffffffffffffffffffffffffffffffffff16815260200190815260200160002054610de49190614a37565b1115610e25576040517f08c379a0000000000000000000000000000000000000000000000000000000008152600401610e1c90614ab7565b60405180910390fd5b600e60009054906101000a900460ff16610e74576040517f08c379a0000000000000000000000000000000000000000000000000000000008152600401610e6b90614b23565b60405180910390fd5b6000600f5403610eb9576040517f08c379a0000000000000000000000000000000000000000000000000000000008152600401610eb090614b8f565b60405180910390fd5b610f2d838380806020026020016040519081016040528093929190818152602001838360200280828437600081840152601f19601f82011690508083019250505050505050600f5433604051602001610f129190614bf7565b60405160208183030381529060405280519060200120612cd8565b610f6c576040517f08c379a0000000000000000000000000000000000000000000000000000000008152600401610f6390614c5e565b60405180910390fd5b610f7584612cef565b50505050565b600960089054906101000a900463ffffffff1681565b606060008054610fa090614cad565b80601f0160208091040260200160405190810160405280929190818152602001828054610fcc90614cad565b80156110195780601f10610fee57610100808354040283529160200191611019565b820191906000526020600020905b815481529060010190602001808311610ffc57829003601f168201915b5050505050905090565b600061102e82612e9c565b61106d576040517f08c379a000000000000000000000000000000000000000000000000000000000815260040161106490614d50565b60405180910390fd5b6004600083815260200190815260200160002060009054906101000a900473ffffffffffffffffffffffffffffffffffffffff169050919050565b6110b0612f08565b73ffffffffffffffffffffffffffffffffffffffff166110ce611e47565b73ffffffffffffffffffffffffffffffffffffffff1614611124576040517f08c379a000000000000000000000000000000000000000000000000000000000815260040161111b90614dbc565b60405180910390fd5b8063ffffffff16600c60019054906101000a900463ffffffff1663ffffffff161461116b5780600c60016101000a81548163ffffffff021916908363ffffffff1602179055505b50565b60006111798261194d565b90508073ffffffffffffffffffffffffffffffffffffffff168373ffffffffffffffffffffffffffffffffffffffff16036111e9576040517f08c379a00000000000000000000000000000000000000000000000000000000081526004016111e090614e4e565b60405180910390fd5b8073ffffffffffffffffffffffffffffffffffffffff16611208612f08565b73ffffffffffffffffffffffffffffffffffffffff161480611237575061123681611231612f08565b6128e2565b5b611276576040517f08c379a000000000000000000000000000000000000000000000000000000000815260040161126d90614ee0565b60405180910390fd5b6112808383612f10565b505050565b60606007805461129490614cad565b80601f01602080910402602001604051908101604052809291908181526020018280546112c090614cad565b801561130d5780601f106112e25761010080835404028352916020019161130d565b820191906000526020600020905b8154815290600101906020018083116112f057829003601f168201915b5050505050905090565b606060006040518060200160405280600081525090506000600190505b8363ffffffff168163ffffffff16116114235760008573ffffffffffffffffffffffffffffffffffffffff16636352211e836040518263ffffffff1660e01b81526004016113829190614f3b565b602060405180830381865afa15801561139f573d6000803e3d6000fd5b505050506040513d601f19601f820116820180604052508101906113c39190614f6b565b905060006113e88273ffffffffffffffffffffffffffffffffffffffff166014612fc9565b905083816040516020016113fd929190614ffa565b60405160208183030381529060405293505050808061141b9061502d565b915050611334565b508091505092915050565b606060006040518060200160405280600081525090506000600190505b8363ffffffff168163ffffffff16116116095760008573ffffffffffffffffffffffffffffffffffffffff16636352211e836040518263ffffffff1660e01b81526004016114999190614f3b565b602060405180830381865afa1580156114b6573d6000803e3d6000fd5b505050506040513d601f19601f820116820180604052508101906114da9190614f6b565b905060006114ff8273ffffffffffffffffffffffffffffffffffffffff166014612fc9565b90506000600b60008473ffffffffffffffffffffffffffffffffffffffff1673ffffffffffffffffffffffffffffffffffffffff168152602001908152602001600020805461154d90614cad565b80601f016020809104026020016040519081016040528092919081815260200182805461157990614cad565b80156115c65780601f1061159b576101008083540402835291602001916115c6565b820191906000526020600020905b8154815290600101906020018083116115a957829003601f168201915b505050505090508482826040516020016115e29392919061507f565b604051602081830303815290604052945050505080806116019061502d565b91505061144b565b508091505092915050565b60085481565b6009600c9054906101000a900463ffffffff1681565b61164161163b612f08565b82613205565b611680576040517f08c379a000000000000000000000000000000000000000000000000000000000815260040161167790615140565b60405180910390fd5b61168b8383836132e3565b505050565b611698612f08565b73ffffffffffffffffffffffffffffffffffffffff166116b6611e47565b73ffffffffffffffffffffffffffffffffffffffff161461170c576040517f08c379a000000000000000000000000000000000000000000000000000000000815260040161170390614dbc565b60405180910390fd5b8063ffffffff16600960049054906101000a900463ffffffff1663ffffffff16146117535780600960046101000a81548163ffffffff021916908363ffffffff1602179055505b50565b61175e612f08565b73ffffffffffffffffffffffffffffffffffffffff1661177c611e47565b73ffffffffffffffffffffffffffffffffffffffff16146117d2576040517f08c379a00000000000000000000000000000000000000000000000000000000081526004016117c990614dbc565b60405180910390fd5b60003373ffffffffffffffffffffffffffffffffffffffff16476040516117f890615191565b60006040518083038185875af1925050503d8060008114611835576040519150601f19603f3d011682016040523d82523d6000602084013e61183a565b606091505b505090508061184857600080fd5b50565b600c60009054906101000a900460ff1681565b611879838383604051806020016040528060008152506125c6565b505050565b611886612f08565b73ffffffffffffffffffffffffffffffffffffffff166118a4611e47565b73ffffffffffffffffffffffffffffffffffffffff16146118fa576040517f08c379a00000000000000000000000000000000000000000000000000000000081526004016118f190614dbc565b60405180910390fd5b806008541461190b57806008819055505b50565b600960049054906101000a900463ffffffff1681565b600960009054906101000a900463ffffffff1681565b600c60199054906101000a900460ff1681565b6000806002600084815260200190815260200160002060009054906101000a900473ffffffffffffffffffffffffffffffffffffffff169050600073ffffffffffffffffffffffffffffffffffffffff168173ffffffffffffffffffffffffffffffffffffffff16036119f5576040517f08c379a00000000000000000000000000000000000000000000000000000000081526004016119ec90615218565b60405180910390fd5b80915050919050565b611a06612f08565b73ffffffffffffffffffffffffffffffffffffffff16611a24611e47565b73ffffffffffffffffffffffffffffffffffffffff1614611a7a576040517f08c379a0000000000000000000000000000000000000000000000000000000008152600401611a7190614dbc565b60405180910390fd5b801515600960109054906101000a900460ff16151514611aaf5780600960106101000a81548160ff0219169083151502179055505b50565b60008073ffffffffffffffffffffffffffffffffffffffff168273ffffffffffffffffffffffffffffffffffffffff1603611b22576040517f08c379a0000000000000000000000000000000000000000000000000000000008152600401611b19906152aa565b60405180910390fd5b600360008373ffffffffffffffffffffffffffffffffffffffff1673ffffffffffffffffffffffffffffffffffffffff168152602001908152602001600020549050919050565b611b71612f08565b73ffffffffffffffffffffffffffffffffffffffff16611b8f611e47565b73ffffffffffffffffffffffffffffffffffffffff1614611be5576040517f08c379a0000000000000000000000000000000000000000000000000000000008152600401611bdc90614dbc565b60405180910390fd5b611bef600061353e565b565b611bf9612f08565b73ffffffffffffffffffffffffffffffffffffffff16611c17611e47565b73ffffffffffffffffffffffffffffffffffffffff1614611c6d576040517f08c379a0000000000000000000000000000000000000000000000000000000008152600401611c6490614dbc565b60405180910390fd5b60005b828290508163ffffffff161015611d9a576009600c9054906101000a900463ffffffff1663ffffffff16600960089054906101000a900463ffffffff166001611cb99190614879565b63ffffffff161115611d00576040517f08c379a0000000000000000000000000000000000000000000000000000000008152600401611cf790615316565b60405180910390fd5b611d8783838363ffffffff16818110611d1c57611d1b615336565b5b9050602002016020810190611d3191906142c0565b6009600881819054906101000a900463ffffffff16611d4f9061502d565b91906101000a81548163ffffffff021916908363ffffffff160217905563ffffffff1660405180602001604052806000815250613604565b8080611d929061502d565b915050611c70565b505050565b611da7612f08565b73ffffffffffffffffffffffffffffffffffffffff16611dc5611e47565b73ffffffffffffffffffffffffffffffffffffffff1614611e1b576040517f08c379a0000000000000000000000000000000000000000000000000000000008152600401611e1290614dbc565b60405180910390fd5b600c60009054906101000a900460ff1615600c60006101000a81548160ff021916908315150217905550565b6000600660009054906101000a900473ffffffffffffffffffffffffffffffffffffffff16905090565b606060018054611e8090614cad565b80601f0160208091040260200160405190810160405280929190818152602001828054611eac90614cad565b8015611ef95780601f10611ece57610100808354040283529160200191611ef9565b820191906000526020600020905b815481529060010190602001808311611edc57829003601f168201915b5050505050905090565b611f0b612f08565b73ffffffffffffffffffffffffffffffffffffffff16611f29611e47565b73ffffffffffffffffffffffffffffffffffffffff1614611f7f576040517f08c379a0000000000000000000000000000000000000000000000000000000008152600401611f7690614dbc565b60405180910390fd5b80600f8190555050565b606060006040518060200160405280600081525090506000600190505b8363ffffffff168163ffffffff16116120ab578573ffffffffffffffffffffffffffffffffffffffff168573ffffffffffffffffffffffffffffffffffffffff16636352211e836040518263ffffffff1660e01b81526004016120099190614f3b565b602060405180830381865afa158015612026573d6000803e3d6000fd5b505050506040513d601f19601f8201168201806040525081019061204a9190614f6b565b73ffffffffffffffffffffffffffffffffffffffff160361209857816120758263ffffffff1661365f565b604051602001612086929190614ffa565b60405160208183030381529060405291505b80806120a39061502d565b915050611fa6565b50809150509392505050565b6120bf612f08565b73ffffffffffffffffffffffffffffffffffffffff166120dd611e47565b73ffffffffffffffffffffffffffffffffffffffff1614612133576040517f08c379a000000000000000000000000000000000000000000000000000000000815260040161212a90614dbc565b60405180910390fd5b80600790816121429190615507565b5050565b6060600b60003373ffffffffffffffffffffffffffffffffffffffff1673ffffffffffffffffffffffffffffffffffffffff168152602001908152602001600020805461219290614cad565b80601f01602080910402602001604051908101604052809291908181526020018280546121be90614cad565b801561220b5780601f106121e05761010080835404028352916020019161220b565b820191906000526020600020905b8154815290600101906020018083116121ee57829003601f168201915b5050505050905090565b612227612220612f08565b83836137bf565b5050565b612233612f08565b73ffffffffffffffffffffffffffffffffffffffff16612251611e47565b73ffffffffffffffffffffffffffffffffffffffff16146122a7576040517f08c379a000000000000000000000000000000000000000000000000000000000815260040161229e90614dbc565b60405180910390fd5b600c60199054906101000a900460ff1615600c60196101000a81548160ff021916908315150217905550565b8060008163ffffffff161161231d576040517f08c379a00000000000000000000000000000000000000000000000000000000081526004016123149061482a565b60405180910390fd5b6001600960009054906101000a900463ffffffff1661233c9190614879565b63ffffffff168163ffffffff1610612389576040517f08c379a0000000000000000000000000000000000000000000000000000000008152600401612380906148fd565b60405180910390fd5b8063ffffffff1660085461239d919061491d565b3410156123df576040517f08c379a00000000000000000000000000000000000000000000000000000000081526004016123d6906149ab565b60405180910390fd5b60016009600c9054906101000a900463ffffffff166123fe9190614879565b63ffffffff1681600960089054906101000a900463ffffffff166124229190614879565b63ffffffff1610612468576040517f08c379a000000000000000000000000000000000000000000000000000000000815260040161245f90614a17565b60405180910390fd5b600960049054906101000a900463ffffffff1663ffffffff168163ffffffff16600a60003373ffffffffffffffffffffffffffffffffffffffff1673ffffffffffffffffffffffffffffffffffffffff168152602001908152602001600020546124d29190614a37565b1115612513576040517f08c379a000000000000000000000000000000000000000000000000000000000815260040161250a90614ab7565b60405180910390fd5b60011515600960109054906101000a900460ff16151514612569576040517f08c379a000000000000000000000000000000000000000000000000000000000815260040161256090615625565b60405180910390fd5b61257282612cef565b5050565b80600b60003373ffffffffffffffffffffffffffffffffffffffff1673ffffffffffffffffffffffffffffffffffffffff16815260200190815260200160002090816125c29190615507565b5050565b6125d76125d1612f08565b83613205565b612616576040517f08c379a000000000000000000000000000000000000000000000000000000000815260040161260d90615140565b60405180910390fd5b6126228484848461392b565b50505050565b600e60009054906101000a900460ff1681565b6060600960089054906101000a900463ffffffff1663ffffffff16821115612698576040517f08c379a000000000000000000000000000000000000000000000000000000000815260040161268f90615691565b60405180910390fd5b60001515600c60199054906101000a900460ff161515036126e557600d6126be8361365f565b6040516020016126cf929190615780565b6040516020818303038152906040529050612713565b60076126f08361365f565b604051602001612701929190615780565b60405160208183030381529060405290505b919050565b612720612f08565b73ffffffffffffffffffffffffffffffffffffffff1661273e611e47565b73ffffffffffffffffffffffffffffffffffffffff1614612794576040517f08c379a000000000000000000000000000000000000000000000000000000000815260040161278b90614dbc565b60405180910390fd5b61279d8561187e565b6127a684611690565b6127af83612b06565b6127b8826110a8565b6127c1816119fe565b5050505050565b60008173ffffffffffffffffffffffffffffffffffffffff166370a08231846040518263ffffffff1660e01b815260040161280391906140f6565b602060405180830381865afa158015612820573d6000803e3d6000fd5b505050506040513d601f19601f8201168201806040525081019061284491906157c4565b905092915050565b6000612856612f08565b73ffffffffffffffffffffffffffffffffffffffff16612874611e47565b73ffffffffffffffffffffffffffffffffffffffff16146128ca576040517f08c379a00000000000000000000000000000000000000000000000000000000081526004016128c190614dbc565b60405180910390fd5b600c60019054906101000a900463ffffffff16905090565b6000600560008473ffffffffffffffffffffffffffffffffffffffff1673ffffffffffffffffffffffffffffffffffffffff16815260200190815260200160002060008373ffffffffffffffffffffffffffffffffffffffff1673ffffffffffffffffffffffffffffffffffffffff16815260200190815260200160002060009054906101000a900460ff16905092915050565b61297e612f08565b73ffffffffffffffffffffffffffffffffffffffff1661299c611e47565b73ffffffffffffffffffffffffffffffffffffffff16146129f2576040517f08c379a00000000000000000000000000000000000000000000000000000000081526004016129e990614dbc565b60405180910390fd5b600073ffffffffffffffffffffffffffffffffffffffff168173ffffffffffffffffffffffffffffffffffffffff1603612a61576040517f08c379a0000000000000000000000000000000000000000000000000000000008152600401612a5890615863565b60405180910390fd5b612a6a8161353e565b50565b612a75612f08565b73ffffffffffffffffffffffffffffffffffffffff16612a93611e47565b73ffffffffffffffffffffffffffffffffffffffff1614612ae9576040517f08c379a0000000000000000000000000000000000000000000000000000000008152600401612ae090614dbc565b60405180910390fd5b80600e60006101000a81548160ff02191690831515021790555050565b612b0e612f08565b73ffffffffffffffffffffffffffffffffffffffff16612b2c611e47565b73ffffffffffffffffffffffffffffffffffffffff1614612b82576040517f08c379a0000000000000000000000000000000000000000000000000000000008152600401612b7990614dbc565b60405180910390fd5b8063ffffffff16600960009054906101000a900463ffffffff1663ffffffff1614612bc95780600960006101000a81548163ffffffff021916908363ffffffff1602179055505b50565b600960109054906101000a900460ff1681565b612be7612f08565b73ffffffffffffffffffffffffffffffffffffffff16612c05611e47565b73ffffffffffffffffffffffffffffffffffffffff1614612c5b576040517f08c379a0000000000000000000000000000000000000000000000000000000008152600401612c5290614dbc565b60405180910390fd5b80600d9081612c6a9190615507565b5050565b60007f01ffc9a7000000000000000000000000000000000000000000000000000000007bffffffffffffffffffffffffffffffffffffffffffffffffffffffff1916827bffffffffffffffffffffffffffffffffffffffffffffffffffffffff1916149050919050565b600082612ce58584613987565b1490509392505050565b60005b8163ffffffff168163ffffffff161015612d7357612d60336009600881819054906101000a900463ffffffff16612d289061502d565b91906101000a81548163ffffffff021916908363ffffffff160217905563ffffffff1660405180602001604052806000815250613604565b8080612d6b9061502d565b915050612cf2565b508063ffffffff16600a60003373ffffffffffffffffffffffffffffffffffffffff1673ffffffffffffffffffffffffffffffffffffffff1681526020019081526020016000206000828254612dc99190614a37565b925050819055506000600c60059054906101000a900473ffffffffffffffffffffffffffffffffffffffff1673ffffffffffffffffffffffffffffffffffffffff166103e8600c60019054906101000a900463ffffffff1663ffffffff1634612e32919061491d565b612e3c91906158b2565b604051612e4890615191565b60006040518083038185875af1925050503d8060008114612e85576040519150601f19603f3d011682016040523d82523d6000602084013e612e8a565b606091505b5050905080612e9857600080fd5b5050565b60008073ffffffffffffffffffffffffffffffffffffffff166002600084815260200190815260200160002060009054906101000a900473ffffffffffffffffffffffffffffffffffffffff1673ffffffffffffffffffffffffffffffffffffffff1614159050919050565b600033905090565b816004600083815260200190815260200160002060006101000a81548173ffffffffffffffffffffffffffffffffffffffff021916908373ffffffffffffffffffffffffffffffffffffffff160217905550808273ffffffffffffffffffffffffffffffffffffffff16612f838361194d565b73ffffffffffffffffffffffffffffffffffffffff167f8c5be1e5ebec7d5bd14f71427d1e84f3dd0314c0f7b2291e5b200ac8c7c3b92560405160405180910390a45050565b606060006002836002612fdc919061491d565b612fe69190614a37565b67ffffffffffffffff811115612fff57612ffe61444b565b5b6040519080825280601f01601f1916602001820160405280156130315781602001600182028036833780820191505090505b5090507f30000000000000000000000000000000000000000000000000000000000000008160008151811061306957613068615336565b5b60200101907effffffffffffffffffffffffffffffffffffffffffffffffffffffffffffff1916908160001a9053507f7800000000000000000000000000000000000000000000000000000000000000816001815181106130cd576130cc615336565b5b60200101907effffffffffffffffffffffffffffffffffffffffffffffffffffffffffffff1916908160001a9053506000600184600261310d919061491d565b6131179190614a37565b90505b60018111156131b7577f3031323334353637383961626364656600000000000000000000000000000000600f86166010811061315957613158615336565b5b1a60f81b8282815181106131705761316f615336565b5b60200101907effffffffffffffffffffffffffffffffffffffffffffffffffffffffffffff1916908160001a905350600485901c9450806131b0906158e3565b905061311a565b50600084146131fb576040517f08c379a00000000000000000000000000000000000000000000000000000000081526004016131f290615958565b60405180910390fd5b8091505092915050565b600061321082612e9c565b61324f576040517f08c379a0000000000000000000000000000000000000000000000000000000008152600401613246906159ea565b60405180910390fd5b600061325a8361194d565b90508073ffffffffffffffffffffffffffffffffffffffff168473ffffffffffffffffffffffffffffffffffffffff1614806132c957508373ffffffffffffffffffffffffffffffffffffffff166132b184611023565b73ffffffffffffffffffffffffffffffffffffffff16145b806132da57506132d981856128e2565b5b91505092915050565b8273ffffffffffffffffffffffffffffffffffffffff166133038261194d565b73ffffffffffffffffffffffffffffffffffffffff1614613359576040517f08c379a000000000000000000000000000000000000000000000000000000000815260040161335090615a7c565b60405180910390fd5b600073ffffffffffffffffffffffffffffffffffffffff168273ffffffffffffffffffffffffffffffffffffffff16036133c8576040517f08c379a00000000000000000000000000000000000000000000000000000000081526004016133bf90615b0e565b60405180910390fd5b6133d3838383613a3a565b6133de600082612f10565b6001600360008573ffffffffffffffffffffffffffffffffffffffff1673ffffffffffffffffffffffffffffffffffffffff168152602001908152602001600020600082825461342e9190615b2e565b925050819055506001600360008473ffffffffffffffffffffffffffffffffffffffff1673ffffffffffffffffffffffffffffffffffffffff16815260200190815260200160002060008282546134859190614a37565b92505081905550816002600083815260200190815260200160002060006101000a81548173ffffffffffffffffffffffffffffffffffffffff021916908373ffffffffffffffffffffffffffffffffffffffff160217905550808273ffffffffffffffffffffffffffffffffffffffff168473ffffffffffffffffffffffffffffffffffffffff167fddf252ad1be2c89b69c2b068fc378daa952ba7f163c4a11628f55a4df523b3ef60405160405180910390a4505050565b6000600660009054906101000a900473ffffffffffffffffffffffffffffffffffffffff16905081600660006101000a81548173ffffffffffffffffffffffffffffffffffffffff021916908373ffffffffffffffffffffffffffffffffffffffff1602179055508173ffffffffffffffffffffffffffffffffffffffff168173ffffffffffffffffffffffffffffffffffffffff167f8be0079c531659141344cd1fd0a4f28419497f9722a3daafe3b4186f6b6457e060405160405180910390a35050565b61360e8383613a3f565b61361b6000848484613c0c565b61365a576040517f08c379a000000000000000000000000000000000000000000000000000000000815260040161365190615bd4565b60405180910390fd5b505050565b6060600082036136a6576040518060400160405280600181526020017f300000000000000000000000000000000000000000000000000000000000000081525090506137ba565b600082905060005b600082146136d85780806136c190615bf4565b915050600a826136d191906158b2565b91506136ae565b60008167ffffffffffffffff8111156136f4576136f361444b565b5b6040519080825280601f01601f1916602001820160405280156137265781602001600182028036833780820191505090505b5090505b600085146137b35760018261373f9190615b2e565b9150600a8561374e9190615c3c565b603061375a9190614a37565b60f81b8183815181106137705761376f615336565b5b60200101907effffffffffffffffffffffffffffffffffffffffffffffffffffffffffffff1916908160001a905350600a856137ac91906158b2565b945061372a565b8093505050505b919050565b8173ffffffffffffffffffffffffffffffffffffffff168373ffffffffffffffffffffffffffffffffffffffff160361382d576040517f08c379a000000000000000000000000000000000000000000000000000000000815260040161382490615cb9565b60405180910390fd5b80600560008573ffffffffffffffffffffffffffffffffffffffff1673ffffffffffffffffffffffffffffffffffffffff16815260200190815260200160002060008473ffffffffffffffffffffffffffffffffffffffff1673ffffffffffffffffffffffffffffffffffffffff16815260200190815260200160002060006101000a81548160ff0219169083151502179055508173ffffffffffffffffffffffffffffffffffffffff168373ffffffffffffffffffffffffffffffffffffffff167f17307eab39ab6107e8899845ad3d59bd9653f200f220920489ca2b5937696c318360405161391e9190613e5a565b60405180910390a3505050565b6139368484846132e3565b61394284848484613c0c565b613981576040517f08c379a000000000000000000000000000000000000000000000000000000000815260040161397890615bd4565b60405180910390fd5b50505050565b60008082905060005b8451811015613a2f5760008582815181106139ae576139ad615336565b5b602002602001015190508083116139ef5782816040516020016139d2929190615cfa565b604051602081830303815290604052805190602001209250613a1b565b8083604051602001613a02929190615cfa565b6040516020818303038152906040528051906020012092505b508080613a2790615bf4565b915050613990565b508091505092915050565b505050565b600073ffffffffffffffffffffffffffffffffffffffff168273ffffffffffffffffffffffffffffffffffffffff1603613aae576040517f08c379a0000000000000000000000000000000000000000000000000000000008152600401613aa590615d72565b60405180910390fd5b613ab781612e9c565b15613af7576040517f08c379a0000000000000000000000000000000000000000000000000000000008152600401613aee90615dde565b60405180910390fd5b613b0360008383613a3a565b6001600360008473ffffffffffffffffffffffffffffffffffffffff1673ffffffffffffffffffffffffffffffffffffffff1681526020019081526020016000206000828254613b539190614a37565b92505081905550816002600083815260200190815260200160002060006101000a81548173ffffffffffffffffffffffffffffffffffffffff021916908373ffffffffffffffffffffffffffffffffffffffff160217905550808273ffffffffffffffffffffffffffffffffffffffff16600073ffffffffffffffffffffffffffffffffffffffff167fddf252ad1be2c89b69c2b068fc378daa952ba7f163c4a11628f55a4df523b3ef60405160405180910390a45050565b6000613c2d8473ffffffffffffffffffffffffffffffffffffffff16613d93565b15613d86578373ffffffffffffffffffffffffffffffffffffffff1663150b7a02613c56612f08565b8786866040518563ffffffff1660e01b8152600401613c789493929190615e53565b6020604051808303816000875af1925050508015613cb457506040513d601f19601f82011682018060405250810190613cb19190615eb4565b60015b613d36573d8060008114613ce4576040519150601f19603f3d011682016040523d82523d6000602084013e613ce9565b606091505b506000815103613d2e576040517f08c379a0000000000000000000000000000000000000000000000000000000008152600401613d2590615bd4565b60405180910390fd5b805181602001fd5b63150b7a0260e01b7bffffffffffffffffffffffffffffffffffffffffffffffffffffffff1916817bffffffffffffffffffffffffffffffffffffffffffffffffffffffff191614915050613d8b565b600190505b949350505050565b600080823b905060008111915050919050565b6000604051905090565b600080fd5b600080fd5b60007fffffffff0000000000000000000000000000000000000000000000000000000082169050919050565b613def81613dba565b8114613dfa57600080fd5b50565b600081359050613e0c81613de6565b92915050565b600060208284031215613e2857613e27613db0565b5b6000613e3684828501613dfd565b91505092915050565b60008115159050919050565b613e5481613e3f565b82525050565b6000602082019050613e6f6000830184613e4b565b92915050565b600063ffffffff82169050919050565b613e8e81613e75565b8114613e9957600080fd5b50565b600081359050613eab81613e85565b92915050565b600080fd5b600080fd5b600080fd5b60008083601f840112613ed657613ed5613eb1565b5b8235905067ffffffffffffffff811115613ef357613ef2613eb6565b5b602083019150836020820283011115613f0f57613f0e613ebb565b5b9250929050565b600080600060408486031215613f2f57613f2e613db0565b5b6000613f3d86828701613e9c565b935050602084013567ffffffffffffffff811115613f5e57613f5d613db5565b5b613f6a86828701613ec0565b92509250509250925092565b613f7f81613e75565b82525050565b6000602082019050613f9a6000830184613f76565b92915050565b600081519050919050565b600082825260208201905092915050565b60005b83811015613fda578082015181840152602081019050613fbf565b60008484015250505050565b6000601f19601f8301169050919050565b600061400282613fa0565b61400c8185613fab565b935061401c818560208601613fbc565b61402581613fe6565b840191505092915050565b6000602082019050818103600083015261404a8184613ff7565b905092915050565b6000819050919050565b61406581614052565b811461407057600080fd5b50565b6000813590506140828161405c565b92915050565b60006020828403121561409e5761409d613db0565b5b60006140ac84828501614073565b91505092915050565b600073ffffffffffffffffffffffffffffffffffffffff82169050919050565b60006140e0826140b5565b9050919050565b6140f0816140d5565b82525050565b600060208201905061410b60008301846140e7565b92915050565b60006020828403121561412757614126613db0565b5b600061413584828501613e9c565b91505092915050565b614147816140d5565b811461415257600080fd5b50565b6000813590506141648161413e565b92915050565b6000806040838503121561418157614180613db0565b5b600061418f85828601614155565b92505060206141a085828601614073565b9150509250929050565b600080604083850312156141c1576141c0613db0565b5b60006141cf85828601614155565b92505060206141e085828601613e9c565b9150509250929050565b6141f381614052565b82525050565b600060208201905061420e60008301846141ea565b92915050565b60008060006060848603121561422d5761422c613db0565b5b600061423b86828701614155565b935050602061424c86828701614155565b925050604061425d86828701614073565b9150509250925092565b61427081613e3f565b811461427b57600080fd5b50565b60008135905061428d81614267565b92915050565b6000602082840312156142a9576142a8613db0565b5b60006142b78482850161427e565b91505092915050565b6000602082840312156142d6576142d5613db0565b5b60006142e484828501614155565b91505092915050565b60008083601f84011261430357614302613eb1565b5b8235905067ffffffffffffffff8111156143205761431f613eb6565b5b60208301915083602082028301111561433c5761433b613ebb565b5b9250929050565b6000806020838503121561435a57614359613db0565b5b600083013567ffffffffffffffff81111561437857614377613db5565b5b614384858286016142ed565b92509250509250929050565b6000819050919050565b6143a381614390565b81146143ae57600080fd5b50565b6000813590506143c08161439a565b92915050565b6000602082840312156143dc576143db613db0565b5b60006143ea848285016143b1565b91505092915050565b60008060006060848603121561440c5761440b613db0565b5b600061441a86828701614155565b935050602061442b86828701614155565b925050604061443c86828701613e9c565b9150509250925092565b600080fd5b7f4e487b7100000000000000000000000000000000000000000000000000000000600052604160045260246000fd5b61448382613fe6565b810181811067ffffffffffffffff821117156144a2576144a161444b565b5b80604052505050565b60006144b5613da6565b90506144c1828261447a565b919050565b600067ffffffffffffffff8211156144e1576144e061444b565b5b6144ea82613fe6565b9050602081019050919050565b82818337600083830152505050565b6000614519614514846144c6565b6144ab565b90508281526020810184848401111561453557614534614446565b5b6145408482856144f7565b509392505050565b600082601f83011261455d5761455c613eb1565b5b813561456d848260208601614506565b91505092915050565b60006020828403121561458c5761458b613db0565b5b600082013567ffffffffffffffff8111156145aa576145a9613db5565b5b6145b684828501614548565b91505092915050565b600080604083850312156145d6576145d5613db0565b5b60006145e485828601614155565b92505060206145f58582860161427e565b9150509250929050565b600067ffffffffffffffff82111561461a5761461961444b565b5b61462382613fe6565b9050602081019050919050565b600061464361463e846145ff565b6144ab565b90508281526020810184848401111561465f5761465e614446565b5b61466a8482856144f7565b509392505050565b600082601f83011261468757614686613eb1565b5b8135614697848260208601614630565b91505092915050565b600080600080608085870312156146ba576146b9613db0565b5b60006146c887828801614155565b94505060206146d987828801614155565b93505060406146ea87828801614073565b925050606085013567ffffffffffffffff81111561470b5761470a613db5565b5b61471787828801614672565b91505092959194509250565b600080600080600060a0868803121561473f5761473e613db0565b5b600061474d88828901614073565b955050602061475e88828901613e9c565b945050604061476f88828901613e9c565b935050606061478088828901613e9c565b92505060806147918882890161427e565b9150509295509295909350565b600080604083850312156147b5576147b4613db0565b5b60006147c385828601614155565b92505060206147d485828601614155565b9150509250929050565b7f4d696e74206174206c65617374206f6e652e0000000000000000000000000000600082015250565b6000614814601283613fab565b915061481f826147de565b602082019050919050565b6000602082019050818103600083015261484381614807565b9050919050565b7f4e487b7100000000000000000000000000000000000000000000000000000000600052601160045260246000fd5b600061488482613e75565b915061488f83613e75565b9250828201905063ffffffff8111156148ab576148aa61484a565b5b92915050565b7f4d6178206d696e7420726561636865642e000000000000000000000000000000600082015250565b60006148e7601183613fab565b91506148f2826148b1565b602082019050919050565b60006020820190508181036000830152614916816148da565b9050919050565b600061492882614052565b915061493383614052565b925082820261494181614052565b915082820484148315176149585761495761484a565b5b5092915050565b7f4e6f7420656e6f7567682066756e642e00000000000000000000000000000000600082015250565b6000614995601083613fab565b91506149a08261495f565b602082019050919050565b600060208201905081810360008301526149c481614988565b9050919050565b7f4d696e7420736f6c64206f757400000000000000000000000000000000000000600082015250565b6000614a01600d83613fab565b9150614a0c826149cb565b602082019050919050565b60006020820190508181036000830152614a30816149f4565b9050919050565b6000614a4282614052565b9150614a4d83614052565b9250828201905080821115614a6557614a6461484a565b5b92915050565b7f4d617820746f74616c206d696e74207265616368656400000000000000000000600082015250565b6000614aa1601683613fab565b9150614aac82614a6b565b602082019050919050565b60006020820190508181036000830152614ad081614a94565b9050919050565b7f50726573616c65206e6f74206f70656e00000000000000000000000000000000600082015250565b6000614b0d601083613fab565b9150614b1882614ad7565b602082019050919050565b60006020820190508181036000830152614b3c81614b00565b9050919050565b7f50726573616c65206e6f74207265616479000000000000000000000000000000600082015250565b6000614b79601183613fab565b9150614b8482614b43565b602082019050919050565b60006020820190508181036000830152614ba881614b6c565b9050919050565b60008160601b9050919050565b6000614bc782614baf565b9050919050565b6000614bd982614bbc565b9050919050565b614bf1614bec826140d5565b614bce565b82525050565b6000614c038284614be0565b60148201915081905092915050565b7f4e6f7420612070726573616c65206d656d626572000000000000000000000000600082015250565b6000614c48601483613fab565b9150614c5382614c12565b602082019050919050565b60006020820190508181036000830152614c7781614c3b565b9050919050565b7f4e487b7100000000000000000000000000000000000000000000000000000000600052602260045260246000fd5b60006002820490506001821680614cc557607f821691505b602082108103614cd857614cd7614c7e565b5b50919050565b7f4552433732313a20617070726f76656420717565727920666f72206e6f6e657860008201527f697374656e7420746f6b656e0000000000000000000000000000000000000000602082015250565b6000614d3a602c83613fab565b9150614d4582614cde565b604082019050919050565b60006020820190508181036000830152614d6981614d2d565b9050919050565b7f4f776e61626c653a2063616c6c6572206973206e6f7420746865206f776e6572600082015250565b6000614da6602083613fab565b9150614db182614d70565b602082019050919050565b60006020820190508181036000830152614dd581614d99565b9050919050565b7f4552433732313a20617070726f76616c20746f2063757272656e74206f776e6560008201527f7200000000000000000000000000000000000000000000000000000000000000602082015250565b6000614e38602183613fab565b9150614e4382614ddc565b604082019050919050565b60006020820190508181036000830152614e6781614e2b565b9050919050565b7f4552433732313a20617070726f76652063616c6c6572206973206e6f74206f7760008201527f6e6572206e6f7220617070726f76656420666f7220616c6c0000000000000000602082015250565b6000614eca603883613fab565b9150614ed582614e6e565b604082019050919050565b60006020820190508181036000830152614ef981614ebd565b9050919050565b6000819050919050565b6000614f25614f20614f1b84613e75565b614f00565b614052565b9050919050565b614f3581614f0a565b82525050565b6000602082019050614f506000830184614f2c565b92915050565b600081519050614f658161413e565b92915050565b600060208284031215614f8157614f80613db0565b5b6000614f8f84828501614f56565b91505092915050565b600081905092915050565b6000614fae82613fa0565b614fb88185614f98565b9350614fc8818560208601613fbc565b80840191505092915050565b7f2c00000000000000000000000000000000000000000000000000000000000000815250565b60006150068285614fa3565b91506150128284614fa3565b915061501d82614fd4565b6001820191508190509392505050565b600061503882613e75565b915063ffffffff820361504e5761504d61484a565b5b600182019050919050565b7f7c00000000000000000000000000000000000000000000000000000000000000815250565b600061508b8286614fa3565b91506150978285614fa3565b91506150a282615059565b6001820191506150b28284614fa3565b91506150bd82614fd4565b600182019150819050949350505050565b7f4552433732313a207472616e736665722063616c6c6572206973206e6f74206f60008201527f776e6572206e6f7220617070726f766564000000000000000000000000000000602082015250565b600061512a603183613fab565b9150615135826150ce565b604082019050919050565b600060208201905081810360008301526151598161511d565b9050919050565b600081905092915050565b50565b600061517b600083615160565b91506151868261516b565b600082019050919050565b600061519c8261516e565b9150819050919050565b7f4552433732313a206f776e657220717565727920666f72206e6f6e657869737460008201527f656e7420746f6b656e0000000000000000000000000000000000000000000000602082015250565b6000615202602983613fab565b915061520d826151a6565b604082019050919050565b60006020820190508181036000830152615231816151f5565b9050919050565b7f4552433732313a2062616c616e636520717565727920666f7220746865207a6560008201527f726f206164647265737300000000000000000000000000000000000000000000602082015250565b6000615294602a83613fab565b915061529f82615238565b604082019050919050565b600060208201905081810360008301526152c381615287565b9050919050565b7f4c696d6974207265616368656400000000000000000000000000000000000000600082015250565b6000615300600d83613fab565b915061530b826152ca565b602082019050919050565b6000602082019050818103600083015261532f816152f3565b9050919050565b7f4e487b7100000000000000000000000000000000000000000000000000000000600052603260045260246000fd5b60008190508160005260206000209050919050565b60006020601f8301049050919050565b600082821b905092915050565b6000600883026153c77fffffffffffffffffffffffffffffffffffffffffffffffffffffffffffffffff8261538a565b6153d1868361538a565b95508019841693508086168417925050509392505050565b60006154046153ff6153fa84614052565b614f00565b614052565b9050919050565b6000819050919050565b61541e836153e9565b61543261542a8261540b565b848454615397565b825550505050565b600090565b61544761543a565b615452818484615415565b505050565b5b818110156154765761546b60008261543f565b600181019050615458565b5050565b601f8211156154bb5761548c81615365565b6154958461537a565b810160208510156154a4578190505b6154b86154b08561537a565b830182615457565b50505b505050565b600082821c905092915050565b60006154de600019846008026154c0565b1980831691505092915050565b60006154f783836154cd565b9150826002028217905092915050565b61551082613fa0565b67ffffffffffffffff8111156155295761552861444b565b5b6155338254614cad565b61553e82828561547a565b600060209050601f831160018114615571576000841561555f578287015190505b61556985826154eb565b8655506155d1565b601f19841661557f86615365565b60005b828110156155a757848901518255600182019150602085019450602081019050615582565b868310156155c457848901516155c0601f8916826154cd565b8355505b6001600288020188555050505b505050505050565b7f4d696e74206e6f74206f70656e00000000000000000000000000000000000000600082015250565b600061560f600d83613fab565b915061561a826155d9565b602082019050919050565b6000602082019050818103600083015261563e81615602565b9050919050565b7f4e6f74206d696e74656420796574000000000000000000000000000000000000600082015250565b600061567b600e83613fab565b915061568682615645565b602082019050919050565b600060208201905081810360008301526156aa8161566e565b9050919050565b600081546156be81614cad565b6156c88186614f98565b945060018216600081146156e357600181146156f85761572b565b60ff198316865281151582028601935061572b565b61570185615365565b60005b8381101561572357815481890152600182019150602081019050615704565b838801955050505b50505092915050565b7f2e6a736f6e000000000000000000000000000000000000000000000000000000600082015250565b600061576a600583614f98565b915061577582615734565b600582019050919050565b600061578c82856156b1565b91506157988284614fa3565b91506157a38261575d565b91508190509392505050565b6000815190506157be8161405c565b92915050565b6000602082840312156157da576157d9613db0565b5b60006157e8848285016157af565b91505092915050565b7f4f776e61626c653a206e6577206f776e657220697320746865207a65726f206160008201527f6464726573730000000000000000000000000000000000000000000000000000602082015250565b600061584d602683613fab565b9150615858826157f1565b604082019050919050565b6000602082019050818103600083015261587c81615840565b9050919050565b7f4e487b7100000000000000000000000000000000000000000000000000000000600052601260045260246000fd5b60006158bd82614052565b91506158c883614052565b9250826158d8576158d7615883565b5b828204905092915050565b60006158ee82614052565b9150600082036159015761590061484a565b5b600182039050919050565b7f537472696e67733a20686578206c656e67746820696e73756666696369656e74600082015250565b6000615942602083613fab565b915061594d8261590c565b602082019050919050565b6000602082019050818103600083015261597181615935565b9050919050565b7f4552433732313a206f70657261746f7220717565727920666f72206e6f6e657860008201527f697374656e7420746f6b656e0000000000000000000000000000000000000000602082015250565b60006159d4602c83613fab565b91506159df82615978565b604082019050919050565b60006020820190508181036000830152615a03816159c7565b9050919050565b7f4552433732313a207472616e73666572206f6620746f6b656e2074686174206960008201527f73206e6f74206f776e0000000000000000000000000000000000000000000000602082015250565b6000615a66602983613fab565b9150615a7182615a0a565b604082019050919050565b60006020820190508181036000830152615a9581615a59565b9050919050565b7f4552433732313a207472616e7366657220746f20746865207a65726f2061646460008201527f7265737300000000000000000000000000000000000000000000000000000000602082015250565b6000615af8602483613fab565b9150615b0382615a9c565b604082019050919050565b60006020820190508181036000830152615b2781615aeb565b9050919050565b6000615b3982614052565b9150615b4483614052565b9250828203905081811115615b5c57615b5b61484a565b5b92915050565b7f4552433732313a207472616e7366657220746f206e6f6e20455243373231526560008201527f63656976657220696d706c656d656e7465720000000000000000000000000000602082015250565b6000615bbe603283613fab565b9150615bc982615b62565b604082019050919050565b60006020820190508181036000830152615bed81615bb1565b9050919050565b6000615bff82614052565b91507fffffffffffffffffffffffffffffffffffffffffffffffffffffffffffffffff8203615c3157615c3061484a565b5b600182019050919050565b6000615c4782614052565b9150615c5283614052565b925082615c6257615c61615883565b5b828206905092915050565b7f4552433732313a20617070726f766520746f2063616c6c657200000000000000600082015250565b6000615ca3601983613fab565b9150615cae82615c6d565b602082019050919050565b60006020820190508181036000830152615cd281615c96565b9050919050565b6000819050919050565b615cf4615cef82614390565b615cd9565b82525050565b6000615d068285615ce3565b602082019150615d168284615ce3565b6020820191508190509392505050565b7f4552433732313a206d696e7420746f20746865207a65726f2061646472657373600082015250565b6000615d5c602083613fab565b9150615d6782615d26565b602082019050919050565b60006020820190508181036000830152615d8b81615d4f565b9050919050565b7f4552433732313a20746f6b656e20616c7265616479206d696e74656400000000600082015250565b6000615dc8601c83613fab565b9150615dd382615d92565b602082019050919050565b60006020820190508181036000830152615df781615dbb565b9050919050565b600081519050919050565b600082825260208201905092915050565b6000615e2582615dfe565b615e2f8185615e09565b9350615e3f818560208601613fbc565b615e4881613fe6565b840191505092915050565b6000608082019050615e6860008301876140e7565b615e7560208301866140e7565b615e8260408301856141ea565b8181036060830152615e948184615e1a565b905095945050505050565b600081519050615eae81613de6565b92915050565b600060208284031215615eca57615ec9613db0565b5b6000615ed884828501615e9f565b9150509291505056fea26469706673582212209270f4cd5476300fe77dd37054b90b46b31b126a48325e7802022efa61ffb25264736f6c63430008120033",
  "linkReferences": {},
  "deployedLinkReferences": {}
}