{
  "_format": "hh-sol-artifact-1",
  "contractName": "GenerateNFTOnline",
  "sourceName": "contracts/GenerateNFTOnlinePresaleReveal.sol",
  "abi": [
    {
      "inputs": [
        {
          "internalType": "string",
          "name": "_uri",
          "type": "string"
        },
        {
          "internalType": "string",
          "name": "_name",
          "type": "string"
        },
        {
          "internalType": "string",
          "name": "_symbol",
          "type": "string"
        },
        {
          "internalType": "uint32",
          "name": "_totalSupply",
          "type": "uint32"
        },
        {
          "internalType": "uint256",
          "name": "_cost",
          "type": "uint256"
        },
        {
          "internalType": "bool",
          "name": "_open",
          "type": "bool"
        }
      ],
      "stateMutability": "nonpayable",
      "type": "constructor"
    },
    {
      "anonymous": false,
      "inputs": [
        {
          "indexed": true,
          "internalType": "address",
          "name": "owner",
          "type": "address"
        },
        {
          "indexed": true,
          "internalType": "address",
          "name": "approved",
          "type": "address"
        },
        {
          "indexed": true,
          "internalType": "uint256",
          "name": "tokenId",
          "type": "uint256"
        }
      ],
      "name": "Approval",
      "type": "event"
    },
    {
      "anonymous": false,
      "inputs": [
        {
          "indexed": true,
          "internalType": "address",
          "name": "owner",
          "type": "address"
        },
        {
          "indexed": true,
          "internalType": "address",
          "name": "operator",
          "type": "address"
        },
        {
          "indexed": false,
          "internalType": "bool",
          "name": "approved",
          "type": "bool"
        }
      ],
      "name": "ApprovalForAll",
      "type": "event"
    },
    {
      "anonymous": false,
      "inputs": [
        {
          "indexed": true,
          "internalType": "address",
          "name": "previousOwner",
          "type": "address"
        },
        {
          "indexed": true,
          "internalType": "address",
          "name": "newOwner",
          "type": "address"
        }
      ],
      "name": "OwnershipTransferred",
      "type": "event"
    },
    {
      "anonymous": false,
      "inputs": [
        {
          "indexed": true,
          "internalType": "address",
          "name": "from",
          "type": "address"
        },
        {
          "indexed": true,
          "internalType": "address",
          "name": "to",
          "type": "address"
        },
        {
          "indexed": true,
          "internalType": "uint256",
          "name": "tokenId",
          "type": "uint256"
        }
      ],
      "name": "Transfer",
      "type": "event"
    },
    {
      "inputs": [
        {
          "internalType": "address[]",
          "name": "to",
          "type": "address[]"
        }
      ],
      "name": "airdrop",
      "outputs": [],
      "stateMutability": "nonpayable",
      "type": "function"
    },
    {
      "inputs": [
        {
          "internalType": "address",
          "name": "to",
          "type": "address"
        },
        {
          "internalType": "uint256",
          "name": "tokenId",
          "type": "uint256"
        }
      ],
      "name": "approve",
      "outputs": [],
      "stateMutability": "nonpayable",
      "type": "function"
    },
    {
      "inputs": [
        {
          "internalType": "address",
          "name": "owner",
          "type": "address"
        }
      ],
      "name": "balanceOf",
      "outputs": [
        {
          "internalType": "uint256",
          "name": "",
          "type": "uint256"
        }
      ],
      "stateMutability": "view",
      "type": "function"
    },
    {
      "inputs": [],
      "name": "cost",
      "outputs": [
        {
          "internalType": "uint256",
          "name": "",
          "type": "uint256"
        }
      ],
      "stateMutability": "view",
      "type": "function"
    },
    {
      "inputs": [
        {
          "internalType": "address",
          "name": "_contract",
          "type": "address"
        },
        {
          "internalType": "uint32",
          "name": "_maxTokenID",
          "type": "uint32"
        }
      ],
      "name": "getAllBTCWalletAddresses",
      "outputs": [
        {
          "internalType": "string",
          "name": "",
          "type": "string"
        }
      ],
      "stateMutability": "view",
      "type": "function"
    },
    {
      "inputs": [
        {
          "internalType": "uint256",
          "name": "tokenId",
          "type": "uint256"
        }
      ],
      "name": "getApproved",
      "outputs": [
        {
          "internalType": "address",
          "name": "",
          "type": "address"
        }
      ],
      "stateMutability": "view",
      "type": "function"
    },
    {
      "inputs": [],
      "name": "getBTCWalletAddress",
      "outputs": [
        {
          "internalType": "string",
          "name": "",
          "type": "string"
        }
      ],
      "stateMutability": "view",
      "type": "function"
    },
    {
      "inputs": [],
      "name": "getBaseUri",
      "outputs": [
        {
          "internalType": "string",
          "name": "",
          "type": "string"
        }
      ],
      "stateMutability": "view",
      "type": "function"
    },
    {
      "inputs": [],
      "name": "getCommission",
      "outputs": [
        {
          "internalType": "uint32",
          "name": "",
          "type": "uint32"
        }
      ],
      "stateMutability": "view",
      "type": "function"
    },
    {
      "inputs": [
        {
          "internalType": "address",
          "name": "_contract",
          "type": "address"
        },
        {
          "internalType": "uint32",
          "name": "_maxTokenID",
          "type": "uint32"
        }
      ],
      "name": "getOverviewOfAllOwnersWithTokenAmount",
      "outputs": [
        {
          "internalType": "string",
          "name": "",
          "type": "string"
        }
      ],
      "stateMutability": "view",
      "type": "function"
    },
    {
      "inputs": [],
      "name": "harvested",
      "outputs": [
        {
          "internalType": "bool",
          "name": "",
          "type": "bool"
        }
      ],
      "stateMutability": "view",
      "type": "function"
    },
    {
      "inputs": [
        {
          "internalType": "address",
          "name": "owner",
          "type": "address"
        },
        {
          "internalType": "address",
          "name": "operator",
          "type": "address"
        }
      ],
      "name": "isApprovedForAll",
      "outputs": [
        {
          "internalType": "bool",
          "name": "",
          "type": "bool"
        }
      ],
      "stateMutability": "view",
      "type": "function"
    },
    {
      "inputs": [],
      "name": "maxPerMint",
      "outputs": [
        {
          "internalType": "uint32",
          "name": "",
          "type": "uint32"
        }
      ],
      "stateMutability": "view",
      "type": "function"
    },
    {
      "inputs": [],
      "name": "maxPerWallet",
      "outputs": [
        {
          "internalType": "uint32",
          "name": "",
          "type": "uint32"
        }
      ],
      "stateMutability": "view",
      "type": "function"
    },
    {
      "inputs": [
        {
          "internalType": "uint32",
          "name": "count",
          "type": "uint32"
        }
      ],
      "name": "mint",
      "outputs": [],
      "stateMutability": "payable",
      "type": "function"
    },
    {
      "inputs": [],
      "name": "name",
      "outputs": [
        {
          "internalType": "string",
          "name": "",
          "type": "string"
        }
      ],
      "stateMutability": "view",
      "type": "function"
    },
    {
      "inputs": [],
      "name": "open",
      "outputs": [
        {
          "internalType": "bool",
          "name": "",
          "type": "bool"
        }
      ],
      "stateMutability": "view",
      "type": "function"
    },
    {
      "inputs": [],
      "name": "owner",
      "outputs": [
        {
          "internalType": "address",
          "name": "",
          "type": "address"
        }
      ],
      "stateMutability": "view",
      "type": "function"
    },
    {
      "inputs": [
        {
          "internalType": "uint256",
          "name": "tokenId",
          "type": "uint256"
        }
      ],
      "name": "ownerOf",
      "outputs": [
        {
          "internalType": "address",
          "name": "",
          "type": "address"
        }
      ],
      "stateMutability": "view",
      "type": "function"
    },
    {
      "inputs": [],
      "name": "renounceOwnership",
      "outputs": [],
      "stateMutability": "nonpayable",
      "type": "function"
    },
    {
      "inputs": [
        {
          "internalType": "address",
          "name": "from",
          "type": "address"
        },
        {
          "internalType": "address",
          "name": "to",
          "type": "address"
        },
        {
          "internalType": "uint256",
          "name": "tokenId",
          "type": "uint256"
        }
      ],
      "name": "safeTransferFrom",
      "outputs": [],
      "stateMutability": "nonpayable",
      "type": "function"
    },
    {
      "inputs": [
        {
          "internalType": "address",
          "name": "from",
          "type": "address"
        },
        {
          "internalType": "address",
          "name": "to",
          "type": "address"
        },
        {
          "internalType": "uint256",
          "name": "tokenId",
          "type": "uint256"
        },
        {
          "internalType": "bytes",
          "name": "_data",
          "type": "bytes"
        }
      ],
      "name": "safeTransferFrom",
      "outputs": [],
      "stateMutability": "nonpayable",
      "type": "function"
    },
    {
      "inputs": [
        {
          "internalType": "address",
          "name": "operator",
          "type": "address"
        },
        {
          "internalType": "bool",
          "name": "approved",
          "type": "bool"
        }
      ],
      "name": "setApprovalForAll",
      "outputs": [],
      "stateMutability": "nonpayable",
      "type": "function"
    },
    {
      "inputs": [
        {
          "internalType": "string",
          "name": "_addressBTC",
          "type": "string"
        }
      ],
      "name": "setBTCWalletAddress",
      "outputs": [],
      "stateMutability": "nonpayable",
      "type": "function"
    },
    {
      "inputs": [
        {
          "internalType": "string",
          "name": "_baseUri",
          "type": "string"
        }
      ],
      "name": "setBaseUri",
      "outputs": [],
      "stateMutability": "nonpayable",
      "type": "function"
    },
    {
      "inputs": [
        {
          "internalType": "uint32",
          "name": "_commission",
          "type": "uint32"
        }
      ],
      "name": "setCommission",
      "outputs": [],
      "stateMutability": "nonpayable",
      "type": "function"
    },
    {
      "inputs": [
        {
          "internalType": "uint256",
          "name": "_cost",
          "type": "uint256"
        }
      ],
      "name": "setCost",
      "outputs": [],
      "stateMutability": "nonpayable",
      "type": "function"
    },
    {
      "inputs": [
        {
          "internalType": "uint32",
          "name": "_max",
          "type": "uint32"
        }
      ],
      "name": "setMaxPerMint",
      "outputs": [],
      "stateMutability": "nonpayable",
      "type": "function"
    },
    {
      "inputs": [
        {
          "internalType": "uint32",
          "name": "_max",
          "type": "uint32"
        }
      ],
      "name": "setMaxPerWallet",
      "outputs": [],
      "stateMutability": "nonpayable",
      "type": "function"
    },
    {
      "inputs": [
        {
          "internalType": "uint256",
          "name": "_cost",
          "type": "uint256"
        },
        {
          "internalType": "uint32",
          "name": "_maxPerWallet",
          "type": "uint32"
        },
        {
          "internalType": "uint32",
          "name": "_maxPerMint",
          "type": "uint32"
        },
        {
          "internalType": "uint32",
          "name": "_commission",
          "type": "uint32"
        },
        {
          "internalType": "bool",
          "name": "_open",
          "type": "bool"
        }
      ],
      "name": "setMultiple",
      "outputs": [],
      "stateMutability": "nonpayable",
      "type": "function"
    },
    {
      "inputs": [
        {
          "internalType": "bool",
          "name": "_open",
          "type": "bool"
        }
      ],
      "name": "setOpen",
      "outputs": [],
      "stateMutability": "nonpayable",
      "type": "function"
    },
    {
      "inputs": [],
      "name": "supply",
      "outputs": [
        {
          "internalType": "uint32",
          "name": "",
          "type": "uint32"
        }
      ],
      "stateMutability": "view",
      "type": "function"
    },
    {
      "inputs": [
        {
          "internalType": "bytes4",
          "name": "interfaceId",
          "type": "bytes4"
        }
      ],
      "name": "supportsInterface",
      "outputs": [
        {
          "internalType": "bool",
          "name": "",
          "type": "bool"
        }
      ],
      "stateMutability": "view",
      "type": "function"
    },
    {
      "inputs": [],
      "name": "symbol",
      "outputs": [
        {
          "internalType": "string",
          "name": "",
          "type": "string"
        }
      ],
      "stateMutability": "view",
      "type": "function"
    },
    {
      "inputs": [],
      "name": "toggleHarvestStatus",
      "outputs": [],
      "stateMutability": "nonpayable",
      "type": "function"
    },
    {
      "inputs": [
        {
          "internalType": "uint256",
          "name": "tokenId",
          "type": "uint256"
        }
      ],
      "name": "tokenURI",
      "outputs": [
        {
          "internalType": "string",
          "name": "",
          "type": "string"
        }
      ],
      "stateMutability": "view",
      "type": "function"
    },
    {
      "inputs": [],
      "name": "totalSupply",
      "outputs": [
        {
          "internalType": "uint32",
          "name": "",
          "type": "uint32"
        }
      ],
      "stateMutability": "view",
      "type": "function"
    },
    {
      "inputs": [
        {
          "internalType": "address",
          "name": "from",
          "type": "address"
        },
        {
          "internalType": "address",
          "name": "to",
          "type": "address"
        },
        {
          "internalType": "uint256",
          "name": "tokenId",
          "type": "uint256"
        }
      ],
      "name": "transferFrom",
      "outputs": [],
      "stateMutability": "nonpayable",
      "type": "function"
    },
    {
      "inputs": [
        {
          "internalType": "address",
          "name": "newOwner",
          "type": "address"
        }
      ],
      "name": "transferOwnership",
      "outputs": [],
      "stateMutability": "nonpayable",
      "type": "function"
    },
    {
      "inputs": [
        {
          "internalType": "address",
          "name": "_wallet",
          "type": "address"
        },
        {
          "internalType": "address",
          "name": "_contract",
          "type": "address"
        }
      ],
      "name": "walletHoldsTokenAmount",
      "outputs": [
        {
          "internalType": "uint256",
          "name": "",
          "type": "uint256"
        }
      ],
      "stateMutability": "view",
      "type": "function"
    },
    {
      "inputs": [
        {
          "internalType": "address",
          "name": "_wallet",
          "type": "address"
        },
        {
          "internalType": "address",
          "name": "_contract",
          "type": "address"
        },
        {
          "internalType": "uint32",
          "name": "_maxTokenID",
          "type": "uint32"
        }
      ],
      "name": "walletIsOwnerOfToken",
      "outputs": [
        {
          "internalType": "string",
          "name": "",
          "type": "string"
        }
      ],
      "stateMutability": "view",
      "type": "function"
    },
    {
      "inputs": [],
      "name": "withdraw",
      "outputs": [],
      "stateMutability": "payable",
      "type": "function"
    }
  ],
  "bytecode": "0x6080604052670429d069189e00006008556005600960006101000a81548163ffffffff021916908363ffffffff1602179055506014600960046101000a81548163ffffffff021916908363ffffffff1602179055506000600960086101000a81548163ffffffff021916908363ffffffff16021790555060006009600c6101000a81548163ffffffff021916908363ffffffff1602179055506000600960106101000a81548160ff0219169083151502179055506000600c60006101000a81548160ff0219169083151502179055506032600c60016101000a81548163ffffffff021916908363ffffffff16021790555073268e1fee56498cc24758864aa092f870e8220f74600c60056101000a81548173ffffffffffffffffffffffffffffffffffffffff021916908373ffffffffffffffffffffffffffffffffffffffff1602179055503480156200015257600080fd5b5060405162005c6538038062005c6583398181016040528101906200017891906200053a565b848481600090816200018b919062000874565b5080600190816200019d919062000874565b505050620001c0620001b46200022060201b60201c565b6200022860201b60201c565b8560079081620001d1919062000874565b50826009600c6101000a81548163ffffffff021916908363ffffffff1602179055508160088190555080600960106101000a81548160ff0219169083151502179055505050505050506200095b565b600033905090565b6000600660009054906101000a900473ffffffffffffffffffffffffffffffffffffffff16905081600660006101000a81548173ffffffffffffffffffffffffffffffffffffffff021916908373ffffffffffffffffffffffffffffffffffffffff1602179055508173ffffffffffffffffffffffffffffffffffffffff168173ffffffffffffffffffffffffffffffffffffffff167f8be0079c531659141344cd1fd0a4f28419497f9722a3daafe3b4186f6b6457e060405160405180910390a35050565b6000604051905090565b600080fd5b600080fd5b600080fd5b600080fd5b6000601f19601f8301169050919050565b7f4e487b7100000000000000000000000000000000000000000000000000000000600052604160045260246000fd5b62000357826200030c565b810181811067ffffffffffffffff821117156200037957620003786200031d565b5b80604052505050565b60006200038e620002ee565b90506200039c82826200034c565b919050565b600067ffffffffffffffff821115620003bf57620003be6200031d565b5b620003ca826200030c565b9050602081019050919050565b60005b83811015620003f7578082015181840152602081019050620003da565b60008484015250505050565b60006200041a6200041484620003a1565b62000382565b90508281526020810184848401111562000439576200043862000307565b5b62000446848285620003d7565b509392505050565b600082601f83011262000466576200046562000302565b5b81516200047884826020860162000403565b91505092915050565b600063ffffffff82169050919050565b6200049c8162000481565b8114620004a857600080fd5b50565b600081519050620004bc8162000491565b92915050565b6000819050919050565b620004d781620004c2565b8114620004e357600080fd5b50565b600081519050620004f781620004cc565b92915050565b60008115159050919050565b6200051481620004fd565b81146200052057600080fd5b50565b600081519050620005348162000509565b92915050565b60008060008060008060c087890312156200055a5762000559620002f8565b5b600087015167ffffffffffffffff8111156200057b576200057a620002fd565b5b6200058989828a016200044e565b965050602087015167ffffffffffffffff811115620005ad57620005ac620002fd565b5b620005bb89828a016200044e565b955050604087015167ffffffffffffffff811115620005df57620005de620002fd565b5b620005ed89828a016200044e565b94505060606200060089828a01620004ab565b93505060806200061389828a01620004e6565b92505060a06200062689828a0162000523565b9150509295509295509295565b600081519050919050565b7f4e487b7100000000000000000000000000000000000000000000000000000000600052602260045260246000fd5b600060028204905060018216806200068657607f821691505b6020821081036200069c576200069b6200063e565b5b50919050565b60008190508160005260206000209050919050565b60006020601f8301049050919050565b600082821b905092915050565b600060088302620007067fffffffffffffffffffffffffffffffffffffffffffffffffffffffffffffffff82620006c7565b620007128683620006c7565b95508019841693508086168417925050509392505050565b6000819050919050565b6000620007556200074f6200074984620004c2565b6200072a565b620004c2565b9050919050565b6000819050919050565b620007718362000734565b6200078962000780826200075c565b848454620006d4565b825550505050565b600090565b620007a062000791565b620007ad81848462000766565b505050565b5b81811015620007d557620007c960008262000796565b600181019050620007b3565b5050565b601f8211156200082457620007ee81620006a2565b620007f984620006b7565b8101602085101562000809578190505b620008216200081885620006b7565b830182620007b2565b50505b505050565b600082821c905092915050565b6000620008496000198460080262000829565b1980831691505092915050565b600062000864838362000836565b9150826002028217905092915050565b6200087f8262000633565b67ffffffffffffffff8111156200089b576200089a6200031d565b5b620008a782546200066d565b620008b4828285620007d9565b600060209050601f831160018114620008ec5760008415620008d7578287015190505b620008e3858262000856565b86555062000953565b601f198416620008fc86620006a2565b60005b828110156200092657848901518255600182019150602085019450602081019050620008ff565b8683101562000946578489015162000942601f89168262000836565b8355505b6001600288020188555050505b505050505050565b6152fa806200096b6000396000f3fe6080604052600436106102515760003560e01c806370a0823111610139578063a71bbebe116100b6578063de8aa2b71161007a578063de8aa2b714610880578063e65d6b49146108bd578063e985e9c5146108e8578063f2fde38b14610925578063f8048d8f1461094e578063fcfff16f1461097757610251565b8063a71bbebe146107ac578063b3ec6f14146107c8578063b88d4fde146107f1578063c87b56dd1461081a578063d396639d1461085757610251565b806395d89b41116100fd57806395d89b41146106c75780639f0e94f5146106f2578063a0bcfc7f1461072f578063a102eb1914610758578063a22cb4651461078357610251565b806370a0823114610608578063715018a614610645578063729ad39e1461065c578063856ab401146106855780638da5cb5b1461069c57610251565b806318160ddd116101d257806342842e0e1161019657806342842e0e146104fa57806344a0d68a14610523578063453c23101461054c578063507e094f146105775780636352211e146105a25780636fdca5e0146105df57610251565b806318160ddd1461044857806323b872dd146104735780633006b5431461049c5780633ccfd60b146104c55780633f60bb5d146104cf57610251565b8063095ea7b311610219578063095ea7b31461034f5780630cac36b2146103785780630f99bacb146103a35780630fd4071c146103e057806313faede61461041d57610251565b806301ffc9a714610256578063047fc9aa1461029357806306fdde03146102be578063081812fc146102e9578063092501a014610326575b600080fd5b34801561026257600080fd5b5061027d600480360381019061027891906135b6565b6109a2565b60405161028a91906135fe565b60405180910390f35b34801561029f57600080fd5b506102a8610a84565b6040516102b59190613638565b60405180910390f35b3480156102ca57600080fd5b506102d3610a9a565b6040516102e091906136e3565b60405180910390f35b3480156102f557600080fd5b50610310600480360381019061030b919061373b565b610b2c565b60405161031d91906137a9565b60405180910390f35b34801561033257600080fd5b5061034d600480360381019061034891906137f0565b610bb1565b005b34801561035b57600080fd5b5061037660048036038101906103719190613849565b610c77565b005b34801561038457600080fd5b5061038d610d8e565b60405161039a91906136e3565b60405180910390f35b3480156103af57600080fd5b506103ca60048036038101906103c59190613889565b610e20565b6040516103d791906136e3565b60405180910390f35b3480156103ec57600080fd5b5061040760048036038101906104029190613889565b610f37565b60405161041491906136e3565b60405180910390f35b34801561042957600080fd5b5061043261111d565b60405161043f91906138d8565b60405180910390f35b34801561045457600080fd5b5061045d611123565b60405161046a9190613638565b60405180910390f35b34801561047f57600080fd5b5061049a600480360381019061049591906138f3565b611139565b005b3480156104a857600080fd5b506104c360048036038101906104be91906137f0565b611199565b005b6104cd61125f565b005b3480156104db57600080fd5b506104e4611354565b6040516104f191906135fe565b60405180910390f35b34801561050657600080fd5b50610521600480360381019061051c91906138f3565b611367565b005b34801561052f57600080fd5b5061054a6004803603810190610545919061373b565b611387565b005b34801561055857600080fd5b50610561611417565b60405161056e9190613638565b60405180910390f35b34801561058357600080fd5b5061058c61142d565b6040516105999190613638565b60405180910390f35b3480156105ae57600080fd5b506105c960048036038101906105c4919061373b565b611443565b6040516105d691906137a9565b60405180910390f35b3480156105eb57600080fd5b5061060660048036038101906106019190613972565b6114f4565b005b34801561061457600080fd5b5061062f600480360381019061062a919061399f565b6115a8565b60405161063c91906138d8565b60405180910390f35b34801561065157600080fd5b5061065a61165f565b005b34801561066857600080fd5b50610683600480360381019061067e9190613a31565b6116e7565b005b34801561069157600080fd5b5061069a611895565b005b3480156106a857600080fd5b506106b161193d565b6040516106be91906137a9565b60405180910390f35b3480156106d357600080fd5b506106dc611967565b6040516106e991906136e3565b60405180910390f35b3480156106fe57600080fd5b5061071960048036038101906107149190613a7e565b6119f9565b60405161072691906136e3565b60405180910390f35b34801561073b57600080fd5b5061075660048036038101906107519190613c01565b611b27565b005b34801561076457600080fd5b5061076d611bb6565b60405161077a91906136e3565b60405180910390f35b34801561078f57600080fd5b506107aa60048036038101906107a59190613c4a565b611c85565b005b6107c660048036038101906107c191906137f0565b611c9b565b005b3480156107d457600080fd5b506107ef60048036038101906107ea9190613c01565b611f3e565b005b3480156107fd57600080fd5b5061081860048036038101906108139190613d2b565b611f8e565b005b34801561082657600080fd5b50610841600480360381019061083c919061373b565b611ff0565b60405161084e91906136e3565b60405180910390f35b34801561086357600080fd5b5061087e60048036038101906108799190613dae565b612097565b005b34801561088c57600080fd5b506108a760048036038101906108a29190613e29565b612147565b6040516108b491906138d8565b60405180910390f35b3480156108c957600080fd5b506108d26121cb565b6040516108df9190613638565b60405180910390f35b3480156108f457600080fd5b5061090f600480360381019061090a9190613e29565b612261565b60405161091c91906135fe565b60405180910390f35b34801561093157600080fd5b5061094c6004803603810190610947919061399f565b6122f5565b005b34801561095a57600080fd5b50610975600480360381019061097091906137f0565b6123ec565b005b34801561098357600080fd5b5061098c6124b2565b60405161099991906135fe565b60405180910390f35b60007f80ac58cd000000000000000000000000000000000000000000000000000000007bffffffffffffffffffffffffffffffffffffffffffffffffffffffff1916827bffffffffffffffffffffffffffffffffffffffffffffffffffffffff19161480610a6d57507f5b5e139f000000000000000000000000000000000000000000000000000000007bffffffffffffffffffffffffffffffffffffffffffffffffffffffff1916827bffffffffffffffffffffffffffffffffffffffffffffffffffffffff1916145b80610a7d5750610a7c826124c5565b5b9050919050565b600960089054906101000a900463ffffffff1681565b606060008054610aa990613e98565b80601f0160208091040260200160405190810160405280929190818152602001828054610ad590613e98565b8015610b225780601f10610af757610100808354040283529160200191610b22565b820191906000526020600020905b815481529060010190602001808311610b0557829003601f168201915b5050505050905090565b6000610b378261252f565b610b76576040517f08c379a0000000000000000000000000000000000000000000000000000000008152600401610b6d90613f3b565b60405180910390fd5b6004600083815260200190815260200160002060009054906101000a900473ffffffffffffffffffffffffffffffffffffffff169050919050565b610bb961259b565b73ffffffffffffffffffffffffffffffffffffffff16610bd761193d565b73ffffffffffffffffffffffffffffffffffffffff1614610c2d576040517f08c379a0000000000000000000000000000000000000000000000000000000008152600401610c2490613fa7565b60405180910390fd5b8063ffffffff16600c60019054906101000a900463ffffffff1663ffffffff1614610c745780600c60016101000a81548163ffffffff021916908363ffffffff1602179055505b50565b6000610c8282611443565b90508073ffffffffffffffffffffffffffffffffffffffff168373ffffffffffffffffffffffffffffffffffffffff1603610cf2576040517f08c379a0000000000000000000000000000000000000000000000000000000008152600401610ce990614039565b60405180910390fd5b8073ffffffffffffffffffffffffffffffffffffffff16610d1161259b565b73ffffffffffffffffffffffffffffffffffffffff161480610d405750610d3f81610d3a61259b565b612261565b5b610d7f576040517f08c379a0000000000000000000000000000000000000000000000000000000008152600401610d76906140cb565b60405180910390fd5b610d8983836125a3565b505050565b606060078054610d9d90613e98565b80601f0160208091040260200160405190810160405280929190818152602001828054610dc990613e98565b8015610e165780601f10610deb57610100808354040283529160200191610e16565b820191906000526020600020905b815481529060010190602001808311610df957829003601f168201915b5050505050905090565b606060006040518060200160405280600081525090506000600190505b8363ffffffff168163ffffffff1611610f2c5760008573ffffffffffffffffffffffffffffffffffffffff16636352211e836040518263ffffffff1660e01b8152600401610e8b9190614126565b602060405180830381865afa158015610ea8573d6000803e3d6000fd5b505050506040513d601f19601f82011682018060405250810190610ecc9190614156565b90506000610ef18273ffffffffffffffffffffffffffffffffffffffff16601461265c565b90508381604051602001610f069291906141e5565b604051602081830303815290604052935050508080610f2490614247565b915050610e3d565b508091505092915050565b606060006040518060200160405280600081525090506000600190505b8363ffffffff168163ffffffff16116111125760008573ffffffffffffffffffffffffffffffffffffffff16636352211e836040518263ffffffff1660e01b8152600401610fa29190614126565b602060405180830381865afa158015610fbf573d6000803e3d6000fd5b505050506040513d601f19601f82011682018060405250810190610fe39190614156565b905060006110088273ffffffffffffffffffffffffffffffffffffffff16601461265c565b90506000600b60008473ffffffffffffffffffffffffffffffffffffffff1673ffffffffffffffffffffffffffffffffffffffff168152602001908152602001600020805461105690613e98565b80601f016020809104026020016040519081016040528092919081815260200182805461108290613e98565b80156110cf5780601f106110a4576101008083540402835291602001916110cf565b820191906000526020600020905b8154815290600101906020018083116110b257829003601f168201915b505050505090508482826040516020016110eb93929190614299565b6040516020818303038152906040529450505050808061110a90614247565b915050610f54565b508091505092915050565b60085481565b6009600c9054906101000a900463ffffffff1681565b61114a61114461259b565b82612898565b611189576040517f08c379a00000000000000000000000000000000000000000000000000000000081526004016111809061435a565b60405180910390fd5b611194838383612976565b505050565b6111a161259b565b73ffffffffffffffffffffffffffffffffffffffff166111bf61193d565b73ffffffffffffffffffffffffffffffffffffffff1614611215576040517f08c379a000000000000000000000000000000000000000000000000000000000815260040161120c90613fa7565b60405180910390fd5b8063ffffffff16600960049054906101000a900463ffffffff1663ffffffff161461125c5780600960046101000a81548163ffffffff021916908363ffffffff1602179055505b50565b61126761259b565b73ffffffffffffffffffffffffffffffffffffffff1661128561193d565b73ffffffffffffffffffffffffffffffffffffffff16146112db576040517f08c379a00000000000000000000000000000000000000000000000000000000081526004016112d290613fa7565b60405180910390fd5b60003373ffffffffffffffffffffffffffffffffffffffff1647604051611301906143ab565b60006040518083038185875af1925050503d806000811461133e576040519150601f19603f3d011682016040523d82523d6000602084013e611343565b606091505b505090508061135157600080fd5b50565b600c60009054906101000a900460ff1681565b61138283838360405180602001604052806000815250611f8e565b505050565b61138f61259b565b73ffffffffffffffffffffffffffffffffffffffff166113ad61193d565b73ffffffffffffffffffffffffffffffffffffffff1614611403576040517f08c379a00000000000000000000000000000000000000000000000000000000081526004016113fa90613fa7565b60405180910390fd5b806008541461141457806008819055505b50565b600960049054906101000a900463ffffffff1681565b600960009054906101000a900463ffffffff1681565b6000806002600084815260200190815260200160002060009054906101000a900473ffffffffffffffffffffffffffffffffffffffff169050600073ffffffffffffffffffffffffffffffffffffffff168173ffffffffffffffffffffffffffffffffffffffff16036114eb576040517f08c379a00000000000000000000000000000000000000000000000000000000081526004016114e290614432565b60405180910390fd5b80915050919050565b6114fc61259b565b73ffffffffffffffffffffffffffffffffffffffff1661151a61193d565b73ffffffffffffffffffffffffffffffffffffffff1614611570576040517f08c379a000000000000000000000000000000000000000000000000000000000815260040161156790613fa7565b60405180910390fd5b801515600960109054906101000a900460ff161515146115a55780600960106101000a81548160ff0219169083151502179055505b50565b60008073ffffffffffffffffffffffffffffffffffffffff168273ffffffffffffffffffffffffffffffffffffffff1603611618576040517f08c379a000000000000000000000000000000000000000000000000000000000815260040161160f906144c4565b60405180910390fd5b600360008373ffffffffffffffffffffffffffffffffffffffff1673ffffffffffffffffffffffffffffffffffffffff168152602001908152602001600020549050919050565b61166761259b565b73ffffffffffffffffffffffffffffffffffffffff1661168561193d565b73ffffffffffffffffffffffffffffffffffffffff16146116db576040517f08c379a00000000000000000000000000000000000000000000000000000000081526004016116d290613fa7565b60405180910390fd5b6116e56000612bd1565b565b6116ef61259b565b73ffffffffffffffffffffffffffffffffffffffff1661170d61193d565b73ffffffffffffffffffffffffffffffffffffffff1614611763576040517f08c379a000000000000000000000000000000000000000000000000000000000815260040161175a90613fa7565b60405180910390fd5b60005b828290508163ffffffff161015611890576009600c9054906101000a900463ffffffff1663ffffffff16600960089054906101000a900463ffffffff1660016117af91906144e4565b63ffffffff1611156117f6576040517f08c379a00000000000000000000000000000000000000000000000000000000081526004016117ed90614568565b60405180910390fd5b61187d83838363ffffffff1681811061181257611811614588565b5b9050602002016020810190611827919061399f565b6009600881819054906101000a900463ffffffff1661184590614247565b91906101000a81548163ffffffff021916908363ffffffff160217905563ffffffff1660405180602001604052806000815250612c97565b808061188890614247565b915050611766565b505050565b61189d61259b565b73ffffffffffffffffffffffffffffffffffffffff166118bb61193d565b73ffffffffffffffffffffffffffffffffffffffff1614611911576040517f08c379a000000000000000000000000000000000000000000000000000000000815260040161190890613fa7565b60405180910390fd5b600c60009054906101000a900460ff1615600c60006101000a81548160ff021916908315150217905550565b6000600660009054906101000a900473ffffffffffffffffffffffffffffffffffffffff16905090565b60606001805461197690613e98565b80601f01602080910402602001604051908101604052809291908181526020018280546119a290613e98565b80156119ef5780601f106119c4576101008083540402835291602001916119ef565b820191906000526020600020905b8154815290600101906020018083116119d257829003601f168201915b5050505050905090565b606060006040518060200160405280600081525090506000600190505b8363ffffffff168163ffffffff1611611b1b578573ffffffffffffffffffffffffffffffffffffffff168573ffffffffffffffffffffffffffffffffffffffff16636352211e836040518263ffffffff1660e01b8152600401611a799190614126565b602060405180830381865afa158015611a96573d6000803e3d6000fd5b505050506040513d601f19601f82011682018060405250810190611aba9190614156565b73ffffffffffffffffffffffffffffffffffffffff1603611b085781611ae58263ffffffff16612cf2565b604051602001611af69291906141e5565b60405160208183030381529060405291505b8080611b1390614247565b915050611a16565b50809150509392505050565b611b2f61259b565b73ffffffffffffffffffffffffffffffffffffffff16611b4d61193d565b73ffffffffffffffffffffffffffffffffffffffff1614611ba3576040517f08c379a0000000000000000000000000000000000000000000000000000000008152600401611b9a90613fa7565b60405180910390fd5b8060079081611bb29190614759565b5050565b6060600b60003373ffffffffffffffffffffffffffffffffffffffff1673ffffffffffffffffffffffffffffffffffffffff1681526020019081526020016000208054611c0290613e98565b80601f0160208091040260200160405190810160405280929190818152602001828054611c2e90613e98565b8015611c7b5780601f10611c5057610100808354040283529160200191611c7b565b820191906000526020600020905b815481529060010190602001808311611c5e57829003601f168201915b5050505050905090565b611c97611c9061259b565b8383612e52565b5050565b8060008163ffffffff1611611ce5576040517f08c379a0000000000000000000000000000000000000000000000000000000008152600401611cdc90614877565b60405180910390fd5b6001600960009054906101000a900463ffffffff16611d0491906144e4565b63ffffffff168163ffffffff1610611d51576040517f08c379a0000000000000000000000000000000000000000000000000000000008152600401611d48906148e3565b60405180910390fd5b8063ffffffff16600854611d659190614903565b341015611da7576040517f08c379a0000000000000000000000000000000000000000000000000000000008152600401611d9e90614991565b60405180910390fd5b60016009600c9054906101000a900463ffffffff16611dc691906144e4565b63ffffffff1681600960089054906101000a900463ffffffff16611dea91906144e4565b63ffffffff1610611e30576040517f08c379a0000000000000000000000000000000000000000000000000000000008152600401611e27906149fd565b60405180910390fd5b600960049054906101000a900463ffffffff1663ffffffff168163ffffffff16600a60003373ffffffffffffffffffffffffffffffffffffffff1673ffffffffffffffffffffffffffffffffffffffff16815260200190815260200160002054611e9a9190614a1d565b1115611edb576040517f08c379a0000000000000000000000000000000000000000000000000000000008152600401611ed290614a9d565b60405180910390fd5b60011515600960109054906101000a900460ff16151514611f31576040517f08c379a0000000000000000000000000000000000000000000000000000000008152600401611f2890614b09565b60405180910390fd5b611f3a82612fbe565b5050565b80600b60003373ffffffffffffffffffffffffffffffffffffffff1673ffffffffffffffffffffffffffffffffffffffff1681526020019081526020016000209081611f8a9190614759565b5050565b611f9f611f9961259b565b83612898565b611fde576040517f08c379a0000000000000000000000000000000000000000000000000000000008152600401611fd59061435a565b60405180910390fd5b611fea8484848461316b565b50505050565b6060611ffb8261252f565b61203a576040517f08c379a000000000000000000000000000000000000000000000000000000000815260040161203190614b9b565b60405180910390fd5b60006120446131c7565b90506000815111612064576040518060200160405280600081525061208f565b8061206e84612cf2565b60405160200161207f929190614bbb565b6040516020818303038152906040525b915050919050565b61209f61259b565b73ffffffffffffffffffffffffffffffffffffffff166120bd61193d565b73ffffffffffffffffffffffffffffffffffffffff1614612113576040517f08c379a000000000000000000000000000000000000000000000000000000000815260040161210a90613fa7565b60405180910390fd5b61211c85611387565b61212584611199565b61212e836123ec565b61213782610bb1565b612140816114f4565b5050505050565b60008173ffffffffffffffffffffffffffffffffffffffff166370a08231846040518263ffffffff1660e01b815260040161218291906137a9565b602060405180830381865afa15801561219f573d6000803e3d6000fd5b505050506040513d601f19601f820116820180604052508101906121c39190614bf4565b905092915050565b60006121d561259b565b73ffffffffffffffffffffffffffffffffffffffff166121f361193d565b73ffffffffffffffffffffffffffffffffffffffff1614612249576040517f08c379a000000000000000000000000000000000000000000000000000000000815260040161224090613fa7565b60405180910390fd5b600c60019054906101000a900463ffffffff16905090565b6000600560008473ffffffffffffffffffffffffffffffffffffffff1673ffffffffffffffffffffffffffffffffffffffff16815260200190815260200160002060008373ffffffffffffffffffffffffffffffffffffffff1673ffffffffffffffffffffffffffffffffffffffff16815260200190815260200160002060009054906101000a900460ff16905092915050565b6122fd61259b565b73ffffffffffffffffffffffffffffffffffffffff1661231b61193d565b73ffffffffffffffffffffffffffffffffffffffff1614612371576040517f08c379a000000000000000000000000000000000000000000000000000000000815260040161236890613fa7565b60405180910390fd5b600073ffffffffffffffffffffffffffffffffffffffff168173ffffffffffffffffffffffffffffffffffffffff16036123e0576040517f08c379a00000000000000000000000000000000000000000000000000000000081526004016123d790614c93565b60405180910390fd5b6123e981612bd1565b50565b6123f461259b565b73ffffffffffffffffffffffffffffffffffffffff1661241261193d565b73ffffffffffffffffffffffffffffffffffffffff1614612468576040517f08c379a000000000000000000000000000000000000000000000000000000000815260040161245f90613fa7565b60405180910390fd5b8063ffffffff16600960009054906101000a900463ffffffff1663ffffffff16146124af5780600960006101000a81548163ffffffff021916908363ffffffff1602179055505b50565b600960109054906101000a900460ff1681565b60007f01ffc9a7000000000000000000000000000000000000000000000000000000007bffffffffffffffffffffffffffffffffffffffffffffffffffffffff1916827bffffffffffffffffffffffffffffffffffffffffffffffffffffffff1916149050919050565b60008073ffffffffffffffffffffffffffffffffffffffff166002600084815260200190815260200160002060009054906101000a900473ffffffffffffffffffffffffffffffffffffffff1673ffffffffffffffffffffffffffffffffffffffff1614159050919050565b600033905090565b816004600083815260200190815260200160002060006101000a81548173ffffffffffffffffffffffffffffffffffffffff021916908373ffffffffffffffffffffffffffffffffffffffff160217905550808273ffffffffffffffffffffffffffffffffffffffff1661261683611443565b73ffffffffffffffffffffffffffffffffffffffff167f8c5be1e5ebec7d5bd14f71427d1e84f3dd0314c0f7b2291e5b200ac8c7c3b92560405160405180910390a45050565b60606000600283600261266f9190614903565b6126799190614a1d565b67ffffffffffffffff81111561269257612691613ad6565b5b6040519080825280601f01601f1916602001820160405280156126c45781602001600182028036833780820191505090505b5090507f3000000000000000000000000000000000000000000000000000000000000000816000815181106126fc576126fb614588565b5b60200101907effffffffffffffffffffffffffffffffffffffffffffffffffffffffffffff1916908160001a9053507f7800000000000000000000000000000000000000000000000000000000000000816001815181106127605761275f614588565b5b60200101907effffffffffffffffffffffffffffffffffffffffffffffffffffffffffffff1916908160001a905350600060018460026127a09190614903565b6127aa9190614a1d565b90505b600181111561284a577f3031323334353637383961626364656600000000000000000000000000000000600f8616601081106127ec576127eb614588565b5b1a60f81b82828151811061280357612802614588565b5b60200101907effffffffffffffffffffffffffffffffffffffffffffffffffffffffffffff1916908160001a905350600485901c94508061284390614cb3565b90506127ad565b506000841461288e576040517f08c379a000000000000000000000000000000000000000000000000000000000815260040161288590614d28565b60405180910390fd5b8091505092915050565b60006128a38261252f565b6128e2576040517f08c379a00000000000000000000000000000000000000000000000000000000081526004016128d990614dba565b60405180910390fd5b60006128ed83611443565b90508073ffffffffffffffffffffffffffffffffffffffff168473ffffffffffffffffffffffffffffffffffffffff16148061295c57508373ffffffffffffffffffffffffffffffffffffffff1661294484610b2c565b73ffffffffffffffffffffffffffffffffffffffff16145b8061296d575061296c8185612261565b5b91505092915050565b8273ffffffffffffffffffffffffffffffffffffffff1661299682611443565b73ffffffffffffffffffffffffffffffffffffffff16146129ec576040517f08c379a00000000000000000000000000000000000000000000000000000000081526004016129e390614e4c565b60405180910390fd5b600073ffffffffffffffffffffffffffffffffffffffff168273ffffffffffffffffffffffffffffffffffffffff1603612a5b576040517f08c379a0000000000000000000000000000000000000000000000000000000008152600401612a5290614ede565b60405180910390fd5b612a668383836131de565b612a716000826125a3565b6001600360008573ffffffffffffffffffffffffffffffffffffffff1673ffffffffffffffffffffffffffffffffffffffff1681526020019081526020016000206000828254612ac19190614efe565b925050819055506001600360008473ffffffffffffffffffffffffffffffffffffffff1673ffffffffffffffffffffffffffffffffffffffff1681526020019081526020016000206000828254612b189190614a1d565b92505081905550816002600083815260200190815260200160002060006101000a81548173ffffffffffffffffffffffffffffffffffffffff021916908373ffffffffffffffffffffffffffffffffffffffff160217905550808273ffffffffffffffffffffffffffffffffffffffff168473ffffffffffffffffffffffffffffffffffffffff167fddf252ad1be2c89b69c2b068fc378daa952ba7f163c4a11628f55a4df523b3ef60405160405180910390a4505050565b6000600660009054906101000a900473ffffffffffffffffffffffffffffffffffffffff16905081600660006101000a81548173ffffffffffffffffffffffffffffffffffffffff021916908373ffffffffffffffffffffffffffffffffffffffff1602179055508173ffffffffffffffffffffffffffffffffffffffff168173ffffffffffffffffffffffffffffffffffffffff167f8be0079c531659141344cd1fd0a4f28419497f9722a3daafe3b4186f6b6457e060405160405180910390a35050565b612ca183836131e3565b612cae60008484846133b0565b612ced576040517f08c379a0000000000000000000000000000000000000000000000000000000008152600401612ce490614fa4565b60405180910390fd5b505050565b606060008203612d39576040518060400160405280600181526020017f30000000000000000000000000000000000000000000000000000000000000008152509050612e4d565b600082905060005b60008214612d6b578080612d5490614fc4565b915050600a82612d64919061503b565b9150612d41565b60008167ffffffffffffffff811115612d8757612d86613ad6565b5b6040519080825280601f01601f191660200182016040528015612db95781602001600182028036833780820191505090505b5090505b60008514612e4657600182612dd29190614efe565b9150600a85612de1919061506c565b6030612ded9190614a1d565b60f81b818381518110612e0357612e02614588565b5b60200101907effffffffffffffffffffffffffffffffffffffffffffffffffffffffffffff1916908160001a905350600a85612e3f919061503b565b9450612dbd565b8093505050505b919050565b8173ffffffffffffffffffffffffffffffffffffffff168373ffffffffffffffffffffffffffffffffffffffff1603612ec0576040517f08c379a0000000000000000000000000000000000000000000000000000000008152600401612eb7906150e9565b60405180910390fd5b80600560008573ffffffffffffffffffffffffffffffffffffffff1673ffffffffffffffffffffffffffffffffffffffff16815260200190815260200160002060008473ffffffffffffffffffffffffffffffffffffffff1673ffffffffffffffffffffffffffffffffffffffff16815260200190815260200160002060006101000a81548160ff0219169083151502179055508173ffffffffffffffffffffffffffffffffffffffff168373ffffffffffffffffffffffffffffffffffffffff167f17307eab39ab6107e8899845ad3d59bd9653f200f220920489ca2b5937696c3183604051612fb191906135fe565b60405180910390a3505050565b60005b8163ffffffff168163ffffffff1610156130425761302f336009600881819054906101000a900463ffffffff16612ff790614247565b91906101000a81548163ffffffff021916908363ffffffff160217905563ffffffff1660405180602001604052806000815250612c97565b808061303a90614247565b915050612fc1565b508063ffffffff16600a60003373ffffffffffffffffffffffffffffffffffffffff1673ffffffffffffffffffffffffffffffffffffffff16815260200190815260200160002060008282546130989190614a1d565b925050819055506000600c60059054906101000a900473ffffffffffffffffffffffffffffffffffffffff1673ffffffffffffffffffffffffffffffffffffffff166103e8600c60019054906101000a900463ffffffff1663ffffffff16346131019190614903565b61310b919061503b565b604051613117906143ab565b60006040518083038185875af1925050503d8060008114613154576040519150601f19603f3d011682016040523d82523d6000602084013e613159565b606091505b505090508061316757600080fd5b5050565b613176848484612976565b613182848484846133b0565b6131c1576040517f08c379a00000000000000000000000000000000000000000000000000000000081526004016131b890614fa4565b60405180910390fd5b50505050565b606060405180602001604052806000815250905090565b505050565b600073ffffffffffffffffffffffffffffffffffffffff168273ffffffffffffffffffffffffffffffffffffffff1603613252576040517f08c379a000000000000000000000000000000000000000000000000000000000815260040161324990615155565b60405180910390fd5b61325b8161252f565b1561329b576040517f08c379a0000000000000000000000000000000000000000000000000000000008152600401613292906151c1565b60405180910390fd5b6132a7600083836131de565b6001600360008473ffffffffffffffffffffffffffffffffffffffff1673ffffffffffffffffffffffffffffffffffffffff16815260200190815260200160002060008282546132f79190614a1d565b92505081905550816002600083815260200190815260200160002060006101000a81548173ffffffffffffffffffffffffffffffffffffffff021916908373ffffffffffffffffffffffffffffffffffffffff160217905550808273ffffffffffffffffffffffffffffffffffffffff16600073ffffffffffffffffffffffffffffffffffffffff167fddf252ad1be2c89b69c2b068fc378daa952ba7f163c4a11628f55a4df523b3ef60405160405180910390a45050565b60006133d18473ffffffffffffffffffffffffffffffffffffffff16613537565b1561352a578373ffffffffffffffffffffffffffffffffffffffff1663150b7a026133fa61259b565b8786866040518563ffffffff1660e01b815260040161341c9493929190615236565b6020604051808303816000875af192505050801561345857506040513d601f19601f820116820180604052508101906134559190615297565b60015b6134da573d8060008114613488576040519150601f19603f3d011682016040523d82523d6000602084013e61348d565b606091505b5060008151036134d2576040517f08c379a00000000000000000000000000000000000000000000000000000000081526004016134c990614fa4565b60405180910390fd5b805181602001fd5b63150b7a0260e01b7bffffffffffffffffffffffffffffffffffffffffffffffffffffffff1916817bffffffffffffffffffffffffffffffffffffffffffffffffffffffff19161491505061352f565b600190505b949350505050565b600080823b905060008111915050919050565b6000604051905090565b600080fd5b600080fd5b60007fffffffff0000000000000000000000000000000000000000000000000000000082169050919050565b6135938161355e565b811461359e57600080fd5b50565b6000813590506135b08161358a565b92915050565b6000602082840312156135cc576135cb613554565b5b60006135da848285016135a1565b91505092915050565b60008115159050919050565b6135f8816135e3565b82525050565b600060208201905061361360008301846135ef565b92915050565b600063ffffffff82169050919050565b61363281613619565b82525050565b600060208201905061364d6000830184613629565b92915050565b600081519050919050565b600082825260208201905092915050565b60005b8381101561368d578082015181840152602081019050613672565b60008484015250505050565b6000601f19601f8301169050919050565b60006136b582613653565b6136bf818561365e565b93506136cf81856020860161366f565b6136d881613699565b840191505092915050565b600060208201905081810360008301526136fd81846136aa565b905092915050565b6000819050919050565b61371881613705565b811461372357600080fd5b50565b6000813590506137358161370f565b92915050565b60006020828403121561375157613750613554565b5b600061375f84828501613726565b91505092915050565b600073ffffffffffffffffffffffffffffffffffffffff82169050919050565b600061379382613768565b9050919050565b6137a381613788565b82525050565b60006020820190506137be600083018461379a565b92915050565b6137cd81613619565b81146137d857600080fd5b50565b6000813590506137ea816137c4565b92915050565b60006020828403121561380657613805613554565b5b6000613814848285016137db565b91505092915050565b61382681613788565b811461383157600080fd5b50565b6000813590506138438161381d565b92915050565b600080604083850312156138605761385f613554565b5b600061386e85828601613834565b925050602061387f85828601613726565b9150509250929050565b600080604083850312156138a05761389f613554565b5b60006138ae85828601613834565b92505060206138bf858286016137db565b9150509250929050565b6138d281613705565b82525050565b60006020820190506138ed60008301846138c9565b92915050565b60008060006060848603121561390c5761390b613554565b5b600061391a86828701613834565b935050602061392b86828701613834565b925050604061393c86828701613726565b9150509250925092565b61394f816135e3565b811461395a57600080fd5b50565b60008135905061396c81613946565b92915050565b60006020828403121561398857613987613554565b5b60006139968482850161395d565b91505092915050565b6000602082840312156139b5576139b4613554565b5b60006139c384828501613834565b91505092915050565b600080fd5b600080fd5b600080fd5b60008083601f8401126139f1576139f06139cc565b5b8235905067ffffffffffffffff811115613a0e57613a0d6139d1565b5b602083019150836020820283011115613a2a57613a296139d6565b5b9250929050565b60008060208385031215613a4857613a47613554565b5b600083013567ffffffffffffffff811115613a6657613a65613559565b5b613a72858286016139db565b92509250509250929050565b600080600060608486031215613a9757613a96613554565b5b6000613aa586828701613834565b9350506020613ab686828701613834565b9250506040613ac7868287016137db565b9150509250925092565b600080fd5b7f4e487b7100000000000000000000000000000000000000000000000000000000600052604160045260246000fd5b613b0e82613699565b810181811067ffffffffffffffff82111715613b2d57613b2c613ad6565b5b80604052505050565b6000613b4061354a565b9050613b4c8282613b05565b919050565b600067ffffffffffffffff821115613b6c57613b6b613ad6565b5b613b7582613699565b9050602081019050919050565b82818337600083830152505050565b6000613ba4613b9f84613b51565b613b36565b905082815260208101848484011115613bc057613bbf613ad1565b5b613bcb848285613b82565b509392505050565b600082601f830112613be857613be76139cc565b5b8135613bf8848260208601613b91565b91505092915050565b600060208284031215613c1757613c16613554565b5b600082013567ffffffffffffffff811115613c3557613c34613559565b5b613c4184828501613bd3565b91505092915050565b60008060408385031215613c6157613c60613554565b5b6000613c6f85828601613834565b9250506020613c808582860161395d565b9150509250929050565b600067ffffffffffffffff821115613ca557613ca4613ad6565b5b613cae82613699565b9050602081019050919050565b6000613cce613cc984613c8a565b613b36565b905082815260208101848484011115613cea57613ce9613ad1565b5b613cf5848285613b82565b509392505050565b600082601f830112613d1257613d116139cc565b5b8135613d22848260208601613cbb565b91505092915050565b60008060008060808587031215613d4557613d44613554565b5b6000613d5387828801613834565b9450506020613d6487828801613834565b9350506040613d7587828801613726565b925050606085013567ffffffffffffffff811115613d9657613d95613559565b5b613da287828801613cfd565b91505092959194509250565b600080600080600060a08688031215613dca57613dc9613554565b5b6000613dd888828901613726565b9550506020613de9888289016137db565b9450506040613dfa888289016137db565b9350506060613e0b888289016137db565b9250506080613e1c8882890161395d565b9150509295509295909350565b60008060408385031215613e4057613e3f613554565b5b6000613e4e85828601613834565b9250506020613e5f85828601613834565b9150509250929050565b7f4e487b7100000000000000000000000000000000000000000000000000000000600052602260045260246000fd5b60006002820490506001821680613eb057607f821691505b602082108103613ec357613ec2613e69565b5b50919050565b7f4552433732313a20617070726f76656420717565727920666f72206e6f6e657860008201527f697374656e7420746f6b656e0000000000000000000000000000000000000000602082015250565b6000613f25602c8361365e565b9150613f3082613ec9565b604082019050919050565b60006020820190508181036000830152613f5481613f18565b9050919050565b7f4f776e61626c653a2063616c6c6572206973206e6f7420746865206f776e6572600082015250565b6000613f9160208361365e565b9150613f9c82613f5b565b602082019050919050565b60006020820190508181036000830152613fc081613f84565b9050919050565b7f4552433732313a20617070726f76616c20746f2063757272656e74206f776e6560008201527f7200000000000000000000000000000000000000000000000000000000000000602082015250565b600061402360218361365e565b915061402e82613fc7565b604082019050919050565b6000602082019050818103600083015261405281614016565b9050919050565b7f4552433732313a20617070726f76652063616c6c6572206973206e6f74206f7760008201527f6e6572206e6f7220617070726f76656420666f7220616c6c0000000000000000602082015250565b60006140b560388361365e565b91506140c082614059565b604082019050919050565b600060208201905081810360008301526140e4816140a8565b9050919050565b6000819050919050565b600061411061410b61410684613619565b6140eb565b613705565b9050919050565b614120816140f5565b82525050565b600060208201905061413b6000830184614117565b92915050565b6000815190506141508161381d565b92915050565b60006020828403121561416c5761416b613554565b5b600061417a84828501614141565b91505092915050565b600081905092915050565b600061419982613653565b6141a38185614183565b93506141b381856020860161366f565b80840191505092915050565b7f2c00000000000000000000000000000000000000000000000000000000000000815250565b60006141f1828561418e565b91506141fd828461418e565b9150614208826141bf565b6001820191508190509392505050565b7f4e487b7100000000000000000000000000000000000000000000000000000000600052601160045260246000fd5b600061425282613619565b915063ffffffff820361426857614267614218565b5b600182019050919050565b7f7c00000000000000000000000000000000000000000000000000000000000000815250565b60006142a5828661418e565b91506142b1828561418e565b91506142bc82614273565b6001820191506142cc828461418e565b91506142d7826141bf565b600182019150819050949350505050565b7f4552433732313a207472616e736665722063616c6c6572206973206e6f74206f60008201527f776e6572206e6f7220617070726f766564000000000000000000000000000000602082015250565b600061434460318361365e565b915061434f826142e8565b604082019050919050565b6000602082019050818103600083015261437381614337565b9050919050565b600081905092915050565b50565b600061439560008361437a565b91506143a082614385565b600082019050919050565b60006143b682614388565b9150819050919050565b7f4552433732313a206f776e657220717565727920666f72206e6f6e657869737460008201527f656e7420746f6b656e0000000000000000000000000000000000000000000000602082015250565b600061441c60298361365e565b9150614427826143c0565b604082019050919050565b6000602082019050818103600083015261444b8161440f565b9050919050565b7f4552433732313a2062616c616e636520717565727920666f7220746865207a6560008201527f726f206164647265737300000000000000000000000000000000000000000000602082015250565b60006144ae602a8361365e565b91506144b982614452565b604082019050919050565b600060208201905081810360008301526144dd816144a1565b9050919050565b60006144ef82613619565b91506144fa83613619565b9250828201905063ffffffff81111561451657614515614218565b5b92915050565b7f4c696d6974207265616368656400000000000000000000000000000000000000600082015250565b6000614552600d8361365e565b915061455d8261451c565b602082019050919050565b6000602082019050818103600083015261458181614545565b9050919050565b7f4e487b7100000000000000000000000000000000000000000000000000000000600052603260045260246000fd5b60008190508160005260206000209050919050565b60006020601f8301049050919050565b600082821b905092915050565b6000600883026146197fffffffffffffffffffffffffffffffffffffffffffffffffffffffffffffffff826145dc565b61462386836145dc565b95508019841693508086168417925050509392505050565b600061465661465161464c84613705565b6140eb565b613705565b9050919050565b6000819050919050565b6146708361463b565b61468461467c8261465d565b8484546145e9565b825550505050565b600090565b61469961468c565b6146a4818484614667565b505050565b5b818110156146c8576146bd600082614691565b6001810190506146aa565b5050565b601f82111561470d576146de816145b7565b6146e7846145cc565b810160208510156146f6578190505b61470a614702856145cc565b8301826146a9565b50505b505050565b600082821c905092915050565b600061473060001984600802614712565b1980831691505092915050565b6000614749838361471f565b9150826002028217905092915050565b61476282613653565b67ffffffffffffffff81111561477b5761477a613ad6565b5b6147858254613e98565b6147908282856146cc565b600060209050601f8311600181146147c357600084156147b1578287015190505b6147bb858261473d565b865550614823565b601f1984166147d1866145b7565b60005b828110156147f9578489015182556001820191506020850194506020810190506147d4565b868310156148165784890151614812601f89168261471f565b8355505b6001600288020188555050505b505050505050565b7f4d696e74206174206c65617374206f6e652e0000000000000000000000000000600082015250565b600061486160128361365e565b915061486c8261482b565b602082019050919050565b6000602082019050818103600083015261489081614854565b9050919050565b7f4d6178206d696e7420726561636865642e000000000000000000000000000000600082015250565b60006148cd60118361365e565b91506148d882614897565b602082019050919050565b600060208201905081810360008301526148fc816148c0565b9050919050565b600061490e82613705565b915061491983613705565b925082820261492781613705565b9150828204841483151761493e5761493d614218565b5b5092915050565b7f4e6f7420656e6f7567682066756e642e00000000000000000000000000000000600082015250565b600061497b60108361365e565b915061498682614945565b602082019050919050565b600060208201905081810360008301526149aa8161496e565b9050919050565b7f4d696e7420736f6c64206f757400000000000000000000000000000000000000600082015250565b60006149e7600d8361365e565b91506149f2826149b1565b602082019050919050565b60006020820190508181036000830152614a16816149da565b9050919050565b6000614a2882613705565b9150614a3383613705565b9250828201905080821115614a4b57614a4a614218565b5b92915050565b7f4d617820746f74616c206d696e74207265616368656400000000000000000000600082015250565b6000614a8760168361365e565b9150614a9282614a51565b602082019050919050565b60006020820190508181036000830152614ab681614a7a565b9050919050565b7f4d696e74206e6f74206f70656e00000000000000000000000000000000000000600082015250565b6000614af3600d8361365e565b9150614afe82614abd565b602082019050919050565b60006020820190508181036000830152614b2281614ae6565b9050919050565b7f4552433732314d657461646174613a2055524920717565727920666f72206e6f60008201527f6e6578697374656e7420746f6b656e0000000000000000000000000000000000602082015250565b6000614b85602f8361365e565b9150614b9082614b29565b604082019050919050565b60006020820190508181036000830152614bb481614b78565b9050919050565b6000614bc7828561418e565b9150614bd3828461418e565b91508190509392505050565b600081519050614bee8161370f565b92915050565b600060208284031215614c0a57614c09613554565b5b6000614c1884828501614bdf565b91505092915050565b7f4f776e61626c653a206e6577206f776e657220697320746865207a65726f206160008201527f6464726573730000000000000000000000000000000000000000000000000000602082015250565b6000614c7d60268361365e565b9150614c8882614c21565b604082019050919050565b60006020820190508181036000830152614cac81614c70565b9050919050565b6000614cbe82613705565b915060008203614cd157614cd0614218565b5b600182039050919050565b7f537472696e67733a20686578206c656e67746820696e73756666696369656e74600082015250565b6000614d1260208361365e565b9150614d1d82614cdc565b602082019050919050565b60006020820190508181036000830152614d4181614d05565b9050919050565b7f4552433732313a206f70657261746f7220717565727920666f72206e6f6e657860008201527f697374656e7420746f6b656e0000000000000000000000000000000000000000602082015250565b6000614da4602c8361365e565b9150614daf82614d48565b604082019050919050565b60006020820190508181036000830152614dd381614d97565b9050919050565b7f4552433732313a207472616e73666572206f6620746f6b656e2074686174206960008201527f73206e6f74206f776e0000000000000000000000000000000000000000000000602082015250565b6000614e3660298361365e565b9150614e4182614dda565b604082019050919050565b60006020820190508181036000830152614e6581614e29565b9050919050565b7f4552433732313a207472616e7366657220746f20746865207a65726f2061646460008201527f7265737300000000000000000000000000000000000000000000000000000000602082015250565b6000614ec860248361365e565b9150614ed382614e6c565b604082019050919050565b60006020820190508181036000830152614ef781614ebb565b9050919050565b6000614f0982613705565b9150614f1483613705565b9250828203905081811115614f2c57614f2b614218565b5b92915050565b7f4552433732313a207472616e7366657220746f206e6f6e20455243373231526560008201527f63656976657220696d706c656d656e7465720000000000000000000000000000602082015250565b6000614f8e60328361365e565b9150614f9982614f32565b604082019050919050565b60006020820190508181036000830152614fbd81614f81565b9050919050565b6000614fcf82613705565b91507fffffffffffffffffffffffffffffffffffffffffffffffffffffffffffffffff820361500157615000614218565b5b600182019050919050565b7f4e487b7100000000000000000000000000000000000000000000000000000000600052601260045260246000fd5b600061504682613705565b915061505183613705565b9250826150615761506061500c565b5b828204905092915050565b600061507782613705565b915061508283613705565b9250826150925761509161500c565b5b828206905092915050565b7f4552433732313a20617070726f766520746f2063616c6c657200000000000000600082015250565b60006150d360198361365e565b91506150de8261509d565b602082019050919050565b60006020820190508181036000830152615102816150c6565b9050919050565b7f4552433732313a206d696e7420746f20746865207a65726f2061646472657373600082015250565b600061513f60208361365e565b915061514a82615109565b602082019050919050565b6000602082019050818103600083015261516e81615132565b9050919050565b7f4552433732313a20746f6b656e20616c7265616479206d696e74656400000000600082015250565b60006151ab601c8361365e565b91506151b682615175565b602082019050919050565b600060208201905081810360008301526151da8161519e565b9050919050565b600081519050919050565b600082825260208201905092915050565b6000615208826151e1565b61521281856151ec565b935061522281856020860161366f565b61522b81613699565b840191505092915050565b600060808201905061524b600083018761379a565b615258602083018661379a565b61526560408301856138c9565b818103606083015261527781846151fd565b905095945050505050565b6000815190506152918161358a565b92915050565b6000602082840312156152ad576152ac613554565b5b60006152bb84828501615282565b9150509291505056fea26469706673582212203a83dfca97716c72abb0554e45f2bd8fbd5ca423180c5de11c1f1576fc41e99764736f6c63430008120033",
  "linkReferences": {},
  "deployedLinkReferences": {}
}